{
	"task1/AMM.sol": {
		"LPTokenWrapper": {
			"abi": [
				{
					"inputs": [
						{
							"internalType": "address",
							"name": "account",
							"type": "address"
						}
					],
					"name": "balanceOf",
					"outputs": [
						{
							"internalType": "uint256",
							"name": "",
							"type": "uint256"
						}
					],
					"stateMutability": "view",
					"type": "function"
				},
				{
					"inputs": [],
					"name": "lpt",
					"outputs": [
						{
							"internalType": "contract IBEP20",
							"name": "",
							"type": "address"
						}
					],
					"stateMutability": "view",
					"type": "function"
				},
				{
					"inputs": [
						{
							"internalType": "uint256",
							"name": "amount",
							"type": "uint256"
						}
					],
					"name": "stake",
					"outputs": [],
					"stateMutability": "nonpayable",
					"type": "function"
				},
				{
					"inputs": [],
					"name": "totalSupply",
					"outputs": [
						{
							"internalType": "uint256",
							"name": "",
							"type": "uint256"
						}
					],
					"stateMutability": "view",
					"type": "function"
				},
				{
					"inputs": [
						{
							"internalType": "uint256",
							"name": "amount",
							"type": "uint256"
						}
					],
					"name": "withdraw",
					"outputs": [],
					"stateMutability": "nonpayable",
					"type": "function"
				}
			],
			"devdoc": {
				"kind": "dev",
				"methods": {
					"balanceOf(address)": {
						"details": "返回账户余额",
						"params": {
							"account": "账户地址"
						},
						"returns": {
							"_0": "余额"
						}
					},
					"stake(uint256)": {
						"details": "把shushi抵押到Boardroom",
						"params": {
							"amount": "质押数量"
						}
					},
					"totalSupply()": {
						"details": "返回总量",
						"returns": {
							"_0": "总量"
						}
					},
					"withdraw(uint256)": {
						"details": "赎回LPToken",
						"params": {
							"amount": "赎回数量"
						}
					}
				},
				"stateVariables": {
					"_balances": {
						"details": "余额映射"
					},
					"_totalSupply": {
						"details": "质押总量"
					}
				},
				"title": "LP质押合约",
				"version": 1
			},
			"evm": {
				"assembly": "    /* \"task1/AMM.sol\":728:2500  contract LPTokenWrapper {... */\n  mstore(0x40, 0x80)\n  callvalue\n  dup1\n  iszero\n  tag_1\n  jumpi\n  0x00\n  dup1\n  revert\ntag_1:\n  pop\n  dataSize(sub_0)\n  dup1\n  dataOffset(sub_0)\n  0x00\n  codecopy\n  0x00\n  return\nstop\n\nsub_0: assembly {\n        /* \"task1/AMM.sol\":728:2500  contract LPTokenWrapper {... */\n      mstore(0x40, 0x80)\n      callvalue\n      dup1\n      iszero\n      tag_1\n      jumpi\n      0x00\n      dup1\n      revert\n    tag_1:\n      pop\n      jumpi(tag_2, lt(calldatasize, 0x04))\n      shr(0xe0, calldataload(0x00))\n      dup1\n      0x18160ddd\n      eq\n      tag_3\n      jumpi\n      dup1\n      0x2e1a7d4d\n      eq\n      tag_4\n      jumpi\n      dup1\n      0x70a08231\n      eq\n      tag_5\n      jumpi\n      dup1\n      0xa694fc3a\n      eq\n      tag_6\n      jumpi\n      dup1\n      0xce5fc8d0\n      eq\n      tag_7\n      jumpi\n    tag_2:\n      0x00\n      dup1\n      revert\n        /* \"task1/AMM.sol\":1106:1197  function totalSupply() public view returns (uint256) {... */\n    tag_3:\n      tag_8\n      tag_9\n      jump\t// in\n    tag_8:\n      mload(0x40)\n      tag_10\n      swap2\n      swap1\n      tag_11\n      jump\t// in\n    tag_10:\n      mload(0x40)\n      dup1\n      swap2\n      sub\n      swap1\n      return\n        /* \"task1/AMM.sol\":1952:2497  function withdraw(uint256 amount) public virtual {... */\n    tag_4:\n      tag_12\n      0x04\n      dup1\n      calldatasize\n      sub\n      dup2\n      add\n      swap1\n      tag_13\n      swap2\n      swap1\n      tag_14\n      jump\t// in\n    tag_13:\n      tag_15\n      jump\t// in\n    tag_12:\n      stop\n        /* \"task1/AMM.sol\":1314:1424  function balanceOf(address account) public view returns (uint256) {... */\n    tag_5:\n      tag_16\n      0x04\n      dup1\n      calldatasize\n      sub\n      dup2\n      add\n      swap1\n      tag_17\n      swap2\n      swap1\n      tag_18\n      jump\t// in\n    tag_17:\n      tag_19\n      jump\t// in\n    tag_16:\n      mload(0x40)\n      tag_20\n      swap2\n      swap1\n      tag_11\n      jump\t// in\n    tag_20:\n      mload(0x40)\n      dup1\n      swap2\n      sub\n      swap1\n      return\n        /* \"task1/AMM.sol\":1526:1864  function stake(uint256 amount) public virtual {... */\n    tag_6:\n      tag_21\n      0x04\n      dup1\n      calldatasize\n      sub\n      dup2\n      add\n      swap1\n      tag_22\n      swap2\n      swap1\n      tag_14\n      jump\t// in\n    tag_22:\n      tag_23\n      jump\t// in\n    tag_21:\n      stop\n        /* \"task1/AMM.sol\":870:887  IBEP20 public lpt */\n    tag_7:\n      tag_24\n      tag_25\n      jump\t// in\n    tag_24:\n      mload(0x40)\n      tag_26\n      swap2\n      swap1\n      tag_27\n      jump\t// in\n    tag_26:\n      mload(0x40)\n      dup1\n      swap2\n      sub\n      swap1\n      return\n        /* \"task1/AMM.sol\":1106:1197  function totalSupply() public view returns (uint256) {... */\n    tag_9:\n        /* \"task1/AMM.sol\":1150:1157  uint256 */\n      0x00\n        /* \"task1/AMM.sol\":1177:1189  _totalSupply */\n      sload(0x01)\n        /* \"task1/AMM.sol\":1170:1189  return _totalSupply */\n      swap1\n      pop\n        /* \"task1/AMM.sol\":1106:1197  function totalSupply() public view returns (uint256) {... */\n      swap1\n      jump\t// out\n        /* \"task1/AMM.sol\":1952:2497  function withdraw(uint256 amount) public virtual {... */\n    tag_15:\n        /* \"task1/AMM.sol\":2049:2070  uint256 directorShare */\n      0x00\n        /* \"task1/AMM.sol\":2073:2082  _balances */\n      0x02\n        /* \"task1/AMM.sol\":2073:2094  _balances[msg.sender] */\n      0x00\n        /* \"task1/AMM.sol\":2083:2093  msg.sender */\n      caller\n        /* \"task1/AMM.sol\":2073:2094  _balances[msg.sender] */\n      0xffffffffffffffffffffffffffffffffffffffff\n      and\n      0xffffffffffffffffffffffffffffffffffffffff\n      and\n      dup2\n      mstore\n      0x20\n      add\n      swap1\n      dup2\n      mstore\n      0x20\n      add\n      0x00\n      keccak256\n      sload\n        /* \"task1/AMM.sol\":2049:2094  uint256 directorShare = _balances[msg.sender] */\n      swap1\n      pop\n        /* \"task1/AMM.sol\":2182:2188  amount */\n      dup2\n        /* \"task1/AMM.sol\":2165:2178  directorShare */\n      dup2\n        /* \"task1/AMM.sol\":2165:2188  directorShare >= amount */\n      lt\n      iszero\n        /* \"task1/AMM.sol\":2157:2236  require(directorShare >= amount, 'withdraw request greater than staked amount') */\n      tag_30\n      jumpi\n      mload(0x40)\n      0x08c379a000000000000000000000000000000000000000000000000000000000\n      dup2\n      mstore\n      0x04\n      add\n      tag_31\n      swap1\n      tag_32\n      jump\t// in\n    tag_31:\n      mload(0x40)\n      dup1\n      swap2\n      sub\n      swap1\n      revert\n    tag_30:\n        /* \"task1/AMM.sol\":2287:2311  _totalSupply.sub(amount) */\n      tag_33\n        /* \"task1/AMM.sol\":2304:2310  amount */\n      dup3\n        /* \"task1/AMM.sol\":2287:2299  _totalSupply */\n      sload(0x01)\n        /* \"task1/AMM.sol\":2287:2303  _totalSupply.sub */\n      tag_34\n      swap1\n        /* \"task1/AMM.sol\":2287:2311  _totalSupply.sub(amount) */\n      swap2\n      swap1\n      0xffffffff\n      and\n      jump\t// in\n    tag_33:\n        /* \"task1/AMM.sol\":2272:2284  _totalSupply */\n      0x01\n        /* \"task1/AMM.sol\":2272:2311  _totalSupply = _totalSupply.sub(amount) */\n      dup2\n      swap1\n      sstore\n      pop\n        /* \"task1/AMM.sol\":2371:2404  _balances[msg.sender].sub(amount) */\n      tag_35\n        /* \"task1/AMM.sol\":2397:2403  amount */\n      dup3\n        /* \"task1/AMM.sol\":2371:2380  _balances */\n      0x02\n        /* \"task1/AMM.sol\":2371:2392  _balances[msg.sender] */\n      0x00\n        /* \"task1/AMM.sol\":2381:2391  msg.sender */\n      caller\n        /* \"task1/AMM.sol\":2371:2392  _balances[msg.sender] */\n      0xffffffffffffffffffffffffffffffffffffffff\n      and\n      0xffffffffffffffffffffffffffffffffffffffff\n      and\n      dup2\n      mstore\n      0x20\n      add\n      swap1\n      dup2\n      mstore\n      0x20\n      add\n      0x00\n      keccak256\n      sload\n        /* \"task1/AMM.sol\":2371:2396  _balances[msg.sender].sub */\n      tag_34\n      swap1\n        /* \"task1/AMM.sol\":2371:2404  _balances[msg.sender].sub(amount) */\n      swap2\n      swap1\n      0xffffffff\n      and\n      jump\t// in\n    tag_35:\n        /* \"task1/AMM.sol\":2347:2356  _balances */\n      0x02\n        /* \"task1/AMM.sol\":2347:2368  _balances[msg.sender] */\n      0x00\n        /* \"task1/AMM.sol\":2357:2367  msg.sender */\n      caller\n        /* \"task1/AMM.sol\":2347:2368  _balances[msg.sender] */\n      0xffffffffffffffffffffffffffffffffffffffff\n      and\n      0xffffffffffffffffffffffffffffffffffffffff\n      and\n      dup2\n      mstore\n      0x20\n      add\n      swap1\n      dup2\n      mstore\n      0x20\n      add\n      0x00\n      keccak256\n        /* \"task1/AMM.sol\":2347:2404  _balances[msg.sender] = _balances[msg.sender].sub(amount) */\n      dup2\n      swap1\n      sstore\n      pop\n        /* \"task1/AMM.sol\":2453:2489  lpt.safeTransfer(msg.sender, amount) */\n      tag_36\n        /* \"task1/AMM.sol\":2470:2480  msg.sender */\n      caller\n        /* \"task1/AMM.sol\":2482:2488  amount */\n      dup4\n        /* \"task1/AMM.sol\":2453:2456  lpt */\n      0x00\n      dup1\n      sload\n      swap1\n      0x0100\n      exp\n      swap1\n      div\n      0xffffffffffffffffffffffffffffffffffffffff\n      and\n        /* \"task1/AMM.sol\":2453:2469  lpt.safeTransfer */\n      0xffffffffffffffffffffffffffffffffffffffff\n      and\n      tag_37\n      swap1\n        /* \"task1/AMM.sol\":2453:2489  lpt.safeTransfer(msg.sender, amount) */\n      swap3\n      swap2\n      swap1\n      0xffffffff\n      and\n      jump\t// in\n    tag_36:\n        /* \"task1/AMM.sol\":2001:2497  {... */\n      pop\n        /* \"task1/AMM.sol\":1952:2497  function withdraw(uint256 amount) public virtual {... */\n      pop\n      jump\t// out\n        /* \"task1/AMM.sol\":1314:1424  function balanceOf(address account) public view returns (uint256) {... */\n    tag_19:\n        /* \"task1/AMM.sol\":1371:1378  uint256 */\n      0x00\n        /* \"task1/AMM.sol\":1398:1407  _balances */\n      0x02\n        /* \"task1/AMM.sol\":1398:1416  _balances[account] */\n      0x00\n        /* \"task1/AMM.sol\":1408:1415  account */\n      dup4\n        /* \"task1/AMM.sol\":1398:1416  _balances[account] */\n      0xffffffffffffffffffffffffffffffffffffffff\n      and\n      0xffffffffffffffffffffffffffffffffffffffff\n      and\n      dup2\n      mstore\n      0x20\n      add\n      swap1\n      dup2\n      mstore\n      0x20\n      add\n      0x00\n      keccak256\n      sload\n        /* \"task1/AMM.sol\":1391:1416  return _balances[account] */\n      swap1\n      pop\n        /* \"task1/AMM.sol\":1314:1424  function balanceOf(address account) public view returns (uint256) {... */\n      swap2\n      swap1\n      pop\n      jump\t// out\n        /* \"task1/AMM.sol\":1526:1864  function stake(uint256 amount) public virtual {... */\n    tag_23:\n        /* \"task1/AMM.sol\":1623:1647  _totalSupply.add(amount) */\n      tag_40\n        /* \"task1/AMM.sol\":1640:1646  amount */\n      dup2\n        /* \"task1/AMM.sol\":1623:1635  _totalSupply */\n      sload(0x01)\n        /* \"task1/AMM.sol\":1623:1639  _totalSupply.add */\n      tag_41\n      swap1\n        /* \"task1/AMM.sol\":1623:1647  _totalSupply.add(amount) */\n      swap2\n      swap1\n      0xffffffff\n      and\n      jump\t// in\n    tag_40:\n        /* \"task1/AMM.sol\":1608:1620  _totalSupply */\n      0x01\n        /* \"task1/AMM.sol\":1608:1647  _totalSupply = _totalSupply.add(amount) */\n      dup2\n      swap1\n      sstore\n      pop\n        /* \"task1/AMM.sol\":1713:1746  _balances[msg.sender].add(amount) */\n      tag_42\n        /* \"task1/AMM.sol\":1739:1745  amount */\n      dup2\n        /* \"task1/AMM.sol\":1713:1722  _balances */\n      0x02\n        /* \"task1/AMM.sol\":1713:1734  _balances[msg.sender] */\n      0x00\n        /* \"task1/AMM.sol\":1723:1733  msg.sender */\n      caller\n        /* \"task1/AMM.sol\":1713:1734  _balances[msg.sender] */\n      0xffffffffffffffffffffffffffffffffffffffff\n      and\n      0xffffffffffffffffffffffffffffffffffffffff\n      and\n      dup2\n      mstore\n      0x20\n      add\n      swap1\n      dup2\n      mstore\n      0x20\n      add\n      0x00\n      keccak256\n      sload\n        /* \"task1/AMM.sol\":1713:1738  _balances[msg.sender].add */\n      tag_41\n      swap1\n        /* \"task1/AMM.sol\":1713:1746  _balances[msg.sender].add(amount) */\n      swap2\n      swap1\n      0xffffffff\n      and\n      jump\t// in\n    tag_42:\n        /* \"task1/AMM.sol\":1689:1698  _balances */\n      0x02\n        /* \"task1/AMM.sol\":1689:1710  _balances[msg.sender] */\n      0x00\n        /* \"task1/AMM.sol\":1699:1709  msg.sender */\n      caller\n        /* \"task1/AMM.sol\":1689:1710  _balances[msg.sender] */\n      0xffffffffffffffffffffffffffffffffffffffff\n      and\n      0xffffffffffffffffffffffffffffffffffffffff\n      and\n      dup2\n      mstore\n      0x20\n      add\n      swap1\n      dup2\n      mstore\n      0x20\n      add\n      0x00\n      keccak256\n        /* \"task1/AMM.sol\":1689:1746  _balances[msg.sender] = _balances[msg.sender].add(amount) */\n      dup2\n      swap1\n      sstore\n      pop\n        /* \"task1/AMM.sol\":1801:1856  lpt.safeTransferFrom(msg.sender, address(this), amount) */\n      tag_43\n        /* \"task1/AMM.sol\":1822:1832  msg.sender */\n      caller\n        /* \"task1/AMM.sol\":1842:1846  this */\n      address\n        /* \"task1/AMM.sol\":1849:1855  amount */\n      dup4\n        /* \"task1/AMM.sol\":1801:1804  lpt */\n      0x00\n      dup1\n      sload\n      swap1\n      0x0100\n      exp\n      swap1\n      div\n      0xffffffffffffffffffffffffffffffffffffffff\n      and\n        /* \"task1/AMM.sol\":1801:1821  lpt.safeTransferFrom */\n      0xffffffffffffffffffffffffffffffffffffffff\n      and\n      tag_44\n      swap1\n        /* \"task1/AMM.sol\":1801:1856  lpt.safeTransferFrom(msg.sender, address(this), amount) */\n      swap4\n      swap3\n      swap2\n      swap1\n      0xffffffff\n      and\n      jump\t// in\n    tag_43:\n        /* \"task1/AMM.sol\":1526:1864  function stake(uint256 amount) public virtual {... */\n      pop\n      jump\t// out\n        /* \"task1/AMM.sol\":870:887  IBEP20 public lpt */\n    tag_25:\n      0x00\n      dup1\n      sload\n      swap1\n      0x0100\n      exp\n      swap1\n      div\n      0xffffffffffffffffffffffffffffffffffffffff\n      and\n      dup2\n      jump\t// out\n        /* \"task1/utils.sol\":3643:3741  function sub(uint256 a, uint256 b) internal pure returns (uint256) {... */\n    tag_34:\n        /* \"task1/utils.sol\":3701:3708  uint256 */\n      0x00\n        /* \"task1/utils.sol\":3732:3733  b */\n      dup2\n        /* \"task1/utils.sol\":3728:3729  a */\n      dup4\n        /* \"task1/utils.sol\":3728:3733  a - b */\n      tag_46\n      swap2\n      swap1\n      tag_47\n      jump\t// in\n    tag_46:\n        /* \"task1/utils.sol\":3721:3733  return a - b */\n      swap1\n      pop\n        /* \"task1/utils.sol\":3643:3741  function sub(uint256 a, uint256 b) internal pure returns (uint256) {... */\n      swap3\n      swap2\n      pop\n      pop\n      jump\t// out\n        /* \"task1/utils.sol\":14583:14797  function safeTransfer(IBEP20 token, address to, uint256 value) internal {... */\n    tag_37:\n        /* \"task1/utils.sol\":14666:14789  _callOptionalReturn(... */\n      tag_49\n        /* \"task1/utils.sol\":14700:14705  token */\n      dup4\n        /* \"task1/utils.sol\":14743:14766  token.transfer.selector */\n      shl(0xe0, 0xa9059cbb)\n        /* \"task1/utils.sol\":14768:14770  to */\n      dup5\n        /* \"task1/utils.sol\":14772:14777  value */\n      dup5\n        /* \"task1/utils.sol\":14720:14778  abi.encodeWithSelector(token.transfer.selector, to, value) */\n      add(0x24, mload(0x40))\n      tag_50\n      swap3\n      swap2\n      swap1\n      tag_51\n      jump\t// in\n    tag_50:\n      mload(0x40)\n      0x20\n      dup2\n      dup4\n      sub\n      sub\n      dup2\n      mstore\n      swap1\n      0x40\n      mstore\n      swap1\n      not(0xffffffffffffffffffffffffffffffffffffffffffffffffffffffff)\n      and\n      0x20\n      dup3\n      add\n      dup1\n      mload\n      0xffffffffffffffffffffffffffffffffffffffffffffffffffffffff\n      dup4\n      dup2\n      dup4\n      and\n      or\n      dup4\n      mstore\n      pop\n      pop\n      pop\n      pop\n        /* \"task1/utils.sol\":14666:14685  _callOptionalReturn */\n      tag_52\n        /* \"task1/utils.sol\":14666:14789  _callOptionalReturn(... */\n      jump\t// in\n    tag_49:\n        /* \"task1/utils.sol\":14583:14797  function safeTransfer(IBEP20 token, address to, uint256 value) internal {... */\n      pop\n      pop\n      pop\n      jump\t// out\n        /* \"task1/utils.sol\":3262:3360  function add(uint256 a, uint256 b) internal pure returns (uint256) {... */\n    tag_41:\n        /* \"task1/utils.sol\":3320:3327  uint256 */\n      0x00\n        /* \"task1/utils.sol\":3351:3352  b */\n      dup2\n        /* \"task1/utils.sol\":3347:3348  a */\n      dup4\n        /* \"task1/utils.sol\":3347:3352  a + b */\n      tag_54\n      swap2\n      swap1\n      tag_55\n      jump\t// in\n    tag_54:\n        /* \"task1/utils.sol\":3340:3352  return a + b */\n      swap1\n      pop\n        /* \"task1/utils.sol\":3262:3360  function add(uint256 a, uint256 b) internal pure returns (uint256) {... */\n      swap3\n      swap2\n      pop\n      pop\n      jump\t// out\n        /* \"task1/utils.sol\":14805:15090  function safeTransferFrom(... */\n    tag_44:\n        /* \"task1/utils.sol\":14949:15082  _callOptionalReturn(... */\n      tag_57\n        /* \"task1/utils.sol\":14983:14988  token */\n      dup5\n        /* \"task1/utils.sol\":15026:15053  token.transferFrom.selector */\n      shl(0xe0, 0x23b872dd)\n        /* \"task1/utils.sol\":15055:15059  from */\n      dup6\n        /* \"task1/utils.sol\":15061:15063  to */\n      dup6\n        /* \"task1/utils.sol\":15065:15070  value */\n      dup6\n        /* \"task1/utils.sol\":15003:15071  abi.encodeWithSelector(token.transferFrom.selector, from, to, value) */\n      add(0x24, mload(0x40))\n      tag_58\n      swap4\n      swap3\n      swap2\n      swap1\n      tag_59\n      jump\t// in\n    tag_58:\n      mload(0x40)\n      0x20\n      dup2\n      dup4\n      sub\n      sub\n      dup2\n      mstore\n      swap1\n      0x40\n      mstore\n      swap1\n      not(0xffffffffffffffffffffffffffffffffffffffffffffffffffffffff)\n      and\n      0x20\n      dup3\n      add\n      dup1\n      mload\n      0xffffffffffffffffffffffffffffffffffffffffffffffffffffffff\n      dup4\n      dup2\n      dup4\n      and\n      or\n      dup4\n      mstore\n      pop\n      pop\n      pop\n      pop\n        /* \"task1/utils.sol\":14949:14968  _callOptionalReturn */\n      tag_52\n        /* \"task1/utils.sol\":14949:15082  _callOptionalReturn(... */\n      jump\t// in\n    tag_57:\n        /* \"task1/utils.sol\":14805:15090  function safeTransferFrom(... */\n      pop\n      pop\n      pop\n      pop\n      jump\t// out\n        /* \"task1/utils.sol\":17425:18285  function _callOptionalReturn(IBEP20 token, bytes memory data) private {... */\n    tag_52:\n        /* \"task1/utils.sol\":17849:17872  bytes memory returndata */\n      0x00\n        /* \"task1/utils.sol\":17875:17981  address(token).functionCall(... */\n      tag_61\n        /* \"task1/utils.sol\":17917:17921  data */\n      dup3\n        /* \"task1/utils.sol\":17875:17981  address(token).functionCall(... */\n      mload(0x40)\n      dup1\n      0x40\n      add\n      0x40\n      mstore\n      dup1\n      0x20\n      dup2\n      mstore\n      0x20\n      add\n      0x5361666542455032303a206c6f772d6c6576656c2063616c6c206661696c6564\n      dup2\n      mstore\n      pop\n        /* \"task1/utils.sol\":17883:17888  token */\n      dup6\n        /* \"task1/utils.sol\":17875:17902  address(token).functionCall */\n      0xffffffffffffffffffffffffffffffffffffffff\n      and\n      tag_62\n      swap1\n        /* \"task1/utils.sol\":17875:17981  address(token).functionCall(... */\n      swap3\n      swap2\n      swap1\n      0xffffffff\n      and\n      jump\t// in\n    tag_61:\n        /* \"task1/utils.sol\":17849:17981  bytes memory returndata = address(token).functionCall(... */\n      swap1\n      pop\n        /* \"task1/utils.sol\":18016:18017  0 */\n      0x00\n        /* \"task1/utils.sol\":17996:18006  returndata */\n      dup2\n        /* \"task1/utils.sol\":17996:18013  returndata.length */\n      mload\n        /* \"task1/utils.sol\":17996:18017  returndata.length > 0 */\n      gt\n        /* \"task1/utils.sol\":17992:18278  if (returndata.length > 0) {... */\n      iszero\n      tag_63\n      jumpi\n        /* \"task1/utils.sol\":18169:18179  returndata */\n      dup1\n        /* \"task1/utils.sol\":18158:18188  abi.decode(returndata, (bool)) */\n      dup1\n      0x20\n      add\n      swap1\n      mload\n      dup2\n      add\n      swap1\n      tag_64\n      swap2\n      swap1\n      tag_65\n      jump\t// in\n    tag_64:\n        /* \"task1/utils.sol\":18132:18266  require(... */\n      tag_66\n      jumpi\n      mload(0x40)\n      0x08c379a000000000000000000000000000000000000000000000000000000000\n      dup2\n      mstore\n      0x04\n      add\n      tag_67\n      swap1\n      tag_68\n      jump\t// in\n    tag_67:\n      mload(0x40)\n      dup1\n      swap2\n      sub\n      swap1\n      revert\n    tag_66:\n        /* \"task1/utils.sol\":17992:18278  if (returndata.length > 0) {... */\n    tag_63:\n        /* \"task1/utils.sol\":17495:18285  {... */\n      pop\n        /* \"task1/utils.sol\":17425:18285  function _callOptionalReturn(IBEP20 token, bytes memory data) private {... */\n      pop\n      pop\n      jump\t// out\n        /* \"task1/utils.sol\":11348:11578  function functionCall(... */\n    tag_62:\n        /* \"task1/utils.sol\":11485:11497  bytes memory */\n      0x60\n        /* \"task1/utils.sol\":11517:11570  _functionCallWithValue(target, data, 0, errorMessage) */\n      tag_70\n        /* \"task1/utils.sol\":11540:11546  target */\n      dup5\n        /* \"task1/utils.sol\":11548:11552  data */\n      dup5\n        /* \"task1/utils.sol\":11554:11555  0 */\n      0x00\n        /* \"task1/utils.sol\":11557:11569  errorMessage */\n      dup6\n        /* \"task1/utils.sol\":11517:11539  _functionCallWithValue */\n      tag_71\n        /* \"task1/utils.sol\":11517:11570  _functionCallWithValue(target, data, 0, errorMessage) */\n      jump\t// in\n    tag_70:\n        /* \"task1/utils.sol\":11510:11570  return _functionCallWithValue(target, data, 0, errorMessage) */\n      swap1\n      pop\n        /* \"task1/utils.sol\":11348:11578  function functionCall(... */\n      swap4\n      swap3\n      pop\n      pop\n      pop\n      jump\t// out\n        /* \"task1/utils.sol\":12969:14013  function _functionCallWithValue(... */\n    tag_71:\n        /* \"task1/utils.sol\":13142:13154  bytes memory */\n      0x60\n        /* \"task1/utils.sol\":13175:13193  isContract(target) */\n      tag_73\n        /* \"task1/utils.sol\":13186:13192  target */\n      dup6\n        /* \"task1/utils.sol\":13175:13185  isContract */\n      tag_74\n        /* \"task1/utils.sol\":13175:13193  isContract(target) */\n      jump\t// in\n    tag_73:\n        /* \"task1/utils.sol\":13167:13227  require(isContract(target), \"Address: call to non-contract\") */\n      tag_75\n      jumpi\n      mload(0x40)\n      0x08c379a000000000000000000000000000000000000000000000000000000000\n      dup2\n      mstore\n      0x04\n      add\n      tag_76\n      swap1\n      tag_77\n      jump\t// in\n    tag_76:\n      mload(0x40)\n      dup1\n      swap2\n      sub\n      swap1\n      revert\n    tag_75:\n        /* \"task1/utils.sol\":13301:13313  bool success */\n      0x00\n        /* \"task1/utils.sol\":13315:13338  bytes memory returndata */\n      dup1\n        /* \"task1/utils.sol\":13342:13348  target */\n      dup7\n        /* \"task1/utils.sol\":13342:13353  target.call */\n      0xffffffffffffffffffffffffffffffffffffffff\n      and\n        /* \"task1/utils.sol\":13361:13369  weiValue */\n      dup6\n        /* \"task1/utils.sol\":13385:13389  data */\n      dup8\n        /* \"task1/utils.sol\":13342:13400  target.call{value: weiValue}(... */\n      mload(0x40)\n      tag_78\n      swap2\n      swap1\n      tag_79\n      jump\t// in\n    tag_78:\n      0x00\n      mload(0x40)\n      dup1\n      dup4\n      sub\n      dup2\n      dup6\n      dup8\n      gas\n      call\n      swap3\n      pop\n      pop\n      pop\n      returndatasize\n      dup1\n      0x00\n      dup2\n      eq\n      tag_82\n      jumpi\n      mload(0x40)\n      swap2\n      pop\n      and(add(returndatasize, 0x3f), not(0x1f))\n      dup3\n      add\n      0x40\n      mstore\n      returndatasize\n      dup3\n      mstore\n      returndatasize\n      0x00\n      0x20\n      dup5\n      add\n      returndatacopy\n      jump(tag_81)\n    tag_82:\n      0x60\n      swap2\n      pop\n    tag_81:\n      pop\n        /* \"task1/utils.sol\":13300:13400  (bool success, bytes memory returndata) = target.call{value: weiValue}(... */\n      swap2\n      pop\n      swap2\n      pop\n        /* \"task1/utils.sol\":13415:13422  success */\n      dup2\n        /* \"task1/utils.sol\":13411:14006  if (success) {... */\n      iszero\n      tag_83\n      jumpi\n        /* \"task1/utils.sol\":13446:13456  returndata */\n      dup1\n        /* \"task1/utils.sol\":13439:13456  return returndata */\n      swap3\n      pop\n      pop\n      pop\n      jump(tag_72)\n        /* \"task1/utils.sol\":13411:14006  if (success) {... */\n    tag_83:\n        /* \"task1/utils.sol\":13580:13581  0 */\n      0x00\n        /* \"task1/utils.sol\":13560:13570  returndata */\n      dup2\n        /* \"task1/utils.sol\":13560:13577  returndata.length */\n      mload\n        /* \"task1/utils.sol\":13560:13581  returndata.length > 0 */\n      gt\n        /* \"task1/utils.sol\":13556:13995  if (returndata.length > 0) {... */\n      iszero\n      tag_85\n      jumpi\n        /* \"task1/utils.sol\":13823:13833  returndata */\n      dup1\n        /* \"task1/utils.sol\":13817:13834  mload(returndata) */\n      mload\n        /* \"task1/utils.sol\":13884:13899  returndata_size */\n      dup1\n        /* \"task1/utils.sol\":13871:13881  returndata */\n      dup3\n        /* \"task1/utils.sol\":13867:13869  32 */\n      0x20\n        /* \"task1/utils.sol\":13863:13882  add(32, returndata) */\n      add\n        /* \"task1/utils.sol\":13856:13900  revert(add(32, returndata), returndata_size) */\n      revert\n        /* \"task1/utils.sol\":13556:13995  if (returndata.length > 0) {... */\n    tag_85:\n        /* \"task1/utils.sol\":13966:13978  errorMessage */\n      dup4\n        /* \"task1/utils.sol\":13959:13979  revert(errorMessage) */\n      mload(0x40)\n      0x08c379a000000000000000000000000000000000000000000000000000000000\n      dup2\n      mstore\n      0x04\n      add\n      tag_87\n      swap2\n      swap1\n      tag_88\n      jump\t// in\n    tag_87:\n      mload(0x40)\n      dup1\n      swap2\n      sub\n      swap1\n      revert\n        /* \"task1/utils.sol\":12969:14013  function _functionCallWithValue(... */\n    tag_72:\n      swap5\n      swap4\n      pop\n      pop\n      pop\n      pop\n      jump\t// out\n        /* \"task1/utils.sol\":8112:8753  function isContract(address account) internal view returns (bool) {... */\n    tag_74:\n        /* \"task1/utils.sol\":8172:8176  bool */\n      0x00\n        /* \"task1/utils.sol\":8434:8450  bytes32 codehash */\n      dup1\n        /* \"task1/utils.sol\":8461:8480  bytes32 accountHash */\n      0x00\n        /* \"task1/utils.sol\":8483:8549  0xc5d2460186f7233c927e7db2dcc703c0e500b653ca82273b7bfad8045d85a470 */\n      0xc5d2460186f7233c927e7db2dcc703c0e500b653ca82273b7bfad8045d85a470\n        /* \"task1/utils.sol\":8461:8549  bytes32 accountHash = 0xc5d2460186f7233c927e7db2dcc703c0e500b653ca82273b7bfad8045d85a470 */\n      0x00\n      shl\n      swap1\n      pop\n        /* \"task1/utils.sol\":8665:8672  account */\n      dup4\n        /* \"task1/utils.sol\":8653:8673  extcodehash(account) */\n      extcodehash\n        /* \"task1/utils.sol\":8641:8673  codehash := extcodehash(account) */\n      swap2\n      pop\n        /* \"task1/utils.sol\":8714:8725  accountHash */\n      dup1\n        /* \"task1/utils.sol\":8702:8710  codehash */\n      dup3\n        /* \"task1/utils.sol\":8702:8725  codehash != accountHash */\n      eq\n      iszero\n        /* \"task1/utils.sol\":8702:8744  codehash != accountHash && codehash != 0x0 */\n      dup1\n      iszero\n      tag_90\n      jumpi\n      pop\n        /* \"task1/utils.sol\":8741:8744  0x0 */\n      0x00\n        /* \"task1/utils.sol\":8729:8744  codehash != 0x0 */\n      dup1\n      shl\n        /* \"task1/utils.sol\":8729:8737  codehash */\n      dup3\n        /* \"task1/utils.sol\":8729:8744  codehash != 0x0 */\n      eq\n      iszero\n        /* \"task1/utils.sol\":8702:8744  codehash != accountHash && codehash != 0x0 */\n    tag_90:\n        /* \"task1/utils.sol\":8694:8745  return (codehash != accountHash && codehash != 0x0) */\n      swap3\n      pop\n      pop\n      pop\n        /* \"task1/utils.sol\":8112:8753  function isContract(address account) internal view returns (bool) {... */\n      swap2\n      swap1\n      pop\n      jump\t// out\n        /* \"#utility.yul\":7:84   */\n    tag_91:\n        /* \"#utility.yul\":44:51   */\n      0x00\n        /* \"#utility.yul\":73:78   */\n      dup2\n        /* \"#utility.yul\":62:78   */\n      swap1\n      pop\n        /* \"#utility.yul\":7:84   */\n      swap2\n      swap1\n      pop\n      jump\t// out\n        /* \"#utility.yul\":90:208   */\n    tag_92:\n        /* \"#utility.yul\":177:201   */\n      tag_129\n        /* \"#utility.yul\":195:200   */\n      dup2\n        /* \"#utility.yul\":177:201   */\n      tag_91\n      jump\t// in\n    tag_129:\n        /* \"#utility.yul\":172:175   */\n      dup3\n        /* \"#utility.yul\":165:202   */\n      mstore\n        /* \"#utility.yul\":90:208   */\n      pop\n      pop\n      jump\t// out\n        /* \"#utility.yul\":214:436   */\n    tag_11:\n        /* \"#utility.yul\":307:311   */\n      0x00\n        /* \"#utility.yul\":345:347   */\n      0x20\n        /* \"#utility.yul\":334:343   */\n      dup3\n        /* \"#utility.yul\":330:348   */\n      add\n        /* \"#utility.yul\":322:348   */\n      swap1\n      pop\n        /* \"#utility.yul\":358:429   */\n      tag_131\n        /* \"#utility.yul\":426:427   */\n      0x00\n        /* \"#utility.yul\":415:424   */\n      dup4\n        /* \"#utility.yul\":411:428   */\n      add\n        /* \"#utility.yul\":402:408   */\n      dup5\n        /* \"#utility.yul\":358:429   */\n      tag_92\n      jump\t// in\n    tag_131:\n        /* \"#utility.yul\":214:436   */\n      swap3\n      swap2\n      pop\n      pop\n      jump\t// out\n        /* \"#utility.yul\":523:640   */\n    tag_94:\n        /* \"#utility.yul\":632:633   */\n      0x00\n        /* \"#utility.yul\":629:630   */\n      dup1\n        /* \"#utility.yul\":622:634   */\n      revert\n        /* \"#utility.yul\":769:891   */\n    tag_96:\n        /* \"#utility.yul\":842:866   */\n      tag_136\n        /* \"#utility.yul\":860:865   */\n      dup2\n        /* \"#utility.yul\":842:866   */\n      tag_91\n      jump\t// in\n    tag_136:\n        /* \"#utility.yul\":835:840   */\n      dup2\n        /* \"#utility.yul\":832:867   */\n      eq\n        /* \"#utility.yul\":822:885   */\n      tag_137\n      jumpi\n        /* \"#utility.yul\":881:882   */\n      0x00\n        /* \"#utility.yul\":878:879   */\n      dup1\n        /* \"#utility.yul\":871:883   */\n      revert\n        /* \"#utility.yul\":822:885   */\n    tag_137:\n        /* \"#utility.yul\":769:891   */\n      pop\n      jump\t// out\n        /* \"#utility.yul\":897:1036   */\n    tag_97:\n        /* \"#utility.yul\":943:948   */\n      0x00\n        /* \"#utility.yul\":981:987   */\n      dup2\n        /* \"#utility.yul\":968:988   */\n      calldataload\n        /* \"#utility.yul\":959:988   */\n      swap1\n      pop\n        /* \"#utility.yul\":997:1030   */\n      tag_139\n        /* \"#utility.yul\":1024:1029   */\n      dup2\n        /* \"#utility.yul\":997:1030   */\n      tag_96\n      jump\t// in\n    tag_139:\n        /* \"#utility.yul\":897:1036   */\n      swap3\n      swap2\n      pop\n      pop\n      jump\t// out\n        /* \"#utility.yul\":1042:1371   */\n    tag_14:\n        /* \"#utility.yul\":1101:1107   */\n      0x00\n        /* \"#utility.yul\":1150:1152   */\n      0x20\n        /* \"#utility.yul\":1138:1147   */\n      dup3\n        /* \"#utility.yul\":1129:1136   */\n      dup5\n        /* \"#utility.yul\":1125:1148   */\n      sub\n        /* \"#utility.yul\":1121:1153   */\n      slt\n        /* \"#utility.yul\":1118:1237   */\n      iszero\n      tag_141\n      jumpi\n        /* \"#utility.yul\":1156:1235   */\n      tag_142\n      tag_94\n      jump\t// in\n    tag_142:\n        /* \"#utility.yul\":1118:1237   */\n    tag_141:\n        /* \"#utility.yul\":1276:1277   */\n      0x00\n        /* \"#utility.yul\":1301:1354   */\n      tag_143\n        /* \"#utility.yul\":1346:1353   */\n      dup5\n        /* \"#utility.yul\":1337:1343   */\n      dup3\n        /* \"#utility.yul\":1326:1335   */\n      dup6\n        /* \"#utility.yul\":1322:1344   */\n      add\n        /* \"#utility.yul\":1301:1354   */\n      tag_97\n      jump\t// in\n    tag_143:\n        /* \"#utility.yul\":1291:1354   */\n      swap2\n      pop\n        /* \"#utility.yul\":1247:1364   */\n      pop\n        /* \"#utility.yul\":1042:1371   */\n      swap3\n      swap2\n      pop\n      pop\n      jump\t// out\n        /* \"#utility.yul\":1377:1503   */\n    tag_98:\n        /* \"#utility.yul\":1414:1421   */\n      0x00\n        /* \"#utility.yul\":1454:1496   */\n      0xffffffffffffffffffffffffffffffffffffffff\n        /* \"#utility.yul\":1447:1452   */\n      dup3\n        /* \"#utility.yul\":1443:1497   */\n      and\n        /* \"#utility.yul\":1432:1497   */\n      swap1\n      pop\n        /* \"#utility.yul\":1377:1503   */\n      swap2\n      swap1\n      pop\n      jump\t// out\n        /* \"#utility.yul\":1509:1605   */\n    tag_99:\n        /* \"#utility.yul\":1546:1553   */\n      0x00\n        /* \"#utility.yul\":1575:1599   */\n      tag_146\n        /* \"#utility.yul\":1593:1598   */\n      dup3\n        /* \"#utility.yul\":1575:1599   */\n      tag_98\n      jump\t// in\n    tag_146:\n        /* \"#utility.yul\":1564:1599   */\n      swap1\n      pop\n        /* \"#utility.yul\":1509:1605   */\n      swap2\n      swap1\n      pop\n      jump\t// out\n        /* \"#utility.yul\":1611:1733   */\n    tag_100:\n        /* \"#utility.yul\":1684:1708   */\n      tag_148\n        /* \"#utility.yul\":1702:1707   */\n      dup2\n        /* \"#utility.yul\":1684:1708   */\n      tag_99\n      jump\t// in\n    tag_148:\n        /* \"#utility.yul\":1677:1682   */\n      dup2\n        /* \"#utility.yul\":1674:1709   */\n      eq\n        /* \"#utility.yul\":1664:1727   */\n      tag_149\n      jumpi\n        /* \"#utility.yul\":1723:1724   */\n      0x00\n        /* \"#utility.yul\":1720:1721   */\n      dup1\n        /* \"#utility.yul\":1713:1725   */\n      revert\n        /* \"#utility.yul\":1664:1727   */\n    tag_149:\n        /* \"#utility.yul\":1611:1733   */\n      pop\n      jump\t// out\n        /* \"#utility.yul\":1739:1878   */\n    tag_101:\n        /* \"#utility.yul\":1785:1790   */\n      0x00\n        /* \"#utility.yul\":1823:1829   */\n      dup2\n        /* \"#utility.yul\":1810:1830   */\n      calldataload\n        /* \"#utility.yul\":1801:1830   */\n      swap1\n      pop\n        /* \"#utility.yul\":1839:1872   */\n      tag_151\n        /* \"#utility.yul\":1866:1871   */\n      dup2\n        /* \"#utility.yul\":1839:1872   */\n      tag_100\n      jump\t// in\n    tag_151:\n        /* \"#utility.yul\":1739:1878   */\n      swap3\n      swap2\n      pop\n      pop\n      jump\t// out\n        /* \"#utility.yul\":1884:2213   */\n    tag_18:\n        /* \"#utility.yul\":1943:1949   */\n      0x00\n        /* \"#utility.yul\":1992:1994   */\n      0x20\n        /* \"#utility.yul\":1980:1989   */\n      dup3\n        /* \"#utility.yul\":1971:1978   */\n      dup5\n        /* \"#utility.yul\":1967:1990   */\n      sub\n        /* \"#utility.yul\":1963:1995   */\n      slt\n        /* \"#utility.yul\":1960:2079   */\n      iszero\n      tag_153\n      jumpi\n        /* \"#utility.yul\":1998:2077   */\n      tag_154\n      tag_94\n      jump\t// in\n    tag_154:\n        /* \"#utility.yul\":1960:2079   */\n    tag_153:\n        /* \"#utility.yul\":2118:2119   */\n      0x00\n        /* \"#utility.yul\":2143:2196   */\n      tag_155\n        /* \"#utility.yul\":2188:2195   */\n      dup5\n        /* \"#utility.yul\":2179:2185   */\n      dup3\n        /* \"#utility.yul\":2168:2177   */\n      dup6\n        /* \"#utility.yul\":2164:2186   */\n      add\n        /* \"#utility.yul\":2143:2196   */\n      tag_101\n      jump\t// in\n    tag_155:\n        /* \"#utility.yul\":2133:2196   */\n      swap2\n      pop\n        /* \"#utility.yul\":2089:2206   */\n      pop\n        /* \"#utility.yul\":1884:2213   */\n      swap3\n      swap2\n      pop\n      pop\n      jump\t// out\n        /* \"#utility.yul\":2219:2279   */\n    tag_102:\n        /* \"#utility.yul\":2247:2250   */\n      0x00\n        /* \"#utility.yul\":2268:2273   */\n      dup2\n        /* \"#utility.yul\":2261:2273   */\n      swap1\n      pop\n        /* \"#utility.yul\":2219:2279   */\n      swap2\n      swap1\n      pop\n      jump\t// out\n        /* \"#utility.yul\":2285:2427   */\n    tag_103:\n        /* \"#utility.yul\":2335:2344   */\n      0x00\n        /* \"#utility.yul\":2368:2421   */\n      tag_158\n        /* \"#utility.yul\":2386:2420   */\n      tag_159\n        /* \"#utility.yul\":2395:2419   */\n      tag_160\n        /* \"#utility.yul\":2413:2418   */\n      dup5\n        /* \"#utility.yul\":2395:2419   */\n      tag_98\n      jump\t// in\n    tag_160:\n        /* \"#utility.yul\":2386:2420   */\n      tag_102\n      jump\t// in\n    tag_159:\n        /* \"#utility.yul\":2368:2421   */\n      tag_98\n      jump\t// in\n    tag_158:\n        /* \"#utility.yul\":2355:2421   */\n      swap1\n      pop\n        /* \"#utility.yul\":2285:2427   */\n      swap2\n      swap1\n      pop\n      jump\t// out\n        /* \"#utility.yul\":2433:2559   */\n    tag_104:\n        /* \"#utility.yul\":2483:2492   */\n      0x00\n        /* \"#utility.yul\":2516:2553   */\n      tag_162\n        /* \"#utility.yul\":2547:2552   */\n      dup3\n        /* \"#utility.yul\":2516:2553   */\n      tag_103\n      jump\t// in\n    tag_162:\n        /* \"#utility.yul\":2503:2553   */\n      swap1\n      pop\n        /* \"#utility.yul\":2433:2559   */\n      swap2\n      swap1\n      pop\n      jump\t// out\n        /* \"#utility.yul\":2565:2706   */\n    tag_105:\n        /* \"#utility.yul\":2630:2639   */\n      0x00\n        /* \"#utility.yul\":2663:2700   */\n      tag_164\n        /* \"#utility.yul\":2694:2699   */\n      dup3\n        /* \"#utility.yul\":2663:2700   */\n      tag_104\n      jump\t// in\n    tag_164:\n        /* \"#utility.yul\":2650:2700   */\n      swap1\n      pop\n        /* \"#utility.yul\":2565:2706   */\n      swap2\n      swap1\n      pop\n      jump\t// out\n        /* \"#utility.yul\":2712:2873   */\n    tag_106:\n        /* \"#utility.yul\":2814:2866   */\n      tag_166\n        /* \"#utility.yul\":2860:2865   */\n      dup2\n        /* \"#utility.yul\":2814:2866   */\n      tag_105\n      jump\t// in\n    tag_166:\n        /* \"#utility.yul\":2809:2812   */\n      dup3\n        /* \"#utility.yul\":2802:2867   */\n      mstore\n        /* \"#utility.yul\":2712:2873   */\n      pop\n      pop\n      jump\t// out\n        /* \"#utility.yul\":2879:3131   */\n    tag_27:\n        /* \"#utility.yul\":2987:2991   */\n      0x00\n        /* \"#utility.yul\":3025:3027   */\n      0x20\n        /* \"#utility.yul\":3014:3023   */\n      dup3\n        /* \"#utility.yul\":3010:3028   */\n      add\n        /* \"#utility.yul\":3002:3028   */\n      swap1\n      pop\n        /* \"#utility.yul\":3038:3124   */\n      tag_168\n        /* \"#utility.yul\":3121:3122   */\n      0x00\n        /* \"#utility.yul\":3110:3119   */\n      dup4\n        /* \"#utility.yul\":3106:3123   */\n      add\n        /* \"#utility.yul\":3097:3103   */\n      dup5\n        /* \"#utility.yul\":3038:3124   */\n      tag_106\n      jump\t// in\n    tag_168:\n        /* \"#utility.yul\":2879:3131   */\n      swap3\n      swap2\n      pop\n      pop\n      jump\t// out\n        /* \"#utility.yul\":3137:3306   */\n    tag_107:\n        /* \"#utility.yul\":3221:3232   */\n      0x00\n        /* \"#utility.yul\":3255:3261   */\n      dup3\n        /* \"#utility.yul\":3250:3253   */\n      dup3\n        /* \"#utility.yul\":3243:3262   */\n      mstore\n        /* \"#utility.yul\":3295:3299   */\n      0x20\n        /* \"#utility.yul\":3290:3293   */\n      dup3\n        /* \"#utility.yul\":3286:3300   */\n      add\n        /* \"#utility.yul\":3271:3300   */\n      swap1\n      pop\n        /* \"#utility.yul\":3137:3306   */\n      swap3\n      swap2\n      pop\n      pop\n      jump\t// out\n        /* \"#utility.yul\":3312:3542   */\n    tag_108:\n        /* \"#utility.yul\":3452:3486   */\n      0x776974686472617720726571756573742067726561746572207468616e207374\n        /* \"#utility.yul\":3448:3449   */\n      0x00\n        /* \"#utility.yul\":3440:3446   */\n      dup3\n        /* \"#utility.yul\":3436:3450   */\n      add\n        /* \"#utility.yul\":3429:3487   */\n      mstore\n        /* \"#utility.yul\":3521:3534   */\n      0x616b656420616d6f756e74000000000000000000000000000000000000000000\n        /* \"#utility.yul\":3516:3518   */\n      0x20\n        /* \"#utility.yul\":3508:3514   */\n      dup3\n        /* \"#utility.yul\":3504:3519   */\n      add\n        /* \"#utility.yul\":3497:3535   */\n      mstore\n        /* \"#utility.yul\":3312:3542   */\n      pop\n      jump\t// out\n        /* \"#utility.yul\":3548:3914   */\n    tag_109:\n        /* \"#utility.yul\":3690:3693   */\n      0x00\n        /* \"#utility.yul\":3711:3778   */\n      tag_172\n        /* \"#utility.yul\":3775:3777   */\n      0x2b\n        /* \"#utility.yul\":3770:3773   */\n      dup4\n        /* \"#utility.yul\":3711:3778   */\n      tag_107\n      jump\t// in\n    tag_172:\n        /* \"#utility.yul\":3704:3778   */\n      swap2\n      pop\n        /* \"#utility.yul\":3787:3880   */\n      tag_173\n        /* \"#utility.yul\":3876:3879   */\n      dup3\n        /* \"#utility.yul\":3787:3880   */\n      tag_108\n      jump\t// in\n    tag_173:\n        /* \"#utility.yul\":3905:3907   */\n      0x40\n        /* \"#utility.yul\":3900:3903   */\n      dup3\n        /* \"#utility.yul\":3896:3908   */\n      add\n        /* \"#utility.yul\":3889:3908   */\n      swap1\n      pop\n        /* \"#utility.yul\":3548:3914   */\n      swap2\n      swap1\n      pop\n      jump\t// out\n        /* \"#utility.yul\":3920:4339   */\n    tag_32:\n        /* \"#utility.yul\":4086:4090   */\n      0x00\n        /* \"#utility.yul\":4124:4126   */\n      0x20\n        /* \"#utility.yul\":4113:4122   */\n      dup3\n        /* \"#utility.yul\":4109:4127   */\n      add\n        /* \"#utility.yul\":4101:4127   */\n      swap1\n      pop\n        /* \"#utility.yul\":4173:4182   */\n      dup2\n        /* \"#utility.yul\":4167:4171   */\n      dup2\n        /* \"#utility.yul\":4163:4183   */\n      sub\n        /* \"#utility.yul\":4159:4160   */\n      0x00\n        /* \"#utility.yul\":4148:4157   */\n      dup4\n        /* \"#utility.yul\":4144:4161   */\n      add\n        /* \"#utility.yul\":4137:4184   */\n      mstore\n        /* \"#utility.yul\":4201:4332   */\n      tag_175\n        /* \"#utility.yul\":4327:4331   */\n      dup2\n        /* \"#utility.yul\":4201:4332   */\n      tag_109\n      jump\t// in\n    tag_175:\n        /* \"#utility.yul\":4193:4332   */\n      swap1\n      pop\n        /* \"#utility.yul\":3920:4339   */\n      swap2\n      swap1\n      pop\n      jump\t// out\n        /* \"#utility.yul\":4345:4525   */\n    tag_110:\n        /* \"#utility.yul\":4393:4470   */\n      0x4e487b7100000000000000000000000000000000000000000000000000000000\n        /* \"#utility.yul\":4390:4391   */\n      0x00\n        /* \"#utility.yul\":4383:4471   */\n      mstore\n        /* \"#utility.yul\":4490:4494   */\n      0x11\n        /* \"#utility.yul\":4487:4488   */\n      0x04\n        /* \"#utility.yul\":4480:4495   */\n      mstore\n        /* \"#utility.yul\":4514:4518   */\n      0x24\n        /* \"#utility.yul\":4511:4512   */\n      0x00\n        /* \"#utility.yul\":4504:4519   */\n      revert\n        /* \"#utility.yul\":4531:4725   */\n    tag_47:\n        /* \"#utility.yul\":4571:4575   */\n      0x00\n        /* \"#utility.yul\":4591:4611   */\n      tag_178\n        /* \"#utility.yul\":4609:4610   */\n      dup3\n        /* \"#utility.yul\":4591:4611   */\n      tag_91\n      jump\t// in\n    tag_178:\n        /* \"#utility.yul\":4586:4611   */\n      swap2\n      pop\n        /* \"#utility.yul\":4625:4645   */\n      tag_179\n        /* \"#utility.yul\":4643:4644   */\n      dup4\n        /* \"#utility.yul\":4625:4645   */\n      tag_91\n      jump\t// in\n    tag_179:\n        /* \"#utility.yul\":4620:4645   */\n      swap3\n      pop\n        /* \"#utility.yul\":4669:4670   */\n      dup3\n        /* \"#utility.yul\":4666:4667   */\n      dup3\n        /* \"#utility.yul\":4662:4671   */\n      sub\n        /* \"#utility.yul\":4654:4671   */\n      swap1\n      pop\n        /* \"#utility.yul\":4693:4694   */\n      dup2\n        /* \"#utility.yul\":4687:4691   */\n      dup2\n        /* \"#utility.yul\":4684:4695   */\n      gt\n        /* \"#utility.yul\":4681:4718   */\n      iszero\n      tag_180\n      jumpi\n        /* \"#utility.yul\":4698:4716   */\n      tag_181\n      tag_110\n      jump\t// in\n    tag_181:\n        /* \"#utility.yul\":4681:4718   */\n    tag_180:\n        /* \"#utility.yul\":4531:4725   */\n      swap3\n      swap2\n      pop\n      pop\n      jump\t// out\n        /* \"#utility.yul\":4731:4849   */\n    tag_111:\n        /* \"#utility.yul\":4818:4842   */\n      tag_183\n        /* \"#utility.yul\":4836:4841   */\n      dup2\n        /* \"#utility.yul\":4818:4842   */\n      tag_99\n      jump\t// in\n    tag_183:\n        /* \"#utility.yul\":4813:4816   */\n      dup3\n        /* \"#utility.yul\":4806:4843   */\n      mstore\n        /* \"#utility.yul\":4731:4849   */\n      pop\n      pop\n      jump\t// out\n        /* \"#utility.yul\":4855:5187   */\n    tag_51:\n        /* \"#utility.yul\":4976:4980   */\n      0x00\n        /* \"#utility.yul\":5014:5016   */\n      0x40\n        /* \"#utility.yul\":5003:5012   */\n      dup3\n        /* \"#utility.yul\":4999:5017   */\n      add\n        /* \"#utility.yul\":4991:5017   */\n      swap1\n      pop\n        /* \"#utility.yul\":5027:5098   */\n      tag_185\n        /* \"#utility.yul\":5095:5096   */\n      0x00\n        /* \"#utility.yul\":5084:5093   */\n      dup4\n        /* \"#utility.yul\":5080:5097   */\n      add\n        /* \"#utility.yul\":5071:5077   */\n      dup6\n        /* \"#utility.yul\":5027:5098   */\n      tag_111\n      jump\t// in\n    tag_185:\n        /* \"#utility.yul\":5108:5180   */\n      tag_186\n        /* \"#utility.yul\":5176:5178   */\n      0x20\n        /* \"#utility.yul\":5165:5174   */\n      dup4\n        /* \"#utility.yul\":5161:5179   */\n      add\n        /* \"#utility.yul\":5152:5158   */\n      dup5\n        /* \"#utility.yul\":5108:5180   */\n      tag_92\n      jump\t// in\n    tag_186:\n        /* \"#utility.yul\":4855:5187   */\n      swap4\n      swap3\n      pop\n      pop\n      pop\n      jump\t// out\n        /* \"#utility.yul\":5193:5384   */\n    tag_55:\n        /* \"#utility.yul\":5233:5236   */\n      0x00\n        /* \"#utility.yul\":5252:5272   */\n      tag_188\n        /* \"#utility.yul\":5270:5271   */\n      dup3\n        /* \"#utility.yul\":5252:5272   */\n      tag_91\n      jump\t// in\n    tag_188:\n        /* \"#utility.yul\":5247:5272   */\n      swap2\n      pop\n        /* \"#utility.yul\":5286:5306   */\n      tag_189\n        /* \"#utility.yul\":5304:5305   */\n      dup4\n        /* \"#utility.yul\":5286:5306   */\n      tag_91\n      jump\t// in\n    tag_189:\n        /* \"#utility.yul\":5281:5306   */\n      swap3\n      pop\n        /* \"#utility.yul\":5329:5330   */\n      dup3\n        /* \"#utility.yul\":5326:5327   */\n      dup3\n        /* \"#utility.yul\":5322:5331   */\n      add\n        /* \"#utility.yul\":5315:5331   */\n      swap1\n      pop\n        /* \"#utility.yul\":5350:5353   */\n      dup1\n        /* \"#utility.yul\":5347:5348   */\n      dup3\n        /* \"#utility.yul\":5344:5354   */\n      gt\n        /* \"#utility.yul\":5341:5377   */\n      iszero\n      tag_190\n      jumpi\n        /* \"#utility.yul\":5357:5375   */\n      tag_191\n      tag_110\n      jump\t// in\n    tag_191:\n        /* \"#utility.yul\":5341:5377   */\n    tag_190:\n        /* \"#utility.yul\":5193:5384   */\n      swap3\n      swap2\n      pop\n      pop\n      jump\t// out\n        /* \"#utility.yul\":5390:5832   */\n    tag_59:\n        /* \"#utility.yul\":5539:5543   */\n      0x00\n        /* \"#utility.yul\":5577:5579   */\n      0x60\n        /* \"#utility.yul\":5566:5575   */\n      dup3\n        /* \"#utility.yul\":5562:5580   */\n      add\n        /* \"#utility.yul\":5554:5580   */\n      swap1\n      pop\n        /* \"#utility.yul\":5590:5661   */\n      tag_193\n        /* \"#utility.yul\":5658:5659   */\n      0x00\n        /* \"#utility.yul\":5647:5656   */\n      dup4\n        /* \"#utility.yul\":5643:5660   */\n      add\n        /* \"#utility.yul\":5634:5640   */\n      dup7\n        /* \"#utility.yul\":5590:5661   */\n      tag_111\n      jump\t// in\n    tag_193:\n        /* \"#utility.yul\":5671:5743   */\n      tag_194\n        /* \"#utility.yul\":5739:5741   */\n      0x20\n        /* \"#utility.yul\":5728:5737   */\n      dup4\n        /* \"#utility.yul\":5724:5742   */\n      add\n        /* \"#utility.yul\":5715:5721   */\n      dup6\n        /* \"#utility.yul\":5671:5743   */\n      tag_111\n      jump\t// in\n    tag_194:\n        /* \"#utility.yul\":5753:5825   */\n      tag_195\n        /* \"#utility.yul\":5821:5823   */\n      0x40\n        /* \"#utility.yul\":5810:5819   */\n      dup4\n        /* \"#utility.yul\":5806:5824   */\n      add\n        /* \"#utility.yul\":5797:5803   */\n      dup5\n        /* \"#utility.yul\":5753:5825   */\n      tag_92\n      jump\t// in\n    tag_195:\n        /* \"#utility.yul\":5390:5832   */\n      swap5\n      swap4\n      pop\n      pop\n      pop\n      pop\n      jump\t// out\n        /* \"#utility.yul\":5838:5928   */\n    tag_112:\n        /* \"#utility.yul\":5872:5879   */\n      0x00\n        /* \"#utility.yul\":5915:5920   */\n      dup2\n        /* \"#utility.yul\":5908:5921   */\n      iszero\n        /* \"#utility.yul\":5901:5922   */\n      iszero\n        /* \"#utility.yul\":5890:5922   */\n      swap1\n      pop\n        /* \"#utility.yul\":5838:5928   */\n      swap2\n      swap1\n      pop\n      jump\t// out\n        /* \"#utility.yul\":5934:6050   */\n    tag_113:\n        /* \"#utility.yul\":6004:6025   */\n      tag_198\n        /* \"#utility.yul\":6019:6024   */\n      dup2\n        /* \"#utility.yul\":6004:6025   */\n      tag_112\n      jump\t// in\n    tag_198:\n        /* \"#utility.yul\":5997:6002   */\n      dup2\n        /* \"#utility.yul\":5994:6026   */\n      eq\n        /* \"#utility.yul\":5984:6044   */\n      tag_199\n      jumpi\n        /* \"#utility.yul\":6040:6041   */\n      0x00\n        /* \"#utility.yul\":6037:6038   */\n      dup1\n        /* \"#utility.yul\":6030:6042   */\n      revert\n        /* \"#utility.yul\":5984:6044   */\n    tag_199:\n        /* \"#utility.yul\":5934:6050   */\n      pop\n      jump\t// out\n        /* \"#utility.yul\":6056:6193   */\n    tag_114:\n        /* \"#utility.yul\":6110:6115   */\n      0x00\n        /* \"#utility.yul\":6141:6147   */\n      dup2\n        /* \"#utility.yul\":6135:6148   */\n      mload\n        /* \"#utility.yul\":6126:6148   */\n      swap1\n      pop\n        /* \"#utility.yul\":6157:6187   */\n      tag_201\n        /* \"#utility.yul\":6181:6186   */\n      dup2\n        /* \"#utility.yul\":6157:6187   */\n      tag_113\n      jump\t// in\n    tag_201:\n        /* \"#utility.yul\":6056:6193   */\n      swap3\n      swap2\n      pop\n      pop\n      jump\t// out\n        /* \"#utility.yul\":6199:6544   */\n    tag_65:\n        /* \"#utility.yul\":6266:6272   */\n      0x00\n        /* \"#utility.yul\":6315:6317   */\n      0x20\n        /* \"#utility.yul\":6303:6312   */\n      dup3\n        /* \"#utility.yul\":6294:6301   */\n      dup5\n        /* \"#utility.yul\":6290:6313   */\n      sub\n        /* \"#utility.yul\":6286:6318   */\n      slt\n        /* \"#utility.yul\":6283:6402   */\n      iszero\n      tag_203\n      jumpi\n        /* \"#utility.yul\":6321:6400   */\n      tag_204\n      tag_94\n      jump\t// in\n    tag_204:\n        /* \"#utility.yul\":6283:6402   */\n    tag_203:\n        /* \"#utility.yul\":6441:6442   */\n      0x00\n        /* \"#utility.yul\":6466:6527   */\n      tag_205\n        /* \"#utility.yul\":6519:6526   */\n      dup5\n        /* \"#utility.yul\":6510:6516   */\n      dup3\n        /* \"#utility.yul\":6499:6508   */\n      dup6\n        /* \"#utility.yul\":6495:6517   */\n      add\n        /* \"#utility.yul\":6466:6527   */\n      tag_114\n      jump\t// in\n    tag_205:\n        /* \"#utility.yul\":6456:6527   */\n      swap2\n      pop\n        /* \"#utility.yul\":6412:6537   */\n      pop\n        /* \"#utility.yul\":6199:6544   */\n      swap3\n      swap2\n      pop\n      pop\n      jump\t// out\n        /* \"#utility.yul\":6550:6779   */\n    tag_115:\n        /* \"#utility.yul\":6690:6724   */\n      0x5361666542455032303a204245503230206f7065726174696f6e20646964206e\n        /* \"#utility.yul\":6686:6687   */\n      0x00\n        /* \"#utility.yul\":6678:6684   */\n      dup3\n        /* \"#utility.yul\":6674:6688   */\n      add\n        /* \"#utility.yul\":6667:6725   */\n      mstore\n        /* \"#utility.yul\":6759:6771   */\n      0x6f74207375636365656400000000000000000000000000000000000000000000\n        /* \"#utility.yul\":6754:6756   */\n      0x20\n        /* \"#utility.yul\":6746:6752   */\n      dup3\n        /* \"#utility.yul\":6742:6757   */\n      add\n        /* \"#utility.yul\":6735:6772   */\n      mstore\n        /* \"#utility.yul\":6550:6779   */\n      pop\n      jump\t// out\n        /* \"#utility.yul\":6785:7151   */\n    tag_116:\n        /* \"#utility.yul\":6927:6930   */\n      0x00\n        /* \"#utility.yul\":6948:7015   */\n      tag_208\n        /* \"#utility.yul\":7012:7014   */\n      0x2a\n        /* \"#utility.yul\":7007:7010   */\n      dup4\n        /* \"#utility.yul\":6948:7015   */\n      tag_107\n      jump\t// in\n    tag_208:\n        /* \"#utility.yul\":6941:7015   */\n      swap2\n      pop\n        /* \"#utility.yul\":7024:7117   */\n      tag_209\n        /* \"#utility.yul\":7113:7116   */\n      dup3\n        /* \"#utility.yul\":7024:7117   */\n      tag_115\n      jump\t// in\n    tag_209:\n        /* \"#utility.yul\":7142:7144   */\n      0x40\n        /* \"#utility.yul\":7137:7140   */\n      dup3\n        /* \"#utility.yul\":7133:7145   */\n      add\n        /* \"#utility.yul\":7126:7145   */\n      swap1\n      pop\n        /* \"#utility.yul\":6785:7151   */\n      swap2\n      swap1\n      pop\n      jump\t// out\n        /* \"#utility.yul\":7157:7576   */\n    tag_68:\n        /* \"#utility.yul\":7323:7327   */\n      0x00\n        /* \"#utility.yul\":7361:7363   */\n      0x20\n        /* \"#utility.yul\":7350:7359   */\n      dup3\n        /* \"#utility.yul\":7346:7364   */\n      add\n        /* \"#utility.yul\":7338:7364   */\n      swap1\n      pop\n        /* \"#utility.yul\":7410:7419   */\n      dup2\n        /* \"#utility.yul\":7404:7408   */\n      dup2\n        /* \"#utility.yul\":7400:7420   */\n      sub\n        /* \"#utility.yul\":7396:7397   */\n      0x00\n        /* \"#utility.yul\":7385:7394   */\n      dup4\n        /* \"#utility.yul\":7381:7398   */\n      add\n        /* \"#utility.yul\":7374:7421   */\n      mstore\n        /* \"#utility.yul\":7438:7569   */\n      tag_211\n        /* \"#utility.yul\":7564:7568   */\n      dup2\n        /* \"#utility.yul\":7438:7569   */\n      tag_116\n      jump\t// in\n    tag_211:\n        /* \"#utility.yul\":7430:7569   */\n      swap1\n      pop\n        /* \"#utility.yul\":7157:7576   */\n      swap2\n      swap1\n      pop\n      jump\t// out\n        /* \"#utility.yul\":7582:7761   */\n    tag_117:\n        /* \"#utility.yul\":7722:7753   */\n      0x416464726573733a2063616c6c20746f206e6f6e2d636f6e7472616374000000\n        /* \"#utility.yul\":7718:7719   */\n      0x00\n        /* \"#utility.yul\":7710:7716   */\n      dup3\n        /* \"#utility.yul\":7706:7720   */\n      add\n        /* \"#utility.yul\":7699:7754   */\n      mstore\n        /* \"#utility.yul\":7582:7761   */\n      pop\n      jump\t// out\n        /* \"#utility.yul\":7767:8133   */\n    tag_118:\n        /* \"#utility.yul\":7909:7912   */\n      0x00\n        /* \"#utility.yul\":7930:7997   */\n      tag_214\n        /* \"#utility.yul\":7994:7996   */\n      0x1d\n        /* \"#utility.yul\":7989:7992   */\n      dup4\n        /* \"#utility.yul\":7930:7997   */\n      tag_107\n      jump\t// in\n    tag_214:\n        /* \"#utility.yul\":7923:7997   */\n      swap2\n      pop\n        /* \"#utility.yul\":8006:8099   */\n      tag_215\n        /* \"#utility.yul\":8095:8098   */\n      dup3\n        /* \"#utility.yul\":8006:8099   */\n      tag_117\n      jump\t// in\n    tag_215:\n        /* \"#utility.yul\":8124:8126   */\n      0x20\n        /* \"#utility.yul\":8119:8122   */\n      dup3\n        /* \"#utility.yul\":8115:8127   */\n      add\n        /* \"#utility.yul\":8108:8127   */\n      swap1\n      pop\n        /* \"#utility.yul\":7767:8133   */\n      swap2\n      swap1\n      pop\n      jump\t// out\n        /* \"#utility.yul\":8139:8558   */\n    tag_77:\n        /* \"#utility.yul\":8305:8309   */\n      0x00\n        /* \"#utility.yul\":8343:8345   */\n      0x20\n        /* \"#utility.yul\":8332:8341   */\n      dup3\n        /* \"#utility.yul\":8328:8346   */\n      add\n        /* \"#utility.yul\":8320:8346   */\n      swap1\n      pop\n        /* \"#utility.yul\":8392:8401   */\n      dup2\n        /* \"#utility.yul\":8386:8390   */\n      dup2\n        /* \"#utility.yul\":8382:8402   */\n      sub\n        /* \"#utility.yul\":8378:8379   */\n      0x00\n        /* \"#utility.yul\":8367:8376   */\n      dup4\n        /* \"#utility.yul\":8363:8380   */\n      add\n        /* \"#utility.yul\":8356:8403   */\n      mstore\n        /* \"#utility.yul\":8420:8551   */\n      tag_217\n        /* \"#utility.yul\":8546:8550   */\n      dup2\n        /* \"#utility.yul\":8420:8551   */\n      tag_118\n      jump\t// in\n    tag_217:\n        /* \"#utility.yul\":8412:8551   */\n      swap1\n      pop\n        /* \"#utility.yul\":8139:8558   */\n      swap2\n      swap1\n      pop\n      jump\t// out\n        /* \"#utility.yul\":8564:8662   */\n    tag_119:\n        /* \"#utility.yul\":8615:8621   */\n      0x00\n        /* \"#utility.yul\":8649:8654   */\n      dup2\n        /* \"#utility.yul\":8643:8655   */\n      mload\n        /* \"#utility.yul\":8633:8655   */\n      swap1\n      pop\n        /* \"#utility.yul\":8564:8662   */\n      swap2\n      swap1\n      pop\n      jump\t// out\n        /* \"#utility.yul\":8668:8815   */\n    tag_120:\n        /* \"#utility.yul\":8769:8780   */\n      0x00\n        /* \"#utility.yul\":8806:8809   */\n      dup2\n        /* \"#utility.yul\":8791:8809   */\n      swap1\n      pop\n        /* \"#utility.yul\":8668:8815   */\n      swap3\n      swap2\n      pop\n      pop\n      jump\t// out\n        /* \"#utility.yul\":8821:9067   */\n    tag_121:\n        /* \"#utility.yul\":8902:8903   */\n      0x00\n        /* \"#utility.yul\":8912:9025   */\n    tag_221:\n        /* \"#utility.yul\":8926:8932   */\n      dup4\n        /* \"#utility.yul\":8923:8924   */\n      dup2\n        /* \"#utility.yul\":8920:8933   */\n      lt\n        /* \"#utility.yul\":8912:9025   */\n      iszero\n      tag_223\n      jumpi\n        /* \"#utility.yul\":9011:9012   */\n      dup1\n        /* \"#utility.yul\":9006:9009   */\n      dup3\n        /* \"#utility.yul\":9002:9013   */\n      add\n        /* \"#utility.yul\":8996:9014   */\n      mload\n        /* \"#utility.yul\":8992:8993   */\n      dup2\n        /* \"#utility.yul\":8987:8990   */\n      dup5\n        /* \"#utility.yul\":8983:8994   */\n      add\n        /* \"#utility.yul\":8976:9015   */\n      mstore\n        /* \"#utility.yul\":8948:8950   */\n      0x20\n        /* \"#utility.yul\":8945:8946   */\n      dup2\n        /* \"#utility.yul\":8941:8951   */\n      add\n        /* \"#utility.yul\":8936:8951   */\n      swap1\n      pop\n        /* \"#utility.yul\":8912:9025   */\n      jump(tag_221)\n    tag_223:\n        /* \"#utility.yul\":9059:9060   */\n      0x00\n        /* \"#utility.yul\":9050:9056   */\n      dup5\n        /* \"#utility.yul\":9045:9048   */\n      dup5\n        /* \"#utility.yul\":9041:9057   */\n      add\n        /* \"#utility.yul\":9034:9061   */\n      mstore\n        /* \"#utility.yul\":8883:9067   */\n      pop\n        /* \"#utility.yul\":8821:9067   */\n      pop\n      pop\n      pop\n      jump\t// out\n        /* \"#utility.yul\":9073:9459   */\n    tag_122:\n        /* \"#utility.yul\":9177:9180   */\n      0x00\n        /* \"#utility.yul\":9205:9243   */\n      tag_225\n        /* \"#utility.yul\":9237:9242   */\n      dup3\n        /* \"#utility.yul\":9205:9243   */\n      tag_119\n      jump\t// in\n    tag_225:\n        /* \"#utility.yul\":9259:9347   */\n      tag_226\n        /* \"#utility.yul\":9340:9346   */\n      dup2\n        /* \"#utility.yul\":9335:9338   */\n      dup6\n        /* \"#utility.yul\":9259:9347   */\n      tag_120\n      jump\t// in\n    tag_226:\n        /* \"#utility.yul\":9252:9347   */\n      swap4\n      pop\n        /* \"#utility.yul\":9356:9421   */\n      tag_227\n        /* \"#utility.yul\":9414:9420   */\n      dup2\n        /* \"#utility.yul\":9409:9412   */\n      dup6\n        /* \"#utility.yul\":9402:9406   */\n      0x20\n        /* \"#utility.yul\":9395:9400   */\n      dup7\n        /* \"#utility.yul\":9391:9407   */\n      add\n        /* \"#utility.yul\":9356:9421   */\n      tag_121\n      jump\t// in\n    tag_227:\n        /* \"#utility.yul\":9446:9452   */\n      dup1\n        /* \"#utility.yul\":9441:9444   */\n      dup5\n        /* \"#utility.yul\":9437:9453   */\n      add\n        /* \"#utility.yul\":9430:9453   */\n      swap2\n      pop\n        /* \"#utility.yul\":9181:9459   */\n      pop\n        /* \"#utility.yul\":9073:9459   */\n      swap3\n      swap2\n      pop\n      pop\n      jump\t// out\n        /* \"#utility.yul\":9465:9736   */\n    tag_79:\n        /* \"#utility.yul\":9595:9598   */\n      0x00\n        /* \"#utility.yul\":9617:9710   */\n      tag_229\n        /* \"#utility.yul\":9706:9709   */\n      dup3\n        /* \"#utility.yul\":9697:9703   */\n      dup5\n        /* \"#utility.yul\":9617:9710   */\n      tag_122\n      jump\t// in\n    tag_229:\n        /* \"#utility.yul\":9610:9710   */\n      swap2\n      pop\n        /* \"#utility.yul\":9727:9730   */\n      dup2\n        /* \"#utility.yul\":9720:9730   */\n      swap1\n      pop\n        /* \"#utility.yul\":9465:9736   */\n      swap3\n      swap2\n      pop\n      pop\n      jump\t// out\n        /* \"#utility.yul\":9742:9841   */\n    tag_123:\n        /* \"#utility.yul\":9794:9800   */\n      0x00\n        /* \"#utility.yul\":9828:9833   */\n      dup2\n        /* \"#utility.yul\":9822:9834   */\n      mload\n        /* \"#utility.yul\":9812:9834   */\n      swap1\n      pop\n        /* \"#utility.yul\":9742:9841   */\n      swap2\n      swap1\n      pop\n      jump\t// out\n        /* \"#utility.yul\":9847:9949   */\n    tag_124:\n        /* \"#utility.yul\":9888:9894   */\n      0x00\n        /* \"#utility.yul\":9939:9941   */\n      0x1f\n        /* \"#utility.yul\":9935:9942   */\n      not\n        /* \"#utility.yul\":9930:9932   */\n      0x1f\n        /* \"#utility.yul\":9923:9928   */\n      dup4\n        /* \"#utility.yul\":9919:9933   */\n      add\n        /* \"#utility.yul\":9915:9943   */\n      and\n        /* \"#utility.yul\":9905:9943   */\n      swap1\n      pop\n        /* \"#utility.yul\":9847:9949   */\n      swap2\n      swap1\n      pop\n      jump\t// out\n        /* \"#utility.yul\":9955:10332   */\n    tag_125:\n        /* \"#utility.yul\":10043:10046   */\n      0x00\n        /* \"#utility.yul\":10071:10110   */\n      tag_233\n        /* \"#utility.yul\":10104:10109   */\n      dup3\n        /* \"#utility.yul\":10071:10110   */\n      tag_123\n      jump\t// in\n    tag_233:\n        /* \"#utility.yul\":10126:10197   */\n      tag_234\n        /* \"#utility.yul\":10190:10196   */\n      dup2\n        /* \"#utility.yul\":10185:10188   */\n      dup6\n        /* \"#utility.yul\":10126:10197   */\n      tag_107\n      jump\t// in\n    tag_234:\n        /* \"#utility.yul\":10119:10197   */\n      swap4\n      pop\n        /* \"#utility.yul\":10206:10271   */\n      tag_235\n        /* \"#utility.yul\":10264:10270   */\n      dup2\n        /* \"#utility.yul\":10259:10262   */\n      dup6\n        /* \"#utility.yul\":10252:10256   */\n      0x20\n        /* \"#utility.yul\":10245:10250   */\n      dup7\n        /* \"#utility.yul\":10241:10257   */\n      add\n        /* \"#utility.yul\":10206:10271   */\n      tag_121\n      jump\t// in\n    tag_235:\n        /* \"#utility.yul\":10296:10325   */\n      tag_236\n        /* \"#utility.yul\":10318:10324   */\n      dup2\n        /* \"#utility.yul\":10296:10325   */\n      tag_124\n      jump\t// in\n    tag_236:\n        /* \"#utility.yul\":10291:10294   */\n      dup5\n        /* \"#utility.yul\":10287:10326   */\n      add\n        /* \"#utility.yul\":10280:10326   */\n      swap2\n      pop\n        /* \"#utility.yul\":10047:10332   */\n      pop\n        /* \"#utility.yul\":9955:10332   */\n      swap3\n      swap2\n      pop\n      pop\n      jump\t// out\n        /* \"#utility.yul\":10338:10651   */\n    tag_88:\n        /* \"#utility.yul\":10451:10455   */\n      0x00\n        /* \"#utility.yul\":10489:10491   */\n      0x20\n        /* \"#utility.yul\":10478:10487   */\n      dup3\n        /* \"#utility.yul\":10474:10492   */\n      add\n        /* \"#utility.yul\":10466:10492   */\n      swap1\n      pop\n        /* \"#utility.yul\":10538:10547   */\n      dup2\n        /* \"#utility.yul\":10532:10536   */\n      dup2\n        /* \"#utility.yul\":10528:10548   */\n      sub\n        /* \"#utility.yul\":10524:10525   */\n      0x00\n        /* \"#utility.yul\":10513:10522   */\n      dup4\n        /* \"#utility.yul\":10509:10526   */\n      add\n        /* \"#utility.yul\":10502:10549   */\n      mstore\n        /* \"#utility.yul\":10566:10644   */\n      tag_238\n        /* \"#utility.yul\":10639:10643   */\n      dup2\n        /* \"#utility.yul\":10630:10636   */\n      dup5\n        /* \"#utility.yul\":10566:10644   */\n      tag_125\n      jump\t// in\n    tag_238:\n        /* \"#utility.yul\":10558:10644   */\n      swap1\n      pop\n        /* \"#utility.yul\":10338:10651   */\n      swap3\n      swap2\n      pop\n      pop\n      jump\t// out\n\n    auxdata: 0xa264697066735822122013c5e209a3afd023fe077f7c3cf755319020af0766da47c9d4ea1d7187c8a67264736f6c63430008130033\n}\n",
				"bytecode": {
					"linkReferences": {},
					"object": "608060405234801561001057600080fd5b50610d5c806100206000396000f3fe608060405234801561001057600080fd5b50600436106100575760003560e01c806318160ddd1461005c5780632e1a7d4d1461007a57806370a0823114610096578063a694fc3a146100c6578063ce5fc8d0146100e2575b600080fd5b610064610100565b604051610071919061079d565b60405180910390f35b610094600480360381019061008f91906107e9565b61010a565b005b6100b060048036038101906100ab9190610874565b610290565b6040516100bd919061079d565b60405180910390f35b6100e060048036038101906100db91906107e9565b6102d9565b005b6100ea6103d9565b6040516100f79190610900565b60405180910390f35b6000600154905090565b6000600260003373ffffffffffffffffffffffffffffffffffffffff1673ffffffffffffffffffffffffffffffffffffffff16815260200190815260200160002054905081811015610191576040517f08c379a00000000000000000000000000000000000000000000000000000000081526004016101889061099e565b60405180910390fd5b6101a6826001546103fd90919063ffffffff16565b6001819055506101fe82600260003373ffffffffffffffffffffffffffffffffffffffff1673ffffffffffffffffffffffffffffffffffffffff168152602001908152602001600020546103fd90919063ffffffff16565b600260003373ffffffffffffffffffffffffffffffffffffffff1673ffffffffffffffffffffffffffffffffffffffff1681526020019081526020016000208190555061028c338360008054906101000a900473ffffffffffffffffffffffffffffffffffffffff1673ffffffffffffffffffffffffffffffffffffffff166104139092919063ffffffff16565b5050565b6000600260008373ffffffffffffffffffffffffffffffffffffffff1673ffffffffffffffffffffffffffffffffffffffff168152602001908152602001600020549050919050565b6102ee8160015461049990919063ffffffff16565b60018190555061034681600260003373ffffffffffffffffffffffffffffffffffffffff1673ffffffffffffffffffffffffffffffffffffffff1681526020019081526020016000205461049990919063ffffffff16565b600260003373ffffffffffffffffffffffffffffffffffffffff1673ffffffffffffffffffffffffffffffffffffffff168152602001908152602001600020819055506103d633308360008054906101000a900473ffffffffffffffffffffffffffffffffffffffff1673ffffffffffffffffffffffffffffffffffffffff166104af909392919063ffffffff16565b50565b60008054906101000a900473ffffffffffffffffffffffffffffffffffffffff1681565b6000818361040b91906109ed565b905092915050565b6104948363a9059cbb60e01b8484604051602401610432929190610a30565b604051602081830303815290604052907bffffffffffffffffffffffffffffffffffffffffffffffffffffffff19166020820180517bffffffffffffffffffffffffffffffffffffffffffffffffffffffff8381831617835250505050610538565b505050565b600081836104a79190610a59565b905092915050565b610532846323b872dd60e01b8585856040516024016104d093929190610a8d565b604051602081830303815290604052907bffffffffffffffffffffffffffffffffffffffffffffffffffffffff19166020820180517bffffffffffffffffffffffffffffffffffffffffffffffffffffffff8381831617835250505050610538565b50505050565b600061059a826040518060400160405280602081526020017f5361666542455032303a206c6f772d6c6576656c2063616c6c206661696c65648152508573ffffffffffffffffffffffffffffffffffffffff166105ff9092919063ffffffff16565b90506000815111156105fa57808060200190518101906105ba9190610afc565b6105f9576040517f08c379a00000000000000000000000000000000000000000000000000000000081526004016105f090610b9b565b60405180910390fd5b5b505050565b606061060e8484600085610617565b90509392505050565b606061062285610739565b610661576040517f08c379a000000000000000000000000000000000000000000000000000000000815260040161065890610c07565b60405180910390fd5b6000808673ffffffffffffffffffffffffffffffffffffffff16858760405161068a9190610c98565b60006040518083038185875af1925050503d80600081146106c7576040519150601f19603f3d011682016040523d82523d6000602084013e6106cc565b606091505b509150915081156106e1578092505050610731565b6000815111156106f45780518082602001fd5b836040517f08c379a00000000000000000000000000000000000000000000000000000000081526004016107289190610d04565b60405180910390fd5b949350505050565b60008060007fc5d2460186f7233c927e7db2dcc703c0e500b653ca82273b7bfad8045d85a47060001b9050833f915080821415801561077b57506000801b8214155b92505050919050565b6000819050919050565b61079781610784565b82525050565b60006020820190506107b2600083018461078e565b92915050565b600080fd5b6107c681610784565b81146107d157600080fd5b50565b6000813590506107e3816107bd565b92915050565b6000602082840312156107ff576107fe6107b8565b5b600061080d848285016107d4565b91505092915050565b600073ffffffffffffffffffffffffffffffffffffffff82169050919050565b600061084182610816565b9050919050565b61085181610836565b811461085c57600080fd5b50565b60008135905061086e81610848565b92915050565b60006020828403121561088a576108896107b8565b5b60006108988482850161085f565b91505092915050565b6000819050919050565b60006108c66108c16108bc84610816565b6108a1565b610816565b9050919050565b60006108d8826108ab565b9050919050565b60006108ea826108cd565b9050919050565b6108fa816108df565b82525050565b600060208201905061091560008301846108f1565b92915050565b600082825260208201905092915050565b7f776974686472617720726571756573742067726561746572207468616e20737460008201527f616b656420616d6f756e74000000000000000000000000000000000000000000602082015250565b6000610988602b8361091b565b91506109938261092c565b604082019050919050565b600060208201905081810360008301526109b78161097b565b9050919050565b7f4e487b7100000000000000000000000000000000000000000000000000000000600052601160045260246000fd5b60006109f882610784565b9150610a0383610784565b9250828203905081811115610a1b57610a1a6109be565b5b92915050565b610a2a81610836565b82525050565b6000604082019050610a456000830185610a21565b610a52602083018461078e565b9392505050565b6000610a6482610784565b9150610a6f83610784565b9250828201905080821115610a8757610a866109be565b5b92915050565b6000606082019050610aa26000830186610a21565b610aaf6020830185610a21565b610abc604083018461078e565b949350505050565b60008115159050919050565b610ad981610ac4565b8114610ae457600080fd5b50565b600081519050610af681610ad0565b92915050565b600060208284031215610b1257610b116107b8565b5b6000610b2084828501610ae7565b91505092915050565b7f5361666542455032303a204245503230206f7065726174696f6e20646964206e60008201527f6f74207375636365656400000000000000000000000000000000000000000000602082015250565b6000610b85602a8361091b565b9150610b9082610b29565b604082019050919050565b60006020820190508181036000830152610bb481610b78565b9050919050565b7f416464726573733a2063616c6c20746f206e6f6e2d636f6e7472616374000000600082015250565b6000610bf1601d8361091b565b9150610bfc82610bbb565b602082019050919050565b60006020820190508181036000830152610c2081610be4565b9050919050565b600081519050919050565b600081905092915050565b60005b83811015610c5b578082015181840152602081019050610c40565b60008484015250505050565b6000610c7282610c27565b610c7c8185610c32565b9350610c8c818560208601610c3d565b80840191505092915050565b6000610ca48284610c67565b915081905092915050565b600081519050919050565b6000601f19601f8301169050919050565b6000610cd682610caf565b610ce0818561091b565b9350610cf0818560208601610c3d565b610cf981610cba565b840191505092915050565b60006020820190508181036000830152610d1e8184610ccb565b90509291505056fea264697066735822122013c5e209a3afd023fe077f7c3cf755319020af0766da47c9d4ea1d7187c8a67264736f6c63430008130033",
					"opcodes": "PUSH1 0x80 PUSH1 0x40 MSTORE CALLVALUE DUP1 ISZERO PUSH2 0x10 JUMPI PUSH1 0x0 DUP1 REVERT JUMPDEST POP PUSH2 0xD5C DUP1 PUSH2 0x20 PUSH1 0x0 CODECOPY PUSH1 0x0 RETURN INVALID PUSH1 0x80 PUSH1 0x40 MSTORE CALLVALUE DUP1 ISZERO PUSH2 0x10 JUMPI PUSH1 0x0 DUP1 REVERT JUMPDEST POP PUSH1 0x4 CALLDATASIZE LT PUSH2 0x57 JUMPI PUSH1 0x0 CALLDATALOAD PUSH1 0xE0 SHR DUP1 PUSH4 0x18160DDD EQ PUSH2 0x5C JUMPI DUP1 PUSH4 0x2E1A7D4D EQ PUSH2 0x7A JUMPI DUP1 PUSH4 0x70A08231 EQ PUSH2 0x96 JUMPI DUP1 PUSH4 0xA694FC3A EQ PUSH2 0xC6 JUMPI DUP1 PUSH4 0xCE5FC8D0 EQ PUSH2 0xE2 JUMPI JUMPDEST PUSH1 0x0 DUP1 REVERT JUMPDEST PUSH2 0x64 PUSH2 0x100 JUMP JUMPDEST PUSH1 0x40 MLOAD PUSH2 0x71 SWAP2 SWAP1 PUSH2 0x79D JUMP JUMPDEST PUSH1 0x40 MLOAD DUP1 SWAP2 SUB SWAP1 RETURN JUMPDEST PUSH2 0x94 PUSH1 0x4 DUP1 CALLDATASIZE SUB DUP2 ADD SWAP1 PUSH2 0x8F SWAP2 SWAP1 PUSH2 0x7E9 JUMP JUMPDEST PUSH2 0x10A JUMP JUMPDEST STOP JUMPDEST PUSH2 0xB0 PUSH1 0x4 DUP1 CALLDATASIZE SUB DUP2 ADD SWAP1 PUSH2 0xAB SWAP2 SWAP1 PUSH2 0x874 JUMP JUMPDEST PUSH2 0x290 JUMP JUMPDEST PUSH1 0x40 MLOAD PUSH2 0xBD SWAP2 SWAP1 PUSH2 0x79D JUMP JUMPDEST PUSH1 0x40 MLOAD DUP1 SWAP2 SUB SWAP1 RETURN JUMPDEST PUSH2 0xE0 PUSH1 0x4 DUP1 CALLDATASIZE SUB DUP2 ADD SWAP1 PUSH2 0xDB SWAP2 SWAP1 PUSH2 0x7E9 JUMP JUMPDEST PUSH2 0x2D9 JUMP JUMPDEST STOP JUMPDEST PUSH2 0xEA PUSH2 0x3D9 JUMP JUMPDEST PUSH1 0x40 MLOAD PUSH2 0xF7 SWAP2 SWAP1 PUSH2 0x900 JUMP JUMPDEST PUSH1 0x40 MLOAD DUP1 SWAP2 SUB SWAP1 RETURN JUMPDEST PUSH1 0x0 PUSH1 0x1 SLOAD SWAP1 POP SWAP1 JUMP JUMPDEST PUSH1 0x0 PUSH1 0x2 PUSH1 0x0 CALLER PUSH20 0xFFFFFFFFFFFFFFFFFFFFFFFFFFFFFFFFFFFFFFFF AND PUSH20 0xFFFFFFFFFFFFFFFFFFFFFFFFFFFFFFFFFFFFFFFF AND DUP2 MSTORE PUSH1 0x20 ADD SWAP1 DUP2 MSTORE PUSH1 0x20 ADD PUSH1 0x0 KECCAK256 SLOAD SWAP1 POP DUP2 DUP2 LT ISZERO PUSH2 0x191 JUMPI PUSH1 0x40 MLOAD PUSH32 0x8C379A000000000000000000000000000000000000000000000000000000000 DUP2 MSTORE PUSH1 0x4 ADD PUSH2 0x188 SWAP1 PUSH2 0x99E JUMP JUMPDEST PUSH1 0x40 MLOAD DUP1 SWAP2 SUB SWAP1 REVERT JUMPDEST PUSH2 0x1A6 DUP3 PUSH1 0x1 SLOAD PUSH2 0x3FD SWAP1 SWAP2 SWAP1 PUSH4 0xFFFFFFFF AND JUMP JUMPDEST PUSH1 0x1 DUP2 SWAP1 SSTORE POP PUSH2 0x1FE DUP3 PUSH1 0x2 PUSH1 0x0 CALLER PUSH20 0xFFFFFFFFFFFFFFFFFFFFFFFFFFFFFFFFFFFFFFFF AND PUSH20 0xFFFFFFFFFFFFFFFFFFFFFFFFFFFFFFFFFFFFFFFF AND DUP2 MSTORE PUSH1 0x20 ADD SWAP1 DUP2 MSTORE PUSH1 0x20 ADD PUSH1 0x0 KECCAK256 SLOAD PUSH2 0x3FD SWAP1 SWAP2 SWAP1 PUSH4 0xFFFFFFFF AND JUMP JUMPDEST PUSH1 0x2 PUSH1 0x0 CALLER PUSH20 0xFFFFFFFFFFFFFFFFFFFFFFFFFFFFFFFFFFFFFFFF AND PUSH20 0xFFFFFFFFFFFFFFFFFFFFFFFFFFFFFFFFFFFFFFFF AND DUP2 MSTORE PUSH1 0x20 ADD SWAP1 DUP2 MSTORE PUSH1 0x20 ADD PUSH1 0x0 KECCAK256 DUP2 SWAP1 SSTORE POP PUSH2 0x28C CALLER DUP4 PUSH1 0x0 DUP1 SLOAD SWAP1 PUSH2 0x100 EXP SWAP1 DIV PUSH20 0xFFFFFFFFFFFFFFFFFFFFFFFFFFFFFFFFFFFFFFFF AND PUSH20 0xFFFFFFFFFFFFFFFFFFFFFFFFFFFFFFFFFFFFFFFF AND PUSH2 0x413 SWAP1 SWAP3 SWAP2 SWAP1 PUSH4 0xFFFFFFFF AND JUMP JUMPDEST POP POP JUMP JUMPDEST PUSH1 0x0 PUSH1 0x2 PUSH1 0x0 DUP4 PUSH20 0xFFFFFFFFFFFFFFFFFFFFFFFFFFFFFFFFFFFFFFFF AND PUSH20 0xFFFFFFFFFFFFFFFFFFFFFFFFFFFFFFFFFFFFFFFF AND DUP2 MSTORE PUSH1 0x20 ADD SWAP1 DUP2 MSTORE PUSH1 0x20 ADD PUSH1 0x0 KECCAK256 SLOAD SWAP1 POP SWAP2 SWAP1 POP JUMP JUMPDEST PUSH2 0x2EE DUP2 PUSH1 0x1 SLOAD PUSH2 0x499 SWAP1 SWAP2 SWAP1 PUSH4 0xFFFFFFFF AND JUMP JUMPDEST PUSH1 0x1 DUP2 SWAP1 SSTORE POP PUSH2 0x346 DUP2 PUSH1 0x2 PUSH1 0x0 CALLER PUSH20 0xFFFFFFFFFFFFFFFFFFFFFFFFFFFFFFFFFFFFFFFF AND PUSH20 0xFFFFFFFFFFFFFFFFFFFFFFFFFFFFFFFFFFFFFFFF AND DUP2 MSTORE PUSH1 0x20 ADD SWAP1 DUP2 MSTORE PUSH1 0x20 ADD PUSH1 0x0 KECCAK256 SLOAD PUSH2 0x499 SWAP1 SWAP2 SWAP1 PUSH4 0xFFFFFFFF AND JUMP JUMPDEST PUSH1 0x2 PUSH1 0x0 CALLER PUSH20 0xFFFFFFFFFFFFFFFFFFFFFFFFFFFFFFFFFFFFFFFF AND PUSH20 0xFFFFFFFFFFFFFFFFFFFFFFFFFFFFFFFFFFFFFFFF AND DUP2 MSTORE PUSH1 0x20 ADD SWAP1 DUP2 MSTORE PUSH1 0x20 ADD PUSH1 0x0 KECCAK256 DUP2 SWAP1 SSTORE POP PUSH2 0x3D6 CALLER ADDRESS DUP4 PUSH1 0x0 DUP1 SLOAD SWAP1 PUSH2 0x100 EXP SWAP1 DIV PUSH20 0xFFFFFFFFFFFFFFFFFFFFFFFFFFFFFFFFFFFFFFFF AND PUSH20 0xFFFFFFFFFFFFFFFFFFFFFFFFFFFFFFFFFFFFFFFF AND PUSH2 0x4AF SWAP1 SWAP4 SWAP3 SWAP2 SWAP1 PUSH4 0xFFFFFFFF AND JUMP JUMPDEST POP JUMP JUMPDEST PUSH1 0x0 DUP1 SLOAD SWAP1 PUSH2 0x100 EXP SWAP1 DIV PUSH20 0xFFFFFFFFFFFFFFFFFFFFFFFFFFFFFFFFFFFFFFFF AND DUP2 JUMP JUMPDEST PUSH1 0x0 DUP2 DUP4 PUSH2 0x40B SWAP2 SWAP1 PUSH2 0x9ED JUMP JUMPDEST SWAP1 POP SWAP3 SWAP2 POP POP JUMP JUMPDEST PUSH2 0x494 DUP4 PUSH4 0xA9059CBB PUSH1 0xE0 SHL DUP5 DUP5 PUSH1 0x40 MLOAD PUSH1 0x24 ADD PUSH2 0x432 SWAP3 SWAP2 SWAP1 PUSH2 0xA30 JUMP JUMPDEST PUSH1 0x40 MLOAD PUSH1 0x20 DUP2 DUP4 SUB SUB DUP2 MSTORE SWAP1 PUSH1 0x40 MSTORE SWAP1 PUSH28 0xFFFFFFFFFFFFFFFFFFFFFFFFFFFFFFFFFFFFFFFFFFFFFFFFFFFFFFFF NOT AND PUSH1 0x20 DUP3 ADD DUP1 MLOAD PUSH28 0xFFFFFFFFFFFFFFFFFFFFFFFFFFFFFFFFFFFFFFFFFFFFFFFFFFFFFFFF DUP4 DUP2 DUP4 AND OR DUP4 MSTORE POP POP POP POP PUSH2 0x538 JUMP JUMPDEST POP POP POP JUMP JUMPDEST PUSH1 0x0 DUP2 DUP4 PUSH2 0x4A7 SWAP2 SWAP1 PUSH2 0xA59 JUMP JUMPDEST SWAP1 POP SWAP3 SWAP2 POP POP JUMP JUMPDEST PUSH2 0x532 DUP5 PUSH4 0x23B872DD PUSH1 0xE0 SHL DUP6 DUP6 DUP6 PUSH1 0x40 MLOAD PUSH1 0x24 ADD PUSH2 0x4D0 SWAP4 SWAP3 SWAP2 SWAP1 PUSH2 0xA8D JUMP JUMPDEST PUSH1 0x40 MLOAD PUSH1 0x20 DUP2 DUP4 SUB SUB DUP2 MSTORE SWAP1 PUSH1 0x40 MSTORE SWAP1 PUSH28 0xFFFFFFFFFFFFFFFFFFFFFFFFFFFFFFFFFFFFFFFFFFFFFFFFFFFFFFFF NOT AND PUSH1 0x20 DUP3 ADD DUP1 MLOAD PUSH28 0xFFFFFFFFFFFFFFFFFFFFFFFFFFFFFFFFFFFFFFFFFFFFFFFFFFFFFFFF DUP4 DUP2 DUP4 AND OR DUP4 MSTORE POP POP POP POP PUSH2 0x538 JUMP JUMPDEST POP POP POP POP JUMP JUMPDEST PUSH1 0x0 PUSH2 0x59A DUP3 PUSH1 0x40 MLOAD DUP1 PUSH1 0x40 ADD PUSH1 0x40 MSTORE DUP1 PUSH1 0x20 DUP2 MSTORE PUSH1 0x20 ADD PUSH32 0x5361666542455032303A206C6F772D6C6576656C2063616C6C206661696C6564 DUP2 MSTORE POP DUP6 PUSH20 0xFFFFFFFFFFFFFFFFFFFFFFFFFFFFFFFFFFFFFFFF AND PUSH2 0x5FF SWAP1 SWAP3 SWAP2 SWAP1 PUSH4 0xFFFFFFFF AND JUMP JUMPDEST SWAP1 POP PUSH1 0x0 DUP2 MLOAD GT ISZERO PUSH2 0x5FA JUMPI DUP1 DUP1 PUSH1 0x20 ADD SWAP1 MLOAD DUP2 ADD SWAP1 PUSH2 0x5BA SWAP2 SWAP1 PUSH2 0xAFC JUMP JUMPDEST PUSH2 0x5F9 JUMPI PUSH1 0x40 MLOAD PUSH32 0x8C379A000000000000000000000000000000000000000000000000000000000 DUP2 MSTORE PUSH1 0x4 ADD PUSH2 0x5F0 SWAP1 PUSH2 0xB9B JUMP JUMPDEST PUSH1 0x40 MLOAD DUP1 SWAP2 SUB SWAP1 REVERT JUMPDEST JUMPDEST POP POP POP JUMP JUMPDEST PUSH1 0x60 PUSH2 0x60E DUP5 DUP5 PUSH1 0x0 DUP6 PUSH2 0x617 JUMP JUMPDEST SWAP1 POP SWAP4 SWAP3 POP POP POP JUMP JUMPDEST PUSH1 0x60 PUSH2 0x622 DUP6 PUSH2 0x739 JUMP JUMPDEST PUSH2 0x661 JUMPI PUSH1 0x40 MLOAD PUSH32 0x8C379A000000000000000000000000000000000000000000000000000000000 DUP2 MSTORE PUSH1 0x4 ADD PUSH2 0x658 SWAP1 PUSH2 0xC07 JUMP JUMPDEST PUSH1 0x40 MLOAD DUP1 SWAP2 SUB SWAP1 REVERT JUMPDEST PUSH1 0x0 DUP1 DUP7 PUSH20 0xFFFFFFFFFFFFFFFFFFFFFFFFFFFFFFFFFFFFFFFF AND DUP6 DUP8 PUSH1 0x40 MLOAD PUSH2 0x68A SWAP2 SWAP1 PUSH2 0xC98 JUMP JUMPDEST PUSH1 0x0 PUSH1 0x40 MLOAD DUP1 DUP4 SUB DUP2 DUP6 DUP8 GAS CALL SWAP3 POP POP POP RETURNDATASIZE DUP1 PUSH1 0x0 DUP2 EQ PUSH2 0x6C7 JUMPI PUSH1 0x40 MLOAD SWAP2 POP PUSH1 0x1F NOT PUSH1 0x3F RETURNDATASIZE ADD AND DUP3 ADD PUSH1 0x40 MSTORE RETURNDATASIZE DUP3 MSTORE RETURNDATASIZE PUSH1 0x0 PUSH1 0x20 DUP5 ADD RETURNDATACOPY PUSH2 0x6CC JUMP JUMPDEST PUSH1 0x60 SWAP2 POP JUMPDEST POP SWAP2 POP SWAP2 POP DUP2 ISZERO PUSH2 0x6E1 JUMPI DUP1 SWAP3 POP POP POP PUSH2 0x731 JUMP JUMPDEST PUSH1 0x0 DUP2 MLOAD GT ISZERO PUSH2 0x6F4 JUMPI DUP1 MLOAD DUP1 DUP3 PUSH1 0x20 ADD REVERT JUMPDEST DUP4 PUSH1 0x40 MLOAD PUSH32 0x8C379A000000000000000000000000000000000000000000000000000000000 DUP2 MSTORE PUSH1 0x4 ADD PUSH2 0x728 SWAP2 SWAP1 PUSH2 0xD04 JUMP JUMPDEST PUSH1 0x40 MLOAD DUP1 SWAP2 SUB SWAP1 REVERT JUMPDEST SWAP5 SWAP4 POP POP POP POP JUMP JUMPDEST PUSH1 0x0 DUP1 PUSH1 0x0 PUSH32 0xC5D2460186F7233C927E7DB2DCC703C0E500B653CA82273B7BFAD8045D85A470 PUSH1 0x0 SHL SWAP1 POP DUP4 EXTCODEHASH SWAP2 POP DUP1 DUP3 EQ ISZERO DUP1 ISZERO PUSH2 0x77B JUMPI POP PUSH1 0x0 DUP1 SHL DUP3 EQ ISZERO JUMPDEST SWAP3 POP POP POP SWAP2 SWAP1 POP JUMP JUMPDEST PUSH1 0x0 DUP2 SWAP1 POP SWAP2 SWAP1 POP JUMP JUMPDEST PUSH2 0x797 DUP2 PUSH2 0x784 JUMP JUMPDEST DUP3 MSTORE POP POP JUMP JUMPDEST PUSH1 0x0 PUSH1 0x20 DUP3 ADD SWAP1 POP PUSH2 0x7B2 PUSH1 0x0 DUP4 ADD DUP5 PUSH2 0x78E JUMP JUMPDEST SWAP3 SWAP2 POP POP JUMP JUMPDEST PUSH1 0x0 DUP1 REVERT JUMPDEST PUSH2 0x7C6 DUP2 PUSH2 0x784 JUMP JUMPDEST DUP2 EQ PUSH2 0x7D1 JUMPI PUSH1 0x0 DUP1 REVERT JUMPDEST POP JUMP JUMPDEST PUSH1 0x0 DUP2 CALLDATALOAD SWAP1 POP PUSH2 0x7E3 DUP2 PUSH2 0x7BD JUMP JUMPDEST SWAP3 SWAP2 POP POP JUMP JUMPDEST PUSH1 0x0 PUSH1 0x20 DUP3 DUP5 SUB SLT ISZERO PUSH2 0x7FF JUMPI PUSH2 0x7FE PUSH2 0x7B8 JUMP JUMPDEST JUMPDEST PUSH1 0x0 PUSH2 0x80D DUP5 DUP3 DUP6 ADD PUSH2 0x7D4 JUMP JUMPDEST SWAP2 POP POP SWAP3 SWAP2 POP POP JUMP JUMPDEST PUSH1 0x0 PUSH20 0xFFFFFFFFFFFFFFFFFFFFFFFFFFFFFFFFFFFFFFFF DUP3 AND SWAP1 POP SWAP2 SWAP1 POP JUMP JUMPDEST PUSH1 0x0 PUSH2 0x841 DUP3 PUSH2 0x816 JUMP JUMPDEST SWAP1 POP SWAP2 SWAP1 POP JUMP JUMPDEST PUSH2 0x851 DUP2 PUSH2 0x836 JUMP JUMPDEST DUP2 EQ PUSH2 0x85C JUMPI PUSH1 0x0 DUP1 REVERT JUMPDEST POP JUMP JUMPDEST PUSH1 0x0 DUP2 CALLDATALOAD SWAP1 POP PUSH2 0x86E DUP2 PUSH2 0x848 JUMP JUMPDEST SWAP3 SWAP2 POP POP JUMP JUMPDEST PUSH1 0x0 PUSH1 0x20 DUP3 DUP5 SUB SLT ISZERO PUSH2 0x88A JUMPI PUSH2 0x889 PUSH2 0x7B8 JUMP JUMPDEST JUMPDEST PUSH1 0x0 PUSH2 0x898 DUP5 DUP3 DUP6 ADD PUSH2 0x85F JUMP JUMPDEST SWAP2 POP POP SWAP3 SWAP2 POP POP JUMP JUMPDEST PUSH1 0x0 DUP2 SWAP1 POP SWAP2 SWAP1 POP JUMP JUMPDEST PUSH1 0x0 PUSH2 0x8C6 PUSH2 0x8C1 PUSH2 0x8BC DUP5 PUSH2 0x816 JUMP JUMPDEST PUSH2 0x8A1 JUMP JUMPDEST PUSH2 0x816 JUMP JUMPDEST SWAP1 POP SWAP2 SWAP1 POP JUMP JUMPDEST PUSH1 0x0 PUSH2 0x8D8 DUP3 PUSH2 0x8AB JUMP JUMPDEST SWAP1 POP SWAP2 SWAP1 POP JUMP JUMPDEST PUSH1 0x0 PUSH2 0x8EA DUP3 PUSH2 0x8CD JUMP JUMPDEST SWAP1 POP SWAP2 SWAP1 POP JUMP JUMPDEST PUSH2 0x8FA DUP2 PUSH2 0x8DF JUMP JUMPDEST DUP3 MSTORE POP POP JUMP JUMPDEST PUSH1 0x0 PUSH1 0x20 DUP3 ADD SWAP1 POP PUSH2 0x915 PUSH1 0x0 DUP4 ADD DUP5 PUSH2 0x8F1 JUMP JUMPDEST SWAP3 SWAP2 POP POP JUMP JUMPDEST PUSH1 0x0 DUP3 DUP3 MSTORE PUSH1 0x20 DUP3 ADD SWAP1 POP SWAP3 SWAP2 POP POP JUMP JUMPDEST PUSH32 0x776974686472617720726571756573742067726561746572207468616E207374 PUSH1 0x0 DUP3 ADD MSTORE PUSH32 0x616B656420616D6F756E74000000000000000000000000000000000000000000 PUSH1 0x20 DUP3 ADD MSTORE POP JUMP JUMPDEST PUSH1 0x0 PUSH2 0x988 PUSH1 0x2B DUP4 PUSH2 0x91B JUMP JUMPDEST SWAP2 POP PUSH2 0x993 DUP3 PUSH2 0x92C JUMP JUMPDEST PUSH1 0x40 DUP3 ADD SWAP1 POP SWAP2 SWAP1 POP JUMP JUMPDEST PUSH1 0x0 PUSH1 0x20 DUP3 ADD SWAP1 POP DUP2 DUP2 SUB PUSH1 0x0 DUP4 ADD MSTORE PUSH2 0x9B7 DUP2 PUSH2 0x97B JUMP JUMPDEST SWAP1 POP SWAP2 SWAP1 POP JUMP JUMPDEST PUSH32 0x4E487B7100000000000000000000000000000000000000000000000000000000 PUSH1 0x0 MSTORE PUSH1 0x11 PUSH1 0x4 MSTORE PUSH1 0x24 PUSH1 0x0 REVERT JUMPDEST PUSH1 0x0 PUSH2 0x9F8 DUP3 PUSH2 0x784 JUMP JUMPDEST SWAP2 POP PUSH2 0xA03 DUP4 PUSH2 0x784 JUMP JUMPDEST SWAP3 POP DUP3 DUP3 SUB SWAP1 POP DUP2 DUP2 GT ISZERO PUSH2 0xA1B JUMPI PUSH2 0xA1A PUSH2 0x9BE JUMP JUMPDEST JUMPDEST SWAP3 SWAP2 POP POP JUMP JUMPDEST PUSH2 0xA2A DUP2 PUSH2 0x836 JUMP JUMPDEST DUP3 MSTORE POP POP JUMP JUMPDEST PUSH1 0x0 PUSH1 0x40 DUP3 ADD SWAP1 POP PUSH2 0xA45 PUSH1 0x0 DUP4 ADD DUP6 PUSH2 0xA21 JUMP JUMPDEST PUSH2 0xA52 PUSH1 0x20 DUP4 ADD DUP5 PUSH2 0x78E JUMP JUMPDEST SWAP4 SWAP3 POP POP POP JUMP JUMPDEST PUSH1 0x0 PUSH2 0xA64 DUP3 PUSH2 0x784 JUMP JUMPDEST SWAP2 POP PUSH2 0xA6F DUP4 PUSH2 0x784 JUMP JUMPDEST SWAP3 POP DUP3 DUP3 ADD SWAP1 POP DUP1 DUP3 GT ISZERO PUSH2 0xA87 JUMPI PUSH2 0xA86 PUSH2 0x9BE JUMP JUMPDEST JUMPDEST SWAP3 SWAP2 POP POP JUMP JUMPDEST PUSH1 0x0 PUSH1 0x60 DUP3 ADD SWAP1 POP PUSH2 0xAA2 PUSH1 0x0 DUP4 ADD DUP7 PUSH2 0xA21 JUMP JUMPDEST PUSH2 0xAAF PUSH1 0x20 DUP4 ADD DUP6 PUSH2 0xA21 JUMP JUMPDEST PUSH2 0xABC PUSH1 0x40 DUP4 ADD DUP5 PUSH2 0x78E JUMP JUMPDEST SWAP5 SWAP4 POP POP POP POP JUMP JUMPDEST PUSH1 0x0 DUP2 ISZERO ISZERO SWAP1 POP SWAP2 SWAP1 POP JUMP JUMPDEST PUSH2 0xAD9 DUP2 PUSH2 0xAC4 JUMP JUMPDEST DUP2 EQ PUSH2 0xAE4 JUMPI PUSH1 0x0 DUP1 REVERT JUMPDEST POP JUMP JUMPDEST PUSH1 0x0 DUP2 MLOAD SWAP1 POP PUSH2 0xAF6 DUP2 PUSH2 0xAD0 JUMP JUMPDEST SWAP3 SWAP2 POP POP JUMP JUMPDEST PUSH1 0x0 PUSH1 0x20 DUP3 DUP5 SUB SLT ISZERO PUSH2 0xB12 JUMPI PUSH2 0xB11 PUSH2 0x7B8 JUMP JUMPDEST JUMPDEST PUSH1 0x0 PUSH2 0xB20 DUP5 DUP3 DUP6 ADD PUSH2 0xAE7 JUMP JUMPDEST SWAP2 POP POP SWAP3 SWAP2 POP POP JUMP JUMPDEST PUSH32 0x5361666542455032303A204245503230206F7065726174696F6E20646964206E PUSH1 0x0 DUP3 ADD MSTORE PUSH32 0x6F74207375636365656400000000000000000000000000000000000000000000 PUSH1 0x20 DUP3 ADD MSTORE POP JUMP JUMPDEST PUSH1 0x0 PUSH2 0xB85 PUSH1 0x2A DUP4 PUSH2 0x91B JUMP JUMPDEST SWAP2 POP PUSH2 0xB90 DUP3 PUSH2 0xB29 JUMP JUMPDEST PUSH1 0x40 DUP3 ADD SWAP1 POP SWAP2 SWAP1 POP JUMP JUMPDEST PUSH1 0x0 PUSH1 0x20 DUP3 ADD SWAP1 POP DUP2 DUP2 SUB PUSH1 0x0 DUP4 ADD MSTORE PUSH2 0xBB4 DUP2 PUSH2 0xB78 JUMP JUMPDEST SWAP1 POP SWAP2 SWAP1 POP JUMP JUMPDEST PUSH32 0x416464726573733A2063616C6C20746F206E6F6E2D636F6E7472616374000000 PUSH1 0x0 DUP3 ADD MSTORE POP JUMP JUMPDEST PUSH1 0x0 PUSH2 0xBF1 PUSH1 0x1D DUP4 PUSH2 0x91B JUMP JUMPDEST SWAP2 POP PUSH2 0xBFC DUP3 PUSH2 0xBBB JUMP JUMPDEST PUSH1 0x20 DUP3 ADD SWAP1 POP SWAP2 SWAP1 POP JUMP JUMPDEST PUSH1 0x0 PUSH1 0x20 DUP3 ADD SWAP1 POP DUP2 DUP2 SUB PUSH1 0x0 DUP4 ADD MSTORE PUSH2 0xC20 DUP2 PUSH2 0xBE4 JUMP JUMPDEST SWAP1 POP SWAP2 SWAP1 POP JUMP JUMPDEST PUSH1 0x0 DUP2 MLOAD SWAP1 POP SWAP2 SWAP1 POP JUMP JUMPDEST PUSH1 0x0 DUP2 SWAP1 POP SWAP3 SWAP2 POP POP JUMP JUMPDEST PUSH1 0x0 JUMPDEST DUP4 DUP2 LT ISZERO PUSH2 0xC5B JUMPI DUP1 DUP3 ADD MLOAD DUP2 DUP5 ADD MSTORE PUSH1 0x20 DUP2 ADD SWAP1 POP PUSH2 0xC40 JUMP JUMPDEST PUSH1 0x0 DUP5 DUP5 ADD MSTORE POP POP POP POP JUMP JUMPDEST PUSH1 0x0 PUSH2 0xC72 DUP3 PUSH2 0xC27 JUMP JUMPDEST PUSH2 0xC7C DUP2 DUP6 PUSH2 0xC32 JUMP JUMPDEST SWAP4 POP PUSH2 0xC8C DUP2 DUP6 PUSH1 0x20 DUP7 ADD PUSH2 0xC3D JUMP JUMPDEST DUP1 DUP5 ADD SWAP2 POP POP SWAP3 SWAP2 POP POP JUMP JUMPDEST PUSH1 0x0 PUSH2 0xCA4 DUP3 DUP5 PUSH2 0xC67 JUMP JUMPDEST SWAP2 POP DUP2 SWAP1 POP SWAP3 SWAP2 POP POP JUMP JUMPDEST PUSH1 0x0 DUP2 MLOAD SWAP1 POP SWAP2 SWAP1 POP JUMP JUMPDEST PUSH1 0x0 PUSH1 0x1F NOT PUSH1 0x1F DUP4 ADD AND SWAP1 POP SWAP2 SWAP1 POP JUMP JUMPDEST PUSH1 0x0 PUSH2 0xCD6 DUP3 PUSH2 0xCAF JUMP JUMPDEST PUSH2 0xCE0 DUP2 DUP6 PUSH2 0x91B JUMP JUMPDEST SWAP4 POP PUSH2 0xCF0 DUP2 DUP6 PUSH1 0x20 DUP7 ADD PUSH2 0xC3D JUMP JUMPDEST PUSH2 0xCF9 DUP2 PUSH2 0xCBA JUMP JUMPDEST DUP5 ADD SWAP2 POP POP SWAP3 SWAP2 POP POP JUMP JUMPDEST PUSH1 0x0 PUSH1 0x20 DUP3 ADD SWAP1 POP DUP2 DUP2 SUB PUSH1 0x0 DUP4 ADD MSTORE PUSH2 0xD1E DUP2 DUP5 PUSH2 0xCCB JUMP JUMPDEST SWAP1 POP SWAP3 SWAP2 POP POP JUMP INVALID LOG2 PUSH5 0x6970667358 0x22 SLT KECCAK256 SGT 0xC5 0xE2 MULMOD LOG3 0xAF 0xD0 0x23 INVALID SMOD PUSH32 0x7C3CF755319020AF0766DA47C9D4EA1D7187C8A67264736F6C63430008130033 "
				},
				"gasEstimates": {
					"creation": {
						"codeDepositCost": "684000",
						"executionCost": "715",
						"totalCost": "684715"
					},
					"external": {
						"balanceOf(address)": "2863",
						"lpt()": "infinite",
						"stake(uint256)": "infinite",
						"totalSupply()": "2415",
						"withdraw(uint256)": "infinite"
					}
				},
				"methodIdentifiers": {
					"balanceOf(address)": "70a08231",
					"lpt()": "ce5fc8d0",
					"stake(uint256)": "a694fc3a",
					"totalSupply()": "18160ddd",
					"withdraw(uint256)": "2e1a7d4d"
				}
			},
			"storageLayout": {
				"storage": [
					{
						"astId": 50,
						"contract": "task1/AMM.sol:LPTokenWrapper",
						"label": "lpt",
						"offset": 0,
						"slot": "0",
						"type": "t_contract(IBEP20)1267"
					},
					{
						"astId": 53,
						"contract": "task1/AMM.sol:LPTokenWrapper",
						"label": "_totalSupply",
						"offset": 0,
						"slot": "1",
						"type": "t_uint256"
					},
					{
						"astId": 58,
						"contract": "task1/AMM.sol:LPTokenWrapper",
						"label": "_balances",
						"offset": 0,
						"slot": "2",
						"type": "t_mapping(t_address,t_uint256)"
					}
				],
				"types": {
					"t_address": {
						"encoding": "inplace",
						"label": "address",
						"numberOfBytes": "20"
					},
					"t_contract(IBEP20)1267": {
						"encoding": "inplace",
						"label": "contract IBEP20",
						"numberOfBytes": "20"
					},
					"t_mapping(t_address,t_uint256)": {
						"encoding": "mapping",
						"key": "t_address",
						"label": "mapping(address => uint256)",
						"numberOfBytes": "32",
						"value": "t_uint256"
					},
					"t_uint256": {
						"encoding": "inplace",
						"label": "uint256",
						"numberOfBytes": "32"
					}
				}
			},
			"userdoc": {
				"kind": "user",
				"methods": {
					"lpt()": {
						"notice": "GoCash LP Token合约地址"
					}
				},
				"version": 1
			}
		}
	}
}