{
	"task1/AMM.sol": {
		"LPTokenPool": {
			"abi": [
				{
					"inputs": [
						{
							"internalType": "address",
							"name": "token_",
							"type": "address"
						},
						{
							"internalType": "address",
							"name": "lptoken_",
							"type": "address"
						},
						{
							"internalType": "uint256",
							"name": "starttime_",
							"type": "uint256"
						}
					],
					"stateMutability": "nonpayable",
					"type": "constructor"
				},
				{
					"anonymous": false,
					"inputs": [
						{
							"indexed": true,
							"internalType": "address",
							"name": "previousOwner",
							"type": "address"
						},
						{
							"indexed": true,
							"internalType": "address",
							"name": "newOwner",
							"type": "address"
						}
					],
					"name": "OwnershipTransferred",
					"type": "event"
				},
				{
					"anonymous": false,
					"inputs": [
						{
							"indexed": false,
							"internalType": "uint256",
							"name": "reward",
							"type": "uint256"
						}
					],
					"name": "RewardAdded",
					"type": "event"
				},
				{
					"anonymous": false,
					"inputs": [
						{
							"indexed": true,
							"internalType": "address",
							"name": "user",
							"type": "address"
						},
						{
							"indexed": false,
							"internalType": "uint256",
							"name": "reward",
							"type": "uint256"
						}
					],
					"name": "RewardPaid",
					"type": "event"
				},
				{
					"anonymous": false,
					"inputs": [
						{
							"indexed": true,
							"internalType": "address",
							"name": "user",
							"type": "address"
						},
						{
							"indexed": false,
							"internalType": "uint256",
							"name": "amount",
							"type": "uint256"
						}
					],
					"name": "Staked",
					"type": "event"
				},
				{
					"anonymous": false,
					"inputs": [
						{
							"indexed": true,
							"internalType": "address",
							"name": "user",
							"type": "address"
						},
						{
							"indexed": false,
							"internalType": "uint256",
							"name": "amount",
							"type": "uint256"
						}
					],
					"name": "Withdrawn",
					"type": "event"
				},
				{
					"inputs": [],
					"name": "DURATION",
					"outputs": [
						{
							"internalType": "uint256",
							"name": "",
							"type": "uint256"
						}
					],
					"stateMutability": "view",
					"type": "function"
				},
				{
					"inputs": [
						{
							"internalType": "address",
							"name": "account",
							"type": "address"
						}
					],
					"name": "balanceOf",
					"outputs": [
						{
							"internalType": "uint256",
							"name": "",
							"type": "uint256"
						}
					],
					"stateMutability": "view",
					"type": "function"
				},
				{
					"inputs": [
						{
							"internalType": "address",
							"name": "account",
							"type": "address"
						}
					],
					"name": "earned",
					"outputs": [
						{
							"internalType": "uint256",
							"name": "",
							"type": "uint256"
						}
					],
					"stateMutability": "view",
					"type": "function"
				},
				{
					"inputs": [],
					"name": "exit",
					"outputs": [],
					"stateMutability": "nonpayable",
					"type": "function"
				},
				{
					"inputs": [],
					"name": "getReward",
					"outputs": [],
					"stateMutability": "nonpayable",
					"type": "function"
				},
				{
					"inputs": [],
					"name": "lastTimeRewardApplicable",
					"outputs": [
						{
							"internalType": "uint256",
							"name": "",
							"type": "uint256"
						}
					],
					"stateMutability": "view",
					"type": "function"
				},
				{
					"inputs": [],
					"name": "lastUpdateTime",
					"outputs": [
						{
							"internalType": "uint256",
							"name": "",
							"type": "uint256"
						}
					],
					"stateMutability": "view",
					"type": "function"
				},
				{
					"inputs": [],
					"name": "lpt",
					"outputs": [
						{
							"internalType": "contract IBEP20",
							"name": "",
							"type": "address"
						}
					],
					"stateMutability": "view",
					"type": "function"
				},
				{
					"inputs": [
						{
							"internalType": "uint256",
							"name": "reward",
							"type": "uint256"
						}
					],
					"name": "notifyRewardAmount",
					"outputs": [],
					"stateMutability": "nonpayable",
					"type": "function"
				},
				{
					"inputs": [],
					"name": "owner",
					"outputs": [
						{
							"internalType": "address",
							"name": "",
							"type": "address"
						}
					],
					"stateMutability": "view",
					"type": "function"
				},
				{
					"inputs": [],
					"name": "periodFinish",
					"outputs": [
						{
							"internalType": "uint256",
							"name": "",
							"type": "uint256"
						}
					],
					"stateMutability": "view",
					"type": "function"
				},
				{
					"inputs": [],
					"name": "renounceOwnership",
					"outputs": [],
					"stateMutability": "nonpayable",
					"type": "function"
				},
				{
					"inputs": [],
					"name": "rewardDistribution",
					"outputs": [
						{
							"internalType": "address",
							"name": "",
							"type": "address"
						}
					],
					"stateMutability": "view",
					"type": "function"
				},
				{
					"inputs": [],
					"name": "rewardPerToken",
					"outputs": [
						{
							"internalType": "uint256",
							"name": "",
							"type": "uint256"
						}
					],
					"stateMutability": "view",
					"type": "function"
				},
				{
					"inputs": [],
					"name": "rewardPerTokenStored",
					"outputs": [
						{
							"internalType": "uint256",
							"name": "",
							"type": "uint256"
						}
					],
					"stateMutability": "view",
					"type": "function"
				},
				{
					"inputs": [],
					"name": "rewardRate",
					"outputs": [
						{
							"internalType": "uint256",
							"name": "",
							"type": "uint256"
						}
					],
					"stateMutability": "view",
					"type": "function"
				},
				{
					"inputs": [
						{
							"internalType": "address",
							"name": "",
							"type": "address"
						}
					],
					"name": "rewards",
					"outputs": [
						{
							"internalType": "uint256",
							"name": "",
							"type": "uint256"
						}
					],
					"stateMutability": "view",
					"type": "function"
				},
				{
					"inputs": [
						{
							"internalType": "address",
							"name": "_rewardDistribution",
							"type": "address"
						}
					],
					"name": "setRewardDistribution",
					"outputs": [],
					"stateMutability": "nonpayable",
					"type": "function"
				},
				{
					"inputs": [
						{
							"internalType": "uint256",
							"name": "amount",
							"type": "uint256"
						}
					],
					"name": "stake",
					"outputs": [],
					"stateMutability": "nonpayable",
					"type": "function"
				},
				{
					"inputs": [],
					"name": "starttime",
					"outputs": [
						{
							"internalType": "uint256",
							"name": "",
							"type": "uint256"
						}
					],
					"stateMutability": "view",
					"type": "function"
				},
				{
					"inputs": [],
					"name": "token",
					"outputs": [
						{
							"internalType": "contract IBEP20",
							"name": "",
							"type": "address"
						}
					],
					"stateMutability": "view",
					"type": "function"
				},
				{
					"inputs": [],
					"name": "totalSupply",
					"outputs": [
						{
							"internalType": "uint256",
							"name": "",
							"type": "uint256"
						}
					],
					"stateMutability": "view",
					"type": "function"
				},
				{
					"inputs": [
						{
							"internalType": "address",
							"name": "newOwner",
							"type": "address"
						}
					],
					"name": "transferOwnership",
					"outputs": [],
					"stateMutability": "nonpayable",
					"type": "function"
				},
				{
					"inputs": [
						{
							"internalType": "address",
							"name": "",
							"type": "address"
						}
					],
					"name": "userRewardPerTokenPaid",
					"outputs": [
						{
							"internalType": "uint256",
							"name": "",
							"type": "uint256"
						}
					],
					"stateMutability": "view",
					"type": "function"
				},
				{
					"inputs": [
						{
							"internalType": "uint256",
							"name": "amount",
							"type": "uint256"
						}
					],
					"name": "withdraw",
					"outputs": [],
					"stateMutability": "nonpayable",
					"type": "function"
				}
			],
			"devdoc": {
				"kind": "dev",
				"methods": {
					"balanceOf(address)": {
						"details": "返回账户余额",
						"params": {
							"account": "账户地址"
						},
						"returns": {
							"_0": "余额"
						}
					},
					"constructor": {
						"details": "构造函数",
						"params": {
							"lptoken_": "LPtoken地址",
							"starttime_": "开始时间",
							"token_": "token地址"
						}
					},
					"earned(address)": {
						"details": "用户已奖励的数量",
						"params": {
							"account": "用户地址"
						}
					},
					"exit()": {
						"details": "退出"
					},
					"getReward()": {
						"details": "获取奖励"
					},
					"lastTimeRewardApplicable()": {
						"details": "返回奖励的最后期限",
						"returns": {
							"_0": "最后期限"
						}
					},
					"notifyRewardAmount(uint256)": {
						"details": "通知奖励数量",
						"params": {
							"reward": "奖励数量"
						}
					},
					"owner()": {
						"details": "Returns the address of the current owner."
					},
					"renounceOwnership()": {
						"details": "Leaves the contract without owner. It will not be possible to call `onlyOwner` functions anymore. Can only be called by the current owner. NOTE: Renouncing ownership will leave the contract without an owner, thereby removing any functionality that is only available to the owner."
					},
					"rewardPerToken()": {
						"details": "每个质押Token的奖励",
						"returns": {
							"_0": "奖励数量"
						}
					},
					"stake(uint256)": {
						"details": "质押指定数量的token",
						"params": {
							"amount": "质押数量"
						}
					},
					"totalSupply()": {
						"details": "返回总量",
						"returns": {
							"_0": "总量"
						}
					},
					"transferOwnership(address)": {
						"details": "Transfers ownership of the contract to a new account (`newOwner`). Can only be called by the current owner."
					},
					"withdraw(uint256)": {
						"details": "提款指定数额的质押token",
						"params": {
							"amount": "质押数量"
						}
					}
				},
				"title": "LP Token矿池合约",
				"version": 1
			},
			"evm": {
				"assembly": "    /* \"task1/AMM.sol\":2572:9804  contract LPTokenPool is LPTokenWrapper, IRewardDistributionRecipient {... */\n  mstore(0x40, 0x80)\n    /* \"task1/AMM.sol\":2806:2813  30 days */\n  0x278d00\n    /* \"task1/AMM.sol\":2780:2813  uint256 public DURATION = 30 days */\n  0x06\n  sstore\n    /* \"task1/AMM.sol\":2958:2959  0 */\n  0x00\n    /* \"task1/AMM.sol\":2928:2959  uint256 public periodFinish = 0 */\n  0x08\n  sstore\n    /* \"task1/AMM.sol\":3030:3031  0 */\n  0x00\n    /* \"task1/AMM.sol\":3002:3031  uint256 public rewardRate = 0 */\n  0x09\n  sstore\n    /* \"task1/AMM.sol\":3782:3962  constructor(address token_, address lptoken_, uint256 starttime_) public {... */\n  callvalue\n  dup1\n  iszero\n  tag_1\n  jumpi\n  0x00\n  dup1\n  revert\ntag_1:\n  pop\n  mload(0x40)\n  sub(codesize, bytecodeSize)\n  dup1\n  bytecodeSize\n  dup4\n  codecopy\n  dup2\n  dup2\n  add\n  0x40\n  mstore\n  dup2\n  add\n  swap1\n  tag_2\n  swap2\n  swap1\n  tag_3\n  jump\t// in\ntag_2:\n    /* \"task1/utils.sol\":18887:18908  _setOwner(address(0)) */\n  tag_7\n    /* \"task1/utils.sol\":18905:18906  0 */\n  0x00\n    /* \"task1/utils.sol\":18887:18896  _setOwner */\n  shl(0x20, tag_8)\n    /* \"task1/utils.sol\":18887:18908  _setOwner(address(0)) */\n  0x20\n  shr\n  jump\t// in\ntag_7:\n    /* \"task1/AMM.sol\":3881:3887  token_ */\n  dup3\n    /* \"task1/AMM.sol\":3866:3871  token */\n  0x05\n  0x00\n    /* \"task1/AMM.sol\":3866:3888  token = IBEP20(token_) */\n  0x0100\n  exp\n  dup2\n  sload\n  dup2\n  0xffffffffffffffffffffffffffffffffffffffff\n  mul\n  not\n  and\n  swap1\n  dup4\n  0xffffffffffffffffffffffffffffffffffffffff\n  and\n  mul\n  or\n  swap1\n  sstore\n  pop\n    /* \"task1/AMM.sol\":3912:3920  lptoken_ */\n  dup2\n    /* \"task1/AMM.sol\":3899:3902  lpt */\n  0x00\n  dup1\n    /* \"task1/AMM.sol\":3899:3921  lpt = IBEP20(lptoken_) */\n  0x0100\n  exp\n  dup2\n  sload\n  dup2\n  0xffffffffffffffffffffffffffffffffffffffff\n  mul\n  not\n  and\n  swap1\n  dup4\n  0xffffffffffffffffffffffffffffffffffffffff\n  and\n  mul\n  or\n  swap1\n  sstore\n  pop\n    /* \"task1/AMM.sol\":3944:3954  starttime_ */\n  dup1\n    /* \"task1/AMM.sol\":3932:3941  starttime */\n  0x07\n    /* \"task1/AMM.sol\":3932:3954  starttime = starttime_ */\n  dup2\n  swap1\n  sstore\n  pop\n    /* \"task1/AMM.sol\":3782:3962  constructor(address token_, address lptoken_, uint256 starttime_) public {... */\n  pop\n  pop\n  pop\n    /* \"task1/AMM.sol\":2572:9804  contract LPTokenPool is LPTokenWrapper, IRewardDistributionRecipient {... */\n  jump(tag_10)\n    /* \"task1/utils.sol\":20134:20307  function _setOwner(address newOwner) private {... */\ntag_8:\n    /* \"task1/utils.sol\":20190:20206  address oldOwner */\n  0x00\n    /* \"task1/utils.sol\":20209:20215  _owner */\n  0x03\n  0x00\n  swap1\n  sload\n  swap1\n  0x0100\n  exp\n  swap1\n  div\n  0xffffffffffffffffffffffffffffffffffffffff\n  and\n    /* \"task1/utils.sol\":20190:20215  address oldOwner = _owner */\n  swap1\n  pop\n    /* \"task1/utils.sol\":20235:20243  newOwner */\n  dup2\n    /* \"task1/utils.sol\":20226:20232  _owner */\n  0x03\n  0x00\n    /* \"task1/utils.sol\":20226:20243  _owner = newOwner */\n  0x0100\n  exp\n  dup2\n  sload\n  dup2\n  0xffffffffffffffffffffffffffffffffffffffff\n  mul\n  not\n  and\n  swap1\n  dup4\n  0xffffffffffffffffffffffffffffffffffffffff\n  and\n  mul\n  or\n  swap1\n  sstore\n  pop\n    /* \"task1/utils.sol\":20290:20298  newOwner */\n  dup2\n    /* \"task1/utils.sol\":20259:20299  OwnershipTransferred(oldOwner, newOwner) */\n  0xffffffffffffffffffffffffffffffffffffffff\n  and\n    /* \"task1/utils.sol\":20280:20288  oldOwner */\n  dup2\n    /* \"task1/utils.sol\":20259:20299  OwnershipTransferred(oldOwner, newOwner) */\n  0xffffffffffffffffffffffffffffffffffffffff\n  and\n  0x8be0079c531659141344cd1fd0a4f28419497f9722a3daafe3b4186f6b6457e0\n  mload(0x40)\n  mload(0x40)\n  dup1\n  swap2\n  sub\n  swap1\n  log3\n    /* \"task1/utils.sol\":20179:20307  {... */\n  pop\n    /* \"task1/utils.sol\":20134:20307  function _setOwner(address newOwner) private {... */\n  pop\n  jump\t// out\n    /* \"#utility.yul\":88:205   */\ntag_13:\n    /* \"#utility.yul\":197:198   */\n  0x00\n    /* \"#utility.yul\":194:195   */\n  dup1\n    /* \"#utility.yul\":187:199   */\n  revert\n    /* \"#utility.yul\":334:460   */\ntag_15:\n    /* \"#utility.yul\":371:378   */\n  0x00\n    /* \"#utility.yul\":411:453   */\n  0xffffffffffffffffffffffffffffffffffffffff\n    /* \"#utility.yul\":404:409   */\n  dup3\n    /* \"#utility.yul\":400:454   */\n  and\n    /* \"#utility.yul\":389:454   */\n  swap1\n  pop\n    /* \"#utility.yul\":334:460   */\n  swap2\n  swap1\n  pop\n  jump\t// out\n    /* \"#utility.yul\":466:562   */\ntag_16:\n    /* \"#utility.yul\":503:510   */\n  0x00\n    /* \"#utility.yul\":532:556   */\n  tag_28\n    /* \"#utility.yul\":550:555   */\n  dup3\n    /* \"#utility.yul\":532:556   */\n  tag_15\n  jump\t// in\ntag_28:\n    /* \"#utility.yul\":521:556   */\n  swap1\n  pop\n    /* \"#utility.yul\":466:562   */\n  swap2\n  swap1\n  pop\n  jump\t// out\n    /* \"#utility.yul\":568:690   */\ntag_17:\n    /* \"#utility.yul\":641:665   */\n  tag_30\n    /* \"#utility.yul\":659:664   */\n  dup2\n    /* \"#utility.yul\":641:665   */\n  tag_16\n  jump\t// in\ntag_30:\n    /* \"#utility.yul\":634:639   */\n  dup2\n    /* \"#utility.yul\":631:666   */\n  eq\n    /* \"#utility.yul\":621:684   */\n  tag_31\n  jumpi\n    /* \"#utility.yul\":680:681   */\n  0x00\n    /* \"#utility.yul\":677:678   */\n  dup1\n    /* \"#utility.yul\":670:682   */\n  revert\n    /* \"#utility.yul\":621:684   */\ntag_31:\n    /* \"#utility.yul\":568:690   */\n  pop\n  jump\t// out\n    /* \"#utility.yul\":696:839   */\ntag_18:\n    /* \"#utility.yul\":753:758   */\n  0x00\n    /* \"#utility.yul\":784:790   */\n  dup2\n    /* \"#utility.yul\":778:791   */\n  mload\n    /* \"#utility.yul\":769:791   */\n  swap1\n  pop\n    /* \"#utility.yul\":800:833   */\n  tag_33\n    /* \"#utility.yul\":827:832   */\n  dup2\n    /* \"#utility.yul\":800:833   */\n  tag_17\n  jump\t// in\ntag_33:\n    /* \"#utility.yul\":696:839   */\n  swap3\n  swap2\n  pop\n  pop\n  jump\t// out\n    /* \"#utility.yul\":845:922   */\ntag_19:\n    /* \"#utility.yul\":882:889   */\n  0x00\n    /* \"#utility.yul\":911:916   */\n  dup2\n    /* \"#utility.yul\":900:916   */\n  swap1\n  pop\n    /* \"#utility.yul\":845:922   */\n  swap2\n  swap1\n  pop\n  jump\t// out\n    /* \"#utility.yul\":928:1050   */\ntag_20:\n    /* \"#utility.yul\":1001:1025   */\n  tag_36\n    /* \"#utility.yul\":1019:1024   */\n  dup2\n    /* \"#utility.yul\":1001:1025   */\n  tag_19\n  jump\t// in\ntag_36:\n    /* \"#utility.yul\":994:999   */\n  dup2\n    /* \"#utility.yul\":991:1026   */\n  eq\n    /* \"#utility.yul\":981:1044   */\n  tag_37\n  jumpi\n    /* \"#utility.yul\":1040:1041   */\n  0x00\n    /* \"#utility.yul\":1037:1038   */\n  dup1\n    /* \"#utility.yul\":1030:1042   */\n  revert\n    /* \"#utility.yul\":981:1044   */\ntag_37:\n    /* \"#utility.yul\":928:1050   */\n  pop\n  jump\t// out\n    /* \"#utility.yul\":1056:1199   */\ntag_21:\n    /* \"#utility.yul\":1113:1118   */\n  0x00\n    /* \"#utility.yul\":1144:1150   */\n  dup2\n    /* \"#utility.yul\":1138:1151   */\n  mload\n    /* \"#utility.yul\":1129:1151   */\n  swap1\n  pop\n    /* \"#utility.yul\":1160:1193   */\n  tag_39\n    /* \"#utility.yul\":1187:1192   */\n  dup2\n    /* \"#utility.yul\":1160:1193   */\n  tag_20\n  jump\t// in\ntag_39:\n    /* \"#utility.yul\":1056:1199   */\n  swap3\n  swap2\n  pop\n  pop\n  jump\t// out\n    /* \"#utility.yul\":1205:1868   */\ntag_3:\n    /* \"#utility.yul\":1293:1299   */\n  0x00\n    /* \"#utility.yul\":1301:1307   */\n  dup1\n    /* \"#utility.yul\":1309:1315   */\n  0x00\n    /* \"#utility.yul\":1358:1360   */\n  0x60\n    /* \"#utility.yul\":1346:1355   */\n  dup5\n    /* \"#utility.yul\":1337:1344   */\n  dup7\n    /* \"#utility.yul\":1333:1356   */\n  sub\n    /* \"#utility.yul\":1329:1361   */\n  slt\n    /* \"#utility.yul\":1326:1445   */\n  iszero\n  tag_41\n  jumpi\n    /* \"#utility.yul\":1364:1443   */\n  tag_42\n  tag_13\n  jump\t// in\ntag_42:\n    /* \"#utility.yul\":1326:1445   */\ntag_41:\n    /* \"#utility.yul\":1484:1485   */\n  0x00\n    /* \"#utility.yul\":1509:1573   */\n  tag_43\n    /* \"#utility.yul\":1565:1572   */\n  dup7\n    /* \"#utility.yul\":1556:1562   */\n  dup3\n    /* \"#utility.yul\":1545:1554   */\n  dup8\n    /* \"#utility.yul\":1541:1563   */\n  add\n    /* \"#utility.yul\":1509:1573   */\n  tag_18\n  jump\t// in\ntag_43:\n    /* \"#utility.yul\":1499:1573   */\n  swap4\n  pop\n    /* \"#utility.yul\":1455:1583   */\n  pop\n    /* \"#utility.yul\":1622:1624   */\n  0x20\n    /* \"#utility.yul\":1648:1712   */\n  tag_44\n    /* \"#utility.yul\":1704:1711   */\n  dup7\n    /* \"#utility.yul\":1695:1701   */\n  dup3\n    /* \"#utility.yul\":1684:1693   */\n  dup8\n    /* \"#utility.yul\":1680:1702   */\n  add\n    /* \"#utility.yul\":1648:1712   */\n  tag_18\n  jump\t// in\ntag_44:\n    /* \"#utility.yul\":1638:1712   */\n  swap3\n  pop\n    /* \"#utility.yul\":1593:1722   */\n  pop\n    /* \"#utility.yul\":1761:1763   */\n  0x40\n    /* \"#utility.yul\":1787:1851   */\n  tag_45\n    /* \"#utility.yul\":1843:1850   */\n  dup7\n    /* \"#utility.yul\":1834:1840   */\n  dup3\n    /* \"#utility.yul\":1823:1832   */\n  dup8\n    /* \"#utility.yul\":1819:1841   */\n  add\n    /* \"#utility.yul\":1787:1851   */\n  tag_21\n  jump\t// in\ntag_45:\n    /* \"#utility.yul\":1777:1851   */\n  swap2\n  pop\n    /* \"#utility.yul\":1732:1861   */\n  pop\n    /* \"#utility.yul\":1205:1868   */\n  swap3\n  pop\n  swap3\n  pop\n  swap3\n  jump\t// out\n    /* \"task1/AMM.sol\":2572:9804  contract LPTokenPool is LPTokenWrapper, IRewardDistributionRecipient {... */\ntag_10:\n  dataSize(sub_0)\n  dup1\n  dataOffset(sub_0)\n  0x00\n  codecopy\n  0x00\n  return\nstop\n\nsub_0: assembly {\n        /* \"task1/AMM.sol\":2572:9804  contract LPTokenPool is LPTokenWrapper, IRewardDistributionRecipient {... */\n      mstore(0x40, 0x80)\n      callvalue\n      dup1\n      iszero\n      tag_1\n      jumpi\n      0x00\n      dup1\n      revert\n    tag_1:\n      pop\n      jumpi(tag_2, lt(calldatasize, 0x04))\n      shr(0xe0, calldataload(0x00))\n      dup1\n      0x80faa57d\n      gt\n      tag_28\n      jumpi\n      dup1\n      0xcd3daf9d\n      gt\n      tag_29\n      jumpi\n      dup1\n      0xe9fad8ee\n      gt\n      tag_30\n      jumpi\n      dup1\n      0xe9fad8ee\n      eq\n      tag_24\n      jumpi\n      dup1\n      0xebe2b12b\n      eq\n      tag_25\n      jumpi\n      dup1\n      0xf2fde38b\n      eq\n      tag_26\n      jumpi\n      dup1\n      0xfc0c546a\n      eq\n      tag_27\n      jumpi\n      jump(tag_2)\n    tag_30:\n      dup1\n      0xcd3daf9d\n      eq\n      tag_21\n      jumpi\n      dup1\n      0xce5fc8d0\n      eq\n      tag_22\n      jumpi\n      dup1\n      0xdf136d65\n      eq\n      tag_23\n      jumpi\n      jump(tag_2)\n    tag_29:\n      dup1\n      0x80faa57d\n      eq\n      tag_15\n      jumpi\n      dup1\n      0x8b876347\n      eq\n      tag_16\n      jumpi\n      dup1\n      0x8da58897\n      eq\n      tag_17\n      jumpi\n      dup1\n      0x8da5cb5b\n      eq\n      tag_18\n      jumpi\n      dup1\n      0xa694fc3a\n      eq\n      tag_19\n      jumpi\n      dup1\n      0xc8f33c91\n      eq\n      tag_20\n      jumpi\n      jump(tag_2)\n    tag_28:\n      dup1\n      0x2e1a7d4d\n      gt\n      tag_31\n      jumpi\n      dup1\n      0x2e1a7d4d\n      eq\n      tag_9\n      jumpi\n      dup1\n      0x3c6b16ab\n      eq\n      tag_10\n      jumpi\n      dup1\n      0x3d18b912\n      eq\n      tag_11\n      jumpi\n      dup1\n      0x70a08231\n      eq\n      tag_12\n      jumpi\n      dup1\n      0x715018a6\n      eq\n      tag_13\n      jumpi\n      dup1\n      0x7b0a47ee\n      eq\n      tag_14\n      jumpi\n      jump(tag_2)\n    tag_31:\n      dup1\n      0x8cc262\n      eq\n      tag_3\n      jumpi\n      dup1\n      0x0700037d\n      eq\n      tag_4\n      jumpi\n      dup1\n      0x0d68b761\n      eq\n      tag_5\n      jumpi\n      dup1\n      0x101114cf\n      eq\n      tag_6\n      jumpi\n      dup1\n      0x18160ddd\n      eq\n      tag_7\n      jumpi\n      dup1\n      0x1be05289\n      eq\n      tag_8\n      jumpi\n    tag_2:\n      0x00\n      dup1\n      revert\n        /* \"task1/AMM.sol\":5959:6370  function earned(address account) public view returns (uint256) {... */\n    tag_3:\n      tag_32\n      0x04\n      dup1\n      calldatasize\n      sub\n      dup2\n      add\n      swap1\n      tag_33\n      swap2\n      swap1\n      tag_34\n      jump\t// in\n    tag_33:\n      tag_35\n      jump\t// in\n    tag_32:\n      mload(0x40)\n      tag_36\n      swap2\n      swap1\n      tag_37\n      jump\t// in\n    tag_36:\n      mload(0x40)\n      dup1\n      swap2\n      sub\n      swap1\n      return\n        /* \"task1/AMM.sol\":3356:3398  mapping(address => uint256) public rewards */\n    tag_4:\n      tag_38\n      0x04\n      dup1\n      calldatasize\n      sub\n      dup2\n      add\n      swap1\n      tag_39\n      swap2\n      swap1\n      tag_34\n      jump\t// in\n    tag_39:\n      tag_40\n      jump\t// in\n    tag_38:\n      mload(0x40)\n      tag_41\n      swap2\n      swap1\n      tag_37\n      jump\t// in\n    tag_41:\n      mload(0x40)\n      dup1\n      swap2\n      sub\n      swap1\n      return\n        /* \"task1/AMM.sol\":505:683  function setRewardDistribution(address _rewardDistribution)... */\n    tag_5:\n      tag_42\n      0x04\n      dup1\n      calldatasize\n      sub\n      dup2\n      add\n      swap1\n      tag_43\n      swap2\n      swap1\n      tag_34\n      jump\t// in\n    tag_43:\n      tag_44\n      jump\t// in\n    tag_42:\n      stop\n        /* \"task1/AMM.sol\":204:237  address public rewardDistribution */\n    tag_6:\n      tag_45\n      tag_46\n      jump\t// in\n    tag_45:\n      mload(0x40)\n      tag_47\n      swap2\n      swap1\n      tag_48\n      jump\t// in\n    tag_47:\n      mload(0x40)\n      dup1\n      swap2\n      sub\n      swap1\n      return\n        /* \"task1/AMM.sol\":1106:1197  function totalSupply() public view returns (uint256) {... */\n    tag_7:\n      tag_49\n      tag_50\n      jump\t// in\n    tag_49:\n      mload(0x40)\n      tag_51\n      swap2\n      swap1\n      tag_37\n      jump\t// in\n    tag_51:\n      mload(0x40)\n      dup1\n      swap2\n      sub\n      swap1\n      return\n        /* \"task1/AMM.sol\":2780:2813  uint256 public DURATION = 30 days */\n    tag_8:\n      tag_52\n      tag_53\n      jump\t// in\n    tag_52:\n      mload(0x40)\n      tag_54\n      swap2\n      swap1\n      tag_37\n      jump\t// in\n    tag_54:\n      mload(0x40)\n      dup1\n      swap2\n      sub\n      swap1\n      return\n        /* \"task1/AMM.sol\":6996:7343  function withdraw(... */\n    tag_9:\n      tag_55\n      0x04\n      dup1\n      calldatasize\n      sub\n      dup2\n      add\n      swap1\n      tag_56\n      swap2\n      swap1\n      tag_57\n      jump\t// in\n    tag_56:\n      tag_58\n      jump\t// in\n    tag_55:\n      stop\n        /* \"task1/AMM.sol\":8205:9801  function notifyRewardAmount(... */\n    tag_10:\n      tag_59\n      0x04\n      dup1\n      calldatasize\n      sub\n      dup2\n      add\n      swap1\n      tag_60\n      swap2\n      swap1\n      tag_57\n      jump\t// in\n    tag_60:\n      tag_61\n      jump\t// in\n    tag_59:\n      stop\n        /* \"task1/AMM.sol\":7609:8112  function getReward() public updateReward(msg.sender) checkStart {... */\n    tag_11:\n      tag_62\n      tag_63\n      jump\t// in\n    tag_62:\n      stop\n        /* \"task1/AMM.sol\":1314:1424  function balanceOf(address account) public view returns (uint256) {... */\n    tag_12:\n      tag_64\n      0x04\n      dup1\n      calldatasize\n      sub\n      dup2\n      add\n      swap1\n      tag_65\n      swap2\n      swap1\n      tag_34\n      jump\t// in\n    tag_65:\n      tag_66\n      jump\t// in\n    tag_64:\n      mload(0x40)\n      tag_67\n      swap2\n      swap1\n      tag_37\n      jump\t// in\n    tag_67:\n      mload(0x40)\n      dup1\n      swap2\n      sub\n      swap1\n      return\n        /* \"task1/utils.sol\":19648:19742  function renounceOwnership() public virtual onlyOwner {... */\n    tag_13:\n      tag_68\n      tag_69\n      jump\t// in\n    tag_68:\n      stop\n        /* \"task1/AMM.sol\":3002:3031  uint256 public rewardRate = 0 */\n    tag_14:\n      tag_70\n      tag_71\n      jump\t// in\n    tag_70:\n      mload(0x40)\n      tag_72\n      swap2\n      swap1\n      tag_37\n      jump\t// in\n    tag_72:\n      mload(0x40)\n      dup1\n      swap2\n      sub\n      swap1\n      return\n        /* \"task1/AMM.sol\":5023:5203  function lastTimeRewardApplicable() public view returns (uint256) {... */\n    tag_15:\n      tag_73\n      tag_74\n      jump\t// in\n    tag_73:\n      mload(0x40)\n      tag_75\n      swap2\n      swap1\n      tag_37\n      jump\t// in\n    tag_75:\n      mload(0x40)\n      dup1\n      swap2\n      sub\n      swap1\n      return\n        /* \"task1/AMM.sol\":3244:3301  mapping(address => uint256) public userRewardPerTokenPaid */\n    tag_16:\n      tag_76\n      0x04\n      dup1\n      calldatasize\n      sub\n      dup2\n      add\n      swap1\n      tag_77\n      swap2\n      swap1\n      tag_34\n      jump\t// in\n    tag_77:\n      tag_78\n      jump\t// in\n    tag_76:\n      mload(0x40)\n      tag_79\n      swap2\n      swap1\n      tag_37\n      jump\t// in\n    tag_79:\n      mload(0x40)\n      dup1\n      swap2\n      sub\n      swap1\n      return\n        /* \"task1/AMM.sol\":2850:2874  uint256 public starttime */\n    tag_17:\n      tag_80\n      tag_81\n      jump\t// in\n    tag_80:\n      mload(0x40)\n      tag_82\n      swap2\n      swap1\n      tag_37\n      jump\t// in\n    tag_82:\n      mload(0x40)\n      dup1\n      swap2\n      sub\n      swap1\n      return\n        /* \"task1/utils.sol\":18997:19084  function owner() public view virtual returns (address) {... */\n    tag_18:\n      tag_83\n      tag_84\n      jump\t// in\n    tag_83:\n      mload(0x40)\n      tag_85\n      swap2\n      swap1\n      tag_48\n      jump\t// in\n    tag_85:\n      mload(0x40)\n      dup1\n      swap2\n      sub\n      swap1\n      return\n        /* \"task1/AMM.sol\":6554:6889  function stake(... */\n    tag_19:\n      tag_86\n      0x04\n      dup1\n      calldatasize\n      sub\n      dup2\n      add\n      swap1\n      tag_87\n      swap2\n      swap1\n      tag_57\n      jump\t// in\n    tag_87:\n      tag_88\n      jump\t// in\n    tag_86:\n      stop\n        /* \"task1/AMM.sol\":3074:3103  uint256 public lastUpdateTime */\n    tag_20:\n      tag_89\n      tag_90\n      jump\t// in\n    tag_89:\n      mload(0x40)\n      tag_91\n      swap2\n      swap1\n      tag_37\n      jump\t// in\n    tag_91:\n      mload(0x40)\n      dup1\n      swap2\n      sub\n      swap1\n      return\n        /* \"task1/AMM.sol\":5298:5859  function rewardPerToken() public view returns (uint256) {... */\n    tag_21:\n      tag_92\n      tag_93\n      jump\t// in\n    tag_92:\n      mload(0x40)\n      tag_94\n      swap2\n      swap1\n      tag_37\n      jump\t// in\n    tag_94:\n      mload(0x40)\n      dup1\n      swap2\n      sub\n      swap1\n      return\n        /* \"task1/AMM.sol\":870:887  IBEP20 public lpt */\n    tag_22:\n      tag_95\n      tag_96\n      jump\t// in\n    tag_95:\n      mload(0x40)\n      tag_97\n      swap2\n      swap1\n      tag_98\n      jump\t// in\n    tag_97:\n      mload(0x40)\n      dup1\n      swap2\n      sub\n      swap1\n      return\n        /* \"task1/AMM.sol\":3146:3181  uint256 public rewardPerTokenStored */\n    tag_23:\n      tag_99\n      tag_100\n      jump\t// in\n    tag_99:\n      mload(0x40)\n      tag_101\n      swap2\n      swap1\n      tag_37\n      jump\t// in\n    tag_101:\n      mload(0x40)\n      dup1\n      swap2\n      sub\n      swap1\n      return\n        /* \"task1/AMM.sol\":7389:7557  function exit() external {... */\n    tag_24:\n      tag_102\n      tag_103\n      jump\t// in\n    tag_102:\n      stop\n        /* \"task1/AMM.sol\":2928:2959  uint256 public periodFinish = 0 */\n    tag_25:\n      tag_104\n      tag_105\n      jump\t// in\n    tag_104:\n      mload(0x40)\n      tag_106\n      swap2\n      swap1\n      tag_37\n      jump\t// in\n    tag_106:\n      mload(0x40)\n      dup1\n      swap2\n      sub\n      swap1\n      return\n        /* \"task1/utils.sol\":19897:20126  function transferOwnership(address newOwner) public virtual onlyOwner {... */\n    tag_26:\n      tag_107\n      0x04\n      dup1\n      calldatasize\n      sub\n      dup2\n      add\n      swap1\n      tag_108\n      swap2\n      swap1\n      tag_34\n      jump\t// in\n    tag_108:\n      tag_109\n      jump\t// in\n    tag_107:\n      stop\n        /* \"task1/AMM.sol\":2716:2735  IBEP20 public token */\n    tag_27:\n      tag_110\n      tag_111\n      jump\t// in\n    tag_110:\n      mload(0x40)\n      tag_112\n      swap2\n      swap1\n      tag_98\n      jump\t// in\n    tag_112:\n      mload(0x40)\n      dup1\n      swap2\n      sub\n      swap1\n      return\n        /* \"task1/AMM.sol\":5959:6370  function earned(address account) public view returns (uint256) {... */\n    tag_35:\n        /* \"task1/AMM.sol\":6013:6020  uint256 */\n      0x00\n        /* \"task1/AMM.sol\":6199:6362  balanceOf(account)... */\n      tag_114\n        /* \"task1/AMM.sol\":6345:6352  rewards */\n      0x0d\n        /* \"task1/AMM.sol\":6345:6361  rewards[account] */\n      0x00\n        /* \"task1/AMM.sol\":6353:6360  account */\n      dup5\n        /* \"task1/AMM.sol\":6345:6361  rewards[account] */\n      0xffffffffffffffffffffffffffffffffffffffff\n      and\n      0xffffffffffffffffffffffffffffffffffffffff\n      and\n      dup2\n      mstore\n      0x20\n      add\n      swap1\n      dup2\n      mstore\n      0x20\n      add\n      0x00\n      keccak256\n      sload\n        /* \"task1/AMM.sol\":6199:6322  balanceOf(account)... */\n      tag_115\n        /* \"task1/AMM.sol\":6317:6321  1e18 */\n      0x0de0b6b3a7640000\n        /* \"task1/AMM.sol\":6199:6294  balanceOf(account)... */\n      tag_116\n        /* \"task1/AMM.sol\":6240:6293  rewardPerToken().sub(userRewardPerTokenPaid[account]) */\n      tag_117\n        /* \"task1/AMM.sol\":6261:6283  userRewardPerTokenPaid */\n      0x0c\n        /* \"task1/AMM.sol\":6261:6292  userRewardPerTokenPaid[account] */\n      0x00\n        /* \"task1/AMM.sol\":6284:6291  account */\n      dup10\n        /* \"task1/AMM.sol\":6261:6292  userRewardPerTokenPaid[account] */\n      0xffffffffffffffffffffffffffffffffffffffff\n      and\n      0xffffffffffffffffffffffffffffffffffffffff\n      and\n      dup2\n      mstore\n      0x20\n      add\n      swap1\n      dup2\n      mstore\n      0x20\n      add\n      0x00\n      keccak256\n      sload\n        /* \"task1/AMM.sol\":6240:6256  rewardPerToken() */\n      tag_118\n        /* \"task1/AMM.sol\":6240:6254  rewardPerToken */\n      tag_93\n        /* \"task1/AMM.sol\":6240:6256  rewardPerToken() */\n      jump\t// in\n    tag_118:\n        /* \"task1/AMM.sol\":6240:6260  rewardPerToken().sub */\n      tag_119\n      swap1\n        /* \"task1/AMM.sol\":6240:6293  rewardPerToken().sub(userRewardPerTokenPaid[account]) */\n      swap2\n      swap1\n      0xffffffff\n      and\n      jump\t// in\n    tag_117:\n        /* \"task1/AMM.sol\":6199:6217  balanceOf(account) */\n      tag_120\n        /* \"task1/AMM.sol\":6209:6216  account */\n      dup9\n        /* \"task1/AMM.sol\":6199:6208  balanceOf */\n      tag_66\n        /* \"task1/AMM.sol\":6199:6217  balanceOf(account) */\n      jump\t// in\n    tag_120:\n        /* \"task1/AMM.sol\":6199:6239  balanceOf(account)... */\n      tag_121\n      swap1\n        /* \"task1/AMM.sol\":6199:6294  balanceOf(account)... */\n      swap2\n      swap1\n      0xffffffff\n      and\n      jump\t// in\n    tag_116:\n        /* \"task1/AMM.sol\":6199:6316  balanceOf(account)... */\n      tag_122\n      swap1\n        /* \"task1/AMM.sol\":6199:6322  balanceOf(account)... */\n      swap2\n      swap1\n      0xffffffff\n      and\n      jump\t// in\n    tag_115:\n        /* \"task1/AMM.sol\":6199:6344  balanceOf(account)... */\n      tag_123\n      swap1\n        /* \"task1/AMM.sol\":6199:6362  balanceOf(account)... */\n      swap2\n      swap1\n      0xffffffff\n      and\n      jump\t// in\n    tag_114:\n        /* \"task1/AMM.sol\":6179:6362  return... */\n      swap1\n      pop\n        /* \"task1/AMM.sol\":5959:6370  function earned(address account) public view returns (uint256) {... */\n      swap2\n      swap1\n      pop\n      jump\t// out\n        /* \"task1/AMM.sol\":3356:3398  mapping(address => uint256) public rewards */\n    tag_40:\n      mstore(0x20, 0x0d)\n      dup1\n      0x00\n      mstore\n      keccak256(0x00, 0x40)\n      0x00\n      swap2\n      pop\n      swap1\n      pop\n      sload\n      dup2\n      jump\t// out\n        /* \"task1/AMM.sol\":505:683  function setRewardDistribution(address _rewardDistribution)... */\n    tag_44:\n        /* \"task1/utils.sol\":19228:19240  _msgSender() */\n      tag_125\n        /* \"task1/utils.sol\":19228:19238  _msgSender */\n      tag_126\n        /* \"task1/utils.sol\":19228:19240  _msgSender() */\n      jump\t// in\n    tag_125:\n        /* \"task1/utils.sol\":19217:19240  owner() == _msgSender() */\n      0xffffffffffffffffffffffffffffffffffffffff\n      and\n        /* \"task1/utils.sol\":19217:19224  owner() */\n      tag_127\n        /* \"task1/utils.sol\":19217:19222  owner */\n      tag_84\n        /* \"task1/utils.sol\":19217:19224  owner() */\n      jump\t// in\n    tag_127:\n        /* \"task1/utils.sol\":19217:19240  owner() == _msgSender() */\n      0xffffffffffffffffffffffffffffffffffffffff\n      and\n      eq\n        /* \"task1/utils.sol\":19209:19277  require(owner() == _msgSender(), \"Ownable: caller is not the owner\") */\n      tag_128\n      jumpi\n      mload(0x40)\n      0x08c379a000000000000000000000000000000000000000000000000000000000\n      dup2\n      mstore\n      0x04\n      add\n      tag_129\n      swap1\n      tag_130\n      jump\t// in\n    tag_129:\n      mload(0x40)\n      dup1\n      swap2\n      sub\n      swap1\n      revert\n    tag_128:\n        /* \"task1/AMM.sol\":656:675  _rewardDistribution */\n      dup1\n        /* \"task1/AMM.sol\":635:653  rewardDistribution */\n      0x04\n      0x00\n        /* \"task1/AMM.sol\":635:675  rewardDistribution = _rewardDistribution */\n      0x0100\n      exp\n      dup2\n      sload\n      dup2\n      0xffffffffffffffffffffffffffffffffffffffff\n      mul\n      not\n      and\n      swap1\n      dup4\n      0xffffffffffffffffffffffffffffffffffffffff\n      and\n      mul\n      or\n      swap1\n      sstore\n      pop\n        /* \"task1/AMM.sol\":505:683  function setRewardDistribution(address _rewardDistribution)... */\n      pop\n      jump\t// out\n        /* \"task1/AMM.sol\":204:237  address public rewardDistribution */\n    tag_46:\n      0x04\n      0x00\n      swap1\n      sload\n      swap1\n      0x0100\n      exp\n      swap1\n      div\n      0xffffffffffffffffffffffffffffffffffffffff\n      and\n      dup2\n      jump\t// out\n        /* \"task1/AMM.sol\":1106:1197  function totalSupply() public view returns (uint256) {... */\n    tag_50:\n        /* \"task1/AMM.sol\":1150:1157  uint256 */\n      0x00\n        /* \"task1/AMM.sol\":1177:1189  _totalSupply */\n      sload(0x01)\n        /* \"task1/AMM.sol\":1170:1189  return _totalSupply */\n      swap1\n      pop\n        /* \"task1/AMM.sol\":1106:1197  function totalSupply() public view returns (uint256) {... */\n      swap1\n      jump\t// out\n        /* \"task1/AMM.sol\":2780:2813  uint256 public DURATION = 30 days */\n    tag_53:\n      sload(0x06)\n      dup2\n      jump\t// out\n        /* \"task1/AMM.sol\":6996:7343  function withdraw(... */\n    tag_58:\n        /* \"task1/AMM.sol\":7075:7085  msg.sender */\n      caller\n        /* \"task1/AMM.sol\":4359:4375  rewardPerToken() */\n      tag_134\n        /* \"task1/AMM.sol\":4359:4373  rewardPerToken */\n      tag_93\n        /* \"task1/AMM.sol\":4359:4375  rewardPerToken() */\n      jump\t// in\n    tag_134:\n        /* \"task1/AMM.sol\":4336:4356  rewardPerTokenStored */\n      0x0b\n        /* \"task1/AMM.sol\":4336:4375  rewardPerTokenStored = rewardPerToken() */\n      dup2\n      swap1\n      sstore\n      pop\n        /* \"task1/AMM.sol\":4467:4493  lastTimeRewardApplicable() */\n      tag_135\n        /* \"task1/AMM.sol\":4467:4491  lastTimeRewardApplicable */\n      tag_74\n        /* \"task1/AMM.sol\":4467:4493  lastTimeRewardApplicable() */\n      jump\t// in\n    tag_135:\n        /* \"task1/AMM.sol\":4450:4464  lastUpdateTime */\n      0x0a\n        /* \"task1/AMM.sol\":4450:4493  lastUpdateTime = lastTimeRewardApplicable() */\n      dup2\n      swap1\n      sstore\n      pop\n        /* \"task1/AMM.sol\":4567:4568  0 */\n      0x00\n        /* \"task1/AMM.sol\":4548:4569  account != address(0) */\n      0xffffffffffffffffffffffffffffffffffffffff\n      and\n        /* \"task1/AMM.sol\":4548:4555  account */\n      dup2\n        /* \"task1/AMM.sol\":4548:4569  account != address(0) */\n      0xffffffffffffffffffffffffffffffffffffffff\n      and\n      eq\n        /* \"task1/AMM.sol\":4544:4842  if (account != address(0)) {... */\n      tag_136\n      jumpi\n        /* \"task1/AMM.sol\":4673:4688  earned(account) */\n      tag_137\n        /* \"task1/AMM.sol\":4680:4687  account */\n      dup2\n        /* \"task1/AMM.sol\":4673:4679  earned */\n      tag_35\n        /* \"task1/AMM.sol\":4673:4688  earned(account) */\n      jump\t// in\n    tag_137:\n        /* \"task1/AMM.sol\":4654:4661  rewards */\n      0x0d\n        /* \"task1/AMM.sol\":4654:4670  rewards[account] */\n      0x00\n        /* \"task1/AMM.sol\":4662:4669  account */\n      dup4\n        /* \"task1/AMM.sol\":4654:4670  rewards[account] */\n      0xffffffffffffffffffffffffffffffffffffffff\n      and\n      0xffffffffffffffffffffffffffffffffffffffff\n      and\n      dup2\n      mstore\n      0x20\n      add\n      swap1\n      dup2\n      mstore\n      0x20\n      add\n      0x00\n      keccak256\n        /* \"task1/AMM.sol\":4654:4688  rewards[account] = earned(account) */\n      dup2\n      swap1\n      sstore\n      pop\n        /* \"task1/AMM.sol\":4810:4830  rewardPerTokenStored */\n      sload(0x0b)\n        /* \"task1/AMM.sol\":4776:4798  userRewardPerTokenPaid */\n      0x0c\n        /* \"task1/AMM.sol\":4776:4807  userRewardPerTokenPaid[account] */\n      0x00\n        /* \"task1/AMM.sol\":4799:4806  account */\n      dup4\n        /* \"task1/AMM.sol\":4776:4807  userRewardPerTokenPaid[account] */\n      0xffffffffffffffffffffffffffffffffffffffff\n      and\n      0xffffffffffffffffffffffffffffffffffffffff\n      and\n      dup2\n      mstore\n      0x20\n      add\n      swap1\n      dup2\n      mstore\n      0x20\n      add\n      0x00\n      keccak256\n        /* \"task1/AMM.sol\":4776:4830  userRewardPerTokenPaid[account] = rewardPerTokenStored */\n      dup2\n      swap1\n      sstore\n      pop\n        /* \"task1/AMM.sol\":4544:4842  if (account != address(0)) {... */\n    tag_136:\n        /* \"task1/AMM.sol\":4080:4089  starttime */\n      sload(0x07)\n        /* \"task1/AMM.sol\":4061:4076  block.timestamp */\n      timestamp\n        /* \"task1/AMM.sol\":4061:4089  block.timestamp >= starttime */\n      lt\n      iszero\n        /* \"task1/AMM.sol\":4053:4121  require(block.timestamp >= starttime, 'LPTokenSharePool: not start') */\n      tag_139\n      jumpi\n      mload(0x40)\n      0x08c379a000000000000000000000000000000000000000000000000000000000\n      dup2\n      mstore\n      0x04\n      add\n      tag_140\n      swap1\n      tag_141\n      jump\t// in\n    tag_140:\n      mload(0x40)\n      dup1\n      swap2\n      sub\n      swap1\n      revert\n    tag_139:\n        /* \"task1/AMM.sol\":7153:7154  0 */\n      0x00\n        /* \"task1/AMM.sol\":7144:7150  amount */\n      dup3\n        /* \"task1/AMM.sol\":7144:7154  amount > 0 */\n      gt\n        /* \"task1/AMM.sol\":7136:7201  require(amount > 0, 'HUSDGOCLPTokenSharePool: Cannot withdraw 0') */\n      tag_143\n      jumpi\n      mload(0x40)\n      0x08c379a000000000000000000000000000000000000000000000000000000000\n      dup2\n      mstore\n      0x04\n      add\n      tag_144\n      swap1\n      tag_145\n      jump\t// in\n    tag_144:\n      mload(0x40)\n      dup1\n      swap2\n      sub\n      swap1\n      revert\n    tag_143:\n        /* \"task1/AMM.sol\":7237:7259  super.withdraw(amount) */\n      tag_146\n        /* \"task1/AMM.sol\":7252:7258  amount */\n      dup3\n        /* \"task1/AMM.sol\":7237:7251  super.withdraw */\n      tag_147\n        /* \"task1/AMM.sol\":7237:7259  super.withdraw(amount) */\n      jump\t// in\n    tag_146:\n        /* \"task1/AMM.sol\":7316:7326  msg.sender */\n      caller\n        /* \"task1/AMM.sol\":7306:7335  Withdrawn(msg.sender, amount) */\n      0xffffffffffffffffffffffffffffffffffffffff\n      and\n      0x7084f5476618d8e60b11ef0d7d3f06914655adb8793e28ff7f018d4c76d505d5\n        /* \"task1/AMM.sol\":7328:7334  amount */\n      dup4\n        /* \"task1/AMM.sol\":7306:7335  Withdrawn(msg.sender, amount) */\n      mload(0x40)\n      tag_148\n      swap2\n      swap1\n      tag_37\n      jump\t// in\n    tag_148:\n      mload(0x40)\n      dup1\n      swap2\n      sub\n      swap1\n      log2\n        /* \"task1/AMM.sol\":6996:7343  function withdraw(... */\n      pop\n      pop\n      jump\t// out\n        /* \"task1/AMM.sol\":8205:9801  function notifyRewardAmount(... */\n    tag_61:\n        /* \"task1/AMM.sol\":398:416  rewardDistribution */\n      0x04\n      0x00\n      swap1\n      sload\n      swap1\n      0x0100\n      exp\n      swap1\n      div\n      0xffffffffffffffffffffffffffffffffffffffff\n      and\n        /* \"task1/AMM.sol\":382:416  _msgSender() == rewardDistribution */\n      0xffffffffffffffffffffffffffffffffffffffff\n      and\n        /* \"task1/AMM.sol\":382:394  _msgSender() */\n      tag_150\n        /* \"task1/AMM.sol\":382:392  _msgSender */\n      tag_126\n        /* \"task1/AMM.sol\":382:394  _msgSender() */\n      jump\t// in\n    tag_150:\n        /* \"task1/AMM.sol\":382:416  _msgSender() == rewardDistribution */\n      0xffffffffffffffffffffffffffffffffffffffff\n      and\n      eq\n        /* \"task1/AMM.sol\":360:477  require(... */\n      tag_151\n      jumpi\n      mload(0x40)\n      0x08c379a000000000000000000000000000000000000000000000000000000000\n      dup2\n      mstore\n      0x04\n      add\n      tag_152\n      swap1\n      tag_153\n      jump\t// in\n    tag_152:\n      mload(0x40)\n      dup1\n      swap2\n      sub\n      swap1\n      revert\n    tag_151:\n        /* \"task1/AMM.sol\":8327:8328  0 */\n      0x00\n        /* \"task1/AMM.sol\":4359:4375  rewardPerToken() */\n      tag_155\n        /* \"task1/AMM.sol\":4359:4373  rewardPerToken */\n      tag_93\n        /* \"task1/AMM.sol\":4359:4375  rewardPerToken() */\n      jump\t// in\n    tag_155:\n        /* \"task1/AMM.sol\":4336:4356  rewardPerTokenStored */\n      0x0b\n        /* \"task1/AMM.sol\":4336:4375  rewardPerTokenStored = rewardPerToken() */\n      dup2\n      swap1\n      sstore\n      pop\n        /* \"task1/AMM.sol\":4467:4493  lastTimeRewardApplicable() */\n      tag_156\n        /* \"task1/AMM.sol\":4467:4491  lastTimeRewardApplicable */\n      tag_74\n        /* \"task1/AMM.sol\":4467:4493  lastTimeRewardApplicable() */\n      jump\t// in\n    tag_156:\n        /* \"task1/AMM.sol\":4450:4464  lastUpdateTime */\n      0x0a\n        /* \"task1/AMM.sol\":4450:4493  lastUpdateTime = lastTimeRewardApplicable() */\n      dup2\n      swap1\n      sstore\n      pop\n        /* \"task1/AMM.sol\":4567:4568  0 */\n      0x00\n        /* \"task1/AMM.sol\":4548:4569  account != address(0) */\n      0xffffffffffffffffffffffffffffffffffffffff\n      and\n        /* \"task1/AMM.sol\":4548:4555  account */\n      dup2\n        /* \"task1/AMM.sol\":4548:4569  account != address(0) */\n      0xffffffffffffffffffffffffffffffffffffffff\n      and\n      eq\n        /* \"task1/AMM.sol\":4544:4842  if (account != address(0)) {... */\n      tag_157\n      jumpi\n        /* \"task1/AMM.sol\":4673:4688  earned(account) */\n      tag_158\n        /* \"task1/AMM.sol\":4680:4687  account */\n      dup2\n        /* \"task1/AMM.sol\":4673:4679  earned */\n      tag_35\n        /* \"task1/AMM.sol\":4673:4688  earned(account) */\n      jump\t// in\n    tag_158:\n        /* \"task1/AMM.sol\":4654:4661  rewards */\n      0x0d\n        /* \"task1/AMM.sol\":4654:4670  rewards[account] */\n      0x00\n        /* \"task1/AMM.sol\":4662:4669  account */\n      dup4\n        /* \"task1/AMM.sol\":4654:4670  rewards[account] */\n      0xffffffffffffffffffffffffffffffffffffffff\n      and\n      0xffffffffffffffffffffffffffffffffffffffff\n      and\n      dup2\n      mstore\n      0x20\n      add\n      swap1\n      dup2\n      mstore\n      0x20\n      add\n      0x00\n      keccak256\n        /* \"task1/AMM.sol\":4654:4688  rewards[account] = earned(account) */\n      dup2\n      swap1\n      sstore\n      pop\n        /* \"task1/AMM.sol\":4810:4830  rewardPerTokenStored */\n      sload(0x0b)\n        /* \"task1/AMM.sol\":4776:4798  userRewardPerTokenPaid */\n      0x0c\n        /* \"task1/AMM.sol\":4776:4807  userRewardPerTokenPaid[account] */\n      0x00\n        /* \"task1/AMM.sol\":4799:4806  account */\n      dup4\n        /* \"task1/AMM.sol\":4776:4807  userRewardPerTokenPaid[account] */\n      0xffffffffffffffffffffffffffffffffffffffff\n      and\n      0xffffffffffffffffffffffffffffffffffffffff\n      and\n      dup2\n      mstore\n      0x20\n      add\n      swap1\n      dup2\n      mstore\n      0x20\n      add\n      0x00\n      keccak256\n        /* \"task1/AMM.sol\":4776:4830  userRewardPerTokenPaid[account] = rewardPerTokenStored */\n      dup2\n      swap1\n      sstore\n      pop\n        /* \"task1/AMM.sol\":4544:4842  if (account != address(0)) {... */\n    tag_157:\n        /* \"task1/AMM.sol\":8408:8417  starttime */\n      sload(0x07)\n        /* \"task1/AMM.sol\":8390:8405  block.timestamp */\n      timestamp\n        /* \"task1/AMM.sol\":8390:8417  block.timestamp > starttime */\n      gt\n        /* \"task1/AMM.sol\":8386:9794  if (block.timestamp > starttime) {... */\n      iszero\n      tag_160\n      jumpi\n        /* \"task1/AMM.sol\":8508:8520  periodFinish */\n      sload(0x08)\n        /* \"task1/AMM.sol\":8489:8504  block.timestamp */\n      timestamp\n        /* \"task1/AMM.sol\":8489:8520  block.timestamp >= periodFinish */\n      lt\n        /* \"task1/AMM.sol\":8485:9102  if (block.timestamp >= periodFinish) {... */\n      tag_161\n      jumpi\n        /* \"task1/AMM.sol\":8610:8630  reward.div(DURATION) */\n      tag_162\n        /* \"task1/AMM.sol\":8621:8629  DURATION */\n      sload(0x06)\n        /* \"task1/AMM.sol\":8610:8616  reward */\n      dup4\n        /* \"task1/AMM.sol\":8610:8620  reward.div */\n      tag_122\n      swap1\n        /* \"task1/AMM.sol\":8610:8630  reward.div(DURATION) */\n      swap2\n      swap1\n      0xffffffff\n      and\n      jump\t// in\n    tag_162:\n        /* \"task1/AMM.sol\":8597:8607  rewardRate */\n      0x09\n        /* \"task1/AMM.sol\":8597:8630  rewardRate = reward.div(DURATION) */\n      dup2\n      swap1\n      sstore\n      pop\n        /* \"task1/AMM.sol\":8485:9102  if (block.timestamp >= periodFinish) {... */\n      jump(tag_163)\n    tag_161:\n        /* \"task1/AMM.sol\":8734:8751  uint256 remaining */\n      0x00\n        /* \"task1/AMM.sol\":8754:8787  periodFinish.sub(block.timestamp) */\n      tag_164\n        /* \"task1/AMM.sol\":8771:8786  block.timestamp */\n      timestamp\n        /* \"task1/AMM.sol\":8754:8766  periodFinish */\n      sload(0x08)\n        /* \"task1/AMM.sol\":8754:8770  periodFinish.sub */\n      tag_119\n      swap1\n        /* \"task1/AMM.sol\":8754:8787  periodFinish.sub(block.timestamp) */\n      swap2\n      swap1\n      0xffffffff\n      and\n      jump\t// in\n    tag_164:\n        /* \"task1/AMM.sol\":8734:8787  uint256 remaining = periodFinish.sub(block.timestamp) */\n      swap1\n      pop\n        /* \"task1/AMM.sol\":8897:8913  uint256 leftover */\n      0x00\n        /* \"task1/AMM.sol\":8916:8941  remaining.mul(rewardRate) */\n      tag_165\n        /* \"task1/AMM.sol\":8930:8940  rewardRate */\n      sload(0x09)\n        /* \"task1/AMM.sol\":8916:8925  remaining */\n      dup4\n        /* \"task1/AMM.sol\":8916:8929  remaining.mul */\n      tag_121\n      swap1\n        /* \"task1/AMM.sol\":8916:8941  remaining.mul(rewardRate) */\n      swap2\n      swap1\n      0xffffffff\n      and\n      jump\t// in\n    tag_165:\n        /* \"task1/AMM.sol\":8897:8941  uint256 leftover = remaining.mul(rewardRate) */\n      swap1\n      pop\n        /* \"task1/AMM.sol\":9052:9086  reward.add(leftover).div(DURATION) */\n      tag_166\n        /* \"task1/AMM.sol\":9077:9085  DURATION */\n      sload(0x06)\n        /* \"task1/AMM.sol\":9052:9072  reward.add(leftover) */\n      tag_167\n        /* \"task1/AMM.sol\":9063:9071  leftover */\n      dup4\n        /* \"task1/AMM.sol\":9052:9058  reward */\n      dup8\n        /* \"task1/AMM.sol\":9052:9062  reward.add */\n      tag_123\n      swap1\n        /* \"task1/AMM.sol\":9052:9072  reward.add(leftover) */\n      swap2\n      swap1\n      0xffffffff\n      and\n      jump\t// in\n    tag_167:\n        /* \"task1/AMM.sol\":9052:9076  reward.add(leftover).div */\n      tag_122\n      swap1\n        /* \"task1/AMM.sol\":9052:9086  reward.add(leftover).div(DURATION) */\n      swap2\n      swap1\n      0xffffffff\n      and\n      jump\t// in\n    tag_166:\n        /* \"task1/AMM.sol\":9039:9049  rewardRate */\n      0x09\n        /* \"task1/AMM.sol\":9039:9086  rewardRate = reward.add(leftover).div(DURATION) */\n      dup2\n      swap1\n      sstore\n      pop\n        /* \"task1/AMM.sol\":8652:9102  {... */\n      pop\n      pop\n        /* \"task1/AMM.sol\":8485:9102  if (block.timestamp >= periodFinish) {... */\n    tag_163:\n        /* \"task1/AMM.sol\":9182:9197  block.timestamp */\n      timestamp\n        /* \"task1/AMM.sol\":9165:9179  lastUpdateTime */\n      0x0a\n        /* \"task1/AMM.sol\":9165:9197  lastUpdateTime = block.timestamp */\n      dup2\n      swap1\n      sstore\n      pop\n        /* \"task1/AMM.sol\":9279:9308  block.timestamp.add(DURATION) */\n      tag_168\n        /* \"task1/AMM.sol\":9299:9307  DURATION */\n      sload(0x06)\n        /* \"task1/AMM.sol\":9279:9294  block.timestamp */\n      timestamp\n        /* \"task1/AMM.sol\":9279:9298  block.timestamp.add */\n      tag_123\n      swap1\n        /* \"task1/AMM.sol\":9279:9308  block.timestamp.add(DURATION) */\n      swap2\n      swap1\n      0xffffffff\n      and\n      jump\t// in\n    tag_168:\n        /* \"task1/AMM.sol\":9264:9276  periodFinish */\n      0x08\n        /* \"task1/AMM.sol\":9264:9308  periodFinish = block.timestamp.add(DURATION) */\n      dup2\n      swap1\n      sstore\n      pop\n        /* \"task1/AMM.sol\":9369:9388  RewardAdded(reward) */\n      0xde88a922e0d3b88b24e9623efeb464919c6bf9f66857a65e2bfcf2ce87a9433d\n        /* \"task1/AMM.sol\":9381:9387  reward */\n      dup3\n        /* \"task1/AMM.sol\":9369:9388  RewardAdded(reward) */\n      mload(0x40)\n      tag_169\n      swap2\n      swap1\n      tag_37\n      jump\t// in\n    tag_169:\n      mload(0x40)\n      dup1\n      swap2\n      sub\n      swap1\n      log1\n        /* \"task1/AMM.sol\":8386:9794  if (block.timestamp > starttime) {... */\n      jump(tag_170)\n    tag_160:\n        /* \"task1/AMM.sol\":9486:9506  reward.div(DURATION) */\n      tag_171\n        /* \"task1/AMM.sol\":9497:9505  DURATION */\n      sload(0x06)\n        /* \"task1/AMM.sol\":9486:9492  reward */\n      dup4\n        /* \"task1/AMM.sol\":9486:9496  reward.div */\n      tag_122\n      swap1\n        /* \"task1/AMM.sol\":9486:9506  reward.div(DURATION) */\n      swap2\n      swap1\n      0xffffffff\n      and\n      jump\t// in\n    tag_171:\n        /* \"task1/AMM.sol\":9473:9483  rewardRate */\n      0x09\n        /* \"task1/AMM.sol\":9473:9506  rewardRate = reward.div(DURATION) */\n      dup2\n      swap1\n      sstore\n      pop\n        /* \"task1/AMM.sol\":9588:9597  starttime */\n      sload(0x07)\n        /* \"task1/AMM.sol\":9571:9585  lastUpdateTime */\n      0x0a\n        /* \"task1/AMM.sol\":9571:9597  lastUpdateTime = starttime */\n      dup2\n      swap1\n      sstore\n      pop\n        /* \"task1/AMM.sol\":9679:9702  starttime.add(DURATION) */\n      tag_172\n        /* \"task1/AMM.sol\":9693:9701  DURATION */\n      sload(0x06)\n        /* \"task1/AMM.sol\":9679:9688  starttime */\n      sload(0x07)\n        /* \"task1/AMM.sol\":9679:9692  starttime.add */\n      tag_123\n      swap1\n        /* \"task1/AMM.sol\":9679:9702  starttime.add(DURATION) */\n      swap2\n      swap1\n      0xffffffff\n      and\n      jump\t// in\n    tag_172:\n        /* \"task1/AMM.sol\":9664:9676  periodFinish */\n      0x08\n        /* \"task1/AMM.sol\":9664:9702  periodFinish = starttime.add(DURATION) */\n      dup2\n      swap1\n      sstore\n      pop\n        /* \"task1/AMM.sol\":9763:9782  RewardAdded(reward) */\n      0xde88a922e0d3b88b24e9623efeb464919c6bf9f66857a65e2bfcf2ce87a9433d\n        /* \"task1/AMM.sol\":9775:9781  reward */\n      dup3\n        /* \"task1/AMM.sol\":9763:9782  RewardAdded(reward) */\n      mload(0x40)\n      tag_173\n      swap2\n      swap1\n      tag_37\n      jump\t// in\n    tag_173:\n      mload(0x40)\n      dup1\n      swap2\n      sub\n      swap1\n      log1\n        /* \"task1/AMM.sol\":8386:9794  if (block.timestamp > starttime) {... */\n    tag_170:\n        /* \"task1/AMM.sol\":488:489  _ */\n      pop\n        /* \"task1/AMM.sol\":8205:9801  function notifyRewardAmount(... */\n      pop\n      jump\t// out\n        /* \"task1/AMM.sol\":7609:8112  function getReward() public updateReward(msg.sender) checkStart {... */\n    tag_63:\n        /* \"task1/AMM.sol\":7650:7660  msg.sender */\n      caller\n        /* \"task1/AMM.sol\":4359:4375  rewardPerToken() */\n      tag_175\n        /* \"task1/AMM.sol\":4359:4373  rewardPerToken */\n      tag_93\n        /* \"task1/AMM.sol\":4359:4375  rewardPerToken() */\n      jump\t// in\n    tag_175:\n        /* \"task1/AMM.sol\":4336:4356  rewardPerTokenStored */\n      0x0b\n        /* \"task1/AMM.sol\":4336:4375  rewardPerTokenStored = rewardPerToken() */\n      dup2\n      swap1\n      sstore\n      pop\n        /* \"task1/AMM.sol\":4467:4493  lastTimeRewardApplicable() */\n      tag_176\n        /* \"task1/AMM.sol\":4467:4491  lastTimeRewardApplicable */\n      tag_74\n        /* \"task1/AMM.sol\":4467:4493  lastTimeRewardApplicable() */\n      jump\t// in\n    tag_176:\n        /* \"task1/AMM.sol\":4450:4464  lastUpdateTime */\n      0x0a\n        /* \"task1/AMM.sol\":4450:4493  lastUpdateTime = lastTimeRewardApplicable() */\n      dup2\n      swap1\n      sstore\n      pop\n        /* \"task1/AMM.sol\":4567:4568  0 */\n      0x00\n        /* \"task1/AMM.sol\":4548:4569  account != address(0) */\n      0xffffffffffffffffffffffffffffffffffffffff\n      and\n        /* \"task1/AMM.sol\":4548:4555  account */\n      dup2\n        /* \"task1/AMM.sol\":4548:4569  account != address(0) */\n      0xffffffffffffffffffffffffffffffffffffffff\n      and\n      eq\n        /* \"task1/AMM.sol\":4544:4842  if (account != address(0)) {... */\n      tag_177\n      jumpi\n        /* \"task1/AMM.sol\":4673:4688  earned(account) */\n      tag_178\n        /* \"task1/AMM.sol\":4680:4687  account */\n      dup2\n        /* \"task1/AMM.sol\":4673:4679  earned */\n      tag_35\n        /* \"task1/AMM.sol\":4673:4688  earned(account) */\n      jump\t// in\n    tag_178:\n        /* \"task1/AMM.sol\":4654:4661  rewards */\n      0x0d\n        /* \"task1/AMM.sol\":4654:4670  rewards[account] */\n      0x00\n        /* \"task1/AMM.sol\":4662:4669  account */\n      dup4\n        /* \"task1/AMM.sol\":4654:4670  rewards[account] */\n      0xffffffffffffffffffffffffffffffffffffffff\n      and\n      0xffffffffffffffffffffffffffffffffffffffff\n      and\n      dup2\n      mstore\n      0x20\n      add\n      swap1\n      dup2\n      mstore\n      0x20\n      add\n      0x00\n      keccak256\n        /* \"task1/AMM.sol\":4654:4688  rewards[account] = earned(account) */\n      dup2\n      swap1\n      sstore\n      pop\n        /* \"task1/AMM.sol\":4810:4830  rewardPerTokenStored */\n      sload(0x0b)\n        /* \"task1/AMM.sol\":4776:4798  userRewardPerTokenPaid */\n      0x0c\n        /* \"task1/AMM.sol\":4776:4807  userRewardPerTokenPaid[account] */\n      0x00\n        /* \"task1/AMM.sol\":4799:4806  account */\n      dup4\n        /* \"task1/AMM.sol\":4776:4807  userRewardPerTokenPaid[account] */\n      0xffffffffffffffffffffffffffffffffffffffff\n      and\n      0xffffffffffffffffffffffffffffffffffffffff\n      and\n      dup2\n      mstore\n      0x20\n      add\n      swap1\n      dup2\n      mstore\n      0x20\n      add\n      0x00\n      keccak256\n        /* \"task1/AMM.sol\":4776:4830  userRewardPerTokenPaid[account] = rewardPerTokenStored */\n      dup2\n      swap1\n      sstore\n      pop\n        /* \"task1/AMM.sol\":4544:4842  if (account != address(0)) {... */\n    tag_177:\n        /* \"task1/AMM.sol\":4080:4089  starttime */\n      sload(0x07)\n        /* \"task1/AMM.sol\":4061:4076  block.timestamp */\n      timestamp\n        /* \"task1/AMM.sol\":4061:4089  block.timestamp >= starttime */\n      lt\n      iszero\n        /* \"task1/AMM.sol\":4053:4121  require(block.timestamp >= starttime, 'LPTokenSharePool: not start') */\n      tag_180\n      jumpi\n      mload(0x40)\n      0x08c379a000000000000000000000000000000000000000000000000000000000\n      dup2\n      mstore\n      0x04\n      add\n      tag_181\n      swap1\n      tag_141\n      jump\t// in\n    tag_181:\n      mload(0x40)\n      dup1\n      swap2\n      sub\n      swap1\n      revert\n    tag_180:\n        /* \"task1/AMM.sol\":7736:7750  uint256 reward */\n      0x00\n        /* \"task1/AMM.sol\":7753:7771  earned(msg.sender) */\n      tag_183\n        /* \"task1/AMM.sol\":7760:7770  msg.sender */\n      caller\n        /* \"task1/AMM.sol\":7753:7759  earned */\n      tag_35\n        /* \"task1/AMM.sol\":7753:7771  earned(msg.sender) */\n      jump\t// in\n    tag_183:\n        /* \"task1/AMM.sol\":7736:7771  uint256 reward = earned(msg.sender) */\n      swap1\n      pop\n        /* \"task1/AMM.sol\":7828:7829  0 */\n      0x00\n        /* \"task1/AMM.sol\":7819:7825  reward */\n      dup2\n        /* \"task1/AMM.sol\":7819:7829  reward > 0 */\n      gt\n        /* \"task1/AMM.sol\":7815:8105  if (reward > 0) {... */\n      iszero\n      tag_184\n      jumpi\n        /* \"task1/AMM.sol\":7919:7920  0 */\n      0x00\n        /* \"task1/AMM.sol\":7897:7904  rewards */\n      0x0d\n        /* \"task1/AMM.sol\":7897:7916  rewards[msg.sender] */\n      0x00\n        /* \"task1/AMM.sol\":7905:7915  msg.sender */\n      caller\n        /* \"task1/AMM.sol\":7897:7916  rewards[msg.sender] */\n      0xffffffffffffffffffffffffffffffffffffffff\n      and\n      0xffffffffffffffffffffffffffffffffffffffff\n      and\n      dup2\n      mstore\n      0x20\n      add\n      swap1\n      dup2\n      mstore\n      0x20\n      add\n      0x00\n      keccak256\n        /* \"task1/AMM.sol\":7897:7920  rewards[msg.sender] = 0 */\n      dup2\n      swap1\n      sstore\n      pop\n        /* \"task1/AMM.sol\":7964:8002  token.safeTransfer(msg.sender, reward) */\n      tag_185\n        /* \"task1/AMM.sol\":7983:7993  msg.sender */\n      caller\n        /* \"task1/AMM.sol\":7995:8001  reward */\n      dup3\n        /* \"task1/AMM.sol\":7964:7969  token */\n      0x05\n      0x00\n      swap1\n      sload\n      swap1\n      0x0100\n      exp\n      swap1\n      div\n      0xffffffffffffffffffffffffffffffffffffffff\n      and\n        /* \"task1/AMM.sol\":7964:7982  token.safeTransfer */\n      0xffffffffffffffffffffffffffffffffffffffff\n      and\n      tag_186\n      swap1\n        /* \"task1/AMM.sol\":7964:8002  token.safeTransfer(msg.sender, reward) */\n      swap3\n      swap2\n      swap1\n      0xffffffff\n      and\n      jump\t// in\n    tag_185:\n        /* \"task1/AMM.sol\":8074:8084  msg.sender */\n      caller\n        /* \"task1/AMM.sol\":8063:8093  RewardPaid(msg.sender, reward) */\n      0xffffffffffffffffffffffffffffffffffffffff\n      and\n      0xe2403640ba68fed3a2f88b7557551d1993f84b99bb10ff833f0cf8db0c5e0486\n        /* \"task1/AMM.sol\":8086:8092  reward */\n      dup3\n        /* \"task1/AMM.sol\":8063:8093  RewardPaid(msg.sender, reward) */\n      mload(0x40)\n      tag_187\n      swap2\n      swap1\n      tag_37\n      jump\t// in\n    tag_187:\n      mload(0x40)\n      dup1\n      swap2\n      sub\n      swap1\n      log2\n        /* \"task1/AMM.sol\":7815:8105  if (reward > 0) {... */\n    tag_184:\n        /* \"task1/AMM.sol\":7673:8112  {... */\n      pop\n        /* \"task1/AMM.sol\":7609:8112  function getReward() public updateReward(msg.sender) checkStart {... */\n      pop\n      jump\t// out\n        /* \"task1/AMM.sol\":1314:1424  function balanceOf(address account) public view returns (uint256) {... */\n    tag_66:\n        /* \"task1/AMM.sol\":1371:1378  uint256 */\n      0x00\n        /* \"task1/AMM.sol\":1398:1407  _balances */\n      0x02\n        /* \"task1/AMM.sol\":1398:1416  _balances[account] */\n      0x00\n        /* \"task1/AMM.sol\":1408:1415  account */\n      dup4\n        /* \"task1/AMM.sol\":1398:1416  _balances[account] */\n      0xffffffffffffffffffffffffffffffffffffffff\n      and\n      0xffffffffffffffffffffffffffffffffffffffff\n      and\n      dup2\n      mstore\n      0x20\n      add\n      swap1\n      dup2\n      mstore\n      0x20\n      add\n      0x00\n      keccak256\n      sload\n        /* \"task1/AMM.sol\":1391:1416  return _balances[account] */\n      swap1\n      pop\n        /* \"task1/AMM.sol\":1314:1424  function balanceOf(address account) public view returns (uint256) {... */\n      swap2\n      swap1\n      pop\n      jump\t// out\n        /* \"task1/utils.sol\":19648:19742  function renounceOwnership() public virtual onlyOwner {... */\n    tag_69:\n        /* \"task1/utils.sol\":19228:19240  _msgSender() */\n      tag_190\n        /* \"task1/utils.sol\":19228:19238  _msgSender */\n      tag_126\n        /* \"task1/utils.sol\":19228:19240  _msgSender() */\n      jump\t// in\n    tag_190:\n        /* \"task1/utils.sol\":19217:19240  owner() == _msgSender() */\n      0xffffffffffffffffffffffffffffffffffffffff\n      and\n        /* \"task1/utils.sol\":19217:19224  owner() */\n      tag_191\n        /* \"task1/utils.sol\":19217:19222  owner */\n      tag_84\n        /* \"task1/utils.sol\":19217:19224  owner() */\n      jump\t// in\n    tag_191:\n        /* \"task1/utils.sol\":19217:19240  owner() == _msgSender() */\n      0xffffffffffffffffffffffffffffffffffffffff\n      and\n      eq\n        /* \"task1/utils.sol\":19209:19277  require(owner() == _msgSender(), \"Ownable: caller is not the owner\") */\n      tag_192\n      jumpi\n      mload(0x40)\n      0x08c379a000000000000000000000000000000000000000000000000000000000\n      dup2\n      mstore\n      0x04\n      add\n      tag_193\n      swap1\n      tag_130\n      jump\t// in\n    tag_193:\n      mload(0x40)\n      dup1\n      swap2\n      sub\n      swap1\n      revert\n    tag_192:\n        /* \"task1/utils.sol\":19713:19734  _setOwner(address(0)) */\n      tag_195\n        /* \"task1/utils.sol\":19731:19732  0 */\n      0x00\n        /* \"task1/utils.sol\":19713:19722  _setOwner */\n      tag_196\n        /* \"task1/utils.sol\":19713:19734  _setOwner(address(0)) */\n      jump\t// in\n    tag_195:\n        /* \"task1/utils.sol\":19648:19742  function renounceOwnership() public virtual onlyOwner {... */\n      jump\t// out\n        /* \"task1/AMM.sol\":3002:3031  uint256 public rewardRate = 0 */\n    tag_71:\n      sload(0x09)\n      dup2\n      jump\t// out\n        /* \"task1/AMM.sol\":5023:5203  function lastTimeRewardApplicable() public view returns (uint256) {... */\n    tag_74:\n        /* \"task1/AMM.sol\":5080:5087  uint256 */\n      0x00\n        /* \"task1/AMM.sol\":5156:5195  Math.min(block.timestamp, periodFinish) */\n      tag_198\n        /* \"task1/AMM.sol\":5165:5180  block.timestamp */\n      timestamp\n        /* \"task1/AMM.sol\":5182:5194  periodFinish */\n      sload(0x08)\n        /* \"task1/AMM.sol\":5156:5164  Math.min */\n      tag_199\n        /* \"task1/AMM.sol\":5156:5195  Math.min(block.timestamp, periodFinish) */\n      jump\t// in\n    tag_198:\n        /* \"task1/AMM.sol\":5149:5195  return Math.min(block.timestamp, periodFinish) */\n      swap1\n      pop\n        /* \"task1/AMM.sol\":5023:5203  function lastTimeRewardApplicable() public view returns (uint256) {... */\n      swap1\n      jump\t// out\n        /* \"task1/AMM.sol\":3244:3301  mapping(address => uint256) public userRewardPerTokenPaid */\n    tag_78:\n      mstore(0x20, 0x0c)\n      dup1\n      0x00\n      mstore\n      keccak256(0x00, 0x40)\n      0x00\n      swap2\n      pop\n      swap1\n      pop\n      sload\n      dup2\n      jump\t// out\n        /* \"task1/AMM.sol\":2850:2874  uint256 public starttime */\n    tag_81:\n      sload(0x07)\n      dup2\n      jump\t// out\n        /* \"task1/utils.sol\":18997:19084  function owner() public view virtual returns (address) {... */\n    tag_84:\n        /* \"task1/utils.sol\":19043:19050  address */\n      0x00\n        /* \"task1/utils.sol\":19070:19076  _owner */\n      0x03\n      0x00\n      swap1\n      sload\n      swap1\n      0x0100\n      exp\n      swap1\n      div\n      0xffffffffffffffffffffffffffffffffffffffff\n      and\n        /* \"task1/utils.sol\":19063:19076  return _owner */\n      swap1\n      pop\n        /* \"task1/utils.sol\":18997:19084  function owner() public view virtual returns (address) {... */\n      swap1\n      jump\t// out\n        /* \"task1/AMM.sol\":6554:6889  function stake(... */\n    tag_88:\n        /* \"task1/AMM.sol\":6630:6640  msg.sender */\n      caller\n        /* \"task1/AMM.sol\":4359:4375  rewardPerToken() */\n      tag_202\n        /* \"task1/AMM.sol\":4359:4373  rewardPerToken */\n      tag_93\n        /* \"task1/AMM.sol\":4359:4375  rewardPerToken() */\n      jump\t// in\n    tag_202:\n        /* \"task1/AMM.sol\":4336:4356  rewardPerTokenStored */\n      0x0b\n        /* \"task1/AMM.sol\":4336:4375  rewardPerTokenStored = rewardPerToken() */\n      dup2\n      swap1\n      sstore\n      pop\n        /* \"task1/AMM.sol\":4467:4493  lastTimeRewardApplicable() */\n      tag_203\n        /* \"task1/AMM.sol\":4467:4491  lastTimeRewardApplicable */\n      tag_74\n        /* \"task1/AMM.sol\":4467:4493  lastTimeRewardApplicable() */\n      jump\t// in\n    tag_203:\n        /* \"task1/AMM.sol\":4450:4464  lastUpdateTime */\n      0x0a\n        /* \"task1/AMM.sol\":4450:4493  lastUpdateTime = lastTimeRewardApplicable() */\n      dup2\n      swap1\n      sstore\n      pop\n        /* \"task1/AMM.sol\":4567:4568  0 */\n      0x00\n        /* \"task1/AMM.sol\":4548:4569  account != address(0) */\n      0xffffffffffffffffffffffffffffffffffffffff\n      and\n        /* \"task1/AMM.sol\":4548:4555  account */\n      dup2\n        /* \"task1/AMM.sol\":4548:4569  account != address(0) */\n      0xffffffffffffffffffffffffffffffffffffffff\n      and\n      eq\n        /* \"task1/AMM.sol\":4544:4842  if (account != address(0)) {... */\n      tag_204\n      jumpi\n        /* \"task1/AMM.sol\":4673:4688  earned(account) */\n      tag_205\n        /* \"task1/AMM.sol\":4680:4687  account */\n      dup2\n        /* \"task1/AMM.sol\":4673:4679  earned */\n      tag_35\n        /* \"task1/AMM.sol\":4673:4688  earned(account) */\n      jump\t// in\n    tag_205:\n        /* \"task1/AMM.sol\":4654:4661  rewards */\n      0x0d\n        /* \"task1/AMM.sol\":4654:4670  rewards[account] */\n      0x00\n        /* \"task1/AMM.sol\":4662:4669  account */\n      dup4\n        /* \"task1/AMM.sol\":4654:4670  rewards[account] */\n      0xffffffffffffffffffffffffffffffffffffffff\n      and\n      0xffffffffffffffffffffffffffffffffffffffff\n      and\n      dup2\n      mstore\n      0x20\n      add\n      swap1\n      dup2\n      mstore\n      0x20\n      add\n      0x00\n      keccak256\n        /* \"task1/AMM.sol\":4654:4688  rewards[account] = earned(account) */\n      dup2\n      swap1\n      sstore\n      pop\n        /* \"task1/AMM.sol\":4810:4830  rewardPerTokenStored */\n      sload(0x0b)\n        /* \"task1/AMM.sol\":4776:4798  userRewardPerTokenPaid */\n      0x0c\n        /* \"task1/AMM.sol\":4776:4807  userRewardPerTokenPaid[account] */\n      0x00\n        /* \"task1/AMM.sol\":4799:4806  account */\n      dup4\n        /* \"task1/AMM.sol\":4776:4807  userRewardPerTokenPaid[account] */\n      0xffffffffffffffffffffffffffffffffffffffff\n      and\n      0xffffffffffffffffffffffffffffffffffffffff\n      and\n      dup2\n      mstore\n      0x20\n      add\n      swap1\n      dup2\n      mstore\n      0x20\n      add\n      0x00\n      keccak256\n        /* \"task1/AMM.sol\":4776:4830  userRewardPerTokenPaid[account] = rewardPerTokenStored */\n      dup2\n      swap1\n      sstore\n      pop\n        /* \"task1/AMM.sol\":4544:4842  if (account != address(0)) {... */\n    tag_204:\n        /* \"task1/AMM.sol\":4080:4089  starttime */\n      sload(0x07)\n        /* \"task1/AMM.sol\":4061:4076  block.timestamp */\n      timestamp\n        /* \"task1/AMM.sol\":4061:4089  block.timestamp >= starttime */\n      lt\n      iszero\n        /* \"task1/AMM.sol\":4053:4121  require(block.timestamp >= starttime, 'LPTokenSharePool: not start') */\n      tag_207\n      jumpi\n      mload(0x40)\n      0x08c379a000000000000000000000000000000000000000000000000000000000\n      dup2\n      mstore\n      0x04\n      add\n      tag_208\n      swap1\n      tag_141\n      jump\t// in\n    tag_208:\n      mload(0x40)\n      dup1\n      swap2\n      sub\n      swap1\n      revert\n    tag_207:\n        /* \"task1/AMM.sol\":6708:6709  0 */\n      0x00\n        /* \"task1/AMM.sol\":6699:6705  amount */\n      dup3\n        /* \"task1/AMM.sol\":6699:6709  amount > 0 */\n      gt\n        /* \"task1/AMM.sol\":6691:6753  require(amount > 0, 'HUSDGOCLPTokenSharePool: Cannot stake 0') */\n      tag_210\n      jumpi\n      mload(0x40)\n      0x08c379a000000000000000000000000000000000000000000000000000000000\n      dup2\n      mstore\n      0x04\n      add\n      tag_211\n      swap1\n      tag_212\n      jump\t// in\n    tag_211:\n      mload(0x40)\n      dup1\n      swap2\n      sub\n      swap1\n      revert\n    tag_210:\n        /* \"task1/AMM.sol\":6789:6808  super.stake(amount) */\n      tag_213\n        /* \"task1/AMM.sol\":6801:6807  amount */\n      dup3\n        /* \"task1/AMM.sol\":6789:6800  super.stake */\n      tag_214\n        /* \"task1/AMM.sol\":6789:6808  super.stake(amount) */\n      jump\t// in\n    tag_213:\n        /* \"task1/AMM.sol\":6862:6872  msg.sender */\n      caller\n        /* \"task1/AMM.sol\":6855:6881  Staked(msg.sender, amount) */\n      0xffffffffffffffffffffffffffffffffffffffff\n      and\n      0x9e71bc8eea02a63969f509818f2dafb9254532904319f9dbda79b67bd34a5f3d\n        /* \"task1/AMM.sol\":6874:6880  amount */\n      dup4\n        /* \"task1/AMM.sol\":6855:6881  Staked(msg.sender, amount) */\n      mload(0x40)\n      tag_215\n      swap2\n      swap1\n      tag_37\n      jump\t// in\n    tag_215:\n      mload(0x40)\n      dup1\n      swap2\n      sub\n      swap1\n      log2\n        /* \"task1/AMM.sol\":6554:6889  function stake(... */\n      pop\n      pop\n      jump\t// out\n        /* \"task1/AMM.sol\":3074:3103  uint256 public lastUpdateTime */\n    tag_90:\n      sload(0x0a)\n      dup2\n      jump\t// out\n        /* \"task1/AMM.sol\":5298:5859  function rewardPerToken() public view returns (uint256) {... */\n    tag_93:\n        /* \"task1/AMM.sol\":5345:5352  uint256 */\n      0x00\n        /* \"task1/AMM.sol\":5406:5407  0 */\n      dup1\n        /* \"task1/AMM.sol\":5389:5402  totalSupply() */\n      tag_217\n        /* \"task1/AMM.sol\":5389:5400  totalSupply */\n      tag_50\n        /* \"task1/AMM.sol\":5389:5402  totalSupply() */\n      jump\t// in\n    tag_217:\n        /* \"task1/AMM.sol\":5389:5407  totalSupply() == 0 */\n      sub\n        /* \"task1/AMM.sol\":5385:5463  if (totalSupply() == 0) {... */\n      tag_218\n      jumpi\n        /* \"task1/AMM.sol\":5431:5451  rewardPerTokenStored */\n      sload(0x0b)\n        /* \"task1/AMM.sol\":5424:5451  return rewardPerTokenStored */\n      swap1\n      pop\n      jump(tag_216)\n        /* \"task1/AMM.sol\":5385:5463  if (totalSupply() == 0) {... */\n    tag_218:\n        /* \"task1/AMM.sol\":5614:5851  rewardPerTokenStored.add(... */\n      tag_219\n        /* \"task1/AMM.sol\":5657:5836  lastTimeRewardApplicable()... */\n      tag_220\n        /* \"task1/AMM.sol\":5822:5835  totalSupply() */\n      tag_221\n        /* \"task1/AMM.sol\":5822:5833  totalSupply */\n      tag_50\n        /* \"task1/AMM.sol\":5822:5835  totalSupply() */\n      jump\t// in\n    tag_221:\n        /* \"task1/AMM.sol\":5657:5795  lastTimeRewardApplicable()... */\n      tag_222\n        /* \"task1/AMM.sol\":5790:5794  1e18 */\n      0x0de0b6b3a7640000\n        /* \"task1/AMM.sol\":5657:5763  lastTimeRewardApplicable()... */\n      tag_223\n        /* \"task1/AMM.sol\":5752:5762  rewardRate */\n      sload(0x09)\n        /* \"task1/AMM.sol\":5657:5725  lastTimeRewardApplicable()... */\n      tag_224\n        /* \"task1/AMM.sol\":5710:5724  lastUpdateTime */\n      sload(0x0a)\n        /* \"task1/AMM.sol\":5657:5683  lastTimeRewardApplicable() */\n      tag_225\n        /* \"task1/AMM.sol\":5657:5681  lastTimeRewardApplicable */\n      tag_74\n        /* \"task1/AMM.sol\":5657:5683  lastTimeRewardApplicable() */\n      jump\t// in\n    tag_225:\n        /* \"task1/AMM.sol\":5657:5709  lastTimeRewardApplicable()... */\n      tag_119\n      swap1\n        /* \"task1/AMM.sol\":5657:5725  lastTimeRewardApplicable()... */\n      swap2\n      swap1\n      0xffffffff\n      and\n      jump\t// in\n    tag_224:\n        /* \"task1/AMM.sol\":5657:5751  lastTimeRewardApplicable()... */\n      tag_121\n      swap1\n        /* \"task1/AMM.sol\":5657:5763  lastTimeRewardApplicable()... */\n      swap2\n      swap1\n      0xffffffff\n      and\n      jump\t// in\n    tag_223:\n        /* \"task1/AMM.sol\":5657:5789  lastTimeRewardApplicable()... */\n      tag_121\n      swap1\n        /* \"task1/AMM.sol\":5657:5795  lastTimeRewardApplicable()... */\n      swap2\n      swap1\n      0xffffffff\n      and\n      jump\t// in\n    tag_222:\n        /* \"task1/AMM.sol\":5657:5821  lastTimeRewardApplicable()... */\n      tag_122\n      swap1\n        /* \"task1/AMM.sol\":5657:5836  lastTimeRewardApplicable()... */\n      swap2\n      swap1\n      0xffffffff\n      and\n      jump\t// in\n    tag_220:\n        /* \"task1/AMM.sol\":5614:5634  rewardPerTokenStored */\n      sload(0x0b)\n        /* \"task1/AMM.sol\":5614:5638  rewardPerTokenStored.add */\n      tag_123\n      swap1\n        /* \"task1/AMM.sol\":5614:5851  rewardPerTokenStored.add(... */\n      swap2\n      swap1\n      0xffffffff\n      and\n      jump\t// in\n    tag_219:\n        /* \"task1/AMM.sol\":5594:5851  return... */\n      swap1\n      pop\n        /* \"task1/AMM.sol\":5298:5859  function rewardPerToken() public view returns (uint256) {... */\n    tag_216:\n      swap1\n      jump\t// out\n        /* \"task1/AMM.sol\":870:887  IBEP20 public lpt */\n    tag_96:\n      0x00\n      dup1\n      sload\n      swap1\n      0x0100\n      exp\n      swap1\n      div\n      0xffffffffffffffffffffffffffffffffffffffff\n      and\n      dup2\n      jump\t// out\n        /* \"task1/AMM.sol\":3146:3181  uint256 public rewardPerTokenStored */\n    tag_100:\n      sload(0x0b)\n      dup2\n      jump\t// out\n        /* \"task1/AMM.sol\":7389:7557  function exit() external {... */\n    tag_103:\n        /* \"task1/AMM.sol\":7471:7502  withdraw(balanceOf(msg.sender)) */\n      tag_227\n        /* \"task1/AMM.sol\":7480:7501  balanceOf(msg.sender) */\n      tag_228\n        /* \"task1/AMM.sol\":7490:7500  msg.sender */\n      caller\n        /* \"task1/AMM.sol\":7480:7489  balanceOf */\n      tag_66\n        /* \"task1/AMM.sol\":7480:7501  balanceOf(msg.sender) */\n      jump\t// in\n    tag_228:\n        /* \"task1/AMM.sol\":7471:7479  withdraw */\n      tag_58\n        /* \"task1/AMM.sol\":7471:7502  withdraw(balanceOf(msg.sender)) */\n      jump\t// in\n    tag_227:\n        /* \"task1/AMM.sol\":7538:7549  getReward() */\n      tag_229\n        /* \"task1/AMM.sol\":7538:7547  getReward */\n      tag_63\n        /* \"task1/AMM.sol\":7538:7549  getReward() */\n      jump\t// in\n    tag_229:\n        /* \"task1/AMM.sol\":7389:7557  function exit() external {... */\n      jump\t// out\n        /* \"task1/AMM.sol\":2928:2959  uint256 public periodFinish = 0 */\n    tag_105:\n      sload(0x08)\n      dup2\n      jump\t// out\n        /* \"task1/utils.sol\":19897:20126  function transferOwnership(address newOwner) public virtual onlyOwner {... */\n    tag_109:\n        /* \"task1/utils.sol\":19228:19240  _msgSender() */\n      tag_231\n        /* \"task1/utils.sol\":19228:19238  _msgSender */\n      tag_126\n        /* \"task1/utils.sol\":19228:19240  _msgSender() */\n      jump\t// in\n    tag_231:\n        /* \"task1/utils.sol\":19217:19240  owner() == _msgSender() */\n      0xffffffffffffffffffffffffffffffffffffffff\n      and\n        /* \"task1/utils.sol\":19217:19224  owner() */\n      tag_232\n        /* \"task1/utils.sol\":19217:19222  owner */\n      tag_84\n        /* \"task1/utils.sol\":19217:19224  owner() */\n      jump\t// in\n    tag_232:\n        /* \"task1/utils.sol\":19217:19240  owner() == _msgSender() */\n      0xffffffffffffffffffffffffffffffffffffffff\n      and\n      eq\n        /* \"task1/utils.sol\":19209:19277  require(owner() == _msgSender(), \"Ownable: caller is not the owner\") */\n      tag_233\n      jumpi\n      mload(0x40)\n      0x08c379a000000000000000000000000000000000000000000000000000000000\n      dup2\n      mstore\n      0x04\n      add\n      tag_234\n      swap1\n      tag_130\n      jump\t// in\n    tag_234:\n      mload(0x40)\n      dup1\n      swap2\n      sub\n      swap1\n      revert\n    tag_233:\n        /* \"task1/utils.sol\":20020:20021  0 */\n      0x00\n        /* \"task1/utils.sol\":20000:20022  newOwner != address(0) */\n      0xffffffffffffffffffffffffffffffffffffffff\n      and\n        /* \"task1/utils.sol\":20000:20008  newOwner */\n      dup2\n        /* \"task1/utils.sol\":20000:20022  newOwner != address(0) */\n      0xffffffffffffffffffffffffffffffffffffffff\n      and\n      sub\n        /* \"task1/utils.sol\":19978:20088  require(... */\n      tag_236\n      jumpi\n      mload(0x40)\n      0x08c379a000000000000000000000000000000000000000000000000000000000\n      dup2\n      mstore\n      0x04\n      add\n      tag_237\n      swap1\n      tag_238\n      jump\t// in\n    tag_237:\n      mload(0x40)\n      dup1\n      swap2\n      sub\n      swap1\n      revert\n    tag_236:\n        /* \"task1/utils.sol\":20099:20118  _setOwner(newOwner) */\n      tag_239\n        /* \"task1/utils.sol\":20109:20117  newOwner */\n      dup2\n        /* \"task1/utils.sol\":20099:20108  _setOwner */\n      tag_196\n        /* \"task1/utils.sol\":20099:20118  _setOwner(newOwner) */\n      jump\t// in\n    tag_239:\n        /* \"task1/utils.sol\":19897:20126  function transferOwnership(address newOwner) public virtual onlyOwner {... */\n      pop\n      jump\t// out\n        /* \"task1/AMM.sol\":2716:2735  IBEP20 public token */\n    tag_111:\n      0x05\n      0x00\n      swap1\n      sload\n      swap1\n      0x0100\n      exp\n      swap1\n      div\n      0xffffffffffffffffffffffffffffffffffffffff\n      and\n      dup2\n      jump\t// out\n        /* \"task1/utils.sol\":3643:3741  function sub(uint256 a, uint256 b) internal pure returns (uint256) {... */\n    tag_119:\n        /* \"task1/utils.sol\":3701:3708  uint256 */\n      0x00\n        /* \"task1/utils.sol\":3732:3733  b */\n      dup2\n        /* \"task1/utils.sol\":3728:3729  a */\n      dup4\n        /* \"task1/utils.sol\":3728:3733  a - b */\n      tag_241\n      swap2\n      swap1\n      tag_242\n      jump\t// in\n    tag_241:\n        /* \"task1/utils.sol\":3721:3733  return a - b */\n      swap1\n      pop\n        /* \"task1/utils.sol\":3643:3741  function sub(uint256 a, uint256 b) internal pure returns (uint256) {... */\n      swap3\n      swap2\n      pop\n      pop\n      jump\t// out\n        /* \"task1/utils.sol\":4000:4098  function mul(uint256 a, uint256 b) internal pure returns (uint256) {... */\n    tag_121:\n        /* \"task1/utils.sol\":4058:4065  uint256 */\n      0x00\n        /* \"task1/utils.sol\":4089:4090  b */\n      dup2\n        /* \"task1/utils.sol\":4085:4086  a */\n      dup4\n        /* \"task1/utils.sol\":4085:4090  a * b */\n      tag_244\n      swap2\n      swap1\n      tag_245\n      jump\t// in\n    tag_244:\n        /* \"task1/utils.sol\":4078:4090  return a * b */\n      swap1\n      pop\n        /* \"task1/utils.sol\":4000:4098  function mul(uint256 a, uint256 b) internal pure returns (uint256) {... */\n      swap3\n      swap2\n      pop\n      pop\n      jump\t// out\n        /* \"task1/utils.sol\":4399:4497  function div(uint256 a, uint256 b) internal pure returns (uint256) {... */\n    tag_122:\n        /* \"task1/utils.sol\":4457:4464  uint256 */\n      0x00\n        /* \"task1/utils.sol\":4488:4489  b */\n      dup2\n        /* \"task1/utils.sol\":4484:4485  a */\n      dup4\n        /* \"task1/utils.sol\":4484:4489  a / b */\n      tag_247\n      swap2\n      swap1\n      tag_248\n      jump\t// in\n    tag_247:\n        /* \"task1/utils.sol\":4477:4489  return a / b */\n      swap1\n      pop\n        /* \"task1/utils.sol\":4399:4497  function div(uint256 a, uint256 b) internal pure returns (uint256) {... */\n      swap3\n      swap2\n      pop\n      pop\n      jump\t// out\n        /* \"task1/utils.sol\":3262:3360  function add(uint256 a, uint256 b) internal pure returns (uint256) {... */\n    tag_123:\n        /* \"task1/utils.sol\":3320:3327  uint256 */\n      0x00\n        /* \"task1/utils.sol\":3351:3352  b */\n      dup2\n        /* \"task1/utils.sol\":3347:3348  a */\n      dup4\n        /* \"task1/utils.sol\":3347:3352  a + b */\n      tag_250\n      swap2\n      swap1\n      tag_251\n      jump\t// in\n    tag_250:\n        /* \"task1/utils.sol\":3340:3352  return a + b */\n      swap1\n      pop\n        /* \"task1/utils.sol\":3262:3360  function add(uint256 a, uint256 b) internal pure returns (uint256) {... */\n      swap3\n      swap2\n      pop\n      pop\n      jump\t// out\n        /* \"task1/utils.sol\":18341:18439  function _msgSender() internal view virtual returns (address) {... */\n    tag_126:\n        /* \"task1/utils.sol\":18394:18401  address */\n      0x00\n        /* \"task1/utils.sol\":18421:18431  msg.sender */\n      caller\n        /* \"task1/utils.sol\":18414:18431  return msg.sender */\n      swap1\n      pop\n        /* \"task1/utils.sol\":18341:18439  function _msgSender() internal view virtual returns (address) {... */\n      swap1\n      jump\t// out\n        /* \"task1/AMM.sol\":1952:2497  function withdraw(uint256 amount) public virtual {... */\n    tag_147:\n        /* \"task1/AMM.sol\":2049:2070  uint256 directorShare */\n      0x00\n        /* \"task1/AMM.sol\":2073:2082  _balances */\n      0x02\n        /* \"task1/AMM.sol\":2073:2094  _balances[msg.sender] */\n      0x00\n        /* \"task1/AMM.sol\":2083:2093  msg.sender */\n      caller\n        /* \"task1/AMM.sol\":2073:2094  _balances[msg.sender] */\n      0xffffffffffffffffffffffffffffffffffffffff\n      and\n      0xffffffffffffffffffffffffffffffffffffffff\n      and\n      dup2\n      mstore\n      0x20\n      add\n      swap1\n      dup2\n      mstore\n      0x20\n      add\n      0x00\n      keccak256\n      sload\n        /* \"task1/AMM.sol\":2049:2094  uint256 directorShare = _balances[msg.sender] */\n      swap1\n      pop\n        /* \"task1/AMM.sol\":2182:2188  amount */\n      dup2\n        /* \"task1/AMM.sol\":2165:2178  directorShare */\n      dup2\n        /* \"task1/AMM.sol\":2165:2188  directorShare >= amount */\n      lt\n      iszero\n        /* \"task1/AMM.sol\":2157:2236  require(directorShare >= amount, 'withdraw request greater than staked amount') */\n      tag_254\n      jumpi\n      mload(0x40)\n      0x08c379a000000000000000000000000000000000000000000000000000000000\n      dup2\n      mstore\n      0x04\n      add\n      tag_255\n      swap1\n      tag_256\n      jump\t// in\n    tag_255:\n      mload(0x40)\n      dup1\n      swap2\n      sub\n      swap1\n      revert\n    tag_254:\n        /* \"task1/AMM.sol\":2287:2311  _totalSupply.sub(amount) */\n      tag_257\n        /* \"task1/AMM.sol\":2304:2310  amount */\n      dup3\n        /* \"task1/AMM.sol\":2287:2299  _totalSupply */\n      sload(0x01)\n        /* \"task1/AMM.sol\":2287:2303  _totalSupply.sub */\n      tag_119\n      swap1\n        /* \"task1/AMM.sol\":2287:2311  _totalSupply.sub(amount) */\n      swap2\n      swap1\n      0xffffffff\n      and\n      jump\t// in\n    tag_257:\n        /* \"task1/AMM.sol\":2272:2284  _totalSupply */\n      0x01\n        /* \"task1/AMM.sol\":2272:2311  _totalSupply = _totalSupply.sub(amount) */\n      dup2\n      swap1\n      sstore\n      pop\n        /* \"task1/AMM.sol\":2371:2404  _balances[msg.sender].sub(amount) */\n      tag_258\n        /* \"task1/AMM.sol\":2397:2403  amount */\n      dup3\n        /* \"task1/AMM.sol\":2371:2380  _balances */\n      0x02\n        /* \"task1/AMM.sol\":2371:2392  _balances[msg.sender] */\n      0x00\n        /* \"task1/AMM.sol\":2381:2391  msg.sender */\n      caller\n        /* \"task1/AMM.sol\":2371:2392  _balances[msg.sender] */\n      0xffffffffffffffffffffffffffffffffffffffff\n      and\n      0xffffffffffffffffffffffffffffffffffffffff\n      and\n      dup2\n      mstore\n      0x20\n      add\n      swap1\n      dup2\n      mstore\n      0x20\n      add\n      0x00\n      keccak256\n      sload\n        /* \"task1/AMM.sol\":2371:2396  _balances[msg.sender].sub */\n      tag_119\n      swap1\n        /* \"task1/AMM.sol\":2371:2404  _balances[msg.sender].sub(amount) */\n      swap2\n      swap1\n      0xffffffff\n      and\n      jump\t// in\n    tag_258:\n        /* \"task1/AMM.sol\":2347:2356  _balances */\n      0x02\n        /* \"task1/AMM.sol\":2347:2368  _balances[msg.sender] */\n      0x00\n        /* \"task1/AMM.sol\":2357:2367  msg.sender */\n      caller\n        /* \"task1/AMM.sol\":2347:2368  _balances[msg.sender] */\n      0xffffffffffffffffffffffffffffffffffffffff\n      and\n      0xffffffffffffffffffffffffffffffffffffffff\n      and\n      dup2\n      mstore\n      0x20\n      add\n      swap1\n      dup2\n      mstore\n      0x20\n      add\n      0x00\n      keccak256\n        /* \"task1/AMM.sol\":2347:2404  _balances[msg.sender] = _balances[msg.sender].sub(amount) */\n      dup2\n      swap1\n      sstore\n      pop\n        /* \"task1/AMM.sol\":2453:2489  lpt.safeTransfer(msg.sender, amount) */\n      tag_259\n        /* \"task1/AMM.sol\":2470:2480  msg.sender */\n      caller\n        /* \"task1/AMM.sol\":2482:2488  amount */\n      dup4\n        /* \"task1/AMM.sol\":2453:2456  lpt */\n      0x00\n      dup1\n      sload\n      swap1\n      0x0100\n      exp\n      swap1\n      div\n      0xffffffffffffffffffffffffffffffffffffffff\n      and\n        /* \"task1/AMM.sol\":2453:2469  lpt.safeTransfer */\n      0xffffffffffffffffffffffffffffffffffffffff\n      and\n      tag_186\n      swap1\n        /* \"task1/AMM.sol\":2453:2489  lpt.safeTransfer(msg.sender, amount) */\n      swap3\n      swap2\n      swap1\n      0xffffffff\n      and\n      jump\t// in\n    tag_259:\n        /* \"task1/AMM.sol\":2001:2497  {... */\n      pop\n        /* \"task1/AMM.sol\":1952:2497  function withdraw(uint256 amount) public virtual {... */\n      pop\n      jump\t// out\n        /* \"task1/utils.sol\":14583:14797  function safeTransfer(IBEP20 token, address to, uint256 value) internal {... */\n    tag_186:\n        /* \"task1/utils.sol\":14666:14789  _callOptionalReturn(... */\n      tag_261\n        /* \"task1/utils.sol\":14700:14705  token */\n      dup4\n        /* \"task1/utils.sol\":14743:14766  token.transfer.selector */\n      shl(0xe0, 0xa9059cbb)\n        /* \"task1/utils.sol\":14768:14770  to */\n      dup5\n        /* \"task1/utils.sol\":14772:14777  value */\n      dup5\n        /* \"task1/utils.sol\":14720:14778  abi.encodeWithSelector(token.transfer.selector, to, value) */\n      add(0x24, mload(0x40))\n      tag_262\n      swap3\n      swap2\n      swap1\n      tag_263\n      jump\t// in\n    tag_262:\n      mload(0x40)\n      0x20\n      dup2\n      dup4\n      sub\n      sub\n      dup2\n      mstore\n      swap1\n      0x40\n      mstore\n      swap1\n      not(0xffffffffffffffffffffffffffffffffffffffffffffffffffffffff)\n      and\n      0x20\n      dup3\n      add\n      dup1\n      mload\n      0xffffffffffffffffffffffffffffffffffffffffffffffffffffffff\n      dup4\n      dup2\n      dup4\n      and\n      or\n      dup4\n      mstore\n      pop\n      pop\n      pop\n      pop\n        /* \"task1/utils.sol\":14666:14685  _callOptionalReturn */\n      tag_264\n        /* \"task1/utils.sol\":14666:14789  _callOptionalReturn(... */\n      jump\t// in\n    tag_261:\n        /* \"task1/utils.sol\":14583:14797  function safeTransfer(IBEP20 token, address to, uint256 value) internal {... */\n      pop\n      pop\n      pop\n      jump\t// out\n        /* \"task1/utils.sol\":20134:20307  function _setOwner(address newOwner) private {... */\n    tag_196:\n        /* \"task1/utils.sol\":20190:20206  address oldOwner */\n      0x00\n        /* \"task1/utils.sol\":20209:20215  _owner */\n      0x03\n      0x00\n      swap1\n      sload\n      swap1\n      0x0100\n      exp\n      swap1\n      div\n      0xffffffffffffffffffffffffffffffffffffffff\n      and\n        /* \"task1/utils.sol\":20190:20215  address oldOwner = _owner */\n      swap1\n      pop\n        /* \"task1/utils.sol\":20235:20243  newOwner */\n      dup2\n        /* \"task1/utils.sol\":20226:20232  _owner */\n      0x03\n      0x00\n        /* \"task1/utils.sol\":20226:20243  _owner = newOwner */\n      0x0100\n      exp\n      dup2\n      sload\n      dup2\n      0xffffffffffffffffffffffffffffffffffffffff\n      mul\n      not\n      and\n      swap1\n      dup4\n      0xffffffffffffffffffffffffffffffffffffffff\n      and\n      mul\n      or\n      swap1\n      sstore\n      pop\n        /* \"task1/utils.sol\":20290:20298  newOwner */\n      dup2\n        /* \"task1/utils.sol\":20259:20299  OwnershipTransferred(oldOwner, newOwner) */\n      0xffffffffffffffffffffffffffffffffffffffff\n      and\n        /* \"task1/utils.sol\":20280:20288  oldOwner */\n      dup2\n        /* \"task1/utils.sol\":20259:20299  OwnershipTransferred(oldOwner, newOwner) */\n      0xffffffffffffffffffffffffffffffffffffffff\n      and\n      0x8be0079c531659141344cd1fd0a4f28419497f9722a3daafe3b4186f6b6457e0\n      mload(0x40)\n      mload(0x40)\n      dup1\n      swap2\n      sub\n      swap1\n      log3\n        /* \"task1/utils.sol\":20179:20307  {... */\n      pop\n        /* \"task1/utils.sol\":20134:20307  function _setOwner(address newOwner) private {... */\n      pop\n      jump\t// out\n        /* \"task1/utils.sol\":361:467  function min(uint256 a, uint256 b) internal pure returns (uint256) {... */\n    tag_199:\n        /* \"task1/utils.sol\":419:426  uint256 */\n      0x00\n        /* \"task1/utils.sol\":450:451  b */\n      dup2\n        /* \"task1/utils.sol\":446:447  a */\n      dup4\n        /* \"task1/utils.sol\":446:451  a < b */\n      lt\n        /* \"task1/utils.sol\":446:459  a < b ? a : b */\n      tag_267\n      jumpi\n        /* \"task1/utils.sol\":458:459  b */\n      dup2\n        /* \"task1/utils.sol\":446:459  a < b ? a : b */\n      jump(tag_268)\n    tag_267:\n        /* \"task1/utils.sol\":454:455  a */\n      dup3\n        /* \"task1/utils.sol\":446:459  a < b ? a : b */\n    tag_268:\n        /* \"task1/utils.sol\":439:459  return a < b ? a : b */\n      swap1\n      pop\n        /* \"task1/utils.sol\":361:467  function min(uint256 a, uint256 b) internal pure returns (uint256) {... */\n      swap3\n      swap2\n      pop\n      pop\n      jump\t// out\n        /* \"task1/AMM.sol\":1526:1864  function stake(uint256 amount) public virtual {... */\n    tag_214:\n        /* \"task1/AMM.sol\":1623:1647  _totalSupply.add(amount) */\n      tag_270\n        /* \"task1/AMM.sol\":1640:1646  amount */\n      dup2\n        /* \"task1/AMM.sol\":1623:1635  _totalSupply */\n      sload(0x01)\n        /* \"task1/AMM.sol\":1623:1639  _totalSupply.add */\n      tag_123\n      swap1\n        /* \"task1/AMM.sol\":1623:1647  _totalSupply.add(amount) */\n      swap2\n      swap1\n      0xffffffff\n      and\n      jump\t// in\n    tag_270:\n        /* \"task1/AMM.sol\":1608:1620  _totalSupply */\n      0x01\n        /* \"task1/AMM.sol\":1608:1647  _totalSupply = _totalSupply.add(amount) */\n      dup2\n      swap1\n      sstore\n      pop\n        /* \"task1/AMM.sol\":1713:1746  _balances[msg.sender].add(amount) */\n      tag_271\n        /* \"task1/AMM.sol\":1739:1745  amount */\n      dup2\n        /* \"task1/AMM.sol\":1713:1722  _balances */\n      0x02\n        /* \"task1/AMM.sol\":1713:1734  _balances[msg.sender] */\n      0x00\n        /* \"task1/AMM.sol\":1723:1733  msg.sender */\n      caller\n        /* \"task1/AMM.sol\":1713:1734  _balances[msg.sender] */\n      0xffffffffffffffffffffffffffffffffffffffff\n      and\n      0xffffffffffffffffffffffffffffffffffffffff\n      and\n      dup2\n      mstore\n      0x20\n      add\n      swap1\n      dup2\n      mstore\n      0x20\n      add\n      0x00\n      keccak256\n      sload\n        /* \"task1/AMM.sol\":1713:1738  _balances[msg.sender].add */\n      tag_123\n      swap1\n        /* \"task1/AMM.sol\":1713:1746  _balances[msg.sender].add(amount) */\n      swap2\n      swap1\n      0xffffffff\n      and\n      jump\t// in\n    tag_271:\n        /* \"task1/AMM.sol\":1689:1698  _balances */\n      0x02\n        /* \"task1/AMM.sol\":1689:1710  _balances[msg.sender] */\n      0x00\n        /* \"task1/AMM.sol\":1699:1709  msg.sender */\n      caller\n        /* \"task1/AMM.sol\":1689:1710  _balances[msg.sender] */\n      0xffffffffffffffffffffffffffffffffffffffff\n      and\n      0xffffffffffffffffffffffffffffffffffffffff\n      and\n      dup2\n      mstore\n      0x20\n      add\n      swap1\n      dup2\n      mstore\n      0x20\n      add\n      0x00\n      keccak256\n        /* \"task1/AMM.sol\":1689:1746  _balances[msg.sender] = _balances[msg.sender].add(amount) */\n      dup2\n      swap1\n      sstore\n      pop\n        /* \"task1/AMM.sol\":1801:1856  lpt.safeTransferFrom(msg.sender, address(this), amount) */\n      tag_272\n        /* \"task1/AMM.sol\":1822:1832  msg.sender */\n      caller\n        /* \"task1/AMM.sol\":1842:1846  this */\n      address\n        /* \"task1/AMM.sol\":1849:1855  amount */\n      dup4\n        /* \"task1/AMM.sol\":1801:1804  lpt */\n      0x00\n      dup1\n      sload\n      swap1\n      0x0100\n      exp\n      swap1\n      div\n      0xffffffffffffffffffffffffffffffffffffffff\n      and\n        /* \"task1/AMM.sol\":1801:1821  lpt.safeTransferFrom */\n      0xffffffffffffffffffffffffffffffffffffffff\n      and\n      tag_273\n      swap1\n        /* \"task1/AMM.sol\":1801:1856  lpt.safeTransferFrom(msg.sender, address(this), amount) */\n      swap4\n      swap3\n      swap2\n      swap1\n      0xffffffff\n      and\n      jump\t// in\n    tag_272:\n        /* \"task1/AMM.sol\":1526:1864  function stake(uint256 amount) public virtual {... */\n      pop\n      jump\t// out\n        /* \"task1/utils.sol\":17425:18285  function _callOptionalReturn(IBEP20 token, bytes memory data) private {... */\n    tag_264:\n        /* \"task1/utils.sol\":17849:17872  bytes memory returndata */\n      0x00\n        /* \"task1/utils.sol\":17875:17981  address(token).functionCall(... */\n      tag_275\n        /* \"task1/utils.sol\":17917:17921  data */\n      dup3\n        /* \"task1/utils.sol\":17875:17981  address(token).functionCall(... */\n      mload(0x40)\n      dup1\n      0x40\n      add\n      0x40\n      mstore\n      dup1\n      0x20\n      dup2\n      mstore\n      0x20\n      add\n      0x5361666542455032303a206c6f772d6c6576656c2063616c6c206661696c6564\n      dup2\n      mstore\n      pop\n        /* \"task1/utils.sol\":17883:17888  token */\n      dup6\n        /* \"task1/utils.sol\":17875:17902  address(token).functionCall */\n      0xffffffffffffffffffffffffffffffffffffffff\n      and\n      tag_276\n      swap1\n        /* \"task1/utils.sol\":17875:17981  address(token).functionCall(... */\n      swap3\n      swap2\n      swap1\n      0xffffffff\n      and\n      jump\t// in\n    tag_275:\n        /* \"task1/utils.sol\":17849:17981  bytes memory returndata = address(token).functionCall(... */\n      swap1\n      pop\n        /* \"task1/utils.sol\":18016:18017  0 */\n      0x00\n        /* \"task1/utils.sol\":17996:18006  returndata */\n      dup2\n        /* \"task1/utils.sol\":17996:18013  returndata.length */\n      mload\n        /* \"task1/utils.sol\":17996:18017  returndata.length > 0 */\n      gt\n        /* \"task1/utils.sol\":17992:18278  if (returndata.length > 0) {... */\n      iszero\n      tag_277\n      jumpi\n        /* \"task1/utils.sol\":18169:18179  returndata */\n      dup1\n        /* \"task1/utils.sol\":18158:18188  abi.decode(returndata, (bool)) */\n      dup1\n      0x20\n      add\n      swap1\n      mload\n      dup2\n      add\n      swap1\n      tag_278\n      swap2\n      swap1\n      tag_279\n      jump\t// in\n    tag_278:\n        /* \"task1/utils.sol\":18132:18266  require(... */\n      tag_280\n      jumpi\n      mload(0x40)\n      0x08c379a000000000000000000000000000000000000000000000000000000000\n      dup2\n      mstore\n      0x04\n      add\n      tag_281\n      swap1\n      tag_282\n      jump\t// in\n    tag_281:\n      mload(0x40)\n      dup1\n      swap2\n      sub\n      swap1\n      revert\n    tag_280:\n        /* \"task1/utils.sol\":17992:18278  if (returndata.length > 0) {... */\n    tag_277:\n        /* \"task1/utils.sol\":17495:18285  {... */\n      pop\n        /* \"task1/utils.sol\":17425:18285  function _callOptionalReturn(IBEP20 token, bytes memory data) private {... */\n      pop\n      pop\n      jump\t// out\n        /* \"task1/utils.sol\":14805:15090  function safeTransferFrom(... */\n    tag_273:\n        /* \"task1/utils.sol\":14949:15082  _callOptionalReturn(... */\n      tag_284\n        /* \"task1/utils.sol\":14983:14988  token */\n      dup5\n        /* \"task1/utils.sol\":15026:15053  token.transferFrom.selector */\n      shl(0xe0, 0x23b872dd)\n        /* \"task1/utils.sol\":15055:15059  from */\n      dup6\n        /* \"task1/utils.sol\":15061:15063  to */\n      dup6\n        /* \"task1/utils.sol\":15065:15070  value */\n      dup6\n        /* \"task1/utils.sol\":15003:15071  abi.encodeWithSelector(token.transferFrom.selector, from, to, value) */\n      add(0x24, mload(0x40))\n      tag_285\n      swap4\n      swap3\n      swap2\n      swap1\n      tag_286\n      jump\t// in\n    tag_285:\n      mload(0x40)\n      0x20\n      dup2\n      dup4\n      sub\n      sub\n      dup2\n      mstore\n      swap1\n      0x40\n      mstore\n      swap1\n      not(0xffffffffffffffffffffffffffffffffffffffffffffffffffffffff)\n      and\n      0x20\n      dup3\n      add\n      dup1\n      mload\n      0xffffffffffffffffffffffffffffffffffffffffffffffffffffffff\n      dup4\n      dup2\n      dup4\n      and\n      or\n      dup4\n      mstore\n      pop\n      pop\n      pop\n      pop\n        /* \"task1/utils.sol\":14949:14968  _callOptionalReturn */\n      tag_264\n        /* \"task1/utils.sol\":14949:15082  _callOptionalReturn(... */\n      jump\t// in\n    tag_284:\n        /* \"task1/utils.sol\":14805:15090  function safeTransferFrom(... */\n      pop\n      pop\n      pop\n      pop\n      jump\t// out\n        /* \"task1/utils.sol\":11348:11578  function functionCall(... */\n    tag_276:\n        /* \"task1/utils.sol\":11485:11497  bytes memory */\n      0x60\n        /* \"task1/utils.sol\":11517:11570  _functionCallWithValue(target, data, 0, errorMessage) */\n      tag_288\n        /* \"task1/utils.sol\":11540:11546  target */\n      dup5\n        /* \"task1/utils.sol\":11548:11552  data */\n      dup5\n        /* \"task1/utils.sol\":11554:11555  0 */\n      0x00\n        /* \"task1/utils.sol\":11557:11569  errorMessage */\n      dup6\n        /* \"task1/utils.sol\":11517:11539  _functionCallWithValue */\n      tag_289\n        /* \"task1/utils.sol\":11517:11570  _functionCallWithValue(target, data, 0, errorMessage) */\n      jump\t// in\n    tag_288:\n        /* \"task1/utils.sol\":11510:11570  return _functionCallWithValue(target, data, 0, errorMessage) */\n      swap1\n      pop\n        /* \"task1/utils.sol\":11348:11578  function functionCall(... */\n      swap4\n      swap3\n      pop\n      pop\n      pop\n      jump\t// out\n        /* \"task1/utils.sol\":12969:14013  function _functionCallWithValue(... */\n    tag_289:\n        /* \"task1/utils.sol\":13142:13154  bytes memory */\n      0x60\n        /* \"task1/utils.sol\":13175:13193  isContract(target) */\n      tag_291\n        /* \"task1/utils.sol\":13186:13192  target */\n      dup6\n        /* \"task1/utils.sol\":13175:13185  isContract */\n      tag_292\n        /* \"task1/utils.sol\":13175:13193  isContract(target) */\n      jump\t// in\n    tag_291:\n        /* \"task1/utils.sol\":13167:13227  require(isContract(target), \"Address: call to non-contract\") */\n      tag_293\n      jumpi\n      mload(0x40)\n      0x08c379a000000000000000000000000000000000000000000000000000000000\n      dup2\n      mstore\n      0x04\n      add\n      tag_294\n      swap1\n      tag_295\n      jump\t// in\n    tag_294:\n      mload(0x40)\n      dup1\n      swap2\n      sub\n      swap1\n      revert\n    tag_293:\n        /* \"task1/utils.sol\":13301:13313  bool success */\n      0x00\n        /* \"task1/utils.sol\":13315:13338  bytes memory returndata */\n      dup1\n        /* \"task1/utils.sol\":13342:13348  target */\n      dup7\n        /* \"task1/utils.sol\":13342:13353  target.call */\n      0xffffffffffffffffffffffffffffffffffffffff\n      and\n        /* \"task1/utils.sol\":13361:13369  weiValue */\n      dup6\n        /* \"task1/utils.sol\":13385:13389  data */\n      dup8\n        /* \"task1/utils.sol\":13342:13400  target.call{value: weiValue}(... */\n      mload(0x40)\n      tag_296\n      swap2\n      swap1\n      tag_297\n      jump\t// in\n    tag_296:\n      0x00\n      mload(0x40)\n      dup1\n      dup4\n      sub\n      dup2\n      dup6\n      dup8\n      gas\n      call\n      swap3\n      pop\n      pop\n      pop\n      returndatasize\n      dup1\n      0x00\n      dup2\n      eq\n      tag_300\n      jumpi\n      mload(0x40)\n      swap2\n      pop\n      and(add(returndatasize, 0x3f), not(0x1f))\n      dup3\n      add\n      0x40\n      mstore\n      returndatasize\n      dup3\n      mstore\n      returndatasize\n      0x00\n      0x20\n      dup5\n      add\n      returndatacopy\n      jump(tag_299)\n    tag_300:\n      0x60\n      swap2\n      pop\n    tag_299:\n      pop\n        /* \"task1/utils.sol\":13300:13400  (bool success, bytes memory returndata) = target.call{value: weiValue}(... */\n      swap2\n      pop\n      swap2\n      pop\n        /* \"task1/utils.sol\":13415:13422  success */\n      dup2\n        /* \"task1/utils.sol\":13411:14006  if (success) {... */\n      iszero\n      tag_301\n      jumpi\n        /* \"task1/utils.sol\":13446:13456  returndata */\n      dup1\n        /* \"task1/utils.sol\":13439:13456  return returndata */\n      swap3\n      pop\n      pop\n      pop\n      jump(tag_290)\n        /* \"task1/utils.sol\":13411:14006  if (success) {... */\n    tag_301:\n        /* \"task1/utils.sol\":13580:13581  0 */\n      0x00\n        /* \"task1/utils.sol\":13560:13570  returndata */\n      dup2\n        /* \"task1/utils.sol\":13560:13577  returndata.length */\n      mload\n        /* \"task1/utils.sol\":13560:13581  returndata.length > 0 */\n      gt\n        /* \"task1/utils.sol\":13556:13995  if (returndata.length > 0) {... */\n      iszero\n      tag_303\n      jumpi\n        /* \"task1/utils.sol\":13823:13833  returndata */\n      dup1\n        /* \"task1/utils.sol\":13817:13834  mload(returndata) */\n      mload\n        /* \"task1/utils.sol\":13884:13899  returndata_size */\n      dup1\n        /* \"task1/utils.sol\":13871:13881  returndata */\n      dup3\n        /* \"task1/utils.sol\":13867:13869  32 */\n      0x20\n        /* \"task1/utils.sol\":13863:13882  add(32, returndata) */\n      add\n        /* \"task1/utils.sol\":13856:13900  revert(add(32, returndata), returndata_size) */\n      revert\n        /* \"task1/utils.sol\":13556:13995  if (returndata.length > 0) {... */\n    tag_303:\n        /* \"task1/utils.sol\":13966:13978  errorMessage */\n      dup4\n        /* \"task1/utils.sol\":13959:13979  revert(errorMessage) */\n      mload(0x40)\n      0x08c379a000000000000000000000000000000000000000000000000000000000\n      dup2\n      mstore\n      0x04\n      add\n      tag_305\n      swap2\n      swap1\n      tag_306\n      jump\t// in\n    tag_305:\n      mload(0x40)\n      dup1\n      swap2\n      sub\n      swap1\n      revert\n        /* \"task1/utils.sol\":12969:14013  function _functionCallWithValue(... */\n    tag_290:\n      swap5\n      swap4\n      pop\n      pop\n      pop\n      pop\n      jump\t// out\n        /* \"task1/utils.sol\":8112:8753  function isContract(address account) internal view returns (bool) {... */\n    tag_292:\n        /* \"task1/utils.sol\":8172:8176  bool */\n      0x00\n        /* \"task1/utils.sol\":8434:8450  bytes32 codehash */\n      dup1\n        /* \"task1/utils.sol\":8461:8480  bytes32 accountHash */\n      0x00\n        /* \"task1/utils.sol\":8483:8549  0xc5d2460186f7233c927e7db2dcc703c0e500b653ca82273b7bfad8045d85a470 */\n      0xc5d2460186f7233c927e7db2dcc703c0e500b653ca82273b7bfad8045d85a470\n        /* \"task1/utils.sol\":8461:8549  bytes32 accountHash = 0xc5d2460186f7233c927e7db2dcc703c0e500b653ca82273b7bfad8045d85a470 */\n      0x00\n      shl\n      swap1\n      pop\n        /* \"task1/utils.sol\":8665:8672  account */\n      dup4\n        /* \"task1/utils.sol\":8653:8673  extcodehash(account) */\n      extcodehash\n        /* \"task1/utils.sol\":8641:8673  codehash := extcodehash(account) */\n      swap2\n      pop\n        /* \"task1/utils.sol\":8714:8725  accountHash */\n      dup1\n        /* \"task1/utils.sol\":8702:8710  codehash */\n      dup3\n        /* \"task1/utils.sol\":8702:8725  codehash != accountHash */\n      eq\n      iszero\n        /* \"task1/utils.sol\":8702:8744  codehash != accountHash && codehash != 0x0 */\n      dup1\n      iszero\n      tag_308\n      jumpi\n      pop\n        /* \"task1/utils.sol\":8741:8744  0x0 */\n      0x00\n        /* \"task1/utils.sol\":8729:8744  codehash != 0x0 */\n      dup1\n      shl\n        /* \"task1/utils.sol\":8729:8737  codehash */\n      dup3\n        /* \"task1/utils.sol\":8729:8744  codehash != 0x0 */\n      eq\n      iszero\n        /* \"task1/utils.sol\":8702:8744  codehash != accountHash && codehash != 0x0 */\n    tag_308:\n        /* \"task1/utils.sol\":8694:8745  return (codehash != accountHash && codehash != 0x0) */\n      swap3\n      pop\n      pop\n      pop\n        /* \"task1/utils.sol\":8112:8753  function isContract(address account) internal view returns (bool) {... */\n      swap2\n      swap1\n      pop\n      jump\t// out\n        /* \"#utility.yul\":88:205   */\n    tag_310:\n        /* \"#utility.yul\":197:198   */\n      0x00\n        /* \"#utility.yul\":194:195   */\n      dup1\n        /* \"#utility.yul\":187:199   */\n      revert\n        /* \"#utility.yul\":334:460   */\n    tag_312:\n        /* \"#utility.yul\":371:378   */\n      0x00\n        /* \"#utility.yul\":411:453   */\n      0xffffffffffffffffffffffffffffffffffffffff\n        /* \"#utility.yul\":404:409   */\n      dup3\n        /* \"#utility.yul\":400:454   */\n      and\n        /* \"#utility.yul\":389:454   */\n      swap1\n      pop\n        /* \"#utility.yul\":334:460   */\n      swap2\n      swap1\n      pop\n      jump\t// out\n        /* \"#utility.yul\":466:562   */\n    tag_313:\n        /* \"#utility.yul\":503:510   */\n      0x00\n        /* \"#utility.yul\":532:556   */\n      tag_363\n        /* \"#utility.yul\":550:555   */\n      dup3\n        /* \"#utility.yul\":532:556   */\n      tag_312\n      jump\t// in\n    tag_363:\n        /* \"#utility.yul\":521:556   */\n      swap1\n      pop\n        /* \"#utility.yul\":466:562   */\n      swap2\n      swap1\n      pop\n      jump\t// out\n        /* \"#utility.yul\":568:690   */\n    tag_314:\n        /* \"#utility.yul\":641:665   */\n      tag_365\n        /* \"#utility.yul\":659:664   */\n      dup2\n        /* \"#utility.yul\":641:665   */\n      tag_313\n      jump\t// in\n    tag_365:\n        /* \"#utility.yul\":634:639   */\n      dup2\n        /* \"#utility.yul\":631:666   */\n      eq\n        /* \"#utility.yul\":621:684   */\n      tag_366\n      jumpi\n        /* \"#utility.yul\":680:681   */\n      0x00\n        /* \"#utility.yul\":677:678   */\n      dup1\n        /* \"#utility.yul\":670:682   */\n      revert\n        /* \"#utility.yul\":621:684   */\n    tag_366:\n        /* \"#utility.yul\":568:690   */\n      pop\n      jump\t// out\n        /* \"#utility.yul\":696:835   */\n    tag_315:\n        /* \"#utility.yul\":742:747   */\n      0x00\n        /* \"#utility.yul\":780:786   */\n      dup2\n        /* \"#utility.yul\":767:787   */\n      calldataload\n        /* \"#utility.yul\":758:787   */\n      swap1\n      pop\n        /* \"#utility.yul\":796:829   */\n      tag_368\n        /* \"#utility.yul\":823:828   */\n      dup2\n        /* \"#utility.yul\":796:829   */\n      tag_314\n      jump\t// in\n    tag_368:\n        /* \"#utility.yul\":696:835   */\n      swap3\n      swap2\n      pop\n      pop\n      jump\t// out\n        /* \"#utility.yul\":841:1170   */\n    tag_34:\n        /* \"#utility.yul\":900:906   */\n      0x00\n        /* \"#utility.yul\":949:951   */\n      0x20\n        /* \"#utility.yul\":937:946   */\n      dup3\n        /* \"#utility.yul\":928:935   */\n      dup5\n        /* \"#utility.yul\":924:947   */\n      sub\n        /* \"#utility.yul\":920:952   */\n      slt\n        /* \"#utility.yul\":917:1036   */\n      iszero\n      tag_370\n      jumpi\n        /* \"#utility.yul\":955:1034   */\n      tag_371\n      tag_310\n      jump\t// in\n    tag_371:\n        /* \"#utility.yul\":917:1036   */\n    tag_370:\n        /* \"#utility.yul\":1075:1076   */\n      0x00\n        /* \"#utility.yul\":1100:1153   */\n      tag_372\n        /* \"#utility.yul\":1145:1152   */\n      dup5\n        /* \"#utility.yul\":1136:1142   */\n      dup3\n        /* \"#utility.yul\":1125:1134   */\n      dup6\n        /* \"#utility.yul\":1121:1143   */\n      add\n        /* \"#utility.yul\":1100:1153   */\n      tag_315\n      jump\t// in\n    tag_372:\n        /* \"#utility.yul\":1090:1153   */\n      swap2\n      pop\n        /* \"#utility.yul\":1046:1163   */\n      pop\n        /* \"#utility.yul\":841:1170   */\n      swap3\n      swap2\n      pop\n      pop\n      jump\t// out\n        /* \"#utility.yul\":1176:1253   */\n    tag_316:\n        /* \"#utility.yul\":1213:1220   */\n      0x00\n        /* \"#utility.yul\":1242:1247   */\n      dup2\n        /* \"#utility.yul\":1231:1247   */\n      swap1\n      pop\n        /* \"#utility.yul\":1176:1253   */\n      swap2\n      swap1\n      pop\n      jump\t// out\n        /* \"#utility.yul\":1259:1377   */\n    tag_317:\n        /* \"#utility.yul\":1346:1370   */\n      tag_375\n        /* \"#utility.yul\":1364:1369   */\n      dup2\n        /* \"#utility.yul\":1346:1370   */\n      tag_316\n      jump\t// in\n    tag_375:\n        /* \"#utility.yul\":1341:1344   */\n      dup3\n        /* \"#utility.yul\":1334:1371   */\n      mstore\n        /* \"#utility.yul\":1259:1377   */\n      pop\n      pop\n      jump\t// out\n        /* \"#utility.yul\":1383:1605   */\n    tag_37:\n        /* \"#utility.yul\":1476:1480   */\n      0x00\n        /* \"#utility.yul\":1514:1516   */\n      0x20\n        /* \"#utility.yul\":1503:1512   */\n      dup3\n        /* \"#utility.yul\":1499:1517   */\n      add\n        /* \"#utility.yul\":1491:1517   */\n      swap1\n      pop\n        /* \"#utility.yul\":1527:1598   */\n      tag_377\n        /* \"#utility.yul\":1595:1596   */\n      0x00\n        /* \"#utility.yul\":1584:1593   */\n      dup4\n        /* \"#utility.yul\":1580:1597   */\n      add\n        /* \"#utility.yul\":1571:1577   */\n      dup5\n        /* \"#utility.yul\":1527:1598   */\n      tag_317\n      jump\t// in\n    tag_377:\n        /* \"#utility.yul\":1383:1605   */\n      swap3\n      swap2\n      pop\n      pop\n      jump\t// out\n        /* \"#utility.yul\":1611:1729   */\n    tag_318:\n        /* \"#utility.yul\":1698:1722   */\n      tag_379\n        /* \"#utility.yul\":1716:1721   */\n      dup2\n        /* \"#utility.yul\":1698:1722   */\n      tag_313\n      jump\t// in\n    tag_379:\n        /* \"#utility.yul\":1693:1696   */\n      dup3\n        /* \"#utility.yul\":1686:1723   */\n      mstore\n        /* \"#utility.yul\":1611:1729   */\n      pop\n      pop\n      jump\t// out\n        /* \"#utility.yul\":1735:1957   */\n    tag_48:\n        /* \"#utility.yul\":1828:1832   */\n      0x00\n        /* \"#utility.yul\":1866:1868   */\n      0x20\n        /* \"#utility.yul\":1855:1864   */\n      dup3\n        /* \"#utility.yul\":1851:1869   */\n      add\n        /* \"#utility.yul\":1843:1869   */\n      swap1\n      pop\n        /* \"#utility.yul\":1879:1950   */\n      tag_381\n        /* \"#utility.yul\":1947:1948   */\n      0x00\n        /* \"#utility.yul\":1936:1945   */\n      dup4\n        /* \"#utility.yul\":1932:1949   */\n      add\n        /* \"#utility.yul\":1923:1929   */\n      dup5\n        /* \"#utility.yul\":1879:1950   */\n      tag_318\n      jump\t// in\n    tag_381:\n        /* \"#utility.yul\":1735:1957   */\n      swap3\n      swap2\n      pop\n      pop\n      jump\t// out\n        /* \"#utility.yul\":1963:2085   */\n    tag_319:\n        /* \"#utility.yul\":2036:2060   */\n      tag_383\n        /* \"#utility.yul\":2054:2059   */\n      dup2\n        /* \"#utility.yul\":2036:2060   */\n      tag_316\n      jump\t// in\n    tag_383:\n        /* \"#utility.yul\":2029:2034   */\n      dup2\n        /* \"#utility.yul\":2026:2061   */\n      eq\n        /* \"#utility.yul\":2016:2079   */\n      tag_384\n      jumpi\n        /* \"#utility.yul\":2075:2076   */\n      0x00\n        /* \"#utility.yul\":2072:2073   */\n      dup1\n        /* \"#utility.yul\":2065:2077   */\n      revert\n        /* \"#utility.yul\":2016:2079   */\n    tag_384:\n        /* \"#utility.yul\":1963:2085   */\n      pop\n      jump\t// out\n        /* \"#utility.yul\":2091:2230   */\n    tag_320:\n        /* \"#utility.yul\":2137:2142   */\n      0x00\n        /* \"#utility.yul\":2175:2181   */\n      dup2\n        /* \"#utility.yul\":2162:2182   */\n      calldataload\n        /* \"#utility.yul\":2153:2182   */\n      swap1\n      pop\n        /* \"#utility.yul\":2191:2224   */\n      tag_386\n        /* \"#utility.yul\":2218:2223   */\n      dup2\n        /* \"#utility.yul\":2191:2224   */\n      tag_319\n      jump\t// in\n    tag_386:\n        /* \"#utility.yul\":2091:2230   */\n      swap3\n      swap2\n      pop\n      pop\n      jump\t// out\n        /* \"#utility.yul\":2236:2565   */\n    tag_57:\n        /* \"#utility.yul\":2295:2301   */\n      0x00\n        /* \"#utility.yul\":2344:2346   */\n      0x20\n        /* \"#utility.yul\":2332:2341   */\n      dup3\n        /* \"#utility.yul\":2323:2330   */\n      dup5\n        /* \"#utility.yul\":2319:2342   */\n      sub\n        /* \"#utility.yul\":2315:2347   */\n      slt\n        /* \"#utility.yul\":2312:2431   */\n      iszero\n      tag_388\n      jumpi\n        /* \"#utility.yul\":2350:2429   */\n      tag_389\n      tag_310\n      jump\t// in\n    tag_389:\n        /* \"#utility.yul\":2312:2431   */\n    tag_388:\n        /* \"#utility.yul\":2470:2471   */\n      0x00\n        /* \"#utility.yul\":2495:2548   */\n      tag_390\n        /* \"#utility.yul\":2540:2547   */\n      dup5\n        /* \"#utility.yul\":2531:2537   */\n      dup3\n        /* \"#utility.yul\":2520:2529   */\n      dup6\n        /* \"#utility.yul\":2516:2538   */\n      add\n        /* \"#utility.yul\":2495:2548   */\n      tag_320\n      jump\t// in\n    tag_390:\n        /* \"#utility.yul\":2485:2548   */\n      swap2\n      pop\n        /* \"#utility.yul\":2441:2558   */\n      pop\n        /* \"#utility.yul\":2236:2565   */\n      swap3\n      swap2\n      pop\n      pop\n      jump\t// out\n        /* \"#utility.yul\":2571:2631   */\n    tag_321:\n        /* \"#utility.yul\":2599:2602   */\n      0x00\n        /* \"#utility.yul\":2620:2625   */\n      dup2\n        /* \"#utility.yul\":2613:2625   */\n      swap1\n      pop\n        /* \"#utility.yul\":2571:2631   */\n      swap2\n      swap1\n      pop\n      jump\t// out\n        /* \"#utility.yul\":2637:2779   */\n    tag_322:\n        /* \"#utility.yul\":2687:2696   */\n      0x00\n        /* \"#utility.yul\":2720:2773   */\n      tag_393\n        /* \"#utility.yul\":2738:2772   */\n      tag_394\n        /* \"#utility.yul\":2747:2771   */\n      tag_395\n        /* \"#utility.yul\":2765:2770   */\n      dup5\n        /* \"#utility.yul\":2747:2771   */\n      tag_312\n      jump\t// in\n    tag_395:\n        /* \"#utility.yul\":2738:2772   */\n      tag_321\n      jump\t// in\n    tag_394:\n        /* \"#utility.yul\":2720:2773   */\n      tag_312\n      jump\t// in\n    tag_393:\n        /* \"#utility.yul\":2707:2773   */\n      swap1\n      pop\n        /* \"#utility.yul\":2637:2779   */\n      swap2\n      swap1\n      pop\n      jump\t// out\n        /* \"#utility.yul\":2785:2911   */\n    tag_323:\n        /* \"#utility.yul\":2835:2844   */\n      0x00\n        /* \"#utility.yul\":2868:2905   */\n      tag_397\n        /* \"#utility.yul\":2899:2904   */\n      dup3\n        /* \"#utility.yul\":2868:2905   */\n      tag_322\n      jump\t// in\n    tag_397:\n        /* \"#utility.yul\":2855:2905   */\n      swap1\n      pop\n        /* \"#utility.yul\":2785:2911   */\n      swap2\n      swap1\n      pop\n      jump\t// out\n        /* \"#utility.yul\":2917:3058   */\n    tag_324:\n        /* \"#utility.yul\":2982:2991   */\n      0x00\n        /* \"#utility.yul\":3015:3052   */\n      tag_399\n        /* \"#utility.yul\":3046:3051   */\n      dup3\n        /* \"#utility.yul\":3015:3052   */\n      tag_323\n      jump\t// in\n    tag_399:\n        /* \"#utility.yul\":3002:3052   */\n      swap1\n      pop\n        /* \"#utility.yul\":2917:3058   */\n      swap2\n      swap1\n      pop\n      jump\t// out\n        /* \"#utility.yul\":3064:3225   */\n    tag_325:\n        /* \"#utility.yul\":3166:3218   */\n      tag_401\n        /* \"#utility.yul\":3212:3217   */\n      dup2\n        /* \"#utility.yul\":3166:3218   */\n      tag_324\n      jump\t// in\n    tag_401:\n        /* \"#utility.yul\":3161:3164   */\n      dup3\n        /* \"#utility.yul\":3154:3219   */\n      mstore\n        /* \"#utility.yul\":3064:3225   */\n      pop\n      pop\n      jump\t// out\n        /* \"#utility.yul\":3231:3483   */\n    tag_98:\n        /* \"#utility.yul\":3339:3343   */\n      0x00\n        /* \"#utility.yul\":3377:3379   */\n      0x20\n        /* \"#utility.yul\":3366:3375   */\n      dup3\n        /* \"#utility.yul\":3362:3380   */\n      add\n        /* \"#utility.yul\":3354:3380   */\n      swap1\n      pop\n        /* \"#utility.yul\":3390:3476   */\n      tag_403\n        /* \"#utility.yul\":3473:3474   */\n      0x00\n        /* \"#utility.yul\":3462:3471   */\n      dup4\n        /* \"#utility.yul\":3458:3475   */\n      add\n        /* \"#utility.yul\":3449:3455   */\n      dup5\n        /* \"#utility.yul\":3390:3476   */\n      tag_325\n      jump\t// in\n    tag_403:\n        /* \"#utility.yul\":3231:3483   */\n      swap3\n      swap2\n      pop\n      pop\n      jump\t// out\n        /* \"#utility.yul\":3489:3658   */\n    tag_326:\n        /* \"#utility.yul\":3573:3584   */\n      0x00\n        /* \"#utility.yul\":3607:3613   */\n      dup3\n        /* \"#utility.yul\":3602:3605   */\n      dup3\n        /* \"#utility.yul\":3595:3614   */\n      mstore\n        /* \"#utility.yul\":3647:3651   */\n      0x20\n        /* \"#utility.yul\":3642:3645   */\n      dup3\n        /* \"#utility.yul\":3638:3652   */\n      add\n        /* \"#utility.yul\":3623:3652   */\n      swap1\n      pop\n        /* \"#utility.yul\":3489:3658   */\n      swap3\n      swap2\n      pop\n      pop\n      jump\t// out\n        /* \"#utility.yul\":3664:3846   */\n    tag_327:\n        /* \"#utility.yul\":3804:3838   */\n      0x4f776e61626c653a2063616c6c6572206973206e6f7420746865206f776e6572\n        /* \"#utility.yul\":3800:3801   */\n      0x00\n        /* \"#utility.yul\":3792:3798   */\n      dup3\n        /* \"#utility.yul\":3788:3802   */\n      add\n        /* \"#utility.yul\":3781:3839   */\n      mstore\n        /* \"#utility.yul\":3664:3846   */\n      pop\n      jump\t// out\n        /* \"#utility.yul\":3852:4218   */\n    tag_328:\n        /* \"#utility.yul\":3994:3997   */\n      0x00\n        /* \"#utility.yul\":4015:4082   */\n      tag_407\n        /* \"#utility.yul\":4079:4081   */\n      0x20\n        /* \"#utility.yul\":4074:4077   */\n      dup4\n        /* \"#utility.yul\":4015:4082   */\n      tag_326\n      jump\t// in\n    tag_407:\n        /* \"#utility.yul\":4008:4082   */\n      swap2\n      pop\n        /* \"#utility.yul\":4091:4184   */\n      tag_408\n        /* \"#utility.yul\":4180:4183   */\n      dup3\n        /* \"#utility.yul\":4091:4184   */\n      tag_327\n      jump\t// in\n    tag_408:\n        /* \"#utility.yul\":4209:4211   */\n      0x20\n        /* \"#utility.yul\":4204:4207   */\n      dup3\n        /* \"#utility.yul\":4200:4212   */\n      add\n        /* \"#utility.yul\":4193:4212   */\n      swap1\n      pop\n        /* \"#utility.yul\":3852:4218   */\n      swap2\n      swap1\n      pop\n      jump\t// out\n        /* \"#utility.yul\":4224:4643   */\n    tag_130:\n        /* \"#utility.yul\":4390:4394   */\n      0x00\n        /* \"#utility.yul\":4428:4430   */\n      0x20\n        /* \"#utility.yul\":4417:4426   */\n      dup3\n        /* \"#utility.yul\":4413:4431   */\n      add\n        /* \"#utility.yul\":4405:4431   */\n      swap1\n      pop\n        /* \"#utility.yul\":4477:4486   */\n      dup2\n        /* \"#utility.yul\":4471:4475   */\n      dup2\n        /* \"#utility.yul\":4467:4487   */\n      sub\n        /* \"#utility.yul\":4463:4464   */\n      0x00\n        /* \"#utility.yul\":4452:4461   */\n      dup4\n        /* \"#utility.yul\":4448:4465   */\n      add\n        /* \"#utility.yul\":4441:4488   */\n      mstore\n        /* \"#utility.yul\":4505:4636   */\n      tag_410\n        /* \"#utility.yul\":4631:4635   */\n      dup2\n        /* \"#utility.yul\":4505:4636   */\n      tag_328\n      jump\t// in\n    tag_410:\n        /* \"#utility.yul\":4497:4636   */\n      swap1\n      pop\n        /* \"#utility.yul\":4224:4643   */\n      swap2\n      swap1\n      pop\n      jump\t// out\n        /* \"#utility.yul\":4649:4826   */\n    tag_329:\n        /* \"#utility.yul\":4789:4818   */\n      0x4c50546f6b656e5368617265506f6f6c3a206e6f742073746172740000000000\n        /* \"#utility.yul\":4785:4786   */\n      0x00\n        /* \"#utility.yul\":4777:4783   */\n      dup3\n        /* \"#utility.yul\":4773:4787   */\n      add\n        /* \"#utility.yul\":4766:4819   */\n      mstore\n        /* \"#utility.yul\":4649:4826   */\n      pop\n      jump\t// out\n        /* \"#utility.yul\":4832:5198   */\n    tag_330:\n        /* \"#utility.yul\":4974:4977   */\n      0x00\n        /* \"#utility.yul\":4995:5062   */\n      tag_413\n        /* \"#utility.yul\":5059:5061   */\n      0x1b\n        /* \"#utility.yul\":5054:5057   */\n      dup4\n        /* \"#utility.yul\":4995:5062   */\n      tag_326\n      jump\t// in\n    tag_413:\n        /* \"#utility.yul\":4988:5062   */\n      swap2\n      pop\n        /* \"#utility.yul\":5071:5164   */\n      tag_414\n        /* \"#utility.yul\":5160:5163   */\n      dup3\n        /* \"#utility.yul\":5071:5164   */\n      tag_329\n      jump\t// in\n    tag_414:\n        /* \"#utility.yul\":5189:5191   */\n      0x20\n        /* \"#utility.yul\":5184:5187   */\n      dup3\n        /* \"#utility.yul\":5180:5192   */\n      add\n        /* \"#utility.yul\":5173:5192   */\n      swap1\n      pop\n        /* \"#utility.yul\":4832:5198   */\n      swap2\n      swap1\n      pop\n      jump\t// out\n        /* \"#utility.yul\":5204:5623   */\n    tag_141:\n        /* \"#utility.yul\":5370:5374   */\n      0x00\n        /* \"#utility.yul\":5408:5410   */\n      0x20\n        /* \"#utility.yul\":5397:5406   */\n      dup3\n        /* \"#utility.yul\":5393:5411   */\n      add\n        /* \"#utility.yul\":5385:5411   */\n      swap1\n      pop\n        /* \"#utility.yul\":5457:5466   */\n      dup2\n        /* \"#utility.yul\":5451:5455   */\n      dup2\n        /* \"#utility.yul\":5447:5467   */\n      sub\n        /* \"#utility.yul\":5443:5444   */\n      0x00\n        /* \"#utility.yul\":5432:5441   */\n      dup4\n        /* \"#utility.yul\":5428:5445   */\n      add\n        /* \"#utility.yul\":5421:5468   */\n      mstore\n        /* \"#utility.yul\":5485:5616   */\n      tag_416\n        /* \"#utility.yul\":5611:5615   */\n      dup2\n        /* \"#utility.yul\":5485:5616   */\n      tag_330\n      jump\t// in\n    tag_416:\n        /* \"#utility.yul\":5477:5616   */\n      swap1\n      pop\n        /* \"#utility.yul\":5204:5623   */\n      swap2\n      swap1\n      pop\n      jump\t// out\n        /* \"#utility.yul\":5629:5858   */\n    tag_331:\n        /* \"#utility.yul\":5769:5803   */\n      0x48555344474f434c50546f6b656e5368617265506f6f6c3a2043616e6e6f7420\n        /* \"#utility.yul\":5765:5766   */\n      0x00\n        /* \"#utility.yul\":5757:5763   */\n      dup3\n        /* \"#utility.yul\":5753:5767   */\n      add\n        /* \"#utility.yul\":5746:5804   */\n      mstore\n        /* \"#utility.yul\":5838:5850   */\n      0x7769746864726177203000000000000000000000000000000000000000000000\n        /* \"#utility.yul\":5833:5835   */\n      0x20\n        /* \"#utility.yul\":5825:5831   */\n      dup3\n        /* \"#utility.yul\":5821:5836   */\n      add\n        /* \"#utility.yul\":5814:5851   */\n      mstore\n        /* \"#utility.yul\":5629:5858   */\n      pop\n      jump\t// out\n        /* \"#utility.yul\":5864:6230   */\n    tag_332:\n        /* \"#utility.yul\":6006:6009   */\n      0x00\n        /* \"#utility.yul\":6027:6094   */\n      tag_419\n        /* \"#utility.yul\":6091:6093   */\n      0x2a\n        /* \"#utility.yul\":6086:6089   */\n      dup4\n        /* \"#utility.yul\":6027:6094   */\n      tag_326\n      jump\t// in\n    tag_419:\n        /* \"#utility.yul\":6020:6094   */\n      swap2\n      pop\n        /* \"#utility.yul\":6103:6196   */\n      tag_420\n        /* \"#utility.yul\":6192:6195   */\n      dup3\n        /* \"#utility.yul\":6103:6196   */\n      tag_331\n      jump\t// in\n    tag_420:\n        /* \"#utility.yul\":6221:6223   */\n      0x40\n        /* \"#utility.yul\":6216:6219   */\n      dup3\n        /* \"#utility.yul\":6212:6224   */\n      add\n        /* \"#utility.yul\":6205:6224   */\n      swap1\n      pop\n        /* \"#utility.yul\":5864:6230   */\n      swap2\n      swap1\n      pop\n      jump\t// out\n        /* \"#utility.yul\":6236:6655   */\n    tag_145:\n        /* \"#utility.yul\":6402:6406   */\n      0x00\n        /* \"#utility.yul\":6440:6442   */\n      0x20\n        /* \"#utility.yul\":6429:6438   */\n      dup3\n        /* \"#utility.yul\":6425:6443   */\n      add\n        /* \"#utility.yul\":6417:6443   */\n      swap1\n      pop\n        /* \"#utility.yul\":6489:6498   */\n      dup2\n        /* \"#utility.yul\":6483:6487   */\n      dup2\n        /* \"#utility.yul\":6479:6499   */\n      sub\n        /* \"#utility.yul\":6475:6476   */\n      0x00\n        /* \"#utility.yul\":6464:6473   */\n      dup4\n        /* \"#utility.yul\":6460:6477   */\n      add\n        /* \"#utility.yul\":6453:6500   */\n      mstore\n        /* \"#utility.yul\":6517:6648   */\n      tag_422\n        /* \"#utility.yul\":6643:6647   */\n      dup2\n        /* \"#utility.yul\":6517:6648   */\n      tag_332\n      jump\t// in\n    tag_422:\n        /* \"#utility.yul\":6509:6648   */\n      swap1\n      pop\n        /* \"#utility.yul\":6236:6655   */\n      swap2\n      swap1\n      pop\n      jump\t// out\n        /* \"#utility.yul\":6661:6881   */\n    tag_333:\n        /* \"#utility.yul\":6801:6835   */\n      0x43616c6c6572206973206e6f742072657761726420646973747269627574696f\n        /* \"#utility.yul\":6797:6798   */\n      0x00\n        /* \"#utility.yul\":6789:6795   */\n      dup3\n        /* \"#utility.yul\":6785:6799   */\n      add\n        /* \"#utility.yul\":6778:6836   */\n      mstore\n        /* \"#utility.yul\":6870:6873   */\n      0x6e00000000000000000000000000000000000000000000000000000000000000\n        /* \"#utility.yul\":6865:6867   */\n      0x20\n        /* \"#utility.yul\":6857:6863   */\n      dup3\n        /* \"#utility.yul\":6853:6868   */\n      add\n        /* \"#utility.yul\":6846:6874   */\n      mstore\n        /* \"#utility.yul\":6661:6881   */\n      pop\n      jump\t// out\n        /* \"#utility.yul\":6887:7253   */\n    tag_334:\n        /* \"#utility.yul\":7029:7032   */\n      0x00\n        /* \"#utility.yul\":7050:7117   */\n      tag_425\n        /* \"#utility.yul\":7114:7116   */\n      0x21\n        /* \"#utility.yul\":7109:7112   */\n      dup4\n        /* \"#utility.yul\":7050:7117   */\n      tag_326\n      jump\t// in\n    tag_425:\n        /* \"#utility.yul\":7043:7117   */\n      swap2\n      pop\n        /* \"#utility.yul\":7126:7219   */\n      tag_426\n        /* \"#utility.yul\":7215:7218   */\n      dup3\n        /* \"#utility.yul\":7126:7219   */\n      tag_333\n      jump\t// in\n    tag_426:\n        /* \"#utility.yul\":7244:7246   */\n      0x40\n        /* \"#utility.yul\":7239:7242   */\n      dup3\n        /* \"#utility.yul\":7235:7247   */\n      add\n        /* \"#utility.yul\":7228:7247   */\n      swap1\n      pop\n        /* \"#utility.yul\":6887:7253   */\n      swap2\n      swap1\n      pop\n      jump\t// out\n        /* \"#utility.yul\":7259:7678   */\n    tag_153:\n        /* \"#utility.yul\":7425:7429   */\n      0x00\n        /* \"#utility.yul\":7463:7465   */\n      0x20\n        /* \"#utility.yul\":7452:7461   */\n      dup3\n        /* \"#utility.yul\":7448:7466   */\n      add\n        /* \"#utility.yul\":7440:7466   */\n      swap1\n      pop\n        /* \"#utility.yul\":7512:7521   */\n      dup2\n        /* \"#utility.yul\":7506:7510   */\n      dup2\n        /* \"#utility.yul\":7502:7522   */\n      sub\n        /* \"#utility.yul\":7498:7499   */\n      0x00\n        /* \"#utility.yul\":7487:7496   */\n      dup4\n        /* \"#utility.yul\":7483:7500   */\n      add\n        /* \"#utility.yul\":7476:7523   */\n      mstore\n        /* \"#utility.yul\":7540:7671   */\n      tag_428\n        /* \"#utility.yul\":7666:7670   */\n      dup2\n        /* \"#utility.yul\":7540:7671   */\n      tag_334\n      jump\t// in\n    tag_428:\n        /* \"#utility.yul\":7532:7671   */\n      swap1\n      pop\n        /* \"#utility.yul\":7259:7678   */\n      swap2\n      swap1\n      pop\n      jump\t// out\n        /* \"#utility.yul\":7684:7910   */\n    tag_335:\n        /* \"#utility.yul\":7824:7858   */\n      0x48555344474f434c50546f6b656e5368617265506f6f6c3a2043616e6e6f7420\n        /* \"#utility.yul\":7820:7821   */\n      0x00\n        /* \"#utility.yul\":7812:7818   */\n      dup3\n        /* \"#utility.yul\":7808:7822   */\n      add\n        /* \"#utility.yul\":7801:7859   */\n      mstore\n        /* \"#utility.yul\":7893:7902   */\n      0x7374616b65203000000000000000000000000000000000000000000000000000\n        /* \"#utility.yul\":7888:7890   */\n      0x20\n        /* \"#utility.yul\":7880:7886   */\n      dup3\n        /* \"#utility.yul\":7876:7891   */\n      add\n        /* \"#utility.yul\":7869:7903   */\n      mstore\n        /* \"#utility.yul\":7684:7910   */\n      pop\n      jump\t// out\n        /* \"#utility.yul\":7916:8282   */\n    tag_336:\n        /* \"#utility.yul\":8058:8061   */\n      0x00\n        /* \"#utility.yul\":8079:8146   */\n      tag_431\n        /* \"#utility.yul\":8143:8145   */\n      0x27\n        /* \"#utility.yul\":8138:8141   */\n      dup4\n        /* \"#utility.yul\":8079:8146   */\n      tag_326\n      jump\t// in\n    tag_431:\n        /* \"#utility.yul\":8072:8146   */\n      swap2\n      pop\n        /* \"#utility.yul\":8155:8248   */\n      tag_432\n        /* \"#utility.yul\":8244:8247   */\n      dup3\n        /* \"#utility.yul\":8155:8248   */\n      tag_335\n      jump\t// in\n    tag_432:\n        /* \"#utility.yul\":8273:8275   */\n      0x40\n        /* \"#utility.yul\":8268:8271   */\n      dup3\n        /* \"#utility.yul\":8264:8276   */\n      add\n        /* \"#utility.yul\":8257:8276   */\n      swap1\n      pop\n        /* \"#utility.yul\":7916:8282   */\n      swap2\n      swap1\n      pop\n      jump\t// out\n        /* \"#utility.yul\":8288:8707   */\n    tag_212:\n        /* \"#utility.yul\":8454:8458   */\n      0x00\n        /* \"#utility.yul\":8492:8494   */\n      0x20\n        /* \"#utility.yul\":8481:8490   */\n      dup3\n        /* \"#utility.yul\":8477:8495   */\n      add\n        /* \"#utility.yul\":8469:8495   */\n      swap1\n      pop\n        /* \"#utility.yul\":8541:8550   */\n      dup2\n        /* \"#utility.yul\":8535:8539   */\n      dup2\n        /* \"#utility.yul\":8531:8551   */\n      sub\n        /* \"#utility.yul\":8527:8528   */\n      0x00\n        /* \"#utility.yul\":8516:8525   */\n      dup4\n        /* \"#utility.yul\":8512:8529   */\n      add\n        /* \"#utility.yul\":8505:8552   */\n      mstore\n        /* \"#utility.yul\":8569:8700   */\n      tag_434\n        /* \"#utility.yul\":8695:8699   */\n      dup2\n        /* \"#utility.yul\":8569:8700   */\n      tag_336\n      jump\t// in\n    tag_434:\n        /* \"#utility.yul\":8561:8700   */\n      swap1\n      pop\n        /* \"#utility.yul\":8288:8707   */\n      swap2\n      swap1\n      pop\n      jump\t// out\n        /* \"#utility.yul\":8713:8938   */\n    tag_337:\n        /* \"#utility.yul\":8853:8887   */\n      0x4f776e61626c653a206e6577206f776e657220697320746865207a65726f2061\n        /* \"#utility.yul\":8849:8850   */\n      0x00\n        /* \"#utility.yul\":8841:8847   */\n      dup3\n        /* \"#utility.yul\":8837:8851   */\n      add\n        /* \"#utility.yul\":8830:8888   */\n      mstore\n        /* \"#utility.yul\":8922:8930   */\n      0x6464726573730000000000000000000000000000000000000000000000000000\n        /* \"#utility.yul\":8917:8919   */\n      0x20\n        /* \"#utility.yul\":8909:8915   */\n      dup3\n        /* \"#utility.yul\":8905:8920   */\n      add\n        /* \"#utility.yul\":8898:8931   */\n      mstore\n        /* \"#utility.yul\":8713:8938   */\n      pop\n      jump\t// out\n        /* \"#utility.yul\":8944:9310   */\n    tag_338:\n        /* \"#utility.yul\":9086:9089   */\n      0x00\n        /* \"#utility.yul\":9107:9174   */\n      tag_437\n        /* \"#utility.yul\":9171:9173   */\n      0x26\n        /* \"#utility.yul\":9166:9169   */\n      dup4\n        /* \"#utility.yul\":9107:9174   */\n      tag_326\n      jump\t// in\n    tag_437:\n        /* \"#utility.yul\":9100:9174   */\n      swap2\n      pop\n        /* \"#utility.yul\":9183:9276   */\n      tag_438\n        /* \"#utility.yul\":9272:9275   */\n      dup3\n        /* \"#utility.yul\":9183:9276   */\n      tag_337\n      jump\t// in\n    tag_438:\n        /* \"#utility.yul\":9301:9303   */\n      0x40\n        /* \"#utility.yul\":9296:9299   */\n      dup3\n        /* \"#utility.yul\":9292:9304   */\n      add\n        /* \"#utility.yul\":9285:9304   */\n      swap1\n      pop\n        /* \"#utility.yul\":8944:9310   */\n      swap2\n      swap1\n      pop\n      jump\t// out\n        /* \"#utility.yul\":9316:9735   */\n    tag_238:\n        /* \"#utility.yul\":9482:9486   */\n      0x00\n        /* \"#utility.yul\":9520:9522   */\n      0x20\n        /* \"#utility.yul\":9509:9518   */\n      dup3\n        /* \"#utility.yul\":9505:9523   */\n      add\n        /* \"#utility.yul\":9497:9523   */\n      swap1\n      pop\n        /* \"#utility.yul\":9569:9578   */\n      dup2\n        /* \"#utility.yul\":9563:9567   */\n      dup2\n        /* \"#utility.yul\":9559:9579   */\n      sub\n        /* \"#utility.yul\":9555:9556   */\n      0x00\n        /* \"#utility.yul\":9544:9553   */\n      dup4\n        /* \"#utility.yul\":9540:9557   */\n      add\n        /* \"#utility.yul\":9533:9580   */\n      mstore\n        /* \"#utility.yul\":9597:9728   */\n      tag_440\n        /* \"#utility.yul\":9723:9727   */\n      dup2\n        /* \"#utility.yul\":9597:9728   */\n      tag_338\n      jump\t// in\n    tag_440:\n        /* \"#utility.yul\":9589:9728   */\n      swap1\n      pop\n        /* \"#utility.yul\":9316:9735   */\n      swap2\n      swap1\n      pop\n      jump\t// out\n        /* \"#utility.yul\":9741:9921   */\n    tag_339:\n        /* \"#utility.yul\":9789:9866   */\n      0x4e487b7100000000000000000000000000000000000000000000000000000000\n        /* \"#utility.yul\":9786:9787   */\n      0x00\n        /* \"#utility.yul\":9779:9867   */\n      mstore\n        /* \"#utility.yul\":9886:9890   */\n      0x11\n        /* \"#utility.yul\":9883:9884   */\n      0x04\n        /* \"#utility.yul\":9876:9891   */\n      mstore\n        /* \"#utility.yul\":9910:9914   */\n      0x24\n        /* \"#utility.yul\":9907:9908   */\n      0x00\n        /* \"#utility.yul\":9900:9915   */\n      revert\n        /* \"#utility.yul\":9927:10121   */\n    tag_242:\n        /* \"#utility.yul\":9967:9971   */\n      0x00\n        /* \"#utility.yul\":9987:10007   */\n      tag_443\n        /* \"#utility.yul\":10005:10006   */\n      dup3\n        /* \"#utility.yul\":9987:10007   */\n      tag_316\n      jump\t// in\n    tag_443:\n        /* \"#utility.yul\":9982:10007   */\n      swap2\n      pop\n        /* \"#utility.yul\":10021:10041   */\n      tag_444\n        /* \"#utility.yul\":10039:10040   */\n      dup4\n        /* \"#utility.yul\":10021:10041   */\n      tag_316\n      jump\t// in\n    tag_444:\n        /* \"#utility.yul\":10016:10041   */\n      swap3\n      pop\n        /* \"#utility.yul\":10065:10066   */\n      dup3\n        /* \"#utility.yul\":10062:10063   */\n      dup3\n        /* \"#utility.yul\":10058:10067   */\n      sub\n        /* \"#utility.yul\":10050:10067   */\n      swap1\n      pop\n        /* \"#utility.yul\":10089:10090   */\n      dup2\n        /* \"#utility.yul\":10083:10087   */\n      dup2\n        /* \"#utility.yul\":10080:10091   */\n      gt\n        /* \"#utility.yul\":10077:10114   */\n      iszero\n      tag_445\n      jumpi\n        /* \"#utility.yul\":10094:10112   */\n      tag_446\n      tag_339\n      jump\t// in\n    tag_446:\n        /* \"#utility.yul\":10077:10114   */\n    tag_445:\n        /* \"#utility.yul\":9927:10121   */\n      swap3\n      swap2\n      pop\n      pop\n      jump\t// out\n        /* \"#utility.yul\":10127:10537   */\n    tag_245:\n        /* \"#utility.yul\":10167:10174   */\n      0x00\n        /* \"#utility.yul\":10190:10210   */\n      tag_448\n        /* \"#utility.yul\":10208:10209   */\n      dup3\n        /* \"#utility.yul\":10190:10210   */\n      tag_316\n      jump\t// in\n    tag_448:\n        /* \"#utility.yul\":10185:10210   */\n      swap2\n      pop\n        /* \"#utility.yul\":10224:10244   */\n      tag_449\n        /* \"#utility.yul\":10242:10243   */\n      dup4\n        /* \"#utility.yul\":10224:10244   */\n      tag_316\n      jump\t// in\n    tag_449:\n        /* \"#utility.yul\":10219:10244   */\n      swap3\n      pop\n        /* \"#utility.yul\":10279:10280   */\n      dup3\n        /* \"#utility.yul\":10276:10277   */\n      dup3\n        /* \"#utility.yul\":10272:10281   */\n      mul\n        /* \"#utility.yul\":10301:10331   */\n      tag_450\n        /* \"#utility.yul\":10319:10330   */\n      dup2\n        /* \"#utility.yul\":10301:10331   */\n      tag_316\n      jump\t// in\n    tag_450:\n        /* \"#utility.yul\":10290:10331   */\n      swap2\n      pop\n        /* \"#utility.yul\":10480:10481   */\n      dup3\n        /* \"#utility.yul\":10471:10478   */\n      dup3\n        /* \"#utility.yul\":10467:10482   */\n      div\n        /* \"#utility.yul\":10464:10465   */\n      dup5\n        /* \"#utility.yul\":10461:10483   */\n      eq\n        /* \"#utility.yul\":10441:10442   */\n      dup4\n        /* \"#utility.yul\":10434:10443   */\n      iszero\n        /* \"#utility.yul\":10414:10497   */\n      or\n        /* \"#utility.yul\":10391:10530   */\n      tag_451\n      jumpi\n        /* \"#utility.yul\":10510:10528   */\n      tag_452\n      tag_339\n      jump\t// in\n    tag_452:\n        /* \"#utility.yul\":10391:10530   */\n    tag_451:\n        /* \"#utility.yul\":10175:10537   */\n      pop\n        /* \"#utility.yul\":10127:10537   */\n      swap3\n      swap2\n      pop\n      pop\n      jump\t// out\n        /* \"#utility.yul\":10543:10723   */\n    tag_340:\n        /* \"#utility.yul\":10591:10668   */\n      0x4e487b7100000000000000000000000000000000000000000000000000000000\n        /* \"#utility.yul\":10588:10589   */\n      0x00\n        /* \"#utility.yul\":10581:10669   */\n      mstore\n        /* \"#utility.yul\":10688:10692   */\n      0x12\n        /* \"#utility.yul\":10685:10686   */\n      0x04\n        /* \"#utility.yul\":10678:10693   */\n      mstore\n        /* \"#utility.yul\":10712:10716   */\n      0x24\n        /* \"#utility.yul\":10709:10710   */\n      0x00\n        /* \"#utility.yul\":10702:10717   */\n      revert\n        /* \"#utility.yul\":10729:10914   */\n    tag_248:\n        /* \"#utility.yul\":10769:10770   */\n      0x00\n        /* \"#utility.yul\":10786:10806   */\n      tag_455\n        /* \"#utility.yul\":10804:10805   */\n      dup3\n        /* \"#utility.yul\":10786:10806   */\n      tag_316\n      jump\t// in\n    tag_455:\n        /* \"#utility.yul\":10781:10806   */\n      swap2\n      pop\n        /* \"#utility.yul\":10820:10840   */\n      tag_456\n        /* \"#utility.yul\":10838:10839   */\n      dup4\n        /* \"#utility.yul\":10820:10840   */\n      tag_316\n      jump\t// in\n    tag_456:\n        /* \"#utility.yul\":10815:10840   */\n      swap3\n      pop\n        /* \"#utility.yul\":10859:10860   */\n      dup3\n        /* \"#utility.yul\":10849:10884   */\n      tag_457\n      jumpi\n        /* \"#utility.yul\":10864:10882   */\n      tag_458\n      tag_340\n      jump\t// in\n    tag_458:\n        /* \"#utility.yul\":10849:10884   */\n    tag_457:\n        /* \"#utility.yul\":10906:10907   */\n      dup3\n        /* \"#utility.yul\":10903:10904   */\n      dup3\n        /* \"#utility.yul\":10899:10908   */\n      div\n        /* \"#utility.yul\":10894:10908   */\n      swap1\n      pop\n        /* \"#utility.yul\":10729:10914   */\n      swap3\n      swap2\n      pop\n      pop\n      jump\t// out\n        /* \"#utility.yul\":10920:11111   */\n    tag_251:\n        /* \"#utility.yul\":10960:10963   */\n      0x00\n        /* \"#utility.yul\":10979:10999   */\n      tag_460\n        /* \"#utility.yul\":10997:10998   */\n      dup3\n        /* \"#utility.yul\":10979:10999   */\n      tag_316\n      jump\t// in\n    tag_460:\n        /* \"#utility.yul\":10974:10999   */\n      swap2\n      pop\n        /* \"#utility.yul\":11013:11033   */\n      tag_461\n        /* \"#utility.yul\":11031:11032   */\n      dup4\n        /* \"#utility.yul\":11013:11033   */\n      tag_316\n      jump\t// in\n    tag_461:\n        /* \"#utility.yul\":11008:11033   */\n      swap3\n      pop\n        /* \"#utility.yul\":11056:11057   */\n      dup3\n        /* \"#utility.yul\":11053:11054   */\n      dup3\n        /* \"#utility.yul\":11049:11058   */\n      add\n        /* \"#utility.yul\":11042:11058   */\n      swap1\n      pop\n        /* \"#utility.yul\":11077:11080   */\n      dup1\n        /* \"#utility.yul\":11074:11075   */\n      dup3\n        /* \"#utility.yul\":11071:11081   */\n      gt\n        /* \"#utility.yul\":11068:11104   */\n      iszero\n      tag_462\n      jumpi\n        /* \"#utility.yul\":11084:11102   */\n      tag_463\n      tag_339\n      jump\t// in\n    tag_463:\n        /* \"#utility.yul\":11068:11104   */\n    tag_462:\n        /* \"#utility.yul\":10920:11111   */\n      swap3\n      swap2\n      pop\n      pop\n      jump\t// out\n        /* \"#utility.yul\":11117:11347   */\n    tag_341:\n        /* \"#utility.yul\":11257:11291   */\n      0x776974686472617720726571756573742067726561746572207468616e207374\n        /* \"#utility.yul\":11253:11254   */\n      0x00\n        /* \"#utility.yul\":11245:11251   */\n      dup3\n        /* \"#utility.yul\":11241:11255   */\n      add\n        /* \"#utility.yul\":11234:11292   */\n      mstore\n        /* \"#utility.yul\":11326:11339   */\n      0x616b656420616d6f756e74000000000000000000000000000000000000000000\n        /* \"#utility.yul\":11321:11323   */\n      0x20\n        /* \"#utility.yul\":11313:11319   */\n      dup3\n        /* \"#utility.yul\":11309:11324   */\n      add\n        /* \"#utility.yul\":11302:11340   */\n      mstore\n        /* \"#utility.yul\":11117:11347   */\n      pop\n      jump\t// out\n        /* \"#utility.yul\":11353:11719   */\n    tag_342:\n        /* \"#utility.yul\":11495:11498   */\n      0x00\n        /* \"#utility.yul\":11516:11583   */\n      tag_466\n        /* \"#utility.yul\":11580:11582   */\n      0x2b\n        /* \"#utility.yul\":11575:11578   */\n      dup4\n        /* \"#utility.yul\":11516:11583   */\n      tag_326\n      jump\t// in\n    tag_466:\n        /* \"#utility.yul\":11509:11583   */\n      swap2\n      pop\n        /* \"#utility.yul\":11592:11685   */\n      tag_467\n        /* \"#utility.yul\":11681:11684   */\n      dup3\n        /* \"#utility.yul\":11592:11685   */\n      tag_341\n      jump\t// in\n    tag_467:\n        /* \"#utility.yul\":11710:11712   */\n      0x40\n        /* \"#utility.yul\":11705:11708   */\n      dup3\n        /* \"#utility.yul\":11701:11713   */\n      add\n        /* \"#utility.yul\":11694:11713   */\n      swap1\n      pop\n        /* \"#utility.yul\":11353:11719   */\n      swap2\n      swap1\n      pop\n      jump\t// out\n        /* \"#utility.yul\":11725:12144   */\n    tag_256:\n        /* \"#utility.yul\":11891:11895   */\n      0x00\n        /* \"#utility.yul\":11929:11931   */\n      0x20\n        /* \"#utility.yul\":11918:11927   */\n      dup3\n        /* \"#utility.yul\":11914:11932   */\n      add\n        /* \"#utility.yul\":11906:11932   */\n      swap1\n      pop\n        /* \"#utility.yul\":11978:11987   */\n      dup2\n        /* \"#utility.yul\":11972:11976   */\n      dup2\n        /* \"#utility.yul\":11968:11988   */\n      sub\n        /* \"#utility.yul\":11964:11965   */\n      0x00\n        /* \"#utility.yul\":11953:11962   */\n      dup4\n        /* \"#utility.yul\":11949:11966   */\n      add\n        /* \"#utility.yul\":11942:11989   */\n      mstore\n        /* \"#utility.yul\":12006:12137   */\n      tag_469\n        /* \"#utility.yul\":12132:12136   */\n      dup2\n        /* \"#utility.yul\":12006:12137   */\n      tag_342\n      jump\t// in\n    tag_469:\n        /* \"#utility.yul\":11998:12137   */\n      swap1\n      pop\n        /* \"#utility.yul\":11725:12144   */\n      swap2\n      swap1\n      pop\n      jump\t// out\n        /* \"#utility.yul\":12150:12482   */\n    tag_263:\n        /* \"#utility.yul\":12271:12275   */\n      0x00\n        /* \"#utility.yul\":12309:12311   */\n      0x40\n        /* \"#utility.yul\":12298:12307   */\n      dup3\n        /* \"#utility.yul\":12294:12312   */\n      add\n        /* \"#utility.yul\":12286:12312   */\n      swap1\n      pop\n        /* \"#utility.yul\":12322:12393   */\n      tag_471\n        /* \"#utility.yul\":12390:12391   */\n      0x00\n        /* \"#utility.yul\":12379:12388   */\n      dup4\n        /* \"#utility.yul\":12375:12392   */\n      add\n        /* \"#utility.yul\":12366:12372   */\n      dup6\n        /* \"#utility.yul\":12322:12393   */\n      tag_318\n      jump\t// in\n    tag_471:\n        /* \"#utility.yul\":12403:12475   */\n      tag_472\n        /* \"#utility.yul\":12471:12473   */\n      0x20\n        /* \"#utility.yul\":12460:12469   */\n      dup4\n        /* \"#utility.yul\":12456:12474   */\n      add\n        /* \"#utility.yul\":12447:12453   */\n      dup5\n        /* \"#utility.yul\":12403:12475   */\n      tag_317\n      jump\t// in\n    tag_472:\n        /* \"#utility.yul\":12150:12482   */\n      swap4\n      swap3\n      pop\n      pop\n      pop\n      jump\t// out\n        /* \"#utility.yul\":12488:12578   */\n    tag_343:\n        /* \"#utility.yul\":12522:12529   */\n      0x00\n        /* \"#utility.yul\":12565:12570   */\n      dup2\n        /* \"#utility.yul\":12558:12571   */\n      iszero\n        /* \"#utility.yul\":12551:12572   */\n      iszero\n        /* \"#utility.yul\":12540:12572   */\n      swap1\n      pop\n        /* \"#utility.yul\":12488:12578   */\n      swap2\n      swap1\n      pop\n      jump\t// out\n        /* \"#utility.yul\":12584:12700   */\n    tag_344:\n        /* \"#utility.yul\":12654:12675   */\n      tag_475\n        /* \"#utility.yul\":12669:12674   */\n      dup2\n        /* \"#utility.yul\":12654:12675   */\n      tag_343\n      jump\t// in\n    tag_475:\n        /* \"#utility.yul\":12647:12652   */\n      dup2\n        /* \"#utility.yul\":12644:12676   */\n      eq\n        /* \"#utility.yul\":12634:12694   */\n      tag_476\n      jumpi\n        /* \"#utility.yul\":12690:12691   */\n      0x00\n        /* \"#utility.yul\":12687:12688   */\n      dup1\n        /* \"#utility.yul\":12680:12692   */\n      revert\n        /* \"#utility.yul\":12634:12694   */\n    tag_476:\n        /* \"#utility.yul\":12584:12700   */\n      pop\n      jump\t// out\n        /* \"#utility.yul\":12706:12843   */\n    tag_345:\n        /* \"#utility.yul\":12760:12765   */\n      0x00\n        /* \"#utility.yul\":12791:12797   */\n      dup2\n        /* \"#utility.yul\":12785:12798   */\n      mload\n        /* \"#utility.yul\":12776:12798   */\n      swap1\n      pop\n        /* \"#utility.yul\":12807:12837   */\n      tag_478\n        /* \"#utility.yul\":12831:12836   */\n      dup2\n        /* \"#utility.yul\":12807:12837   */\n      tag_344\n      jump\t// in\n    tag_478:\n        /* \"#utility.yul\":12706:12843   */\n      swap3\n      swap2\n      pop\n      pop\n      jump\t// out\n        /* \"#utility.yul\":12849:13194   */\n    tag_279:\n        /* \"#utility.yul\":12916:12922   */\n      0x00\n        /* \"#utility.yul\":12965:12967   */\n      0x20\n        /* \"#utility.yul\":12953:12962   */\n      dup3\n        /* \"#utility.yul\":12944:12951   */\n      dup5\n        /* \"#utility.yul\":12940:12963   */\n      sub\n        /* \"#utility.yul\":12936:12968   */\n      slt\n        /* \"#utility.yul\":12933:13052   */\n      iszero\n      tag_480\n      jumpi\n        /* \"#utility.yul\":12971:13050   */\n      tag_481\n      tag_310\n      jump\t// in\n    tag_481:\n        /* \"#utility.yul\":12933:13052   */\n    tag_480:\n        /* \"#utility.yul\":13091:13092   */\n      0x00\n        /* \"#utility.yul\":13116:13177   */\n      tag_482\n        /* \"#utility.yul\":13169:13176   */\n      dup5\n        /* \"#utility.yul\":13160:13166   */\n      dup3\n        /* \"#utility.yul\":13149:13158   */\n      dup6\n        /* \"#utility.yul\":13145:13167   */\n      add\n        /* \"#utility.yul\":13116:13177   */\n      tag_345\n      jump\t// in\n    tag_482:\n        /* \"#utility.yul\":13106:13177   */\n      swap2\n      pop\n        /* \"#utility.yul\":13062:13187   */\n      pop\n        /* \"#utility.yul\":12849:13194   */\n      swap3\n      swap2\n      pop\n      pop\n      jump\t// out\n        /* \"#utility.yul\":13200:13429   */\n    tag_346:\n        /* \"#utility.yul\":13340:13374   */\n      0x5361666542455032303a204245503230206f7065726174696f6e20646964206e\n        /* \"#utility.yul\":13336:13337   */\n      0x00\n        /* \"#utility.yul\":13328:13334   */\n      dup3\n        /* \"#utility.yul\":13324:13338   */\n      add\n        /* \"#utility.yul\":13317:13375   */\n      mstore\n        /* \"#utility.yul\":13409:13421   */\n      0x6f74207375636365656400000000000000000000000000000000000000000000\n        /* \"#utility.yul\":13404:13406   */\n      0x20\n        /* \"#utility.yul\":13396:13402   */\n      dup3\n        /* \"#utility.yul\":13392:13407   */\n      add\n        /* \"#utility.yul\":13385:13422   */\n      mstore\n        /* \"#utility.yul\":13200:13429   */\n      pop\n      jump\t// out\n        /* \"#utility.yul\":13435:13801   */\n    tag_347:\n        /* \"#utility.yul\":13577:13580   */\n      0x00\n        /* \"#utility.yul\":13598:13665   */\n      tag_485\n        /* \"#utility.yul\":13662:13664   */\n      0x2a\n        /* \"#utility.yul\":13657:13660   */\n      dup4\n        /* \"#utility.yul\":13598:13665   */\n      tag_326\n      jump\t// in\n    tag_485:\n        /* \"#utility.yul\":13591:13665   */\n      swap2\n      pop\n        /* \"#utility.yul\":13674:13767   */\n      tag_486\n        /* \"#utility.yul\":13763:13766   */\n      dup3\n        /* \"#utility.yul\":13674:13767   */\n      tag_346\n      jump\t// in\n    tag_486:\n        /* \"#utility.yul\":13792:13794   */\n      0x40\n        /* \"#utility.yul\":13787:13790   */\n      dup3\n        /* \"#utility.yul\":13783:13795   */\n      add\n        /* \"#utility.yul\":13776:13795   */\n      swap1\n      pop\n        /* \"#utility.yul\":13435:13801   */\n      swap2\n      swap1\n      pop\n      jump\t// out\n        /* \"#utility.yul\":13807:14226   */\n    tag_282:\n        /* \"#utility.yul\":13973:13977   */\n      0x00\n        /* \"#utility.yul\":14011:14013   */\n      0x20\n        /* \"#utility.yul\":14000:14009   */\n      dup3\n        /* \"#utility.yul\":13996:14014   */\n      add\n        /* \"#utility.yul\":13988:14014   */\n      swap1\n      pop\n        /* \"#utility.yul\":14060:14069   */\n      dup2\n        /* \"#utility.yul\":14054:14058   */\n      dup2\n        /* \"#utility.yul\":14050:14070   */\n      sub\n        /* \"#utility.yul\":14046:14047   */\n      0x00\n        /* \"#utility.yul\":14035:14044   */\n      dup4\n        /* \"#utility.yul\":14031:14048   */\n      add\n        /* \"#utility.yul\":14024:14071   */\n      mstore\n        /* \"#utility.yul\":14088:14219   */\n      tag_488\n        /* \"#utility.yul\":14214:14218   */\n      dup2\n        /* \"#utility.yul\":14088:14219   */\n      tag_347\n      jump\t// in\n    tag_488:\n        /* \"#utility.yul\":14080:14219   */\n      swap1\n      pop\n        /* \"#utility.yul\":13807:14226   */\n      swap2\n      swap1\n      pop\n      jump\t// out\n        /* \"#utility.yul\":14232:14674   */\n    tag_286:\n        /* \"#utility.yul\":14381:14385   */\n      0x00\n        /* \"#utility.yul\":14419:14421   */\n      0x60\n        /* \"#utility.yul\":14408:14417   */\n      dup3\n        /* \"#utility.yul\":14404:14422   */\n      add\n        /* \"#utility.yul\":14396:14422   */\n      swap1\n      pop\n        /* \"#utility.yul\":14432:14503   */\n      tag_490\n        /* \"#utility.yul\":14500:14501   */\n      0x00\n        /* \"#utility.yul\":14489:14498   */\n      dup4\n        /* \"#utility.yul\":14485:14502   */\n      add\n        /* \"#utility.yul\":14476:14482   */\n      dup7\n        /* \"#utility.yul\":14432:14503   */\n      tag_318\n      jump\t// in\n    tag_490:\n        /* \"#utility.yul\":14513:14585   */\n      tag_491\n        /* \"#utility.yul\":14581:14583   */\n      0x20\n        /* \"#utility.yul\":14570:14579   */\n      dup4\n        /* \"#utility.yul\":14566:14584   */\n      add\n        /* \"#utility.yul\":14557:14563   */\n      dup6\n        /* \"#utility.yul\":14513:14585   */\n      tag_318\n      jump\t// in\n    tag_491:\n        /* \"#utility.yul\":14595:14667   */\n      tag_492\n        /* \"#utility.yul\":14663:14665   */\n      0x40\n        /* \"#utility.yul\":14652:14661   */\n      dup4\n        /* \"#utility.yul\":14648:14666   */\n      add\n        /* \"#utility.yul\":14639:14645   */\n      dup5\n        /* \"#utility.yul\":14595:14667   */\n      tag_317\n      jump\t// in\n    tag_492:\n        /* \"#utility.yul\":14232:14674   */\n      swap5\n      swap4\n      pop\n      pop\n      pop\n      pop\n      jump\t// out\n        /* \"#utility.yul\":14680:14859   */\n    tag_348:\n        /* \"#utility.yul\":14820:14851   */\n      0x416464726573733a2063616c6c20746f206e6f6e2d636f6e7472616374000000\n        /* \"#utility.yul\":14816:14817   */\n      0x00\n        /* \"#utility.yul\":14808:14814   */\n      dup3\n        /* \"#utility.yul\":14804:14818   */\n      add\n        /* \"#utility.yul\":14797:14852   */\n      mstore\n        /* \"#utility.yul\":14680:14859   */\n      pop\n      jump\t// out\n        /* \"#utility.yul\":14865:15231   */\n    tag_349:\n        /* \"#utility.yul\":15007:15010   */\n      0x00\n        /* \"#utility.yul\":15028:15095   */\n      tag_495\n        /* \"#utility.yul\":15092:15094   */\n      0x1d\n        /* \"#utility.yul\":15087:15090   */\n      dup4\n        /* \"#utility.yul\":15028:15095   */\n      tag_326\n      jump\t// in\n    tag_495:\n        /* \"#utility.yul\":15021:15095   */\n      swap2\n      pop\n        /* \"#utility.yul\":15104:15197   */\n      tag_496\n        /* \"#utility.yul\":15193:15196   */\n      dup3\n        /* \"#utility.yul\":15104:15197   */\n      tag_348\n      jump\t// in\n    tag_496:\n        /* \"#utility.yul\":15222:15224   */\n      0x20\n        /* \"#utility.yul\":15217:15220   */\n      dup3\n        /* \"#utility.yul\":15213:15225   */\n      add\n        /* \"#utility.yul\":15206:15225   */\n      swap1\n      pop\n        /* \"#utility.yul\":14865:15231   */\n      swap2\n      swap1\n      pop\n      jump\t// out\n        /* \"#utility.yul\":15237:15656   */\n    tag_295:\n        /* \"#utility.yul\":15403:15407   */\n      0x00\n        /* \"#utility.yul\":15441:15443   */\n      0x20\n        /* \"#utility.yul\":15430:15439   */\n      dup3\n        /* \"#utility.yul\":15426:15444   */\n      add\n        /* \"#utility.yul\":15418:15444   */\n      swap1\n      pop\n        /* \"#utility.yul\":15490:15499   */\n      dup2\n        /* \"#utility.yul\":15484:15488   */\n      dup2\n        /* \"#utility.yul\":15480:15500   */\n      sub\n        /* \"#utility.yul\":15476:15477   */\n      0x00\n        /* \"#utility.yul\":15465:15474   */\n      dup4\n        /* \"#utility.yul\":15461:15478   */\n      add\n        /* \"#utility.yul\":15454:15501   */\n      mstore\n        /* \"#utility.yul\":15518:15649   */\n      tag_498\n        /* \"#utility.yul\":15644:15648   */\n      dup2\n        /* \"#utility.yul\":15518:15649   */\n      tag_349\n      jump\t// in\n    tag_498:\n        /* \"#utility.yul\":15510:15649   */\n      swap1\n      pop\n        /* \"#utility.yul\":15237:15656   */\n      swap2\n      swap1\n      pop\n      jump\t// out\n        /* \"#utility.yul\":15662:15760   */\n    tag_350:\n        /* \"#utility.yul\":15713:15719   */\n      0x00\n        /* \"#utility.yul\":15747:15752   */\n      dup2\n        /* \"#utility.yul\":15741:15753   */\n      mload\n        /* \"#utility.yul\":15731:15753   */\n      swap1\n      pop\n        /* \"#utility.yul\":15662:15760   */\n      swap2\n      swap1\n      pop\n      jump\t// out\n        /* \"#utility.yul\":15766:15913   */\n    tag_351:\n        /* \"#utility.yul\":15867:15878   */\n      0x00\n        /* \"#utility.yul\":15904:15907   */\n      dup2\n        /* \"#utility.yul\":15889:15907   */\n      swap1\n      pop\n        /* \"#utility.yul\":15766:15913   */\n      swap3\n      swap2\n      pop\n      pop\n      jump\t// out\n        /* \"#utility.yul\":15919:16165   */\n    tag_352:\n        /* \"#utility.yul\":16000:16001   */\n      0x00\n        /* \"#utility.yul\":16010:16123   */\n    tag_502:\n        /* \"#utility.yul\":16024:16030   */\n      dup4\n        /* \"#utility.yul\":16021:16022   */\n      dup2\n        /* \"#utility.yul\":16018:16031   */\n      lt\n        /* \"#utility.yul\":16010:16123   */\n      iszero\n      tag_504\n      jumpi\n        /* \"#utility.yul\":16109:16110   */\n      dup1\n        /* \"#utility.yul\":16104:16107   */\n      dup3\n        /* \"#utility.yul\":16100:16111   */\n      add\n        /* \"#utility.yul\":16094:16112   */\n      mload\n        /* \"#utility.yul\":16090:16091   */\n      dup2\n        /* \"#utility.yul\":16085:16088   */\n      dup5\n        /* \"#utility.yul\":16081:16092   */\n      add\n        /* \"#utility.yul\":16074:16113   */\n      mstore\n        /* \"#utility.yul\":16046:16048   */\n      0x20\n        /* \"#utility.yul\":16043:16044   */\n      dup2\n        /* \"#utility.yul\":16039:16049   */\n      add\n        /* \"#utility.yul\":16034:16049   */\n      swap1\n      pop\n        /* \"#utility.yul\":16010:16123   */\n      jump(tag_502)\n    tag_504:\n        /* \"#utility.yul\":16157:16158   */\n      0x00\n        /* \"#utility.yul\":16148:16154   */\n      dup5\n        /* \"#utility.yul\":16143:16146   */\n      dup5\n        /* \"#utility.yul\":16139:16155   */\n      add\n        /* \"#utility.yul\":16132:16159   */\n      mstore\n        /* \"#utility.yul\":15981:16165   */\n      pop\n        /* \"#utility.yul\":15919:16165   */\n      pop\n      pop\n      pop\n      jump\t// out\n        /* \"#utility.yul\":16171:16557   */\n    tag_353:\n        /* \"#utility.yul\":16275:16278   */\n      0x00\n        /* \"#utility.yul\":16303:16341   */\n      tag_506\n        /* \"#utility.yul\":16335:16340   */\n      dup3\n        /* \"#utility.yul\":16303:16341   */\n      tag_350\n      jump\t// in\n    tag_506:\n        /* \"#utility.yul\":16357:16445   */\n      tag_507\n        /* \"#utility.yul\":16438:16444   */\n      dup2\n        /* \"#utility.yul\":16433:16436   */\n      dup6\n        /* \"#utility.yul\":16357:16445   */\n      tag_351\n      jump\t// in\n    tag_507:\n        /* \"#utility.yul\":16350:16445   */\n      swap4\n      pop\n        /* \"#utility.yul\":16454:16519   */\n      tag_508\n        /* \"#utility.yul\":16512:16518   */\n      dup2\n        /* \"#utility.yul\":16507:16510   */\n      dup6\n        /* \"#utility.yul\":16500:16504   */\n      0x20\n        /* \"#utility.yul\":16493:16498   */\n      dup7\n        /* \"#utility.yul\":16489:16505   */\n      add\n        /* \"#utility.yul\":16454:16519   */\n      tag_352\n      jump\t// in\n    tag_508:\n        /* \"#utility.yul\":16544:16550   */\n      dup1\n        /* \"#utility.yul\":16539:16542   */\n      dup5\n        /* \"#utility.yul\":16535:16551   */\n      add\n        /* \"#utility.yul\":16528:16551   */\n      swap2\n      pop\n        /* \"#utility.yul\":16279:16557   */\n      pop\n        /* \"#utility.yul\":16171:16557   */\n      swap3\n      swap2\n      pop\n      pop\n      jump\t// out\n        /* \"#utility.yul\":16563:16834   */\n    tag_297:\n        /* \"#utility.yul\":16693:16696   */\n      0x00\n        /* \"#utility.yul\":16715:16808   */\n      tag_510\n        /* \"#utility.yul\":16804:16807   */\n      dup3\n        /* \"#utility.yul\":16795:16801   */\n      dup5\n        /* \"#utility.yul\":16715:16808   */\n      tag_353\n      jump\t// in\n    tag_510:\n        /* \"#utility.yul\":16708:16808   */\n      swap2\n      pop\n        /* \"#utility.yul\":16825:16828   */\n      dup2\n        /* \"#utility.yul\":16818:16828   */\n      swap1\n      pop\n        /* \"#utility.yul\":16563:16834   */\n      swap3\n      swap2\n      pop\n      pop\n      jump\t// out\n        /* \"#utility.yul\":16840:16939   */\n    tag_354:\n        /* \"#utility.yul\":16892:16898   */\n      0x00\n        /* \"#utility.yul\":16926:16931   */\n      dup2\n        /* \"#utility.yul\":16920:16932   */\n      mload\n        /* \"#utility.yul\":16910:16932   */\n      swap1\n      pop\n        /* \"#utility.yul\":16840:16939   */\n      swap2\n      swap1\n      pop\n      jump\t// out\n        /* \"#utility.yul\":16945:17047   */\n    tag_355:\n        /* \"#utility.yul\":16986:16992   */\n      0x00\n        /* \"#utility.yul\":17037:17039   */\n      0x1f\n        /* \"#utility.yul\":17033:17040   */\n      not\n        /* \"#utility.yul\":17028:17030   */\n      0x1f\n        /* \"#utility.yul\":17021:17026   */\n      dup4\n        /* \"#utility.yul\":17017:17031   */\n      add\n        /* \"#utility.yul\":17013:17041   */\n      and\n        /* \"#utility.yul\":17003:17041   */\n      swap1\n      pop\n        /* \"#utility.yul\":16945:17047   */\n      swap2\n      swap1\n      pop\n      jump\t// out\n        /* \"#utility.yul\":17053:17430   */\n    tag_356:\n        /* \"#utility.yul\":17141:17144   */\n      0x00\n        /* \"#utility.yul\":17169:17208   */\n      tag_514\n        /* \"#utility.yul\":17202:17207   */\n      dup3\n        /* \"#utility.yul\":17169:17208   */\n      tag_354\n      jump\t// in\n    tag_514:\n        /* \"#utility.yul\":17224:17295   */\n      tag_515\n        /* \"#utility.yul\":17288:17294   */\n      dup2\n        /* \"#utility.yul\":17283:17286   */\n      dup6\n        /* \"#utility.yul\":17224:17295   */\n      tag_326\n      jump\t// in\n    tag_515:\n        /* \"#utility.yul\":17217:17295   */\n      swap4\n      pop\n        /* \"#utility.yul\":17304:17369   */\n      tag_516\n        /* \"#utility.yul\":17362:17368   */\n      dup2\n        /* \"#utility.yul\":17357:17360   */\n      dup6\n        /* \"#utility.yul\":17350:17354   */\n      0x20\n        /* \"#utility.yul\":17343:17348   */\n      dup7\n        /* \"#utility.yul\":17339:17355   */\n      add\n        /* \"#utility.yul\":17304:17369   */\n      tag_352\n      jump\t// in\n    tag_516:\n        /* \"#utility.yul\":17394:17423   */\n      tag_517\n        /* \"#utility.yul\":17416:17422   */\n      dup2\n        /* \"#utility.yul\":17394:17423   */\n      tag_355\n      jump\t// in\n    tag_517:\n        /* \"#utility.yul\":17389:17392   */\n      dup5\n        /* \"#utility.yul\":17385:17424   */\n      add\n        /* \"#utility.yul\":17378:17424   */\n      swap2\n      pop\n        /* \"#utility.yul\":17145:17430   */\n      pop\n        /* \"#utility.yul\":17053:17430   */\n      swap3\n      swap2\n      pop\n      pop\n      jump\t// out\n        /* \"#utility.yul\":17436:17749   */\n    tag_306:\n        /* \"#utility.yul\":17549:17553   */\n      0x00\n        /* \"#utility.yul\":17587:17589   */\n      0x20\n        /* \"#utility.yul\":17576:17585   */\n      dup3\n        /* \"#utility.yul\":17572:17590   */\n      add\n        /* \"#utility.yul\":17564:17590   */\n      swap1\n      pop\n        /* \"#utility.yul\":17636:17645   */\n      dup2\n        /* \"#utility.yul\":17630:17634   */\n      dup2\n        /* \"#utility.yul\":17626:17646   */\n      sub\n        /* \"#utility.yul\":17622:17623   */\n      0x00\n        /* \"#utility.yul\":17611:17620   */\n      dup4\n        /* \"#utility.yul\":17607:17624   */\n      add\n        /* \"#utility.yul\":17600:17647   */\n      mstore\n        /* \"#utility.yul\":17664:17742   */\n      tag_519\n        /* \"#utility.yul\":17737:17741   */\n      dup2\n        /* \"#utility.yul\":17728:17734   */\n      dup5\n        /* \"#utility.yul\":17664:17742   */\n      tag_356\n      jump\t// in\n    tag_519:\n        /* \"#utility.yul\":17656:17742   */\n      swap1\n      pop\n        /* \"#utility.yul\":17436:17749   */\n      swap3\n      swap2\n      pop\n      pop\n      jump\t// out\n\n    auxdata: 0xa264697066735822122040653492e23ce01a9bdbd88039118948a68f79db8e000106948df803fa9fbb0864736f6c63430008130033\n}\n",
				"bytecode": {
					"linkReferences": {},
					"object": "608060405262278d00600655600060085560006009553480156200002257600080fd5b50604051620025c8380380620025c8833981810160405281019062000048919062000256565b6200005a6000620000eb60201b60201c565b82600560006101000a81548173ffffffffffffffffffffffffffffffffffffffff021916908373ffffffffffffffffffffffffffffffffffffffff160217905550816000806101000a81548173ffffffffffffffffffffffffffffffffffffffff021916908373ffffffffffffffffffffffffffffffffffffffff16021790555080600781905550505050620002b2565b6000600360009054906101000a900473ffffffffffffffffffffffffffffffffffffffff16905081600360006101000a81548173ffffffffffffffffffffffffffffffffffffffff021916908373ffffffffffffffffffffffffffffffffffffffff1602179055508173ffffffffffffffffffffffffffffffffffffffff168173ffffffffffffffffffffffffffffffffffffffff167f8be0079c531659141344cd1fd0a4f28419497f9722a3daafe3b4186f6b6457e060405160405180910390a35050565b600080fd5b600073ffffffffffffffffffffffffffffffffffffffff82169050919050565b6000620001e382620001b6565b9050919050565b620001f581620001d6565b81146200020157600080fd5b50565b6000815190506200021581620001ea565b92915050565b6000819050919050565b62000230816200021b565b81146200023c57600080fd5b50565b600081519050620002508162000225565b92915050565b600080600060608486031215620002725762000271620001b1565b5b6000620002828682870162000204565b9350506020620002958682870162000204565b9250506040620002a8868287016200023f565b9150509250925092565b61230680620002c26000396000f3fe608060405234801561001057600080fd5b50600436106101725760003560e01c806380faa57d116100de578063cd3daf9d11610097578063e9fad8ee11610071578063e9fad8ee14610405578063ebe2b12b1461040f578063f2fde38b1461042d578063fc0c546a1461044957610172565b8063cd3daf9d146103ab578063ce5fc8d0146103c9578063df136d65146103e757610172565b806380faa57d146102e75780638b876347146103055780638da58897146103355780638da5cb5b14610353578063a694fc3a14610371578063c8f33c911461038d57610172565b80632e1a7d4d116101305780632e1a7d4d1461024d5780633c6b16ab146102695780633d18b9121461028557806370a082311461028f578063715018a6146102bf5780637b0a47ee146102c957610172565b80628cc262146101775780630700037d146101a75780630d68b761146101d7578063101114cf146101f357806318160ddd146102115780631be052891461022f575b600080fd5b610191600480360381019061018c91906119b4565b610467565b60405161019e91906119fa565b60405180910390f35b6101c160048036038101906101bc91906119b4565b61054e565b6040516101ce91906119fa565b60405180910390f35b6101f160048036038101906101ec91906119b4565b610566565b005b6101fb610626565b6040516102089190611a24565b60405180910390f35b61021961064c565b60405161022691906119fa565b60405180910390f35b610237610656565b60405161024491906119fa565b60405180910390f35b61026760048036038101906102629190611a6b565b61065c565b005b610283600480360381019061027e9190611a6b565b610823565b005b61028d610b0f565b005b6102a960048036038101906102a491906119b4565b610d33565b6040516102b691906119fa565b60405180910390f35b6102c7610d7c565b005b6102d1610e04565b6040516102de91906119fa565b60405180910390f35b6102ef610e0a565b6040516102fc91906119fa565b60405180910390f35b61031f600480360381019061031a91906119b4565b610e1d565b60405161032c91906119fa565b60405180910390f35b61033d610e35565b60405161034a91906119fa565b60405180910390f35b61035b610e3b565b6040516103689190611a24565b60405180910390f35b61038b60048036038101906103869190611a6b565b610e65565b005b61039561102c565b6040516103a291906119fa565b60405180910390f35b6103b3611032565b6040516103c091906119fa565b60405180910390f35b6103d16110c9565b6040516103de9190611af7565b60405180910390f35b6103ef6110ed565b6040516103fc91906119fa565b60405180910390f35b61040d6110f3565b005b61041761110e565b60405161042491906119fa565b60405180910390f35b610447600480360381019061044291906119b4565b611114565b005b61045161120b565b60405161045e9190611af7565b60405180910390f35b6000610547600d60008473ffffffffffffffffffffffffffffffffffffffff1673ffffffffffffffffffffffffffffffffffffffff16815260200190815260200160002054610539670de0b6b3a764000061052b610514600c60008973ffffffffffffffffffffffffffffffffffffffff1673ffffffffffffffffffffffffffffffffffffffff16815260200190815260200160002054610506611032565b61123190919063ffffffff16565b61051d88610d33565b61124790919063ffffffff16565b61125d90919063ffffffff16565b61127390919063ffffffff16565b9050919050565b600d6020528060005260406000206000915090505481565b61056e611289565b73ffffffffffffffffffffffffffffffffffffffff1661058c610e3b565b73ffffffffffffffffffffffffffffffffffffffff16146105e2576040517f08c379a00000000000000000000000000000000000000000000000000000000081526004016105d990611b6f565b60405180910390fd5b80600460006101000a81548173ffffffffffffffffffffffffffffffffffffffff021916908373ffffffffffffffffffffffffffffffffffffffff16021790555050565b600460009054906101000a900473ffffffffffffffffffffffffffffffffffffffff1681565b6000600154905090565b60065481565b33610665611032565b600b81905550610673610e0a565b600a81905550600073ffffffffffffffffffffffffffffffffffffffff168173ffffffffffffffffffffffffffffffffffffffff1614610740576106b681610467565b600d60008373ffffffffffffffffffffffffffffffffffffffff1673ffffffffffffffffffffffffffffffffffffffff16815260200190815260200160002081905550600b54600c60008373ffffffffffffffffffffffffffffffffffffffff1673ffffffffffffffffffffffffffffffffffffffff168152602001908152602001600020819055505b600754421015610785576040517f08c379a000000000000000000000000000000000000000000000000000000000815260040161077c90611bdb565b60405180910390fd5b600082116107c8576040517f08c379a00000000000000000000000000000000000000000000000000000000081526004016107bf90611c6d565b60405180910390fd5b6107d182611291565b3373ffffffffffffffffffffffffffffffffffffffff167f7084f5476618d8e60b11ef0d7d3f06914655adb8793e28ff7f018d4c76d505d58360405161081791906119fa565b60405180910390a25050565b600460009054906101000a900473ffffffffffffffffffffffffffffffffffffffff1673ffffffffffffffffffffffffffffffffffffffff16610864611289565b73ffffffffffffffffffffffffffffffffffffffff16146108ba576040517f08c379a00000000000000000000000000000000000000000000000000000000081526004016108b190611cff565b60405180910390fd5b60006108c4611032565b600b819055506108d2610e0a565b600a81905550600073ffffffffffffffffffffffffffffffffffffffff168173ffffffffffffffffffffffffffffffffffffffff161461099f5761091581610467565b600d60008373ffffffffffffffffffffffffffffffffffffffff1673ffffffffffffffffffffffffffffffffffffffff16815260200190815260200160002081905550600b54600c60008373ffffffffffffffffffffffffffffffffffffffff1673ffffffffffffffffffffffffffffffffffffffff168152602001908152602001600020819055505b600754421115610a925760085442106109d2576109c76006548361125d90919063ffffffff16565b600981905550610a34565b60006109e94260085461123190919063ffffffff16565b90506000610a026009548361124790919063ffffffff16565b9050610a2b600654610a1d838761127390919063ffffffff16565b61125d90919063ffffffff16565b60098190555050505b42600a81905550610a506006544261127390919063ffffffff16565b6008819055507fde88a922e0d3b88b24e9623efeb464919c6bf9f66857a65e2bfcf2ce87a9433d82604051610a8591906119fa565b60405180910390a1610b0b565b610aa76006548361125d90919063ffffffff16565b600981905550600754600a81905550610acd60065460075461127390919063ffffffff16565b6008819055507fde88a922e0d3b88b24e9623efeb464919c6bf9f66857a65e2bfcf2ce87a9433d82604051610b0291906119fa565b60405180910390a15b5050565b33610b18611032565b600b81905550610b26610e0a565b600a81905550600073ffffffffffffffffffffffffffffffffffffffff168173ffffffffffffffffffffffffffffffffffffffff1614610bf357610b6981610467565b600d60008373ffffffffffffffffffffffffffffffffffffffff1673ffffffffffffffffffffffffffffffffffffffff16815260200190815260200160002081905550600b54600c60008373ffffffffffffffffffffffffffffffffffffffff1673ffffffffffffffffffffffffffffffffffffffff168152602001908152602001600020819055505b600754421015610c38576040517f08c379a0000000000000000000000000000000000000000000000000000000008152600401610c2f90611bdb565b60405180910390fd5b6000610c4333610467565b90506000811115610d2f576000600d60003373ffffffffffffffffffffffffffffffffffffffff1673ffffffffffffffffffffffffffffffffffffffff16815260200190815260200160002081905550610ce03382600560009054906101000a900473ffffffffffffffffffffffffffffffffffffffff1673ffffffffffffffffffffffffffffffffffffffff166114179092919063ffffffff16565b3373ffffffffffffffffffffffffffffffffffffffff167fe2403640ba68fed3a2f88b7557551d1993f84b99bb10ff833f0cf8db0c5e048682604051610d2691906119fa565b60405180910390a25b5050565b6000600260008373ffffffffffffffffffffffffffffffffffffffff1673ffffffffffffffffffffffffffffffffffffffff168152602001908152602001600020549050919050565b610d84611289565b73ffffffffffffffffffffffffffffffffffffffff16610da2610e3b565b73ffffffffffffffffffffffffffffffffffffffff1614610df8576040517f08c379a0000000000000000000000000000000000000000000000000000000008152600401610def90611b6f565b60405180910390fd5b610e02600061149d565b565b60095481565b6000610e1842600854611563565b905090565b600c6020528060005260406000206000915090505481565b60075481565b6000600360009054906101000a900473ffffffffffffffffffffffffffffffffffffffff16905090565b33610e6e611032565b600b81905550610e7c610e0a565b600a81905550600073ffffffffffffffffffffffffffffffffffffffff168173ffffffffffffffffffffffffffffffffffffffff1614610f4957610ebf81610467565b600d60008373ffffffffffffffffffffffffffffffffffffffff1673ffffffffffffffffffffffffffffffffffffffff16815260200190815260200160002081905550600b54600c60008373ffffffffffffffffffffffffffffffffffffffff1673ffffffffffffffffffffffffffffffffffffffff168152602001908152602001600020819055505b600754421015610f8e576040517f08c379a0000000000000000000000000000000000000000000000000000000008152600401610f8590611bdb565b60405180910390fd5b60008211610fd1576040517f08c379a0000000000000000000000000000000000000000000000000000000008152600401610fc890611d91565b60405180910390fd5b610fda8261157c565b3373ffffffffffffffffffffffffffffffffffffffff167f9e71bc8eea02a63969f509818f2dafb9254532904319f9dbda79b67bd34a5f3d8360405161102091906119fa565b60405180910390a25050565b600a5481565b60008061103d61064c565b0361104c57600b5490506110c6565b6110c36110b261105a61064c565b6110a4670de0b6b3a7640000611096600954611088600a5461107a610e0a565b61123190919063ffffffff16565b61124790919063ffffffff16565b61124790919063ffffffff16565b61125d90919063ffffffff16565b600b5461127390919063ffffffff16565b90505b90565b60008054906101000a900473ffffffffffffffffffffffffffffffffffffffff1681565b600b5481565b6111046110ff33610d33565b61065c565b61110c610b0f565b565b60085481565b61111c611289565b73ffffffffffffffffffffffffffffffffffffffff1661113a610e3b565b73ffffffffffffffffffffffffffffffffffffffff1614611190576040517f08c379a000000000000000000000000000000000000000000000000000000000815260040161118790611b6f565b60405180910390fd5b600073ffffffffffffffffffffffffffffffffffffffff168173ffffffffffffffffffffffffffffffffffffffff16036111ff576040517f08c379a00000000000000000000000000000000000000000000000000000000081526004016111f690611e23565b60405180910390fd5b6112088161149d565b50565b600560009054906101000a900473ffffffffffffffffffffffffffffffffffffffff1681565b6000818361123f9190611e72565b905092915050565b600081836112559190611ea6565b905092915050565b6000818361126b9190611f17565b905092915050565b600081836112819190611f48565b905092915050565b600033905090565b6000600260003373ffffffffffffffffffffffffffffffffffffffff1673ffffffffffffffffffffffffffffffffffffffff16815260200190815260200160002054905081811015611318576040517f08c379a000000000000000000000000000000000000000000000000000000000815260040161130f90611fee565b60405180910390fd5b61132d8260015461123190919063ffffffff16565b60018190555061138582600260003373ffffffffffffffffffffffffffffffffffffffff1673ffffffffffffffffffffffffffffffffffffffff1681526020019081526020016000205461123190919063ffffffff16565b600260003373ffffffffffffffffffffffffffffffffffffffff1673ffffffffffffffffffffffffffffffffffffffff16815260200190815260200160002081905550611413338360008054906101000a900473ffffffffffffffffffffffffffffffffffffffff1673ffffffffffffffffffffffffffffffffffffffff166114179092919063ffffffff16565b5050565b6114988363a9059cbb60e01b848460405160240161143692919061200e565b604051602081830303815290604052907bffffffffffffffffffffffffffffffffffffffffffffffffffffffff19166020820180517bffffffffffffffffffffffffffffffffffffffffffffffffffffffff838183161783525050505061167c565b505050565b6000600360009054906101000a900473ffffffffffffffffffffffffffffffffffffffff16905081600360006101000a81548173ffffffffffffffffffffffffffffffffffffffff021916908373ffffffffffffffffffffffffffffffffffffffff1602179055508173ffffffffffffffffffffffffffffffffffffffff168173ffffffffffffffffffffffffffffffffffffffff167f8be0079c531659141344cd1fd0a4f28419497f9722a3daafe3b4186f6b6457e060405160405180910390a35050565b60008183106115725781611574565b825b905092915050565b6115918160015461127390919063ffffffff16565b6001819055506115e981600260003373ffffffffffffffffffffffffffffffffffffffff1673ffffffffffffffffffffffffffffffffffffffff1681526020019081526020016000205461127390919063ffffffff16565b600260003373ffffffffffffffffffffffffffffffffffffffff1673ffffffffffffffffffffffffffffffffffffffff1681526020019081526020016000208190555061167933308360008054906101000a900473ffffffffffffffffffffffffffffffffffffffff1673ffffffffffffffffffffffffffffffffffffffff16611743909392919063ffffffff16565b50565b60006116de826040518060400160405280602081526020017f5361666542455032303a206c6f772d6c6576656c2063616c6c206661696c65648152508573ffffffffffffffffffffffffffffffffffffffff166117cc9092919063ffffffff16565b905060008151111561173e57808060200190518101906116fe919061206f565b61173d576040517f08c379a00000000000000000000000000000000000000000000000000000000081526004016117349061210e565b60405180910390fd5b5b505050565b6117c6846323b872dd60e01b8585856040516024016117649392919061212e565b604051602081830303815290604052907bffffffffffffffffffffffffffffffffffffffffffffffffffffffff19166020820180517bffffffffffffffffffffffffffffffffffffffffffffffffffffffff838183161783525050505061167c565b50505050565b60606117db84846000856117e4565b90509392505050565b60606117ef85611906565b61182e576040517f08c379a0000000000000000000000000000000000000000000000000000000008152600401611825906121b1565b60405180910390fd5b6000808673ffffffffffffffffffffffffffffffffffffffff1685876040516118579190612242565b60006040518083038185875af1925050503d8060008114611894576040519150601f19603f3d011682016040523d82523d6000602084013e611899565b606091505b509150915081156118ae5780925050506118fe565b6000815111156118c15780518082602001fd5b836040517f08c379a00000000000000000000000000000000000000000000000000000000081526004016118f591906122ae565b60405180910390fd5b949350505050565b60008060007fc5d2460186f7233c927e7db2dcc703c0e500b653ca82273b7bfad8045d85a47060001b9050833f915080821415801561194857506000801b8214155b92505050919050565b600080fd5b600073ffffffffffffffffffffffffffffffffffffffff82169050919050565b600061198182611956565b9050919050565b61199181611976565b811461199c57600080fd5b50565b6000813590506119ae81611988565b92915050565b6000602082840312156119ca576119c9611951565b5b60006119d88482850161199f565b91505092915050565b6000819050919050565b6119f4816119e1565b82525050565b6000602082019050611a0f60008301846119eb565b92915050565b611a1e81611976565b82525050565b6000602082019050611a396000830184611a15565b92915050565b611a48816119e1565b8114611a5357600080fd5b50565b600081359050611a6581611a3f565b92915050565b600060208284031215611a8157611a80611951565b5b6000611a8f84828501611a56565b91505092915050565b6000819050919050565b6000611abd611ab8611ab384611956565b611a98565b611956565b9050919050565b6000611acf82611aa2565b9050919050565b6000611ae182611ac4565b9050919050565b611af181611ad6565b82525050565b6000602082019050611b0c6000830184611ae8565b92915050565b600082825260208201905092915050565b7f4f776e61626c653a2063616c6c6572206973206e6f7420746865206f776e6572600082015250565b6000611b59602083611b12565b9150611b6482611b23565b602082019050919050565b60006020820190508181036000830152611b8881611b4c565b9050919050565b7f4c50546f6b656e5368617265506f6f6c3a206e6f742073746172740000000000600082015250565b6000611bc5601b83611b12565b9150611bd082611b8f565b602082019050919050565b60006020820190508181036000830152611bf481611bb8565b9050919050565b7f48555344474f434c50546f6b656e5368617265506f6f6c3a2043616e6e6f742060008201527f7769746864726177203000000000000000000000000000000000000000000000602082015250565b6000611c57602a83611b12565b9150611c6282611bfb565b604082019050919050565b60006020820190508181036000830152611c8681611c4a565b9050919050565b7f43616c6c6572206973206e6f742072657761726420646973747269627574696f60008201527f6e00000000000000000000000000000000000000000000000000000000000000602082015250565b6000611ce9602183611b12565b9150611cf482611c8d565b604082019050919050565b60006020820190508181036000830152611d1881611cdc565b9050919050565b7f48555344474f434c50546f6b656e5368617265506f6f6c3a2043616e6e6f742060008201527f7374616b65203000000000000000000000000000000000000000000000000000602082015250565b6000611d7b602783611b12565b9150611d8682611d1f565b604082019050919050565b60006020820190508181036000830152611daa81611d6e565b9050919050565b7f4f776e61626c653a206e6577206f776e657220697320746865207a65726f206160008201527f6464726573730000000000000000000000000000000000000000000000000000602082015250565b6000611e0d602683611b12565b9150611e1882611db1565b604082019050919050565b60006020820190508181036000830152611e3c81611e00565b9050919050565b7f4e487b7100000000000000000000000000000000000000000000000000000000600052601160045260246000fd5b6000611e7d826119e1565b9150611e88836119e1565b9250828203905081811115611ea057611e9f611e43565b5b92915050565b6000611eb1826119e1565b9150611ebc836119e1565b9250828202611eca816119e1565b91508282048414831517611ee157611ee0611e43565b5b5092915050565b7f4e487b7100000000000000000000000000000000000000000000000000000000600052601260045260246000fd5b6000611f22826119e1565b9150611f2d836119e1565b925082611f3d57611f3c611ee8565b5b828204905092915050565b6000611f53826119e1565b9150611f5e836119e1565b9250828201905080821115611f7657611f75611e43565b5b92915050565b7f776974686472617720726571756573742067726561746572207468616e20737460008201527f616b656420616d6f756e74000000000000000000000000000000000000000000602082015250565b6000611fd8602b83611b12565b9150611fe382611f7c565b604082019050919050565b6000602082019050818103600083015261200781611fcb565b9050919050565b60006040820190506120236000830185611a15565b61203060208301846119eb565b9392505050565b60008115159050919050565b61204c81612037565b811461205757600080fd5b50565b60008151905061206981612043565b92915050565b60006020828403121561208557612084611951565b5b60006120938482850161205a565b91505092915050565b7f5361666542455032303a204245503230206f7065726174696f6e20646964206e60008201527f6f74207375636365656400000000000000000000000000000000000000000000602082015250565b60006120f8602a83611b12565b91506121038261209c565b604082019050919050565b60006020820190508181036000830152612127816120eb565b9050919050565b60006060820190506121436000830186611a15565b6121506020830185611a15565b61215d60408301846119eb565b949350505050565b7f416464726573733a2063616c6c20746f206e6f6e2d636f6e7472616374000000600082015250565b600061219b601d83611b12565b91506121a682612165565b602082019050919050565b600060208201905081810360008301526121ca8161218e565b9050919050565b600081519050919050565b600081905092915050565b60005b838110156122055780820151818401526020810190506121ea565b60008484015250505050565b600061221c826121d1565b61222681856121dc565b93506122368185602086016121e7565b80840191505092915050565b600061224e8284612211565b915081905092915050565b600081519050919050565b6000601f19601f8301169050919050565b600061228082612259565b61228a8185611b12565b935061229a8185602086016121e7565b6122a381612264565b840191505092915050565b600060208201905081810360008301526122c88184612275565b90509291505056fea264697066735822122040653492e23ce01a9bdbd88039118948a68f79db8e000106948df803fa9fbb0864736f6c63430008130033",
					"opcodes": "PUSH1 0x80 PUSH1 0x40 MSTORE PUSH3 0x278D00 PUSH1 0x6 SSTORE PUSH1 0x0 PUSH1 0x8 SSTORE PUSH1 0x0 PUSH1 0x9 SSTORE CALLVALUE DUP1 ISZERO PUSH3 0x22 JUMPI PUSH1 0x0 DUP1 REVERT JUMPDEST POP PUSH1 0x40 MLOAD PUSH3 0x25C8 CODESIZE SUB DUP1 PUSH3 0x25C8 DUP4 CODECOPY DUP2 DUP2 ADD PUSH1 0x40 MSTORE DUP2 ADD SWAP1 PUSH3 0x48 SWAP2 SWAP1 PUSH3 0x256 JUMP JUMPDEST PUSH3 0x5A PUSH1 0x0 PUSH3 0xEB PUSH1 0x20 SHL PUSH1 0x20 SHR JUMP JUMPDEST DUP3 PUSH1 0x5 PUSH1 0x0 PUSH2 0x100 EXP DUP2 SLOAD DUP2 PUSH20 0xFFFFFFFFFFFFFFFFFFFFFFFFFFFFFFFFFFFFFFFF MUL NOT AND SWAP1 DUP4 PUSH20 0xFFFFFFFFFFFFFFFFFFFFFFFFFFFFFFFFFFFFFFFF AND MUL OR SWAP1 SSTORE POP DUP2 PUSH1 0x0 DUP1 PUSH2 0x100 EXP DUP2 SLOAD DUP2 PUSH20 0xFFFFFFFFFFFFFFFFFFFFFFFFFFFFFFFFFFFFFFFF MUL NOT AND SWAP1 DUP4 PUSH20 0xFFFFFFFFFFFFFFFFFFFFFFFFFFFFFFFFFFFFFFFF AND MUL OR SWAP1 SSTORE POP DUP1 PUSH1 0x7 DUP2 SWAP1 SSTORE POP POP POP POP PUSH3 0x2B2 JUMP JUMPDEST PUSH1 0x0 PUSH1 0x3 PUSH1 0x0 SWAP1 SLOAD SWAP1 PUSH2 0x100 EXP SWAP1 DIV PUSH20 0xFFFFFFFFFFFFFFFFFFFFFFFFFFFFFFFFFFFFFFFF AND SWAP1 POP DUP2 PUSH1 0x3 PUSH1 0x0 PUSH2 0x100 EXP DUP2 SLOAD DUP2 PUSH20 0xFFFFFFFFFFFFFFFFFFFFFFFFFFFFFFFFFFFFFFFF MUL NOT AND SWAP1 DUP4 PUSH20 0xFFFFFFFFFFFFFFFFFFFFFFFFFFFFFFFFFFFFFFFF AND MUL OR SWAP1 SSTORE POP DUP2 PUSH20 0xFFFFFFFFFFFFFFFFFFFFFFFFFFFFFFFFFFFFFFFF AND DUP2 PUSH20 0xFFFFFFFFFFFFFFFFFFFFFFFFFFFFFFFFFFFFFFFF AND PUSH32 0x8BE0079C531659141344CD1FD0A4F28419497F9722A3DAAFE3B4186F6B6457E0 PUSH1 0x40 MLOAD PUSH1 0x40 MLOAD DUP1 SWAP2 SUB SWAP1 LOG3 POP POP JUMP JUMPDEST PUSH1 0x0 DUP1 REVERT JUMPDEST PUSH1 0x0 PUSH20 0xFFFFFFFFFFFFFFFFFFFFFFFFFFFFFFFFFFFFFFFF DUP3 AND SWAP1 POP SWAP2 SWAP1 POP JUMP JUMPDEST PUSH1 0x0 PUSH3 0x1E3 DUP3 PUSH3 0x1B6 JUMP JUMPDEST SWAP1 POP SWAP2 SWAP1 POP JUMP JUMPDEST PUSH3 0x1F5 DUP2 PUSH3 0x1D6 JUMP JUMPDEST DUP2 EQ PUSH3 0x201 JUMPI PUSH1 0x0 DUP1 REVERT JUMPDEST POP JUMP JUMPDEST PUSH1 0x0 DUP2 MLOAD SWAP1 POP PUSH3 0x215 DUP2 PUSH3 0x1EA JUMP JUMPDEST SWAP3 SWAP2 POP POP JUMP JUMPDEST PUSH1 0x0 DUP2 SWAP1 POP SWAP2 SWAP1 POP JUMP JUMPDEST PUSH3 0x230 DUP2 PUSH3 0x21B JUMP JUMPDEST DUP2 EQ PUSH3 0x23C JUMPI PUSH1 0x0 DUP1 REVERT JUMPDEST POP JUMP JUMPDEST PUSH1 0x0 DUP2 MLOAD SWAP1 POP PUSH3 0x250 DUP2 PUSH3 0x225 JUMP JUMPDEST SWAP3 SWAP2 POP POP JUMP JUMPDEST PUSH1 0x0 DUP1 PUSH1 0x0 PUSH1 0x60 DUP5 DUP7 SUB SLT ISZERO PUSH3 0x272 JUMPI PUSH3 0x271 PUSH3 0x1B1 JUMP JUMPDEST JUMPDEST PUSH1 0x0 PUSH3 0x282 DUP7 DUP3 DUP8 ADD PUSH3 0x204 JUMP JUMPDEST SWAP4 POP POP PUSH1 0x20 PUSH3 0x295 DUP7 DUP3 DUP8 ADD PUSH3 0x204 JUMP JUMPDEST SWAP3 POP POP PUSH1 0x40 PUSH3 0x2A8 DUP7 DUP3 DUP8 ADD PUSH3 0x23F JUMP JUMPDEST SWAP2 POP POP SWAP3 POP SWAP3 POP SWAP3 JUMP JUMPDEST PUSH2 0x2306 DUP1 PUSH3 0x2C2 PUSH1 0x0 CODECOPY PUSH1 0x0 RETURN INVALID PUSH1 0x80 PUSH1 0x40 MSTORE CALLVALUE DUP1 ISZERO PUSH2 0x10 JUMPI PUSH1 0x0 DUP1 REVERT JUMPDEST POP PUSH1 0x4 CALLDATASIZE LT PUSH2 0x172 JUMPI PUSH1 0x0 CALLDATALOAD PUSH1 0xE0 SHR DUP1 PUSH4 0x80FAA57D GT PUSH2 0xDE JUMPI DUP1 PUSH4 0xCD3DAF9D GT PUSH2 0x97 JUMPI DUP1 PUSH4 0xE9FAD8EE GT PUSH2 0x71 JUMPI DUP1 PUSH4 0xE9FAD8EE EQ PUSH2 0x405 JUMPI DUP1 PUSH4 0xEBE2B12B EQ PUSH2 0x40F JUMPI DUP1 PUSH4 0xF2FDE38B EQ PUSH2 0x42D JUMPI DUP1 PUSH4 0xFC0C546A EQ PUSH2 0x449 JUMPI PUSH2 0x172 JUMP JUMPDEST DUP1 PUSH4 0xCD3DAF9D EQ PUSH2 0x3AB JUMPI DUP1 PUSH4 0xCE5FC8D0 EQ PUSH2 0x3C9 JUMPI DUP1 PUSH4 0xDF136D65 EQ PUSH2 0x3E7 JUMPI PUSH2 0x172 JUMP JUMPDEST DUP1 PUSH4 0x80FAA57D EQ PUSH2 0x2E7 JUMPI DUP1 PUSH4 0x8B876347 EQ PUSH2 0x305 JUMPI DUP1 PUSH4 0x8DA58897 EQ PUSH2 0x335 JUMPI DUP1 PUSH4 0x8DA5CB5B EQ PUSH2 0x353 JUMPI DUP1 PUSH4 0xA694FC3A EQ PUSH2 0x371 JUMPI DUP1 PUSH4 0xC8F33C91 EQ PUSH2 0x38D JUMPI PUSH2 0x172 JUMP JUMPDEST DUP1 PUSH4 0x2E1A7D4D GT PUSH2 0x130 JUMPI DUP1 PUSH4 0x2E1A7D4D EQ PUSH2 0x24D JUMPI DUP1 PUSH4 0x3C6B16AB EQ PUSH2 0x269 JUMPI DUP1 PUSH4 0x3D18B912 EQ PUSH2 0x285 JUMPI DUP1 PUSH4 0x70A08231 EQ PUSH2 0x28F JUMPI DUP1 PUSH4 0x715018A6 EQ PUSH2 0x2BF JUMPI DUP1 PUSH4 0x7B0A47EE EQ PUSH2 0x2C9 JUMPI PUSH2 0x172 JUMP JUMPDEST DUP1 PUSH3 0x8CC262 EQ PUSH2 0x177 JUMPI DUP1 PUSH4 0x700037D EQ PUSH2 0x1A7 JUMPI DUP1 PUSH4 0xD68B761 EQ PUSH2 0x1D7 JUMPI DUP1 PUSH4 0x101114CF EQ PUSH2 0x1F3 JUMPI DUP1 PUSH4 0x18160DDD EQ PUSH2 0x211 JUMPI DUP1 PUSH4 0x1BE05289 EQ PUSH2 0x22F JUMPI JUMPDEST PUSH1 0x0 DUP1 REVERT JUMPDEST PUSH2 0x191 PUSH1 0x4 DUP1 CALLDATASIZE SUB DUP2 ADD SWAP1 PUSH2 0x18C SWAP2 SWAP1 PUSH2 0x19B4 JUMP JUMPDEST PUSH2 0x467 JUMP JUMPDEST PUSH1 0x40 MLOAD PUSH2 0x19E SWAP2 SWAP1 PUSH2 0x19FA JUMP JUMPDEST PUSH1 0x40 MLOAD DUP1 SWAP2 SUB SWAP1 RETURN JUMPDEST PUSH2 0x1C1 PUSH1 0x4 DUP1 CALLDATASIZE SUB DUP2 ADD SWAP1 PUSH2 0x1BC SWAP2 SWAP1 PUSH2 0x19B4 JUMP JUMPDEST PUSH2 0x54E JUMP JUMPDEST PUSH1 0x40 MLOAD PUSH2 0x1CE SWAP2 SWAP1 PUSH2 0x19FA JUMP JUMPDEST PUSH1 0x40 MLOAD DUP1 SWAP2 SUB SWAP1 RETURN JUMPDEST PUSH2 0x1F1 PUSH1 0x4 DUP1 CALLDATASIZE SUB DUP2 ADD SWAP1 PUSH2 0x1EC SWAP2 SWAP1 PUSH2 0x19B4 JUMP JUMPDEST PUSH2 0x566 JUMP JUMPDEST STOP JUMPDEST PUSH2 0x1FB PUSH2 0x626 JUMP JUMPDEST PUSH1 0x40 MLOAD PUSH2 0x208 SWAP2 SWAP1 PUSH2 0x1A24 JUMP JUMPDEST PUSH1 0x40 MLOAD DUP1 SWAP2 SUB SWAP1 RETURN JUMPDEST PUSH2 0x219 PUSH2 0x64C JUMP JUMPDEST PUSH1 0x40 MLOAD PUSH2 0x226 SWAP2 SWAP1 PUSH2 0x19FA JUMP JUMPDEST PUSH1 0x40 MLOAD DUP1 SWAP2 SUB SWAP1 RETURN JUMPDEST PUSH2 0x237 PUSH2 0x656 JUMP JUMPDEST PUSH1 0x40 MLOAD PUSH2 0x244 SWAP2 SWAP1 PUSH2 0x19FA JUMP JUMPDEST PUSH1 0x40 MLOAD DUP1 SWAP2 SUB SWAP1 RETURN JUMPDEST PUSH2 0x267 PUSH1 0x4 DUP1 CALLDATASIZE SUB DUP2 ADD SWAP1 PUSH2 0x262 SWAP2 SWAP1 PUSH2 0x1A6B JUMP JUMPDEST PUSH2 0x65C JUMP JUMPDEST STOP JUMPDEST PUSH2 0x283 PUSH1 0x4 DUP1 CALLDATASIZE SUB DUP2 ADD SWAP1 PUSH2 0x27E SWAP2 SWAP1 PUSH2 0x1A6B JUMP JUMPDEST PUSH2 0x823 JUMP JUMPDEST STOP JUMPDEST PUSH2 0x28D PUSH2 0xB0F JUMP JUMPDEST STOP JUMPDEST PUSH2 0x2A9 PUSH1 0x4 DUP1 CALLDATASIZE SUB DUP2 ADD SWAP1 PUSH2 0x2A4 SWAP2 SWAP1 PUSH2 0x19B4 JUMP JUMPDEST PUSH2 0xD33 JUMP JUMPDEST PUSH1 0x40 MLOAD PUSH2 0x2B6 SWAP2 SWAP1 PUSH2 0x19FA JUMP JUMPDEST PUSH1 0x40 MLOAD DUP1 SWAP2 SUB SWAP1 RETURN JUMPDEST PUSH2 0x2C7 PUSH2 0xD7C JUMP JUMPDEST STOP JUMPDEST PUSH2 0x2D1 PUSH2 0xE04 JUMP JUMPDEST PUSH1 0x40 MLOAD PUSH2 0x2DE SWAP2 SWAP1 PUSH2 0x19FA JUMP JUMPDEST PUSH1 0x40 MLOAD DUP1 SWAP2 SUB SWAP1 RETURN JUMPDEST PUSH2 0x2EF PUSH2 0xE0A JUMP JUMPDEST PUSH1 0x40 MLOAD PUSH2 0x2FC SWAP2 SWAP1 PUSH2 0x19FA JUMP JUMPDEST PUSH1 0x40 MLOAD DUP1 SWAP2 SUB SWAP1 RETURN JUMPDEST PUSH2 0x31F PUSH1 0x4 DUP1 CALLDATASIZE SUB DUP2 ADD SWAP1 PUSH2 0x31A SWAP2 SWAP1 PUSH2 0x19B4 JUMP JUMPDEST PUSH2 0xE1D JUMP JUMPDEST PUSH1 0x40 MLOAD PUSH2 0x32C SWAP2 SWAP1 PUSH2 0x19FA JUMP JUMPDEST PUSH1 0x40 MLOAD DUP1 SWAP2 SUB SWAP1 RETURN JUMPDEST PUSH2 0x33D PUSH2 0xE35 JUMP JUMPDEST PUSH1 0x40 MLOAD PUSH2 0x34A SWAP2 SWAP1 PUSH2 0x19FA JUMP JUMPDEST PUSH1 0x40 MLOAD DUP1 SWAP2 SUB SWAP1 RETURN JUMPDEST PUSH2 0x35B PUSH2 0xE3B JUMP JUMPDEST PUSH1 0x40 MLOAD PUSH2 0x368 SWAP2 SWAP1 PUSH2 0x1A24 JUMP JUMPDEST PUSH1 0x40 MLOAD DUP1 SWAP2 SUB SWAP1 RETURN JUMPDEST PUSH2 0x38B PUSH1 0x4 DUP1 CALLDATASIZE SUB DUP2 ADD SWAP1 PUSH2 0x386 SWAP2 SWAP1 PUSH2 0x1A6B JUMP JUMPDEST PUSH2 0xE65 JUMP JUMPDEST STOP JUMPDEST PUSH2 0x395 PUSH2 0x102C JUMP JUMPDEST PUSH1 0x40 MLOAD PUSH2 0x3A2 SWAP2 SWAP1 PUSH2 0x19FA JUMP JUMPDEST PUSH1 0x40 MLOAD DUP1 SWAP2 SUB SWAP1 RETURN JUMPDEST PUSH2 0x3B3 PUSH2 0x1032 JUMP JUMPDEST PUSH1 0x40 MLOAD PUSH2 0x3C0 SWAP2 SWAP1 PUSH2 0x19FA JUMP JUMPDEST PUSH1 0x40 MLOAD DUP1 SWAP2 SUB SWAP1 RETURN JUMPDEST PUSH2 0x3D1 PUSH2 0x10C9 JUMP JUMPDEST PUSH1 0x40 MLOAD PUSH2 0x3DE SWAP2 SWAP1 PUSH2 0x1AF7 JUMP JUMPDEST PUSH1 0x40 MLOAD DUP1 SWAP2 SUB SWAP1 RETURN JUMPDEST PUSH2 0x3EF PUSH2 0x10ED JUMP JUMPDEST PUSH1 0x40 MLOAD PUSH2 0x3FC SWAP2 SWAP1 PUSH2 0x19FA JUMP JUMPDEST PUSH1 0x40 MLOAD DUP1 SWAP2 SUB SWAP1 RETURN JUMPDEST PUSH2 0x40D PUSH2 0x10F3 JUMP JUMPDEST STOP JUMPDEST PUSH2 0x417 PUSH2 0x110E JUMP JUMPDEST PUSH1 0x40 MLOAD PUSH2 0x424 SWAP2 SWAP1 PUSH2 0x19FA JUMP JUMPDEST PUSH1 0x40 MLOAD DUP1 SWAP2 SUB SWAP1 RETURN JUMPDEST PUSH2 0x447 PUSH1 0x4 DUP1 CALLDATASIZE SUB DUP2 ADD SWAP1 PUSH2 0x442 SWAP2 SWAP1 PUSH2 0x19B4 JUMP JUMPDEST PUSH2 0x1114 JUMP JUMPDEST STOP JUMPDEST PUSH2 0x451 PUSH2 0x120B JUMP JUMPDEST PUSH1 0x40 MLOAD PUSH2 0x45E SWAP2 SWAP1 PUSH2 0x1AF7 JUMP JUMPDEST PUSH1 0x40 MLOAD DUP1 SWAP2 SUB SWAP1 RETURN JUMPDEST PUSH1 0x0 PUSH2 0x547 PUSH1 0xD PUSH1 0x0 DUP5 PUSH20 0xFFFFFFFFFFFFFFFFFFFFFFFFFFFFFFFFFFFFFFFF AND PUSH20 0xFFFFFFFFFFFFFFFFFFFFFFFFFFFFFFFFFFFFFFFF AND DUP2 MSTORE PUSH1 0x20 ADD SWAP1 DUP2 MSTORE PUSH1 0x20 ADD PUSH1 0x0 KECCAK256 SLOAD PUSH2 0x539 PUSH8 0xDE0B6B3A7640000 PUSH2 0x52B PUSH2 0x514 PUSH1 0xC PUSH1 0x0 DUP10 PUSH20 0xFFFFFFFFFFFFFFFFFFFFFFFFFFFFFFFFFFFFFFFF AND PUSH20 0xFFFFFFFFFFFFFFFFFFFFFFFFFFFFFFFFFFFFFFFF AND DUP2 MSTORE PUSH1 0x20 ADD SWAP1 DUP2 MSTORE PUSH1 0x20 ADD PUSH1 0x0 KECCAK256 SLOAD PUSH2 0x506 PUSH2 0x1032 JUMP JUMPDEST PUSH2 0x1231 SWAP1 SWAP2 SWAP1 PUSH4 0xFFFFFFFF AND JUMP JUMPDEST PUSH2 0x51D DUP9 PUSH2 0xD33 JUMP JUMPDEST PUSH2 0x1247 SWAP1 SWAP2 SWAP1 PUSH4 0xFFFFFFFF AND JUMP JUMPDEST PUSH2 0x125D SWAP1 SWAP2 SWAP1 PUSH4 0xFFFFFFFF AND JUMP JUMPDEST PUSH2 0x1273 SWAP1 SWAP2 SWAP1 PUSH4 0xFFFFFFFF AND JUMP JUMPDEST SWAP1 POP SWAP2 SWAP1 POP JUMP JUMPDEST PUSH1 0xD PUSH1 0x20 MSTORE DUP1 PUSH1 0x0 MSTORE PUSH1 0x40 PUSH1 0x0 KECCAK256 PUSH1 0x0 SWAP2 POP SWAP1 POP SLOAD DUP2 JUMP JUMPDEST PUSH2 0x56E PUSH2 0x1289 JUMP JUMPDEST PUSH20 0xFFFFFFFFFFFFFFFFFFFFFFFFFFFFFFFFFFFFFFFF AND PUSH2 0x58C PUSH2 0xE3B JUMP JUMPDEST PUSH20 0xFFFFFFFFFFFFFFFFFFFFFFFFFFFFFFFFFFFFFFFF AND EQ PUSH2 0x5E2 JUMPI PUSH1 0x40 MLOAD PUSH32 0x8C379A000000000000000000000000000000000000000000000000000000000 DUP2 MSTORE PUSH1 0x4 ADD PUSH2 0x5D9 SWAP1 PUSH2 0x1B6F JUMP JUMPDEST PUSH1 0x40 MLOAD DUP1 SWAP2 SUB SWAP1 REVERT JUMPDEST DUP1 PUSH1 0x4 PUSH1 0x0 PUSH2 0x100 EXP DUP2 SLOAD DUP2 PUSH20 0xFFFFFFFFFFFFFFFFFFFFFFFFFFFFFFFFFFFFFFFF MUL NOT AND SWAP1 DUP4 PUSH20 0xFFFFFFFFFFFFFFFFFFFFFFFFFFFFFFFFFFFFFFFF AND MUL OR SWAP1 SSTORE POP POP JUMP JUMPDEST PUSH1 0x4 PUSH1 0x0 SWAP1 SLOAD SWAP1 PUSH2 0x100 EXP SWAP1 DIV PUSH20 0xFFFFFFFFFFFFFFFFFFFFFFFFFFFFFFFFFFFFFFFF AND DUP2 JUMP JUMPDEST PUSH1 0x0 PUSH1 0x1 SLOAD SWAP1 POP SWAP1 JUMP JUMPDEST PUSH1 0x6 SLOAD DUP2 JUMP JUMPDEST CALLER PUSH2 0x665 PUSH2 0x1032 JUMP JUMPDEST PUSH1 0xB DUP2 SWAP1 SSTORE POP PUSH2 0x673 PUSH2 0xE0A JUMP JUMPDEST PUSH1 0xA DUP2 SWAP1 SSTORE POP PUSH1 0x0 PUSH20 0xFFFFFFFFFFFFFFFFFFFFFFFFFFFFFFFFFFFFFFFF AND DUP2 PUSH20 0xFFFFFFFFFFFFFFFFFFFFFFFFFFFFFFFFFFFFFFFF AND EQ PUSH2 0x740 JUMPI PUSH2 0x6B6 DUP2 PUSH2 0x467 JUMP JUMPDEST PUSH1 0xD PUSH1 0x0 DUP4 PUSH20 0xFFFFFFFFFFFFFFFFFFFFFFFFFFFFFFFFFFFFFFFF AND PUSH20 0xFFFFFFFFFFFFFFFFFFFFFFFFFFFFFFFFFFFFFFFF AND DUP2 MSTORE PUSH1 0x20 ADD SWAP1 DUP2 MSTORE PUSH1 0x20 ADD PUSH1 0x0 KECCAK256 DUP2 SWAP1 SSTORE POP PUSH1 0xB SLOAD PUSH1 0xC PUSH1 0x0 DUP4 PUSH20 0xFFFFFFFFFFFFFFFFFFFFFFFFFFFFFFFFFFFFFFFF AND PUSH20 0xFFFFFFFFFFFFFFFFFFFFFFFFFFFFFFFFFFFFFFFF AND DUP2 MSTORE PUSH1 0x20 ADD SWAP1 DUP2 MSTORE PUSH1 0x20 ADD PUSH1 0x0 KECCAK256 DUP2 SWAP1 SSTORE POP JUMPDEST PUSH1 0x7 SLOAD TIMESTAMP LT ISZERO PUSH2 0x785 JUMPI PUSH1 0x40 MLOAD PUSH32 0x8C379A000000000000000000000000000000000000000000000000000000000 DUP2 MSTORE PUSH1 0x4 ADD PUSH2 0x77C SWAP1 PUSH2 0x1BDB JUMP JUMPDEST PUSH1 0x40 MLOAD DUP1 SWAP2 SUB SWAP1 REVERT JUMPDEST PUSH1 0x0 DUP3 GT PUSH2 0x7C8 JUMPI PUSH1 0x40 MLOAD PUSH32 0x8C379A000000000000000000000000000000000000000000000000000000000 DUP2 MSTORE PUSH1 0x4 ADD PUSH2 0x7BF SWAP1 PUSH2 0x1C6D JUMP JUMPDEST PUSH1 0x40 MLOAD DUP1 SWAP2 SUB SWAP1 REVERT JUMPDEST PUSH2 0x7D1 DUP3 PUSH2 0x1291 JUMP JUMPDEST CALLER PUSH20 0xFFFFFFFFFFFFFFFFFFFFFFFFFFFFFFFFFFFFFFFF AND PUSH32 0x7084F5476618D8E60B11EF0D7D3F06914655ADB8793E28FF7F018D4C76D505D5 DUP4 PUSH1 0x40 MLOAD PUSH2 0x817 SWAP2 SWAP1 PUSH2 0x19FA JUMP JUMPDEST PUSH1 0x40 MLOAD DUP1 SWAP2 SUB SWAP1 LOG2 POP POP JUMP JUMPDEST PUSH1 0x4 PUSH1 0x0 SWAP1 SLOAD SWAP1 PUSH2 0x100 EXP SWAP1 DIV PUSH20 0xFFFFFFFFFFFFFFFFFFFFFFFFFFFFFFFFFFFFFFFF AND PUSH20 0xFFFFFFFFFFFFFFFFFFFFFFFFFFFFFFFFFFFFFFFF AND PUSH2 0x864 PUSH2 0x1289 JUMP JUMPDEST PUSH20 0xFFFFFFFFFFFFFFFFFFFFFFFFFFFFFFFFFFFFFFFF AND EQ PUSH2 0x8BA JUMPI PUSH1 0x40 MLOAD PUSH32 0x8C379A000000000000000000000000000000000000000000000000000000000 DUP2 MSTORE PUSH1 0x4 ADD PUSH2 0x8B1 SWAP1 PUSH2 0x1CFF JUMP JUMPDEST PUSH1 0x40 MLOAD DUP1 SWAP2 SUB SWAP1 REVERT JUMPDEST PUSH1 0x0 PUSH2 0x8C4 PUSH2 0x1032 JUMP JUMPDEST PUSH1 0xB DUP2 SWAP1 SSTORE POP PUSH2 0x8D2 PUSH2 0xE0A JUMP JUMPDEST PUSH1 0xA DUP2 SWAP1 SSTORE POP PUSH1 0x0 PUSH20 0xFFFFFFFFFFFFFFFFFFFFFFFFFFFFFFFFFFFFFFFF AND DUP2 PUSH20 0xFFFFFFFFFFFFFFFFFFFFFFFFFFFFFFFFFFFFFFFF AND EQ PUSH2 0x99F JUMPI PUSH2 0x915 DUP2 PUSH2 0x467 JUMP JUMPDEST PUSH1 0xD PUSH1 0x0 DUP4 PUSH20 0xFFFFFFFFFFFFFFFFFFFFFFFFFFFFFFFFFFFFFFFF AND PUSH20 0xFFFFFFFFFFFFFFFFFFFFFFFFFFFFFFFFFFFFFFFF AND DUP2 MSTORE PUSH1 0x20 ADD SWAP1 DUP2 MSTORE PUSH1 0x20 ADD PUSH1 0x0 KECCAK256 DUP2 SWAP1 SSTORE POP PUSH1 0xB SLOAD PUSH1 0xC PUSH1 0x0 DUP4 PUSH20 0xFFFFFFFFFFFFFFFFFFFFFFFFFFFFFFFFFFFFFFFF AND PUSH20 0xFFFFFFFFFFFFFFFFFFFFFFFFFFFFFFFFFFFFFFFF AND DUP2 MSTORE PUSH1 0x20 ADD SWAP1 DUP2 MSTORE PUSH1 0x20 ADD PUSH1 0x0 KECCAK256 DUP2 SWAP1 SSTORE POP JUMPDEST PUSH1 0x7 SLOAD TIMESTAMP GT ISZERO PUSH2 0xA92 JUMPI PUSH1 0x8 SLOAD TIMESTAMP LT PUSH2 0x9D2 JUMPI PUSH2 0x9C7 PUSH1 0x6 SLOAD DUP4 PUSH2 0x125D SWAP1 SWAP2 SWAP1 PUSH4 0xFFFFFFFF AND JUMP JUMPDEST PUSH1 0x9 DUP2 SWAP1 SSTORE POP PUSH2 0xA34 JUMP JUMPDEST PUSH1 0x0 PUSH2 0x9E9 TIMESTAMP PUSH1 0x8 SLOAD PUSH2 0x1231 SWAP1 SWAP2 SWAP1 PUSH4 0xFFFFFFFF AND JUMP JUMPDEST SWAP1 POP PUSH1 0x0 PUSH2 0xA02 PUSH1 0x9 SLOAD DUP4 PUSH2 0x1247 SWAP1 SWAP2 SWAP1 PUSH4 0xFFFFFFFF AND JUMP JUMPDEST SWAP1 POP PUSH2 0xA2B PUSH1 0x6 SLOAD PUSH2 0xA1D DUP4 DUP8 PUSH2 0x1273 SWAP1 SWAP2 SWAP1 PUSH4 0xFFFFFFFF AND JUMP JUMPDEST PUSH2 0x125D SWAP1 SWAP2 SWAP1 PUSH4 0xFFFFFFFF AND JUMP JUMPDEST PUSH1 0x9 DUP2 SWAP1 SSTORE POP POP POP JUMPDEST TIMESTAMP PUSH1 0xA DUP2 SWAP1 SSTORE POP PUSH2 0xA50 PUSH1 0x6 SLOAD TIMESTAMP PUSH2 0x1273 SWAP1 SWAP2 SWAP1 PUSH4 0xFFFFFFFF AND JUMP JUMPDEST PUSH1 0x8 DUP2 SWAP1 SSTORE POP PUSH32 0xDE88A922E0D3B88B24E9623EFEB464919C6BF9F66857A65E2BFCF2CE87A9433D DUP3 PUSH1 0x40 MLOAD PUSH2 0xA85 SWAP2 SWAP1 PUSH2 0x19FA JUMP JUMPDEST PUSH1 0x40 MLOAD DUP1 SWAP2 SUB SWAP1 LOG1 PUSH2 0xB0B JUMP JUMPDEST PUSH2 0xAA7 PUSH1 0x6 SLOAD DUP4 PUSH2 0x125D SWAP1 SWAP2 SWAP1 PUSH4 0xFFFFFFFF AND JUMP JUMPDEST PUSH1 0x9 DUP2 SWAP1 SSTORE POP PUSH1 0x7 SLOAD PUSH1 0xA DUP2 SWAP1 SSTORE POP PUSH2 0xACD PUSH1 0x6 SLOAD PUSH1 0x7 SLOAD PUSH2 0x1273 SWAP1 SWAP2 SWAP1 PUSH4 0xFFFFFFFF AND JUMP JUMPDEST PUSH1 0x8 DUP2 SWAP1 SSTORE POP PUSH32 0xDE88A922E0D3B88B24E9623EFEB464919C6BF9F66857A65E2BFCF2CE87A9433D DUP3 PUSH1 0x40 MLOAD PUSH2 0xB02 SWAP2 SWAP1 PUSH2 0x19FA JUMP JUMPDEST PUSH1 0x40 MLOAD DUP1 SWAP2 SUB SWAP1 LOG1 JUMPDEST POP POP JUMP JUMPDEST CALLER PUSH2 0xB18 PUSH2 0x1032 JUMP JUMPDEST PUSH1 0xB DUP2 SWAP1 SSTORE POP PUSH2 0xB26 PUSH2 0xE0A JUMP JUMPDEST PUSH1 0xA DUP2 SWAP1 SSTORE POP PUSH1 0x0 PUSH20 0xFFFFFFFFFFFFFFFFFFFFFFFFFFFFFFFFFFFFFFFF AND DUP2 PUSH20 0xFFFFFFFFFFFFFFFFFFFFFFFFFFFFFFFFFFFFFFFF AND EQ PUSH2 0xBF3 JUMPI PUSH2 0xB69 DUP2 PUSH2 0x467 JUMP JUMPDEST PUSH1 0xD PUSH1 0x0 DUP4 PUSH20 0xFFFFFFFFFFFFFFFFFFFFFFFFFFFFFFFFFFFFFFFF AND PUSH20 0xFFFFFFFFFFFFFFFFFFFFFFFFFFFFFFFFFFFFFFFF AND DUP2 MSTORE PUSH1 0x20 ADD SWAP1 DUP2 MSTORE PUSH1 0x20 ADD PUSH1 0x0 KECCAK256 DUP2 SWAP1 SSTORE POP PUSH1 0xB SLOAD PUSH1 0xC PUSH1 0x0 DUP4 PUSH20 0xFFFFFFFFFFFFFFFFFFFFFFFFFFFFFFFFFFFFFFFF AND PUSH20 0xFFFFFFFFFFFFFFFFFFFFFFFFFFFFFFFFFFFFFFFF AND DUP2 MSTORE PUSH1 0x20 ADD SWAP1 DUP2 MSTORE PUSH1 0x20 ADD PUSH1 0x0 KECCAK256 DUP2 SWAP1 SSTORE POP JUMPDEST PUSH1 0x7 SLOAD TIMESTAMP LT ISZERO PUSH2 0xC38 JUMPI PUSH1 0x40 MLOAD PUSH32 0x8C379A000000000000000000000000000000000000000000000000000000000 DUP2 MSTORE PUSH1 0x4 ADD PUSH2 0xC2F SWAP1 PUSH2 0x1BDB JUMP JUMPDEST PUSH1 0x40 MLOAD DUP1 SWAP2 SUB SWAP1 REVERT JUMPDEST PUSH1 0x0 PUSH2 0xC43 CALLER PUSH2 0x467 JUMP JUMPDEST SWAP1 POP PUSH1 0x0 DUP2 GT ISZERO PUSH2 0xD2F JUMPI PUSH1 0x0 PUSH1 0xD PUSH1 0x0 CALLER PUSH20 0xFFFFFFFFFFFFFFFFFFFFFFFFFFFFFFFFFFFFFFFF AND PUSH20 0xFFFFFFFFFFFFFFFFFFFFFFFFFFFFFFFFFFFFFFFF AND DUP2 MSTORE PUSH1 0x20 ADD SWAP1 DUP2 MSTORE PUSH1 0x20 ADD PUSH1 0x0 KECCAK256 DUP2 SWAP1 SSTORE POP PUSH2 0xCE0 CALLER DUP3 PUSH1 0x5 PUSH1 0x0 SWAP1 SLOAD SWAP1 PUSH2 0x100 EXP SWAP1 DIV PUSH20 0xFFFFFFFFFFFFFFFFFFFFFFFFFFFFFFFFFFFFFFFF AND PUSH20 0xFFFFFFFFFFFFFFFFFFFFFFFFFFFFFFFFFFFFFFFF AND PUSH2 0x1417 SWAP1 SWAP3 SWAP2 SWAP1 PUSH4 0xFFFFFFFF AND JUMP JUMPDEST CALLER PUSH20 0xFFFFFFFFFFFFFFFFFFFFFFFFFFFFFFFFFFFFFFFF AND PUSH32 0xE2403640BA68FED3A2F88B7557551D1993F84B99BB10FF833F0CF8DB0C5E0486 DUP3 PUSH1 0x40 MLOAD PUSH2 0xD26 SWAP2 SWAP1 PUSH2 0x19FA JUMP JUMPDEST PUSH1 0x40 MLOAD DUP1 SWAP2 SUB SWAP1 LOG2 JUMPDEST POP POP JUMP JUMPDEST PUSH1 0x0 PUSH1 0x2 PUSH1 0x0 DUP4 PUSH20 0xFFFFFFFFFFFFFFFFFFFFFFFFFFFFFFFFFFFFFFFF AND PUSH20 0xFFFFFFFFFFFFFFFFFFFFFFFFFFFFFFFFFFFFFFFF AND DUP2 MSTORE PUSH1 0x20 ADD SWAP1 DUP2 MSTORE PUSH1 0x20 ADD PUSH1 0x0 KECCAK256 SLOAD SWAP1 POP SWAP2 SWAP1 POP JUMP JUMPDEST PUSH2 0xD84 PUSH2 0x1289 JUMP JUMPDEST PUSH20 0xFFFFFFFFFFFFFFFFFFFFFFFFFFFFFFFFFFFFFFFF AND PUSH2 0xDA2 PUSH2 0xE3B JUMP JUMPDEST PUSH20 0xFFFFFFFFFFFFFFFFFFFFFFFFFFFFFFFFFFFFFFFF AND EQ PUSH2 0xDF8 JUMPI PUSH1 0x40 MLOAD PUSH32 0x8C379A000000000000000000000000000000000000000000000000000000000 DUP2 MSTORE PUSH1 0x4 ADD PUSH2 0xDEF SWAP1 PUSH2 0x1B6F JUMP JUMPDEST PUSH1 0x40 MLOAD DUP1 SWAP2 SUB SWAP1 REVERT JUMPDEST PUSH2 0xE02 PUSH1 0x0 PUSH2 0x149D JUMP JUMPDEST JUMP JUMPDEST PUSH1 0x9 SLOAD DUP2 JUMP JUMPDEST PUSH1 0x0 PUSH2 0xE18 TIMESTAMP PUSH1 0x8 SLOAD PUSH2 0x1563 JUMP JUMPDEST SWAP1 POP SWAP1 JUMP JUMPDEST PUSH1 0xC PUSH1 0x20 MSTORE DUP1 PUSH1 0x0 MSTORE PUSH1 0x40 PUSH1 0x0 KECCAK256 PUSH1 0x0 SWAP2 POP SWAP1 POP SLOAD DUP2 JUMP JUMPDEST PUSH1 0x7 SLOAD DUP2 JUMP JUMPDEST PUSH1 0x0 PUSH1 0x3 PUSH1 0x0 SWAP1 SLOAD SWAP1 PUSH2 0x100 EXP SWAP1 DIV PUSH20 0xFFFFFFFFFFFFFFFFFFFFFFFFFFFFFFFFFFFFFFFF AND SWAP1 POP SWAP1 JUMP JUMPDEST CALLER PUSH2 0xE6E PUSH2 0x1032 JUMP JUMPDEST PUSH1 0xB DUP2 SWAP1 SSTORE POP PUSH2 0xE7C PUSH2 0xE0A JUMP JUMPDEST PUSH1 0xA DUP2 SWAP1 SSTORE POP PUSH1 0x0 PUSH20 0xFFFFFFFFFFFFFFFFFFFFFFFFFFFFFFFFFFFFFFFF AND DUP2 PUSH20 0xFFFFFFFFFFFFFFFFFFFFFFFFFFFFFFFFFFFFFFFF AND EQ PUSH2 0xF49 JUMPI PUSH2 0xEBF DUP2 PUSH2 0x467 JUMP JUMPDEST PUSH1 0xD PUSH1 0x0 DUP4 PUSH20 0xFFFFFFFFFFFFFFFFFFFFFFFFFFFFFFFFFFFFFFFF AND PUSH20 0xFFFFFFFFFFFFFFFFFFFFFFFFFFFFFFFFFFFFFFFF AND DUP2 MSTORE PUSH1 0x20 ADD SWAP1 DUP2 MSTORE PUSH1 0x20 ADD PUSH1 0x0 KECCAK256 DUP2 SWAP1 SSTORE POP PUSH1 0xB SLOAD PUSH1 0xC PUSH1 0x0 DUP4 PUSH20 0xFFFFFFFFFFFFFFFFFFFFFFFFFFFFFFFFFFFFFFFF AND PUSH20 0xFFFFFFFFFFFFFFFFFFFFFFFFFFFFFFFFFFFFFFFF AND DUP2 MSTORE PUSH1 0x20 ADD SWAP1 DUP2 MSTORE PUSH1 0x20 ADD PUSH1 0x0 KECCAK256 DUP2 SWAP1 SSTORE POP JUMPDEST PUSH1 0x7 SLOAD TIMESTAMP LT ISZERO PUSH2 0xF8E JUMPI PUSH1 0x40 MLOAD PUSH32 0x8C379A000000000000000000000000000000000000000000000000000000000 DUP2 MSTORE PUSH1 0x4 ADD PUSH2 0xF85 SWAP1 PUSH2 0x1BDB JUMP JUMPDEST PUSH1 0x40 MLOAD DUP1 SWAP2 SUB SWAP1 REVERT JUMPDEST PUSH1 0x0 DUP3 GT PUSH2 0xFD1 JUMPI PUSH1 0x40 MLOAD PUSH32 0x8C379A000000000000000000000000000000000000000000000000000000000 DUP2 MSTORE PUSH1 0x4 ADD PUSH2 0xFC8 SWAP1 PUSH2 0x1D91 JUMP JUMPDEST PUSH1 0x40 MLOAD DUP1 SWAP2 SUB SWAP1 REVERT JUMPDEST PUSH2 0xFDA DUP3 PUSH2 0x157C JUMP JUMPDEST CALLER PUSH20 0xFFFFFFFFFFFFFFFFFFFFFFFFFFFFFFFFFFFFFFFF AND PUSH32 0x9E71BC8EEA02A63969F509818F2DAFB9254532904319F9DBDA79B67BD34A5F3D DUP4 PUSH1 0x40 MLOAD PUSH2 0x1020 SWAP2 SWAP1 PUSH2 0x19FA JUMP JUMPDEST PUSH1 0x40 MLOAD DUP1 SWAP2 SUB SWAP1 LOG2 POP POP JUMP JUMPDEST PUSH1 0xA SLOAD DUP2 JUMP JUMPDEST PUSH1 0x0 DUP1 PUSH2 0x103D PUSH2 0x64C JUMP JUMPDEST SUB PUSH2 0x104C JUMPI PUSH1 0xB SLOAD SWAP1 POP PUSH2 0x10C6 JUMP JUMPDEST PUSH2 0x10C3 PUSH2 0x10B2 PUSH2 0x105A PUSH2 0x64C JUMP JUMPDEST PUSH2 0x10A4 PUSH8 0xDE0B6B3A7640000 PUSH2 0x1096 PUSH1 0x9 SLOAD PUSH2 0x1088 PUSH1 0xA SLOAD PUSH2 0x107A PUSH2 0xE0A JUMP JUMPDEST PUSH2 0x1231 SWAP1 SWAP2 SWAP1 PUSH4 0xFFFFFFFF AND JUMP JUMPDEST PUSH2 0x1247 SWAP1 SWAP2 SWAP1 PUSH4 0xFFFFFFFF AND JUMP JUMPDEST PUSH2 0x1247 SWAP1 SWAP2 SWAP1 PUSH4 0xFFFFFFFF AND JUMP JUMPDEST PUSH2 0x125D SWAP1 SWAP2 SWAP1 PUSH4 0xFFFFFFFF AND JUMP JUMPDEST PUSH1 0xB SLOAD PUSH2 0x1273 SWAP1 SWAP2 SWAP1 PUSH4 0xFFFFFFFF AND JUMP JUMPDEST SWAP1 POP JUMPDEST SWAP1 JUMP JUMPDEST PUSH1 0x0 DUP1 SLOAD SWAP1 PUSH2 0x100 EXP SWAP1 DIV PUSH20 0xFFFFFFFFFFFFFFFFFFFFFFFFFFFFFFFFFFFFFFFF AND DUP2 JUMP JUMPDEST PUSH1 0xB SLOAD DUP2 JUMP JUMPDEST PUSH2 0x1104 PUSH2 0x10FF CALLER PUSH2 0xD33 JUMP JUMPDEST PUSH2 0x65C JUMP JUMPDEST PUSH2 0x110C PUSH2 0xB0F JUMP JUMPDEST JUMP JUMPDEST PUSH1 0x8 SLOAD DUP2 JUMP JUMPDEST PUSH2 0x111C PUSH2 0x1289 JUMP JUMPDEST PUSH20 0xFFFFFFFFFFFFFFFFFFFFFFFFFFFFFFFFFFFFFFFF AND PUSH2 0x113A PUSH2 0xE3B JUMP JUMPDEST PUSH20 0xFFFFFFFFFFFFFFFFFFFFFFFFFFFFFFFFFFFFFFFF AND EQ PUSH2 0x1190 JUMPI PUSH1 0x40 MLOAD PUSH32 0x8C379A000000000000000000000000000000000000000000000000000000000 DUP2 MSTORE PUSH1 0x4 ADD PUSH2 0x1187 SWAP1 PUSH2 0x1B6F JUMP JUMPDEST PUSH1 0x40 MLOAD DUP1 SWAP2 SUB SWAP1 REVERT JUMPDEST PUSH1 0x0 PUSH20 0xFFFFFFFFFFFFFFFFFFFFFFFFFFFFFFFFFFFFFFFF AND DUP2 PUSH20 0xFFFFFFFFFFFFFFFFFFFFFFFFFFFFFFFFFFFFFFFF AND SUB PUSH2 0x11FF JUMPI PUSH1 0x40 MLOAD PUSH32 0x8C379A000000000000000000000000000000000000000000000000000000000 DUP2 MSTORE PUSH1 0x4 ADD PUSH2 0x11F6 SWAP1 PUSH2 0x1E23 JUMP JUMPDEST PUSH1 0x40 MLOAD DUP1 SWAP2 SUB SWAP1 REVERT JUMPDEST PUSH2 0x1208 DUP2 PUSH2 0x149D JUMP JUMPDEST POP JUMP JUMPDEST PUSH1 0x5 PUSH1 0x0 SWAP1 SLOAD SWAP1 PUSH2 0x100 EXP SWAP1 DIV PUSH20 0xFFFFFFFFFFFFFFFFFFFFFFFFFFFFFFFFFFFFFFFF AND DUP2 JUMP JUMPDEST PUSH1 0x0 DUP2 DUP4 PUSH2 0x123F SWAP2 SWAP1 PUSH2 0x1E72 JUMP JUMPDEST SWAP1 POP SWAP3 SWAP2 POP POP JUMP JUMPDEST PUSH1 0x0 DUP2 DUP4 PUSH2 0x1255 SWAP2 SWAP1 PUSH2 0x1EA6 JUMP JUMPDEST SWAP1 POP SWAP3 SWAP2 POP POP JUMP JUMPDEST PUSH1 0x0 DUP2 DUP4 PUSH2 0x126B SWAP2 SWAP1 PUSH2 0x1F17 JUMP JUMPDEST SWAP1 POP SWAP3 SWAP2 POP POP JUMP JUMPDEST PUSH1 0x0 DUP2 DUP4 PUSH2 0x1281 SWAP2 SWAP1 PUSH2 0x1F48 JUMP JUMPDEST SWAP1 POP SWAP3 SWAP2 POP POP JUMP JUMPDEST PUSH1 0x0 CALLER SWAP1 POP SWAP1 JUMP JUMPDEST PUSH1 0x0 PUSH1 0x2 PUSH1 0x0 CALLER PUSH20 0xFFFFFFFFFFFFFFFFFFFFFFFFFFFFFFFFFFFFFFFF AND PUSH20 0xFFFFFFFFFFFFFFFFFFFFFFFFFFFFFFFFFFFFFFFF AND DUP2 MSTORE PUSH1 0x20 ADD SWAP1 DUP2 MSTORE PUSH1 0x20 ADD PUSH1 0x0 KECCAK256 SLOAD SWAP1 POP DUP2 DUP2 LT ISZERO PUSH2 0x1318 JUMPI PUSH1 0x40 MLOAD PUSH32 0x8C379A000000000000000000000000000000000000000000000000000000000 DUP2 MSTORE PUSH1 0x4 ADD PUSH2 0x130F SWAP1 PUSH2 0x1FEE JUMP JUMPDEST PUSH1 0x40 MLOAD DUP1 SWAP2 SUB SWAP1 REVERT JUMPDEST PUSH2 0x132D DUP3 PUSH1 0x1 SLOAD PUSH2 0x1231 SWAP1 SWAP2 SWAP1 PUSH4 0xFFFFFFFF AND JUMP JUMPDEST PUSH1 0x1 DUP2 SWAP1 SSTORE POP PUSH2 0x1385 DUP3 PUSH1 0x2 PUSH1 0x0 CALLER PUSH20 0xFFFFFFFFFFFFFFFFFFFFFFFFFFFFFFFFFFFFFFFF AND PUSH20 0xFFFFFFFFFFFFFFFFFFFFFFFFFFFFFFFFFFFFFFFF AND DUP2 MSTORE PUSH1 0x20 ADD SWAP1 DUP2 MSTORE PUSH1 0x20 ADD PUSH1 0x0 KECCAK256 SLOAD PUSH2 0x1231 SWAP1 SWAP2 SWAP1 PUSH4 0xFFFFFFFF AND JUMP JUMPDEST PUSH1 0x2 PUSH1 0x0 CALLER PUSH20 0xFFFFFFFFFFFFFFFFFFFFFFFFFFFFFFFFFFFFFFFF AND PUSH20 0xFFFFFFFFFFFFFFFFFFFFFFFFFFFFFFFFFFFFFFFF AND DUP2 MSTORE PUSH1 0x20 ADD SWAP1 DUP2 MSTORE PUSH1 0x20 ADD PUSH1 0x0 KECCAK256 DUP2 SWAP1 SSTORE POP PUSH2 0x1413 CALLER DUP4 PUSH1 0x0 DUP1 SLOAD SWAP1 PUSH2 0x100 EXP SWAP1 DIV PUSH20 0xFFFFFFFFFFFFFFFFFFFFFFFFFFFFFFFFFFFFFFFF AND PUSH20 0xFFFFFFFFFFFFFFFFFFFFFFFFFFFFFFFFFFFFFFFF AND PUSH2 0x1417 SWAP1 SWAP3 SWAP2 SWAP1 PUSH4 0xFFFFFFFF AND JUMP JUMPDEST POP POP JUMP JUMPDEST PUSH2 0x1498 DUP4 PUSH4 0xA9059CBB PUSH1 0xE0 SHL DUP5 DUP5 PUSH1 0x40 MLOAD PUSH1 0x24 ADD PUSH2 0x1436 SWAP3 SWAP2 SWAP1 PUSH2 0x200E JUMP JUMPDEST PUSH1 0x40 MLOAD PUSH1 0x20 DUP2 DUP4 SUB SUB DUP2 MSTORE SWAP1 PUSH1 0x40 MSTORE SWAP1 PUSH28 0xFFFFFFFFFFFFFFFFFFFFFFFFFFFFFFFFFFFFFFFFFFFFFFFFFFFFFFFF NOT AND PUSH1 0x20 DUP3 ADD DUP1 MLOAD PUSH28 0xFFFFFFFFFFFFFFFFFFFFFFFFFFFFFFFFFFFFFFFFFFFFFFFFFFFFFFFF DUP4 DUP2 DUP4 AND OR DUP4 MSTORE POP POP POP POP PUSH2 0x167C JUMP JUMPDEST POP POP POP JUMP JUMPDEST PUSH1 0x0 PUSH1 0x3 PUSH1 0x0 SWAP1 SLOAD SWAP1 PUSH2 0x100 EXP SWAP1 DIV PUSH20 0xFFFFFFFFFFFFFFFFFFFFFFFFFFFFFFFFFFFFFFFF AND SWAP1 POP DUP2 PUSH1 0x3 PUSH1 0x0 PUSH2 0x100 EXP DUP2 SLOAD DUP2 PUSH20 0xFFFFFFFFFFFFFFFFFFFFFFFFFFFFFFFFFFFFFFFF MUL NOT AND SWAP1 DUP4 PUSH20 0xFFFFFFFFFFFFFFFFFFFFFFFFFFFFFFFFFFFFFFFF AND MUL OR SWAP1 SSTORE POP DUP2 PUSH20 0xFFFFFFFFFFFFFFFFFFFFFFFFFFFFFFFFFFFFFFFF AND DUP2 PUSH20 0xFFFFFFFFFFFFFFFFFFFFFFFFFFFFFFFFFFFFFFFF AND PUSH32 0x8BE0079C531659141344CD1FD0A4F28419497F9722A3DAAFE3B4186F6B6457E0 PUSH1 0x40 MLOAD PUSH1 0x40 MLOAD DUP1 SWAP2 SUB SWAP1 LOG3 POP POP JUMP JUMPDEST PUSH1 0x0 DUP2 DUP4 LT PUSH2 0x1572 JUMPI DUP2 PUSH2 0x1574 JUMP JUMPDEST DUP3 JUMPDEST SWAP1 POP SWAP3 SWAP2 POP POP JUMP JUMPDEST PUSH2 0x1591 DUP2 PUSH1 0x1 SLOAD PUSH2 0x1273 SWAP1 SWAP2 SWAP1 PUSH4 0xFFFFFFFF AND JUMP JUMPDEST PUSH1 0x1 DUP2 SWAP1 SSTORE POP PUSH2 0x15E9 DUP2 PUSH1 0x2 PUSH1 0x0 CALLER PUSH20 0xFFFFFFFFFFFFFFFFFFFFFFFFFFFFFFFFFFFFFFFF AND PUSH20 0xFFFFFFFFFFFFFFFFFFFFFFFFFFFFFFFFFFFFFFFF AND DUP2 MSTORE PUSH1 0x20 ADD SWAP1 DUP2 MSTORE PUSH1 0x20 ADD PUSH1 0x0 KECCAK256 SLOAD PUSH2 0x1273 SWAP1 SWAP2 SWAP1 PUSH4 0xFFFFFFFF AND JUMP JUMPDEST PUSH1 0x2 PUSH1 0x0 CALLER PUSH20 0xFFFFFFFFFFFFFFFFFFFFFFFFFFFFFFFFFFFFFFFF AND PUSH20 0xFFFFFFFFFFFFFFFFFFFFFFFFFFFFFFFFFFFFFFFF AND DUP2 MSTORE PUSH1 0x20 ADD SWAP1 DUP2 MSTORE PUSH1 0x20 ADD PUSH1 0x0 KECCAK256 DUP2 SWAP1 SSTORE POP PUSH2 0x1679 CALLER ADDRESS DUP4 PUSH1 0x0 DUP1 SLOAD SWAP1 PUSH2 0x100 EXP SWAP1 DIV PUSH20 0xFFFFFFFFFFFFFFFFFFFFFFFFFFFFFFFFFFFFFFFF AND PUSH20 0xFFFFFFFFFFFFFFFFFFFFFFFFFFFFFFFFFFFFFFFF AND PUSH2 0x1743 SWAP1 SWAP4 SWAP3 SWAP2 SWAP1 PUSH4 0xFFFFFFFF AND JUMP JUMPDEST POP JUMP JUMPDEST PUSH1 0x0 PUSH2 0x16DE DUP3 PUSH1 0x40 MLOAD DUP1 PUSH1 0x40 ADD PUSH1 0x40 MSTORE DUP1 PUSH1 0x20 DUP2 MSTORE PUSH1 0x20 ADD PUSH32 0x5361666542455032303A206C6F772D6C6576656C2063616C6C206661696C6564 DUP2 MSTORE POP DUP6 PUSH20 0xFFFFFFFFFFFFFFFFFFFFFFFFFFFFFFFFFFFFFFFF AND PUSH2 0x17CC SWAP1 SWAP3 SWAP2 SWAP1 PUSH4 0xFFFFFFFF AND JUMP JUMPDEST SWAP1 POP PUSH1 0x0 DUP2 MLOAD GT ISZERO PUSH2 0x173E JUMPI DUP1 DUP1 PUSH1 0x20 ADD SWAP1 MLOAD DUP2 ADD SWAP1 PUSH2 0x16FE SWAP2 SWAP1 PUSH2 0x206F JUMP JUMPDEST PUSH2 0x173D JUMPI PUSH1 0x40 MLOAD PUSH32 0x8C379A000000000000000000000000000000000000000000000000000000000 DUP2 MSTORE PUSH1 0x4 ADD PUSH2 0x1734 SWAP1 PUSH2 0x210E JUMP JUMPDEST PUSH1 0x40 MLOAD DUP1 SWAP2 SUB SWAP1 REVERT JUMPDEST JUMPDEST POP POP POP JUMP JUMPDEST PUSH2 0x17C6 DUP5 PUSH4 0x23B872DD PUSH1 0xE0 SHL DUP6 DUP6 DUP6 PUSH1 0x40 MLOAD PUSH1 0x24 ADD PUSH2 0x1764 SWAP4 SWAP3 SWAP2 SWAP1 PUSH2 0x212E JUMP JUMPDEST PUSH1 0x40 MLOAD PUSH1 0x20 DUP2 DUP4 SUB SUB DUP2 MSTORE SWAP1 PUSH1 0x40 MSTORE SWAP1 PUSH28 0xFFFFFFFFFFFFFFFFFFFFFFFFFFFFFFFFFFFFFFFFFFFFFFFFFFFFFFFF NOT AND PUSH1 0x20 DUP3 ADD DUP1 MLOAD PUSH28 0xFFFFFFFFFFFFFFFFFFFFFFFFFFFFFFFFFFFFFFFFFFFFFFFFFFFFFFFF DUP4 DUP2 DUP4 AND OR DUP4 MSTORE POP POP POP POP PUSH2 0x167C JUMP JUMPDEST POP POP POP POP JUMP JUMPDEST PUSH1 0x60 PUSH2 0x17DB DUP5 DUP5 PUSH1 0x0 DUP6 PUSH2 0x17E4 JUMP JUMPDEST SWAP1 POP SWAP4 SWAP3 POP POP POP JUMP JUMPDEST PUSH1 0x60 PUSH2 0x17EF DUP6 PUSH2 0x1906 JUMP JUMPDEST PUSH2 0x182E JUMPI PUSH1 0x40 MLOAD PUSH32 0x8C379A000000000000000000000000000000000000000000000000000000000 DUP2 MSTORE PUSH1 0x4 ADD PUSH2 0x1825 SWAP1 PUSH2 0x21B1 JUMP JUMPDEST PUSH1 0x40 MLOAD DUP1 SWAP2 SUB SWAP1 REVERT JUMPDEST PUSH1 0x0 DUP1 DUP7 PUSH20 0xFFFFFFFFFFFFFFFFFFFFFFFFFFFFFFFFFFFFFFFF AND DUP6 DUP8 PUSH1 0x40 MLOAD PUSH2 0x1857 SWAP2 SWAP1 PUSH2 0x2242 JUMP JUMPDEST PUSH1 0x0 PUSH1 0x40 MLOAD DUP1 DUP4 SUB DUP2 DUP6 DUP8 GAS CALL SWAP3 POP POP POP RETURNDATASIZE DUP1 PUSH1 0x0 DUP2 EQ PUSH2 0x1894 JUMPI PUSH1 0x40 MLOAD SWAP2 POP PUSH1 0x1F NOT PUSH1 0x3F RETURNDATASIZE ADD AND DUP3 ADD PUSH1 0x40 MSTORE RETURNDATASIZE DUP3 MSTORE RETURNDATASIZE PUSH1 0x0 PUSH1 0x20 DUP5 ADD RETURNDATACOPY PUSH2 0x1899 JUMP JUMPDEST PUSH1 0x60 SWAP2 POP JUMPDEST POP SWAP2 POP SWAP2 POP DUP2 ISZERO PUSH2 0x18AE JUMPI DUP1 SWAP3 POP POP POP PUSH2 0x18FE JUMP JUMPDEST PUSH1 0x0 DUP2 MLOAD GT ISZERO PUSH2 0x18C1 JUMPI DUP1 MLOAD DUP1 DUP3 PUSH1 0x20 ADD REVERT JUMPDEST DUP4 PUSH1 0x40 MLOAD PUSH32 0x8C379A000000000000000000000000000000000000000000000000000000000 DUP2 MSTORE PUSH1 0x4 ADD PUSH2 0x18F5 SWAP2 SWAP1 PUSH2 0x22AE JUMP JUMPDEST PUSH1 0x40 MLOAD DUP1 SWAP2 SUB SWAP1 REVERT JUMPDEST SWAP5 SWAP4 POP POP POP POP JUMP JUMPDEST PUSH1 0x0 DUP1 PUSH1 0x0 PUSH32 0xC5D2460186F7233C927E7DB2DCC703C0E500B653CA82273B7BFAD8045D85A470 PUSH1 0x0 SHL SWAP1 POP DUP4 EXTCODEHASH SWAP2 POP DUP1 DUP3 EQ ISZERO DUP1 ISZERO PUSH2 0x1948 JUMPI POP PUSH1 0x0 DUP1 SHL DUP3 EQ ISZERO JUMPDEST SWAP3 POP POP POP SWAP2 SWAP1 POP JUMP JUMPDEST PUSH1 0x0 DUP1 REVERT JUMPDEST PUSH1 0x0 PUSH20 0xFFFFFFFFFFFFFFFFFFFFFFFFFFFFFFFFFFFFFFFF DUP3 AND SWAP1 POP SWAP2 SWAP1 POP JUMP JUMPDEST PUSH1 0x0 PUSH2 0x1981 DUP3 PUSH2 0x1956 JUMP JUMPDEST SWAP1 POP SWAP2 SWAP1 POP JUMP JUMPDEST PUSH2 0x1991 DUP2 PUSH2 0x1976 JUMP JUMPDEST DUP2 EQ PUSH2 0x199C JUMPI PUSH1 0x0 DUP1 REVERT JUMPDEST POP JUMP JUMPDEST PUSH1 0x0 DUP2 CALLDATALOAD SWAP1 POP PUSH2 0x19AE DUP2 PUSH2 0x1988 JUMP JUMPDEST SWAP3 SWAP2 POP POP JUMP JUMPDEST PUSH1 0x0 PUSH1 0x20 DUP3 DUP5 SUB SLT ISZERO PUSH2 0x19CA JUMPI PUSH2 0x19C9 PUSH2 0x1951 JUMP JUMPDEST JUMPDEST PUSH1 0x0 PUSH2 0x19D8 DUP5 DUP3 DUP6 ADD PUSH2 0x199F JUMP JUMPDEST SWAP2 POP POP SWAP3 SWAP2 POP POP JUMP JUMPDEST PUSH1 0x0 DUP2 SWAP1 POP SWAP2 SWAP1 POP JUMP JUMPDEST PUSH2 0x19F4 DUP2 PUSH2 0x19E1 JUMP JUMPDEST DUP3 MSTORE POP POP JUMP JUMPDEST PUSH1 0x0 PUSH1 0x20 DUP3 ADD SWAP1 POP PUSH2 0x1A0F PUSH1 0x0 DUP4 ADD DUP5 PUSH2 0x19EB JUMP JUMPDEST SWAP3 SWAP2 POP POP JUMP JUMPDEST PUSH2 0x1A1E DUP2 PUSH2 0x1976 JUMP JUMPDEST DUP3 MSTORE POP POP JUMP JUMPDEST PUSH1 0x0 PUSH1 0x20 DUP3 ADD SWAP1 POP PUSH2 0x1A39 PUSH1 0x0 DUP4 ADD DUP5 PUSH2 0x1A15 JUMP JUMPDEST SWAP3 SWAP2 POP POP JUMP JUMPDEST PUSH2 0x1A48 DUP2 PUSH2 0x19E1 JUMP JUMPDEST DUP2 EQ PUSH2 0x1A53 JUMPI PUSH1 0x0 DUP1 REVERT JUMPDEST POP JUMP JUMPDEST PUSH1 0x0 DUP2 CALLDATALOAD SWAP1 POP PUSH2 0x1A65 DUP2 PUSH2 0x1A3F JUMP JUMPDEST SWAP3 SWAP2 POP POP JUMP JUMPDEST PUSH1 0x0 PUSH1 0x20 DUP3 DUP5 SUB SLT ISZERO PUSH2 0x1A81 JUMPI PUSH2 0x1A80 PUSH2 0x1951 JUMP JUMPDEST JUMPDEST PUSH1 0x0 PUSH2 0x1A8F DUP5 DUP3 DUP6 ADD PUSH2 0x1A56 JUMP JUMPDEST SWAP2 POP POP SWAP3 SWAP2 POP POP JUMP JUMPDEST PUSH1 0x0 DUP2 SWAP1 POP SWAP2 SWAP1 POP JUMP JUMPDEST PUSH1 0x0 PUSH2 0x1ABD PUSH2 0x1AB8 PUSH2 0x1AB3 DUP5 PUSH2 0x1956 JUMP JUMPDEST PUSH2 0x1A98 JUMP JUMPDEST PUSH2 0x1956 JUMP JUMPDEST SWAP1 POP SWAP2 SWAP1 POP JUMP JUMPDEST PUSH1 0x0 PUSH2 0x1ACF DUP3 PUSH2 0x1AA2 JUMP JUMPDEST SWAP1 POP SWAP2 SWAP1 POP JUMP JUMPDEST PUSH1 0x0 PUSH2 0x1AE1 DUP3 PUSH2 0x1AC4 JUMP JUMPDEST SWAP1 POP SWAP2 SWAP1 POP JUMP JUMPDEST PUSH2 0x1AF1 DUP2 PUSH2 0x1AD6 JUMP JUMPDEST DUP3 MSTORE POP POP JUMP JUMPDEST PUSH1 0x0 PUSH1 0x20 DUP3 ADD SWAP1 POP PUSH2 0x1B0C PUSH1 0x0 DUP4 ADD DUP5 PUSH2 0x1AE8 JUMP JUMPDEST SWAP3 SWAP2 POP POP JUMP JUMPDEST PUSH1 0x0 DUP3 DUP3 MSTORE PUSH1 0x20 DUP3 ADD SWAP1 POP SWAP3 SWAP2 POP POP JUMP JUMPDEST PUSH32 0x4F776E61626C653A2063616C6C6572206973206E6F7420746865206F776E6572 PUSH1 0x0 DUP3 ADD MSTORE POP JUMP JUMPDEST PUSH1 0x0 PUSH2 0x1B59 PUSH1 0x20 DUP4 PUSH2 0x1B12 JUMP JUMPDEST SWAP2 POP PUSH2 0x1B64 DUP3 PUSH2 0x1B23 JUMP JUMPDEST PUSH1 0x20 DUP3 ADD SWAP1 POP SWAP2 SWAP1 POP JUMP JUMPDEST PUSH1 0x0 PUSH1 0x20 DUP3 ADD SWAP1 POP DUP2 DUP2 SUB PUSH1 0x0 DUP4 ADD MSTORE PUSH2 0x1B88 DUP2 PUSH2 0x1B4C JUMP JUMPDEST SWAP1 POP SWAP2 SWAP1 POP JUMP JUMPDEST PUSH32 0x4C50546F6B656E5368617265506F6F6C3A206E6F742073746172740000000000 PUSH1 0x0 DUP3 ADD MSTORE POP JUMP JUMPDEST PUSH1 0x0 PUSH2 0x1BC5 PUSH1 0x1B DUP4 PUSH2 0x1B12 JUMP JUMPDEST SWAP2 POP PUSH2 0x1BD0 DUP3 PUSH2 0x1B8F JUMP JUMPDEST PUSH1 0x20 DUP3 ADD SWAP1 POP SWAP2 SWAP1 POP JUMP JUMPDEST PUSH1 0x0 PUSH1 0x20 DUP3 ADD SWAP1 POP DUP2 DUP2 SUB PUSH1 0x0 DUP4 ADD MSTORE PUSH2 0x1BF4 DUP2 PUSH2 0x1BB8 JUMP JUMPDEST SWAP1 POP SWAP2 SWAP1 POP JUMP JUMPDEST PUSH32 0x48555344474F434C50546F6B656E5368617265506F6F6C3A2043616E6E6F7420 PUSH1 0x0 DUP3 ADD MSTORE PUSH32 0x7769746864726177203000000000000000000000000000000000000000000000 PUSH1 0x20 DUP3 ADD MSTORE POP JUMP JUMPDEST PUSH1 0x0 PUSH2 0x1C57 PUSH1 0x2A DUP4 PUSH2 0x1B12 JUMP JUMPDEST SWAP2 POP PUSH2 0x1C62 DUP3 PUSH2 0x1BFB JUMP JUMPDEST PUSH1 0x40 DUP3 ADD SWAP1 POP SWAP2 SWAP1 POP JUMP JUMPDEST PUSH1 0x0 PUSH1 0x20 DUP3 ADD SWAP1 POP DUP2 DUP2 SUB PUSH1 0x0 DUP4 ADD MSTORE PUSH2 0x1C86 DUP2 PUSH2 0x1C4A JUMP JUMPDEST SWAP1 POP SWAP2 SWAP1 POP JUMP JUMPDEST PUSH32 0x43616C6C6572206973206E6F742072657761726420646973747269627574696F PUSH1 0x0 DUP3 ADD MSTORE PUSH32 0x6E00000000000000000000000000000000000000000000000000000000000000 PUSH1 0x20 DUP3 ADD MSTORE POP JUMP JUMPDEST PUSH1 0x0 PUSH2 0x1CE9 PUSH1 0x21 DUP4 PUSH2 0x1B12 JUMP JUMPDEST SWAP2 POP PUSH2 0x1CF4 DUP3 PUSH2 0x1C8D JUMP JUMPDEST PUSH1 0x40 DUP3 ADD SWAP1 POP SWAP2 SWAP1 POP JUMP JUMPDEST PUSH1 0x0 PUSH1 0x20 DUP3 ADD SWAP1 POP DUP2 DUP2 SUB PUSH1 0x0 DUP4 ADD MSTORE PUSH2 0x1D18 DUP2 PUSH2 0x1CDC JUMP JUMPDEST SWAP1 POP SWAP2 SWAP1 POP JUMP JUMPDEST PUSH32 0x48555344474F434C50546F6B656E5368617265506F6F6C3A2043616E6E6F7420 PUSH1 0x0 DUP3 ADD MSTORE PUSH32 0x7374616B65203000000000000000000000000000000000000000000000000000 PUSH1 0x20 DUP3 ADD MSTORE POP JUMP JUMPDEST PUSH1 0x0 PUSH2 0x1D7B PUSH1 0x27 DUP4 PUSH2 0x1B12 JUMP JUMPDEST SWAP2 POP PUSH2 0x1D86 DUP3 PUSH2 0x1D1F JUMP JUMPDEST PUSH1 0x40 DUP3 ADD SWAP1 POP SWAP2 SWAP1 POP JUMP JUMPDEST PUSH1 0x0 PUSH1 0x20 DUP3 ADD SWAP1 POP DUP2 DUP2 SUB PUSH1 0x0 DUP4 ADD MSTORE PUSH2 0x1DAA DUP2 PUSH2 0x1D6E JUMP JUMPDEST SWAP1 POP SWAP2 SWAP1 POP JUMP JUMPDEST PUSH32 0x4F776E61626C653A206E6577206F776E657220697320746865207A65726F2061 PUSH1 0x0 DUP3 ADD MSTORE PUSH32 0x6464726573730000000000000000000000000000000000000000000000000000 PUSH1 0x20 DUP3 ADD MSTORE POP JUMP JUMPDEST PUSH1 0x0 PUSH2 0x1E0D PUSH1 0x26 DUP4 PUSH2 0x1B12 JUMP JUMPDEST SWAP2 POP PUSH2 0x1E18 DUP3 PUSH2 0x1DB1 JUMP JUMPDEST PUSH1 0x40 DUP3 ADD SWAP1 POP SWAP2 SWAP1 POP JUMP JUMPDEST PUSH1 0x0 PUSH1 0x20 DUP3 ADD SWAP1 POP DUP2 DUP2 SUB PUSH1 0x0 DUP4 ADD MSTORE PUSH2 0x1E3C DUP2 PUSH2 0x1E00 JUMP JUMPDEST SWAP1 POP SWAP2 SWAP1 POP JUMP JUMPDEST PUSH32 0x4E487B7100000000000000000000000000000000000000000000000000000000 PUSH1 0x0 MSTORE PUSH1 0x11 PUSH1 0x4 MSTORE PUSH1 0x24 PUSH1 0x0 REVERT JUMPDEST PUSH1 0x0 PUSH2 0x1E7D DUP3 PUSH2 0x19E1 JUMP JUMPDEST SWAP2 POP PUSH2 0x1E88 DUP4 PUSH2 0x19E1 JUMP JUMPDEST SWAP3 POP DUP3 DUP3 SUB SWAP1 POP DUP2 DUP2 GT ISZERO PUSH2 0x1EA0 JUMPI PUSH2 0x1E9F PUSH2 0x1E43 JUMP JUMPDEST JUMPDEST SWAP3 SWAP2 POP POP JUMP JUMPDEST PUSH1 0x0 PUSH2 0x1EB1 DUP3 PUSH2 0x19E1 JUMP JUMPDEST SWAP2 POP PUSH2 0x1EBC DUP4 PUSH2 0x19E1 JUMP JUMPDEST SWAP3 POP DUP3 DUP3 MUL PUSH2 0x1ECA DUP2 PUSH2 0x19E1 JUMP JUMPDEST SWAP2 POP DUP3 DUP3 DIV DUP5 EQ DUP4 ISZERO OR PUSH2 0x1EE1 JUMPI PUSH2 0x1EE0 PUSH2 0x1E43 JUMP JUMPDEST JUMPDEST POP SWAP3 SWAP2 POP POP JUMP JUMPDEST PUSH32 0x4E487B7100000000000000000000000000000000000000000000000000000000 PUSH1 0x0 MSTORE PUSH1 0x12 PUSH1 0x4 MSTORE PUSH1 0x24 PUSH1 0x0 REVERT JUMPDEST PUSH1 0x0 PUSH2 0x1F22 DUP3 PUSH2 0x19E1 JUMP JUMPDEST SWAP2 POP PUSH2 0x1F2D DUP4 PUSH2 0x19E1 JUMP JUMPDEST SWAP3 POP DUP3 PUSH2 0x1F3D JUMPI PUSH2 0x1F3C PUSH2 0x1EE8 JUMP JUMPDEST JUMPDEST DUP3 DUP3 DIV SWAP1 POP SWAP3 SWAP2 POP POP JUMP JUMPDEST PUSH1 0x0 PUSH2 0x1F53 DUP3 PUSH2 0x19E1 JUMP JUMPDEST SWAP2 POP PUSH2 0x1F5E DUP4 PUSH2 0x19E1 JUMP JUMPDEST SWAP3 POP DUP3 DUP3 ADD SWAP1 POP DUP1 DUP3 GT ISZERO PUSH2 0x1F76 JUMPI PUSH2 0x1F75 PUSH2 0x1E43 JUMP JUMPDEST JUMPDEST SWAP3 SWAP2 POP POP JUMP JUMPDEST PUSH32 0x776974686472617720726571756573742067726561746572207468616E207374 PUSH1 0x0 DUP3 ADD MSTORE PUSH32 0x616B656420616D6F756E74000000000000000000000000000000000000000000 PUSH1 0x20 DUP3 ADD MSTORE POP JUMP JUMPDEST PUSH1 0x0 PUSH2 0x1FD8 PUSH1 0x2B DUP4 PUSH2 0x1B12 JUMP JUMPDEST SWAP2 POP PUSH2 0x1FE3 DUP3 PUSH2 0x1F7C JUMP JUMPDEST PUSH1 0x40 DUP3 ADD SWAP1 POP SWAP2 SWAP1 POP JUMP JUMPDEST PUSH1 0x0 PUSH1 0x20 DUP3 ADD SWAP1 POP DUP2 DUP2 SUB PUSH1 0x0 DUP4 ADD MSTORE PUSH2 0x2007 DUP2 PUSH2 0x1FCB JUMP JUMPDEST SWAP1 POP SWAP2 SWAP1 POP JUMP JUMPDEST PUSH1 0x0 PUSH1 0x40 DUP3 ADD SWAP1 POP PUSH2 0x2023 PUSH1 0x0 DUP4 ADD DUP6 PUSH2 0x1A15 JUMP JUMPDEST PUSH2 0x2030 PUSH1 0x20 DUP4 ADD DUP5 PUSH2 0x19EB JUMP JUMPDEST SWAP4 SWAP3 POP POP POP JUMP JUMPDEST PUSH1 0x0 DUP2 ISZERO ISZERO SWAP1 POP SWAP2 SWAP1 POP JUMP JUMPDEST PUSH2 0x204C DUP2 PUSH2 0x2037 JUMP JUMPDEST DUP2 EQ PUSH2 0x2057 JUMPI PUSH1 0x0 DUP1 REVERT JUMPDEST POP JUMP JUMPDEST PUSH1 0x0 DUP2 MLOAD SWAP1 POP PUSH2 0x2069 DUP2 PUSH2 0x2043 JUMP JUMPDEST SWAP3 SWAP2 POP POP JUMP JUMPDEST PUSH1 0x0 PUSH1 0x20 DUP3 DUP5 SUB SLT ISZERO PUSH2 0x2085 JUMPI PUSH2 0x2084 PUSH2 0x1951 JUMP JUMPDEST JUMPDEST PUSH1 0x0 PUSH2 0x2093 DUP5 DUP3 DUP6 ADD PUSH2 0x205A JUMP JUMPDEST SWAP2 POP POP SWAP3 SWAP2 POP POP JUMP JUMPDEST PUSH32 0x5361666542455032303A204245503230206F7065726174696F6E20646964206E PUSH1 0x0 DUP3 ADD MSTORE PUSH32 0x6F74207375636365656400000000000000000000000000000000000000000000 PUSH1 0x20 DUP3 ADD MSTORE POP JUMP JUMPDEST PUSH1 0x0 PUSH2 0x20F8 PUSH1 0x2A DUP4 PUSH2 0x1B12 JUMP JUMPDEST SWAP2 POP PUSH2 0x2103 DUP3 PUSH2 0x209C JUMP JUMPDEST PUSH1 0x40 DUP3 ADD SWAP1 POP SWAP2 SWAP1 POP JUMP JUMPDEST PUSH1 0x0 PUSH1 0x20 DUP3 ADD SWAP1 POP DUP2 DUP2 SUB PUSH1 0x0 DUP4 ADD MSTORE PUSH2 0x2127 DUP2 PUSH2 0x20EB JUMP JUMPDEST SWAP1 POP SWAP2 SWAP1 POP JUMP JUMPDEST PUSH1 0x0 PUSH1 0x60 DUP3 ADD SWAP1 POP PUSH2 0x2143 PUSH1 0x0 DUP4 ADD DUP7 PUSH2 0x1A15 JUMP JUMPDEST PUSH2 0x2150 PUSH1 0x20 DUP4 ADD DUP6 PUSH2 0x1A15 JUMP JUMPDEST PUSH2 0x215D PUSH1 0x40 DUP4 ADD DUP5 PUSH2 0x19EB JUMP JUMPDEST SWAP5 SWAP4 POP POP POP POP JUMP JUMPDEST PUSH32 0x416464726573733A2063616C6C20746F206E6F6E2D636F6E7472616374000000 PUSH1 0x0 DUP3 ADD MSTORE POP JUMP JUMPDEST PUSH1 0x0 PUSH2 0x219B PUSH1 0x1D DUP4 PUSH2 0x1B12 JUMP JUMPDEST SWAP2 POP PUSH2 0x21A6 DUP3 PUSH2 0x2165 JUMP JUMPDEST PUSH1 0x20 DUP3 ADD SWAP1 POP SWAP2 SWAP1 POP JUMP JUMPDEST PUSH1 0x0 PUSH1 0x20 DUP3 ADD SWAP1 POP DUP2 DUP2 SUB PUSH1 0x0 DUP4 ADD MSTORE PUSH2 0x21CA DUP2 PUSH2 0x218E JUMP JUMPDEST SWAP1 POP SWAP2 SWAP1 POP JUMP JUMPDEST PUSH1 0x0 DUP2 MLOAD SWAP1 POP SWAP2 SWAP1 POP JUMP JUMPDEST PUSH1 0x0 DUP2 SWAP1 POP SWAP3 SWAP2 POP POP JUMP JUMPDEST PUSH1 0x0 JUMPDEST DUP4 DUP2 LT ISZERO PUSH2 0x2205 JUMPI DUP1 DUP3 ADD MLOAD DUP2 DUP5 ADD MSTORE PUSH1 0x20 DUP2 ADD SWAP1 POP PUSH2 0x21EA JUMP JUMPDEST PUSH1 0x0 DUP5 DUP5 ADD MSTORE POP POP POP POP JUMP JUMPDEST PUSH1 0x0 PUSH2 0x221C DUP3 PUSH2 0x21D1 JUMP JUMPDEST PUSH2 0x2226 DUP2 DUP6 PUSH2 0x21DC JUMP JUMPDEST SWAP4 POP PUSH2 0x2236 DUP2 DUP6 PUSH1 0x20 DUP7 ADD PUSH2 0x21E7 JUMP JUMPDEST DUP1 DUP5 ADD SWAP2 POP POP SWAP3 SWAP2 POP POP JUMP JUMPDEST PUSH1 0x0 PUSH2 0x224E DUP3 DUP5 PUSH2 0x2211 JUMP JUMPDEST SWAP2 POP DUP2 SWAP1 POP SWAP3 SWAP2 POP POP JUMP JUMPDEST PUSH1 0x0 DUP2 MLOAD SWAP1 POP SWAP2 SWAP1 POP JUMP JUMPDEST PUSH1 0x0 PUSH1 0x1F NOT PUSH1 0x1F DUP4 ADD AND SWAP1 POP SWAP2 SWAP1 POP JUMP JUMPDEST PUSH1 0x0 PUSH2 0x2280 DUP3 PUSH2 0x2259 JUMP JUMPDEST PUSH2 0x228A DUP2 DUP6 PUSH2 0x1B12 JUMP JUMPDEST SWAP4 POP PUSH2 0x229A DUP2 DUP6 PUSH1 0x20 DUP7 ADD PUSH2 0x21E7 JUMP JUMPDEST PUSH2 0x22A3 DUP2 PUSH2 0x2264 JUMP JUMPDEST DUP5 ADD SWAP2 POP POP SWAP3 SWAP2 POP POP JUMP JUMPDEST PUSH1 0x0 PUSH1 0x20 DUP3 ADD SWAP1 POP DUP2 DUP2 SUB PUSH1 0x0 DUP4 ADD MSTORE PUSH2 0x22C8 DUP2 DUP5 PUSH2 0x2275 JUMP JUMPDEST SWAP1 POP SWAP3 SWAP2 POP POP JUMP INVALID LOG2 PUSH5 0x6970667358 0x22 SLT KECCAK256 BLOCKHASH PUSH6 0x3492E23CE01A SWAP12 0xDB 0xD8 DUP1 CODECOPY GT DUP10 BASEFEE 0xA6 DUP16 PUSH26 0xDB8E000106948DF803FA9FBB0864736F6C634300081300330000 "
				},
				"gasEstimates": {
					"creation": {
						"codeDepositCost": "1793200",
						"executionCost": "infinite",
						"totalCost": "infinite"
					},
					"external": {
						"DURATION()": "2563",
						"balanceOf(address)": "2930",
						"earned(address)": "infinite",
						"exit()": "infinite",
						"getReward()": "infinite",
						"lastTimeRewardApplicable()": "2541",
						"lastUpdateTime()": "2562",
						"lpt()": "infinite",
						"notifyRewardAmount(uint256)": "infinite",
						"owner()": "2611",
						"periodFinish()": "2495",
						"renounceOwnership()": "30485",
						"rewardDistribution()": "2604",
						"rewardPerToken()": "infinite",
						"rewardPerTokenStored()": "2518",
						"rewardRate()": "2562",
						"rewards(address)": "2860",
						"setRewardDistribution(address)": "27030",
						"stake(uint256)": "infinite",
						"starttime()": "2496",
						"token()": "infinite",
						"totalSupply()": "2549",
						"transferOwnership(address)": "30808",
						"userRewardPerTokenPaid(address)": "2859",
						"withdraw(uint256)": "infinite"
					}
				},
				"methodIdentifiers": {
					"DURATION()": "1be05289",
					"balanceOf(address)": "70a08231",
					"earned(address)": "008cc262",
					"exit()": "e9fad8ee",
					"getReward()": "3d18b912",
					"lastTimeRewardApplicable()": "80faa57d",
					"lastUpdateTime()": "c8f33c91",
					"lpt()": "ce5fc8d0",
					"notifyRewardAmount(uint256)": "3c6b16ab",
					"owner()": "8da5cb5b",
					"periodFinish()": "ebe2b12b",
					"renounceOwnership()": "715018a6",
					"rewardDistribution()": "101114cf",
					"rewardPerToken()": "cd3daf9d",
					"rewardPerTokenStored()": "df136d65",
					"rewardRate()": "7b0a47ee",
					"rewards(address)": "0700037d",
					"setRewardDistribution(address)": "0d68b761",
					"stake(uint256)": "a694fc3a",
					"starttime()": "8da58897",
					"token()": "fc0c546a",
					"totalSupply()": "18160ddd",
					"transferOwnership(address)": "f2fde38b",
					"userRewardPerTokenPaid(address)": "8b876347",
					"withdraw(uint256)": "2e1a7d4d"
				}
			},
			"storageLayout": {
				"storage": [
					{
						"astId": 50,
						"contract": "task1/AMM.sol:LPTokenPool",
						"label": "lpt",
						"offset": 0,
						"slot": "0",
						"type": "t_contract(IBEP20)1267"
					},
					{
						"astId": 53,
						"contract": "task1/AMM.sol:LPTokenPool",
						"label": "_totalSupply",
						"offset": 0,
						"slot": "1",
						"type": "t_uint256"
					},
					{
						"astId": 58,
						"contract": "task1/AMM.sol:LPTokenPool",
						"label": "_balances",
						"offset": 0,
						"slot": "2",
						"type": "t_mapping(t_address,t_uint256)"
					},
					{
						"astId": 2088,
						"contract": "task1/AMM.sol:LPTokenPool",
						"label": "_owner",
						"offset": 0,
						"slot": "3",
						"type": "t_address"
					},
					{
						"astId": 8,
						"contract": "task1/AMM.sol:LPTokenPool",
						"label": "rewardDistribution",
						"offset": 0,
						"slot": "4",
						"type": "t_address"
					},
					{
						"astId": 184,
						"contract": "task1/AMM.sol:LPTokenPool",
						"label": "token",
						"offset": 0,
						"slot": "5",
						"type": "t_contract(IBEP20)1267"
					},
					{
						"astId": 188,
						"contract": "task1/AMM.sol:LPTokenPool",
						"label": "DURATION",
						"offset": 0,
						"slot": "6",
						"type": "t_uint256"
					},
					{
						"astId": 191,
						"contract": "task1/AMM.sol:LPTokenPool",
						"label": "starttime",
						"offset": 0,
						"slot": "7",
						"type": "t_uint256"
					},
					{
						"astId": 195,
						"contract": "task1/AMM.sol:LPTokenPool",
						"label": "periodFinish",
						"offset": 0,
						"slot": "8",
						"type": "t_uint256"
					},
					{
						"astId": 199,
						"contract": "task1/AMM.sol:LPTokenPool",
						"label": "rewardRate",
						"offset": 0,
						"slot": "9",
						"type": "t_uint256"
					},
					{
						"astId": 202,
						"contract": "task1/AMM.sol:LPTokenPool",
						"label": "lastUpdateTime",
						"offset": 0,
						"slot": "10",
						"type": "t_uint256"
					},
					{
						"astId": 205,
						"contract": "task1/AMM.sol:LPTokenPool",
						"label": "rewardPerTokenStored",
						"offset": 0,
						"slot": "11",
						"type": "t_uint256"
					},
					{
						"astId": 210,
						"contract": "task1/AMM.sol:LPTokenPool",
						"label": "userRewardPerTokenPaid",
						"offset": 0,
						"slot": "12",
						"type": "t_mapping(t_address,t_uint256)"
					},
					{
						"astId": 215,
						"contract": "task1/AMM.sol:LPTokenPool",
						"label": "rewards",
						"offset": 0,
						"slot": "13",
						"type": "t_mapping(t_address,t_uint256)"
					}
				],
				"types": {
					"t_address": {
						"encoding": "inplace",
						"label": "address",
						"numberOfBytes": "20"
					},
					"t_contract(IBEP20)1267": {
						"encoding": "inplace",
						"label": "contract IBEP20",
						"numberOfBytes": "20"
					},
					"t_mapping(t_address,t_uint256)": {
						"encoding": "mapping",
						"key": "t_address",
						"label": "mapping(address => uint256)",
						"numberOfBytes": "32",
						"value": "t_uint256"
					},
					"t_uint256": {
						"encoding": "inplace",
						"label": "uint256",
						"numberOfBytes": "32"
					}
				}
			},
			"userdoc": {
				"kind": "user",
				"methods": {
					"DURATION()": {
						"notice": "时间周期 = 30天"
					},
					"lastTimeRewardApplicable()": {
						"notice": "如果没有到达结束时间,返回当前时间"
					},
					"lastUpdateTime()": {
						"notice": "最后更新时间"
					},
					"lpt()": {
						"notice": "GoCash LP Token合约地址"
					},
					"periodFinish()": {
						"notice": "结束时间"
					},
					"rewardPerTokenStored()": {
						"notice": "储存奖励数量"
					},
					"rewardRate()": {
						"notice": "每秒奖励数量"
					},
					"rewards(address)": {
						"notice": "用户未发放的奖励数量"
					},
					"starttime()": {
						"notice": "开始时间"
					},
					"userRewardPerTokenPaid(address)": {
						"notice": "每个质押Token支付用户的奖励"
					}
				},
				"notice": "周期30天",
				"version": 1
			}
		}
	}
}